:10000000F4C100000C94E4100C94B9100C948E1000
:100010000C9463100C9438100C940D100C94E20F97
:100020000C94B70F0C94420F0C94D30E0C945D0EED
:100030000DC200000BC2000009C2000007C2000090
:1000400005C2000003C2000001C20000FFC10000A1
:10005000FDC10000FBC10000F9C1000023C5000084
:10006000F5C100000C94F6180C94CD18EFC10000F7
:10007000EDC10000EBC10000E9C10000E7C10000D4
:10008000E5C10000E3C10000E1C10000DFC10000E4
:10009000DDC10000DBC10000D9C10000D7C10000F4
:1000A000D5C10000D3C10000D1C10000CFC1000004
:1000B000CDC10000CBC1000083C600002FC70000E7
:1000C00034C60000C3C10000C1C10000BFC10000B0
:1000D000BDC10000BBC10000B9C10000B7C1000034
:1000E000B5C10000BA03BD03AC03B003B603F4030B
:1000F000C103C503CB03CF03D303D903DD03E1035E
:10010000F403E703EB03EF03A604AB04B004BA0463
:10011000C4043D05CE04D604DE04E804F204FC0465
:100120000B0515053D051F0529053305C114D3141D
:10013000D614DD14E41412151915261533153F15C0
:100140003F153F153F153F153F153F153F153F150F
:100150003F153F153F153F153F153F153F153F15FF
:100160003F153F153F153F153F153F15C114CE14E0
:10017000D314D614DD14E414EB14F8140515084A4E
:10018000D73B3BCE016E84BCBFFDC12F3D6C7431AB
:100190009ABD56833DDA3D00C77F11BED9E4BB4C02
:1001A0003E916BAAAABE000000803F05A84CCDB2CC
:1001B000D44EB93836A9020C50B9918688083CA6AD
:1001C000AAAA2ABE000000803F0046726565204D45
:1001D000656D6F72793A20002020446972656374FE
:1001E000696F6E203D200020204572726F72203DA5
:1001F0002000202043757272656E74203D2000201F
:1002000020546172676574203D2000205370642083
:100210003D200020536F6E61722052696768742020
:100220003D2000536F6E6172204C656674203D2046
:100230000020436F6D706173732048656164696E5F
:1002400067203D2000204F726967696E616C204411
:10025000697374203D20002044697374203D2000A0
:10026000204C6F6E67203D2000204C4F4E203D20DB
:1002700000204C4154203D20000000210024002794
:10028000002A002D003000330001010000040107A6
:10029000010A01000020002300260029002C002F65
:1002A0000032000001000003010601090100010401
:1002B0000505030304050604050607010001000304
:1002C00002010000010203040506070706050403F6
:1002D00002010007020100070605040302010003F2
:1002E00002010000010203040506070001020304E5
:1002F00005060702030405060607050505050705AB
:1003000008080808020202020A0A08080404040491
:1003100001010101010101010303030303030303BD
:10032000040707070C0C0C0C0C0C0C0C020202024C
:1003300006060606060606060B0B0B0B0B0B0B0B35
:1003400001021020200808102040102040800201E7
:1003500002010804020101020408102040808040CC
:1003600020100804020180040201804020100804CB
:100370000201080402010102040810204080010269
:1003800004081020408000002200250028002B00D7
:100390002E003100340002010000050108010B01AC
:1003A00000000A0B02090C0D0E08070304010000EF
:1003B000000000000000000000000000000000003D
:1003C00000000000000000000000000012111000FA
:1003D000000000000000000000000000000000001D
:1003E000000000000000BF19A11911241FBECFEFAB
:1003F000D1E2DEBFCDBF00E00CBF12E0A0E0B2E072
:10040000ECE6F6E400E00BBF02C007900D92A83BBB
:10041000B107D9F725E0A8EBB2E001C01D92A03EDC
:10042000B207E1F711E0C4EFD1E000E006C0219788
:100430000109802FFE010E94E622C33FD10780E020
:100440000807A9F70E94FB1A0C942523D9CD3FB7C2
:10045000F89480919D0390919E03A0919F03B09189
:10046000A00326B5A89B05C02F3F19F00196A11D3A
:10047000B11D3FBFBA2FA92F982F8827820F911D3A
:10048000A11DB11DBC01CD0142E0660F771F881F81
:10049000991F4A95D1F708955091B5054091B4053B
:1004A000852F90E0242F30E0541710F4805B9F4F8D
:1004B000821B930B08958091B505E091B4058E17CA
:1004C00051F0EF5FE03508F0E0E0F0E0E85BFC4F72
:1004D000808190E008958FEF9FEF08958091B5059A
:1004E0009091B405891769F09F5F903508F090E00E
:1004F000E92FF0E0E85BFC4F80819093B40590E039
:1005000008958FEF9FEF08958091B3058111FCCF7F
:1005100008958091B2058F5F843408F080E0909157
:10052000B1059817E1F32FB7F8949091B30599238B
:1005300041F0E82FF0E0E250FD4F60838093B20578
:100540001DC081E08093B305609343031092420382
:1005500082E08ABB809173008260809373008091F7
:1005600020018F73806880932001809124019091F5
:100570002501409690932901809328012FBF81E0A7
:1005800090E00895089580E090E008954F925F9282
:100590006F927F928F929F92AF92BF92CF92DF9293
:1005A000EF92FF92CF93DF93CDB7DEB72C970FB6C4
:1005B000F894DEBF0FBECDBF2091D2023091D3029E
:1005C0004091D4025091D5026091CA027091CB0241
:1005D0008091CC029091CD020E94922025E33AEFC7
:1005E0004EE85CE30E948E1F2B013C0125E33AEFAD
:1005F0004EE85CE36091D6027091D7028091D802F8
:100600009091D9020E948E1F4B015C0125E33AEFC5
:100610004EE85CE36091C6027091C7028091C80207
:100620009091C9020E948E1F6B017C01C301B2012F
:100630000E945E226D837E838F839887C701B601F7
:100640000E94592169837A838B839C83C501B401FD
:100650000E945E2269877A878B879C87C301B201DB
:100660000E9459212B013C0129813A814B815C81F7
:1006700069857A858B859C850E948E1FA3019201D6
:100680000E948E1F2B013C01C501B4010E9459211B
:100690004B015C01C701B6010E945E229B01AC01C7
:1006A000C501B4010E948E1FA30192010E949220F5
:1006B0006B017C0129813A814B815C816D817E8156
:1006C0008F8198850E948E1FA70196010E940621A6
:1006D0006B017C0120E030E0A9010E94291F87FF07
:1006E0000AC02BED3FE049EC50E4C701B6010E947F
:1006F00093206B017C0121EE3EE245E652E4C70106
:10070000B6010E948E1F0E94C4217093CF02609395
:10071000CE02CB012C960FB6F894DEBF0FBECDBF34
:10072000DF91CF91FF90EF90DF90CF90BF90AF908F
:100730009F908F907F906F905F904F90089590E082
:10074000FC013197E231F10508F04EC08827EE58E0
:10075000FF4F8F4F0C94E622809180008F7703C06B
:10076000809180008F7D809380000895809180002B
:10077000877FF9CF84B58F7702C084B58F7D84BD24
:1007800008958091B0008F7703C08091B0008F7D75
:100790008093B0000895809190008F7707C080917A
:1007A00090008F7D03C080919000877F80939000A0
:1007B00008958091A0008F7707C08091A0008F7D61
:1007C00003C08091A000877F8093A000089580914E
:1007D00020018F7707C0809120018F7D03C0809119
:1007E0002001877F8093200108950F931F93CF935B
:1007F000DF93082F70E0FB01E056FC4F8491FB0172
:10080000E05CFC4FD491FB01E650FD4FC49110E039
:10081000CC23D1F0811193DFEC2FF0E0EE0FFF1F1E
:10082000ED56FD4FA591B491EC91ED2369F00FDEEB
:10083000000F111F000F111FF801E854FD4F6083D6
:1008400071838283938313C002DEF801EE0FFF1FD2
:10085000EE0FFF1FE854FD4F20813181621B730BA7
:10086000000F111FF801E554FA4F71836083DF9187
:10087000CF911F910F91089563E481E0B6CF62E4B8
:1008800080E0B3CFCF93DF9390E0FC01E05CFC4FBE
:100890002491FC01E650FD4F8491882361F190E0A2
:1008A000880F991FFC01E758FD4FC591D491FC01B9
:1008B000EA57FC4FA591B491611109C09FB7F89414
:1008C0008881209582238883EC912E230BC062308F
:1008D00061F49FB7F8943881822F809583238883B1
:1008E000EC912E2B2C939FBF06C08FB7F894E88114
:1008F0002E2B28838FBFDF91CF9108951F93CF9325
:10090000DF93182FEB0161E0BDDF209711F460E069
:1009100004C0CF3FD10539F461E0812FDF91CF9141
:100920001F910C942C19E12FF0E0E056FC4FE4915C
:100930004E2F50E0FA013197E231F10508F09DC0E9
:100940008827EC57FF4F8F4F0C94E62284B58068C0
:1009500084BDC7BD97C084B5806284BDC8BD92C048
:1009600080918000806880938000D0938900C0933C
:10097000880088C080918000806280938000D0933E
:100980008B00C0938A007EC0809180008860809335
:100990008000D0938D00C0938C0074C08091B00013
:1009A00080688093B000C093B3006CC08091B000A9
:1009B00080628093B000C093B40064C080919000C6
:1009C000806880939000D0939900C09398005AC09B
:1009D00080919000806280939000D0939B00C093A0
:1009E0009A0050C080919000886080939000D093CE
:1009F0009D00C0939C0046C08091A00080688093B9
:100A0000A0008091A0008F7B8093A000D093A900CC
:100A1000C093A80037C08091A00080628093A0009E
:100A2000D093AB00C093AA002DC08091A000886035
:100A30008093A000D093AD00C093AC0023C0809100
:100A40002001806880932001D0932901C093280160
:100A500019C080912001806280932001D0932B01E6
:100A6000C0932A010FC080912001886080932001EB
:100A7000D0932D01C0932C0105C0C038D1050CF0D6
:100A80004BCF45CFDF91CF911F9108952FB7F894A9
:100A90006091990370919A0380919B0390919C03BC
:100AA0002FBF08951F920F920FB60F9211242F930C
:100AB0003F938F939F93AF93BF93809199039091AE
:100AC0009A03A0919B03B0919C033091980323E07B
:100AD000230F2D3720F40196A11DB11D05C026E876
:100AE000230F0296A11DB11D2093980380939903B3
:100AF00090939A03A0939B03B0939C0380919D03D2
:100B000090919E03A0919F03B091A0030196A11D17
:100B1000B11D80939D0390939E03A0939F03B09378
:100B2000A003BF91AF919F918F913F912F910F9013
:100B30000FBE0F901F901895CF93DF93EC018A851D
:100B40009B85AC85BD858E839F83A887B9879EDFF3
:100B50006A837B838C839D8381E089838883DF9193
:100B6000CF9108952F923F924F925F926F927F9212
:100B70008F929F92AF92BF92CF92DF92EF92FF92AD
:100B80000F931F93CF93DF93D82FC92F8B010E9410
:100B9000EE1E24E630E040E050E00E945120490182
:100BA0005A019B01AC0160E876E988E990E00E9477
:100BB00042206B017C01F80191828082ED2FFC2F95
:100BC0002191822F022E000C990BC0970A97C0F337
:100BD0002E3239F51F0180E8882E86E9982E88E9A3
:100BE000A82EB12C9AE0492E512C612C712CF101C8
:100BF000C1911F010C2E000CDD0BE097CA30D1050E
:100C000080F4C501B401A30192010E945120490161
:100C10005A01DE010E947D20C60ED71EE81EF91E75
:100C2000E6CFA5E0B0E0A70196010E9473206F5FB8
:100C30007F4F8F4F9F4F23E030E040E050E00E9415
:100C40005120F80122833383448355831682DF9138
:100C5000CF911F910F91FF90EF90DF90CF90BF90B9
:100C6000AF909F908F907F906F905F904F903F904C
:100C70002F900895FF920F931F93CF93DF93EC0172
:100C8000FF24F39488818D3211F0F12C01C021965C
:100C9000CE010E94EE1E9B01AC01A4E6B0E00E94D2
:100CA0007320FE014991242F042E000C330B205396
:100CB00031092A303105A8F34E3241F52181022E47
:100CC000000C330B205331092A303105F8F44AE087
:100CD000429F8001439F100D1124012E000C220B16
:100CE000330B600F711F821F931F0281002E000CB7
:100CF000110B005311090A30110540F4012E000CAC
:100D0000220B330B600F711F821F931FFF2039F0DE
:100D100090958095709561957F4F8F4F9F4FDF9194
:100D2000CF911F910F91FF9008951F920F920FB6D0
:100D30000F9211240BB60F922F938F939F93EF93E3
:100D4000FF93809173008B7F8093730080912101CA
:100D50008F7B809321018091B60520914703205815
:100D600090914603893020F49695922B8F5FFACFAD
:100D7000909346038091B5058F5F803508F080E041
:100D80002091B405821739F0E82FF0E0E85BFC4FC2
:100D900090838093B5051092B605809121018F7BD9
:100DA0008093210110924703FF91EF919F918F91C2
:100DB0002F910F900BBE0F900FBE0F901F901895A4
:100DC0001F920F920FB60F9211240BB60F922F9312
:100DD0003F934F935F936F937F938F939F93AF93C3
:100DE000BF93EF93FF93809126019091270140914B
:100DF000470320912101442331F02F7B20932101CF
:100E00001092470306C020642093210120E820931C
:100E100047033091B605311125C041116CC02091B6
:100E2000B7053091B805280F391F30932B01209357
:100E30002A0124E02ABB20917300246020937300D0
:100E40002091B9053091BA05820F931F36952795E9
:100E5000820F931F909345038093440381E0809316
:100E6000B60549C040914403509145036091B905CE
:100E70007091BA05DB01A095B095E09147032091F0
:100E80004603841B950BA817B90768F126952E2BEE
:100E9000460F571F3F5F861B970B3930A0F32093F7
:100EA0004603809173008B7F809373008091B5051A
:100EB0008F5F803508F080E09091B405891749F084
:100EC000E82FF0E090914603E85BFC4F908380931D
:100ED000B505809121018F7B8093210110924703FA
:100EE0001092B60508C020934603509345034093E3
:100EF00044033093B605FF91EF91BF91AF919F915D
:100F00008F917F916F915F914F913F912F910F90B2
:100F10000BBE0F900FBE0F901F9018951F920F924F
:100F20000FB60F9211240BB60F922F933F934F934E
:100F30005F936F937F938F939F93EF93FF93809132
:100F4000B30560914303209128013091290140911C
:100F5000B9055091BA05909142038A30F8F4240FF4
:100F6000351F893019F0762F717001C071E06695D8
:100F70008F5F791791F390912001772311F0906C96
:100F800002C09F73906890932001309329012093B1
:100F9000280170934203609343034AC09091B205C5
:100FA000E091B1059E1319C08A3051F48BE0809313
:100FB000B305240F351F30932901209328013AC02F
:100FC0001092B305809120018F738093200180914E
:100FD00073008D7F809373002DC0EF5FE43408F0C1
:100FE000E0E0E093B105F0E0E250FD4F9081909396
:100FF000430310924203909120019F739068909355
:1010000020018A3059F48091B9059091BA05280FD2
:10101000391F309329012093280109C080912401B0
:10102000909125014096909329018093280181E0B9
:101030008093B305FF91EF919F918F917F916F9175
:101040005F914F913F912F910F900BBE0F900FBE6C
:101050000F901F901895CF92DF92EF92FF928AEA3D
:1010600090E09093C5058093C4056AEA70E08CE037
:1010700045DC8091BF0581113CC082E090E09093F7
:101080000702809306026FEF70E089E037DCFEDC38
:101090006B017C018091E6029091E702A091E80249
:1010A000B091E902A7019601281B390B4A0B5B0B93
:1010B000CA01B9010E942D1F2CEF32EF48ED5EE30B
:1010C0000E94532287FD15C083E690E090930702AB
:1010D000809306026FE770E089E010DC81E0809386
:1010E000BF05C092E602D092E702E092E802F092D9
:1010F000E902FF90EF90DF90CF900895CF92DF92BA
:10110000EF92FF920F931F93CF93DF93C09106024C
:10111000D0910702C336D10509F076C01092BF0501
:1011200080910202909103028130910591F56FEF59
:1011300070E089E0E3DBAADC6B017C018091EE02C8
:101140009091EF02A091F002B091F102A7019601F7
:10115000281B390B4A0B5B0BCA01B9010E942D1FDA
:101160002CEF32EF48ED5EE30E94532287FD45C02D
:101170006FE770E089E0C2DBC092EE02D092EF022E
:10118000E092F002F092F102D0930702C0930602BF
:1011900034C0029791F560E070E089E0AFDB76DC67
:1011A0006B017C018091EA029091EB02A091EC022C
:1011B000B091ED02A7019601281B390B4A0B5B0B7E
:1011C000CA01B9010E942D1F2CEF32EF48ED5EE3FA
:1011D0000E94532287FD15C06FE770E089E08EDB27
:1011E000C092EA02D092EB02E092EC02F092ED02A1
:1011F000D0930702C093060204C06FE770E089E055
:101200007DDB83E690E056C0C130D10509F057C0C0
:101210008091020290910302029709F049C003E60F
:1012200010E0109307020093060268DFD0930702D4
:10123000C09306028AEA90E09093C5058093C405A6
:101240006AEA70E08CE05ADB60E070E089E056DB2F
:101250001DDC6B017C018091F2029091F302A09160
:10126000F402B091F502A7019601281B390B4A0B35
:101270005B0BCA01B9010E942D1F2CEF32EF48ED24
:101280005EE30E94532287FD13C010930702009370
:1012900006026FE770E089E031DB81E08093BF05F3
:1012A000C092F202D092F302E092F402F092F502C0
:1012B00082E090E0909303028093020216C0C23055
:1012C000D10599F48091020290910302019781F770
:1012D00083E690E090930702809306020FDFD0939D
:1012E0000702C0930602B7DEE3CFDF91CF911F91D3
:1012F0000F91FF90EF90DF90CF9008958F929F9283
:10130000AF92BF92CF92DF92EF92FF926B017C017E
:10131000BDDB4B015C018EEC94E0BED8892B31F033
:101320008EEC94E0DBD80E94B612F5CFE7DEAEDBA0
:10133000DC01CB0188199909AA09BB098C159D0507
:10134000AE05BF0540F3FF90EF90DF90CF90BF90C8
:10135000AF909F908F900895CF92DF92EF92FF927F
:1013600060E08AE20E942C1991DB6B017C01809184
:10137000FA029091FB02A091FC02B091FD02A7013C
:101380009601281B390B4A0B5B0BDA01C901883E19
:101390009340A105B10588F061E08AE20E942C1912
:1013A00064E670E080E090E0A9DFC092FA02D0929B
:1013B000FB02E092FC02F092FD02FF90EF90DF90C2
:1013C000CF900895CF92DF92EF92FF9260E08AE291
:1013D0000E942C195BDB6B017C018091F6029091DD
:1013E000F702A091F802B091F902A7019601281B1B
:1013F000390B4A0B5B0BDA01C90180339547A10514
:10140000B10588F061E08AE20E942C1964E670E080
:1014100080E090E073DFC092F602D092F702E09293
:10142000F802F092F902FF90EF90DF90CF900895CC
:101430008091CE029091CF022091CE053091CF05C0
:10144000821B930B8C342FEF920714F488599E4F14
:101450009093C3058093C2058091C2059091C30506
:10146000853B910534F0885691409093C305809355
:10147000C2058091C2059091C3059C012B5F3F4F2F
:101480002B30310518F483E690E00DC097FF09C0BA
:1014900081E090E090930702809306021092BF05CE
:1014A000089582E090E090930702809306020895E9
:1014B000CF92DF92EF92FF920F931F93CF93DF9320
:1014C00060E082E20E942C1983E090E00197F1F73E
:1014D00061E082E20E942C1983E290E00197F1F72B
:1014E00060E082E20E942C1983E20E94B3156C3CFA
:1014F00026E072078105910524F46CEC76E080E02B
:1015000090E0CB016AE370E00E94D322EB017B0103
:10151000072E000C880B990B0E942F1F2DEC3CEC22
:1015200041E353E40E94291F87FF04C081E08093B8
:10153000C10502C01092C1056497C53482E0D80786
:1015400020F4A99720F408DF02C0E12CF12CE092EE
:10155000C202F092C30260E084E20E942C1983E090
:1015600090E00197F1F761E084E20E942C1983E298
:1015700090E00197F1F760E084E20E942C1985E287
:101580000E94B3156B017C016C3C7640810591058E
:1015900034F44CECC42E46E0D42EE12CF12C2DEC8E
:1015A0003CEC41E353E460E070E0CB010E94291F72
:1015B00087FF04C081E08093C00502C01092C0057F
:1015C000C6016AE370E00E94D322EB01072E000CF3
:1015D000880B990B0E942F1F6B017C0120E030E0EB
:1015E00046E154E40E94291F1816B4F020E030E0D0
:1015F00040EA51E4C701B6010E94532287FD0CC0A6
:1016000020E030E040E752E4C701B6010E94291F04
:1016100018160CF0A1DE8E011093C1020093C002D7
:101620006091C2027091C302072E000C880B990BC7
:101630000E942F1F20E030E040E250E40E945C2135
:101640000E94C421EB017093CD056093CC05B801D5
:10165000110F880B990B0E942F1F20E030E040E211
:1016600050E40E945C210E94C4219B017093C90533
:101670006093C805CC3ED10534F080EF90E09093A4
:10168000CD058093CC052C3E310534F080EF90E001
:101690009093C9058093C8052091CC053091CD0564
:1016A0008091CA059091CB05820F931F97FD0196FB
:1016B000959587959093CB058093CA052091C80591
:1016C0003091C9058091C6059091C705820F931F7F
:1016D00097FD0196959587959093C7058093C605CC
:1016E000DF91CF911F910F91FF90EF90DF90CF90FE
:1016F0000895CF92DF92EF92FF921092DB046091F7
:10170000DC047091DD0480E090E00E942D1F6B01ED
:101710007C016091DE047091DF048091E00490917F
:10172000E1040E942D1F28E23BE64EE65EE40E94A3
:101730005C219B01AC01C701B6010E94932020915E
:10174000E204DC01CB012111B0588093D6029093C2
:10175000D702A093D802B093D9026091E3047091AC
:10176000E40480E090E00E942D1F6B017C016091F9
:10177000E5047091E6048091E7049091E8040E94EA
:101780002D1F28E23BE64EE65EE40E945C219B01B1
:10179000AC01C701B6010E9493202091E904DC014D
:1017A000CB012111B0588093D2029093D302A09321
:1017B000D402B093D5021092270506D0FF90EF9087
:1017C000DF90CF900C94C6024F925F926F927F92FF
:1017D0008F929F92AF92BF92CF92DF92EF92FF9241
:1017E000CF93DF93CDB7DEB760970FB6F894DEBF27
:1017F0000FBECDBF2091CA023091CB024091CC02E6
:101800005091CD026091D2027091D3028091D402A6
:101810009091D5020E94922025E33AEF4EE85CE3D6
:101820000E948E1F6B017C010E945E226D877E8765
:101830008F87988BC701B6010E94592169837A83EB
:101840008B839C8325E33AEF4EE85CE36091D602FC
:101850007091D7028091D8029091D9020E948E1F78
:101860006B017C0125E33AEF4EE85CE36091C60230
:101870007091C7028091C8029091C9020E948E1F88
:101880002B013C01C701B6010E945E224B015C01A5
:10189000C701B6010E9459216D837E838F8398878B
:1018A000C301B2010E945E2269877A878B879C8779
:1018B000C301B2010E9459216B017C0129853A853F
:1018C0004B855C856D817E818F8198850E948E1FFE
:1018D0002B013C01A7019601C501B4010E948E1F96
:1018E00029813A814B815C810E948E1F9B01AC0152
:1018F000C301B2010E9492209B01AC010E948E1F85
:101900002B013C012D853E854F855889C701B601C5
:101910000E948E1F9B01AC010E948E1F9B01AC0197
:10192000C301B2010E9493200E9468222B013C0156
:1019300029853A854B855C85C501B4010E948E1FBF
:101940004B015C01A70196016D817E818F81988595
:101950000E948E1F29813A814B815C810E948E1FDB
:101960009B01AC01C501B4010E9493209B01AC0115
:10197000C301B2010E94062126E73BE742EC5AE48C
:101980000E948E1F0E94C92128EE33E040E050E003
:101990000E94512049015A01263031054105510567
:1019A00008F05CC0E0900002F0900102EFEFEE1A48
:1019B000FE0AF0920102E0920002F70183E0EE0FCE
:1019C000FF1F8A95E1F7E957FA4F64817581868197
:1019D00097816093C6027093C7028093C802909368
:1019E000C90240805180628073804092CA02509246
:1019F000CB026092CC027092CD0220E030E0A901CF
:101A00000E94291F811109C020E030E0A901C30113
:101A1000B2010E94291F882321F0F5E0EF16F1049E
:101A20008CF06FE770E089E00E947E0483E690E02E
:101A300090930702809306026FE770E08CE00E94AB
:101A40007E04FFCF56DEC0DE9093D1028093D00299
:101A50009093C5028093C4020E94C602C40160969E
:101A60000FB6F894DEBF0FBECDBFDF91CF91FF90D0
:101A7000EF90DF90CF90BF90AF909F908F907F902E
:101A80006F905F904F9008950F931F93CF93DF93C4
:101A90001F921F92CDB7DEB78091DE0281110DC07B
:101AA0000E9446056093DA027093DB028093DC02A9
:101AB0009093DD0281E08093DE020E944605009152
:101AC000DA021091DB022091DC023091DD02601716
:101AD00071078207930740F46093DA027093DB0288
:101AE0008093DC029093DD026CE272E089EE93E079
:101AF0000E948417109243058091480590914905F2
:101B00000E94631681E792E010D56091D602709131
:101B1000D7028091D8029091D90242E00E949E168D
:101B200089E692E002D56091D2027091D302809151
:101B3000D4029091D50242E00E949E166FE872E0B6
:101B400089EE93E00E94B81868E372E089EE93E0B2
:101B50000E948417E0910002F091010283E0EE0FF1
:101B6000FF1F8A95E1F7E957FA4F648175818681F5
:101B7000978142E00E949E1680E692E0D6D4E091E2
:101B80000002F091010293E0EE0FFF1F9A95E1F73A
:101B9000E957FA4F608171818281938142E00E940E
:101BA0009E166FE872E089EE93E00E94B81887E510
:101BB00092E0BBD409DE0E94631685E492E0B5D4BE
:101BC0008091D0029091D1020E94631681E392E04D
:101BD000ACD46FE872E089EE93E00E94B81880916F
:101BE000CE059091CF050E94631683E292E09DD4CA
:101BF0008091CA059091CB050E94271683E192E05F
:101C000094D48091C6059091C7050E9427168BE059
:101C100092E08BD480910402909105020E94631699
:101C20008FEF91E082D48091CE029091CF020E94FA
:101C3000631682EF91E079D48091CE059091CF0523
:101C40000E94631687EE91E070D48091C205909156
:101C5000C305FDD788ED91E068D48091060290918C
:101C600007028336910519F468E472E00AC08230F5
:101C7000910519F461E572E004C0019731F467E55C
:101C800072E089EE93E00E9472178AEC91E04DD4E5
:101C90002091DC053091DD052115310511F420EE90
:101CA00035E0CE010196821B930BD1D70F900F9098
:101CB000DF91CF911F910F9108951F920F920FB650
:101CC0000F9211240BB60F922F933F934F935F9374
:101CD0006F937F938F939F93AF93BF93CF93EF9324
:101CE000FF9320910601C091B1039091E60380918A
:101CF000E303322F309583239223892B90916D003B
:101D0000C227C923C8232093B103CC23C1F1C0FF4C
:101D100005C0E091B203F091B3031995C1FF05C06E
:101D2000E091B403F091B5031995C2FF05C0E091AD
:101D3000B603F091B7031995C3FF05C0E091B8034E
:101D4000F091B9031995C4FF05C0E091BA03F09171
:101D5000BB031995C5FF05C0E091BC03F091BD031D
:101D60001995C6FF05C0E091BE03F091BF03199518
:101D7000C7FF05C0E091C003F091C1031995FF9121
:101D8000EF91CF91BF91AF919F918F917F916F9183
:101D90005F914F913F912F910F900BBE0F900FBE0F
:101DA0000F901F9018951F920F920FB60F9211244B
:101DB0000BB60F922F933F934F935F936F937F9345
:101DC0008F939F93AF93BF93CF93EF93FF93209104
:101DD0000301C091C3039091E7038091E403322F84
:101DE000309583239223892B9091C203C227C92364
:101DF000C8232093C303CC2389F1C0FF05C0E09121
:101E0000C403F091C5031995C1FF05C0E091C60355
:101E1000F091C7031995C2FF05C0E091C803F09186
:101E2000C9031995C3FF05C0E091CA03F091CB0324
:101E30001995C4FF05C0E091CC03F091CD0319952D
:101E4000C5FF05C0E091CE03F091CF031995C6FF01
:101E500005C0E091D003F091D1031995FF91EF9166
:101E6000CF91BF91AF919F918F917F916F915F9132
:101E70004F913F912F910F900BBE0F900FBE0F907F
:101E80001F9018951F920F920FB60F9211240BB648
:101E90000F922F933F934F935F936F937F938F9303
:101EA0009F93AF93BF93CF93EF93FF9323B1C091D1
:101EB000D2039091E8038091E503322F309583237C
:101EC0009223892B90916B00C227C923C8232093AA
:101ED000D203CC23C1F1C0FF05C0E091D303F09140
:101EE000D4031995C1FF05C0E091D503F091D60345
:101EF0001995C2FF05C0E091D703F091D803199559
:101F0000C3FF05C0E091D903F091DA031995C4FF2E
:101F100005C0E091DB03F091DC031995C5FF05C016
:101F2000E091DD03F091DE031995C6FF05C0E09155
:101F3000DF03F091E0031995C7FF05C0E091E103CD
:101F4000F091E2031995FF91EF91CF91BF91AF917D
:101F50009F918F917F916F915F914F913F912F91C1
:101F60000F900BBE0F900FBE0F901F9018951F92F1
:101F70000F920FB60F9211240BB60F922F933F932F
:101F80004F935F936F937F938F939F93AF93BF9381
:101F9000EF93FF93E091AF03F091B0031995FF9198
:101FA000EF91BF91AF919F918F917F916F915F91D1
:101FB0004F913F912F910F900BBE0F900FBE0F903E
:101FC0001F9018951F920F920FB60F9211240BB607
:101FD0000F922F933F934F935F936F937F938F93C2
:101FE0009F93AF93BF93EF93FF93E091AD03F09175
:101FF000AE031995FF91EF91BF91AF919F918F9192
:102000007F916F915F914F913F912F910F900BBEF8
:102010000F900FBE0F901F9018951F920F920FB642
:102020000F9211240BB60F922F933F934F935F9310
:102030006F937F938F939F93AF93BF93EF93FF9390
:10204000E091AB03F091AC031995FF91EF91BF9133
:10205000AF919F918F917F916F915F914F913F9140
:102060002F910F900BBE0F900FBE0F901F901895E1
:102070001F920F920FB60F9211240BB60F922F934F
:102080003F934F935F936F937F938F939F93AF9300
:10209000BF93EF93FF93E091A903F091AA031995E1
:1020A000FF91EF91BF91AF919F918F917F916F9130
:1020B0005F914F913F912F910F900BBE0F900FBEEC
:1020C0000F901F9018951F920F920FB60F92112428
:1020D0000BB60F922F933F934F935F936F937F9322
:1020E0008F939F93AF93BF93EF93FF93E091A703D9
:1020F000F091A8031995FF91EF91BF91AF919F9136
:102100008F917F916F915F914F913F912F910F90A0
:102110000BBE0F900FBE0F901F9018951F920F923D
:102120000FB60F9211240BB60F922F933F934F933C
:102130005F936F937F938F939F93AF93BF93EF932F
:10214000FF93E091A503F091A6031995FF91EF91FC
:10215000BF91AF919F918F917F916F915F914F91BF
:102160003F912F910F900BBE0F900FBE0F901F90BD
:1021700018951F920F920FB60F9211240BB60F9263
:102180002F933F934F935F936F937F938F939F937F
:10219000AF93BF93EF93FF93E091A303F091A40358
:1021A0001995FF91EF91BF91AF919F918F917F9181
:1021B0006F915F914F913F912F910F900BBE0F90B8
:1021C0000FBE0F901F9018951F920F920FB60F928F
:1021D00011240BB60F922F933F934F935F936F93FE
:1021E0007F938F939F93AF93BF93EF93FF93E09170
:1021F000A103F091A2031995FF91EF91BF91AF91C7
:102200009F918F917F916F915F914F913F912F910E
:102210000F900BBE0F900FBE0F901F901895E0917E
:10222000E903F091EA030190F081E02D682F89EE37
:1022300093E01994E9EEF3E0A089B18982E08C93F0
:10224000A485B5851C92A685B78580E18C93108EF8
:10225000A489B58986E08C93A289B3898C91806129
:102260008C93A289B3898C9188608C93A289B3895D
:102270008C9180688C930288F389E02D80818F7D1A
:10228000808308958F779EEF980F923008F4A4C052
:1022900095EB980F923008F49FC09EEE980F943003
:1022A00008F49AC0282F30E0F901863420F0E65C6B
:1022B000FC4F849116C0E05CFC4F8491F901E6501C
:1022C000FD4F9491923059F44091E803482B40938C
:1022D000E8034091E503482B4093E5031AC09A3088
:1022E00061F49091E703982B9093E7039091E403B6
:1022F000982B9093E4039AE00CC09B3051F44091EA
:10230000E603482B4093E6034091E303482B4093B8
:10231000E303F901E355FD4FA4919230C1F4B0E01D
:10232000AA0FBB1FAD52BC4F6D937C93E7E9F2E05F
:10233000A591B4919C919093D2032BE630E0309319
:10234000B0052093AF059091680091603BC09A3032
:1023500001F5B0E0AA0FBB1FAC53BC4F6D937C934B
:10236000E7EAF2E0A591B4919C919093C3032CE627
:1023700030E03093B0052093AF05909168009260F3
:10238000909368009091C203982B9093C203880F9A
:102390001BC09B30C9F4B0E0AA0FBB1FAE54BC4FAA
:1023A0006D937C93E9EAF2E0A591B4919C919093AE
:1023B000B1032DE630E03093B0052093AF05909146
:1023C0006800946090936800A091AF05B091B0054B
:1023D000EC918E2B8C9308959FB7F894833109F478
:1023E0005BC0D8F4833009F47BC0823109F466C045
:1023F000823009F098C07093AA036093A903EC9807
:1024000080916A008C7F80936A0080916A0081606D
:1024100080936A00E49AEC9A86C08531C9F050F145
:102420008B3409F46FC08C3409F07DC07093B00315
:102430006093AF03EF9880916A008F7380936A0076
:1024400080916A00806480936A00E79AEF9A6BC07B
:102450007093A2036093A103E898809169008C7F38
:102460008093690080916900816080936900E09A9F
:10247000E89A59C07093A4036093A303E9988091EC
:102480006900837F809369008091690084608093F4
:102490006900E19AE99A47C07093A6036093A50387
:1024A000EA98809169008F7C80936900809169002F
:1024B000806180936900E29AEA9A35C07093A8031C
:1024C0006093A703EB98809169008F7380936900F4
:1024D00080916900806480936900E39AEB9A23C03D
:1024E0007093AC036093AB03ED9880916A00837F97
:1024F00080936A0080916A00846080936A00E59A04
:10250000ED9A11C07093AE036093AD03EE98809185
:102510006A008F7C80936A0080916A00806180935A
:102520006A00E69AEE9A9FBF08950F931F93CF9388
:10253000DF938C01C0E0D0E0F801EC0FFD1F649147
:10254000662371F0E091E903F091EA030190F081D4
:10255000E02D89EE93E01995892B11F02196ECCFAF
:10256000CE01DF91CF911F910F910895EF92FF92CD
:102570000F931F93CF93DF93409177055091780588
:102580006091790570917A054F5F5F4F6F4F7F4F74
:1025900040937705509378056093790570937A0599
:1025A000843209F4A6C2E0917105853234F48A3090
:1025B00071F08D3009F0ABC20AC08A3241F08C3222
:1025C00009F0A5C290915E05982790935E05082FAB
:1025D000EF3008F074C1F0E0E05AFA4F10828091B9
:1025E0005F05882309F46DC1209160053FEB320F30
:1025F000822F022E000C990B363010F4C79707C0BB
:102600002156263018F48755910901C0C097282F0C
:102610002295207F309161054FEB430F832F032ECE
:10262000000C990B463010F4C79707C0315636306E
:1026300018F48755910901C0C097820F90915E05EB
:1026400089132AC18091830590918405A091850505
:10265000B09186050196A11DB11D809383059093CD
:102660008405A0938505B093860580917205882323
:1026700099F080917B0590917C05A0917D05B091AA
:102680007E050196A11DB11D80937B0590937C056D
:10269000A0937D05B0937E0510916F05112309F479
:1026A0006BC0113009F0D2C08091020590910305F2
:1026B000A0910405B09105058093FE049093FF045A
:1026C000A0930005B09301050E944605609306059E
:1026D0007093070580930805909309051093FD04F6
:1026E0001093FC048091100590911105A0911205A2
:1026F000B091130580930C0590930D05A0930E05E2
:10270000B0930F050E94460560931405709315055C
:10271000809316059093170510930B0510930A05E7
:1027200080917205882309F491C087E0EAEEF4E015
:10273000ACEDB4E001900D928A95E1F787E0E1EF0E
:10274000F4E0A3EEB4E001900D928A95E1F70E94C7
:1027500046056093F8047093F9048093FA0490930B
:10276000FB041093DB041093DA0488E195E00E94E7
:102770009C0586E295E068C0809110059091110556
:10278000A0911205B091130580930C0590930D054F
:10279000A0930E05B0930F050E94460560931405A3
:1027A00070931505809316059093170511E010930B
:1027B0000B0510930A0580917205882321F187E0AB
:1027C000EAEEF4E0ACEDB4E001900D928A95E1F709
:1027D00087E0E1EFF4E0A3EEB4E001900D928A957A
:1027E000E1F70E9446056093F8047093F904809322
:1027F000FA049093FB041093DB041093DA0484E34F
:1028000095E00E949C0580914C0590914D05A0910A
:102810004E05B0914F058093480590934905A093CC
:102820004A05B0934B050E9446056093440570939A
:102830004505809346059093470581E080934305C5
:102840008093420580E595E00E949C05C091750546
:10285000D091760511E0209709F43CC1E09175050F
:10286000F091760566A177A18EA19FA10E94062313
:10287000892B09F02FC1BE01CE0140960E940F2383
:102880000E94460568A379A38AA39BA31DA31CA34A
:102890000AA4DBA5C02DDFCF80917F059091800534
:1028A000A0918105B09182050196A11DB11D809373
:1028B0007F0590938005A0938105B093820590E0F9
:1028C0000AC180917005811142C06CE572E080E61A
:1028D00095E00E940623892B41F062E672E080E6D3
:1028E00095E00E940623892B11F481E014C068E66C
:1028F00072E080E695E00E940623892B41F06EE6A7
:1029000072E080E695E00E940623892B19F410926C
:102910006F0503C082E080936F05809173059091ED
:1029200074059093760580937505C0917505D091D7
:102930007605209721F2EEA0FFA060E675E0C701C2
:102940000E94062397FFF9C08AA59BA5EACFE091D4
:102950006F05E23009F493C090916005992309F462
:102960008EC020E2E29FF0011124E82B3197E9327A
:10297000F10508F084C08827EA56FF4F8F4F0C946A
:10298000E62280E695E00E943A0660931005709377
:102990001105809312059093130571C081E0913465
:1029A00009F043C043C06AEE74E009C081E093358A
:1029B00009F080E08093F00462C061EF74E080E68B
:1029C00095E00E94B2055BC081E0973509F080E098
:1029D0008093F70454C080E695E00E943A06609325
:1029E000220570932305809324059093250547C005
:1029F00080E695E00E943A066093300570933105B9
:102A000080933205909333053AC080E695E00E94AA
:102A1000EE1E609302057093030580930405909366
:102A200005052DC081E091330CF480E080937205A0
:102A300026C080E695E00E94EE1E60934C057093E0
:102A40004D0580934E0590934F0519C080E695E0A3
:102A50000E943A0660935A0570935B0580935C056B
:102A600090935D050CC080E695E00E943A06609365
:102A70003E0570933F058093400590934105C091BA
:102A80007505D0917605209709F419CFE091750569
:102A9000F091760566A177A18EA19FA10E940623E1
:102AA000892B09F00CCF28A539A58091700590E0FD
:102AB000821793070CF403CF2817390739F440E144
:102AC00050E060E675E0CE010E9416230AA4DBA563
:102AD000C02DD9CF91E0809170058F5F80937005F4
:102AE0001092710581E00A3209F080E080935F0561
:102AF00032C0109271051092700510925E0582E04E
:102B000080936F0510925F051092720514C0EE302D
:102B100040F491E09E0F90937105F0E0E05AFA4F77
:102B2000808390915F05911106C020915E058227F8
:102B300080935E0510C090E00EC060E675E0C701AE
:102B40000E940623181619060CF0B9CE10927605CD
:102B500010927505B4CE892FDF91CF911F910F91FF
:102B6000FF90EF9008950F931F9390E0FC01E05CBD
:102B7000FC4F6491FC01E650FD4FE491F0E0EE0F54
:102B8000FF1FED56FD4F8591949100E412E42FE074
:102B900030E0462F91D3611571058105910549F00B
:102BA000DC01CB010196A11DB11DBC01CD019F70BF
:102BB00003C060E070E0CB011F910F9108954F9228
:102BC0005F926F927F92EF92FF920F931F93CF933A
:102BD000DF93CDB7DEB7A1970FB6F894DEBF0FBE77
:102BE000CDBF7C01FA01CB0119A2223008F42AE002
:102BF0008E010F5D1F4F422E512C612C712CBF0195
:102C0000A30192010E945120F901CA01015011094A
:102C10006A3014F4605D01C0695CD8016C93232BA9
:102C2000242B252B61F7B801C701A2D2A1960FB6BC
:102C3000F894DEBF0FBECDBFDF91CF911F910F91F2
:102C4000FF90EF907F906F905F904F9008950F935B
:102C50001F93CF93DF9300D01F92CDB7DEB7AC01A7
:102C6000990F660B770B77FF19C08DE249835A8362
:102C70006B837C83D4DA8C0149815A816B817C819E
:102C800070956095509541955F4F6F4F7F4F2AE04B
:102C900089EE93E094DF080F191F05C02AE089EE42
:102CA00093E08DDF8C016FE872E089EE93E060D2F3
:102CB000800F911F0F900F900F900F90DF91CF9189
:102CC0001F910F9108950F931F93CF93DF9300D01F
:102CD0001F92CDB7DEB7AC01990F660B770B77FF6C
:102CE00021C08DE249835A836B837C8398DA8C01FF
:102CF00049815A816B817C81709560955095419591
:102D00005F4F6F4F7F4F2AE089EE93E058DF800FCF
:102D1000911F0F900F900F900F90DF91CF911F9107
:102D20000F9108952AE089EE93E00F900F900F9095
:102D30000F90DF91CF911F910F9141CF4F925F92F2
:102D40006F927F928F929F92AF92BF92CF92DF92BB
:102D5000EF92FF926B017C01B42E9B01AC010E94AB
:102D6000A922882319F064E772E027C02601370101
:102D7000E89477F82FEF3FEF4FE75FE7C301B20129
:102D80000E94A92281110DC02FEF3FEF4FE75FE7AF
:102D9000C301B2010E94291F18161CF468E772E0F3
:102DA0000CC02FEF3FEF4FE75FE4C701B6010E9471
:102DB000532218168CF46CE772E089EE93E0FF90D2
:102DC000EF90DF90CF90BF90AF909F908F907F90CB
:102DD0006F905F904F90CCC12FEF3FEF4FE75FECCC
:102DE000C701B6010E94291F87FDE5CF20E030E032
:102DF000A901C701B6010E94291F87FF08C08DE203
:102E00000EDA4C01F7FAF094F7F8F09402C0812C36
:102E1000912CA12C60E070E080E09FE3AB1441F0C6
:102E200020E030E040E251E40E945C21A394F6CF20
:102E30009B01AC01C701B6010E9493202B013C010C
:102E40000E94C9216B017C010E942D1F9B01AC01D6
:102E5000C301B2010E9492202B013C012AE0B7017C
:102E6000A60189EE93E0ABDE7C01E80CF91CBB20E7
:102E700021F08EE2D4D9E80EF91EDB2CDD2021F101
:102E800020E030E040E251E4C301B2010E948E1F15
:102E90002B013C010E94C9214B01A12CB12C2AE03D
:102EA000B501A40189EE93E08ADEE80EF91EC501A2
:102EB000B401D3D79B01AC01C301B2010E9492209F
:102EC0002B013C01DA94DACFC701FF90EF90DF903D
:102ED000CF90BF90AF909F908F907F906F905F90BA
:102EE0004F9008950F931F93CF93DF93EC0140D140
:102EF0008C016FE872E0CE013BD1800F911FDF9112
:102F0000CF911F910F91089533C1CF92DF92EF922D
:102F1000FF920F931F93CF93DF936C017A018B0184
:102F2000C0E0D0E0CE15DF0589F0D8016D918D01AC
:102F3000D601ED91FC910190F081E02DC60119952B
:102F4000892B11F47E0102C02196ECCFC701DF91DD
:102F5000CF911F910F91FF90EF90DF90CF90089548
:102F6000FC01538D448D252F30E0842F90E0821B8F
:102F7000930B541710F0CF96089501970895FC0114
:102F8000918D828D981761F0828DDF01A80FB11DA0
:102F90005D968C91928D9F5F9F73928F90E00895C4
:102FA0008FEF9FEF0895FC01918D828D981731F07E
:102FB000828DE80FF11D858D90E008958FEF9FEFD2
:102FC0000895FC01918D228D892F90E0805C9F4FA8
:102FD000821B91098F739927089589EE93E0F1DFA1
:102FE00021E0892B09F420E0822F0895FC01848DD3
:102FF000DF01A80FB11DA35ABF4F2C91848D90E023
:1030000001968F739927848FA689B7892C93A089FD
:10301000B1898C9180648C93938D848D981306C0B4
:103020000288F389E02D80818F7D80830895EF925F
:10303000FF920F931F93CF93DF93EC0181E0888F72
:103040009B8D8C8D981305C0E889F989808185FD59
:1030500023C0F62E0B8D10E00F5F1F4F0F7311274B
:10306000E02E8C8DE8120BC00FB607FCFACFE88972
:10307000F989808185FFF5CFCE01B8DFF2CF8B8D46
:10308000FE01E80FF11DE35AFF4FF0820B8FEA8932
:10309000FB898081806207C0EE89FF896083E889AF
:1030A000F98980818064808381E090E0DF91CF9115
:1030B0001F910F91FF90EF900895CF93DF93EC0154
:1030C000888D8823C1F0EA89FB89808185FD05C050
:1030D000A889B9898C9186FD0EC00FB607FCF5CF83
:1030E000808185FFF2CFA889B9898C9185FFEDCFCA
:1030F000CE017CDFE8CFDF91CF91089580E090E0B2
:10310000892B19F06ADF811125C080E090E0892BBE
:1031100041F080E090E0892B21F00E9400008111B5
:103120001CC080E090E0892B41F080E090E0892B8A
:1031300021F00E940000811113C080E090E0892BF3
:10314000A1F080E090E0892B81F00E9400008111C5
:103150000AC008950E940000D8CF0E940000E1CF6D
:103160000E940000EACF0C94000008950E94022300
:103170006115710579F0FB0101900020E9F73197A5
:10318000AF01461B570BDC01ED91FC910280F381EE
:10319000E02D199480E090E008951F920F920FB6F1
:1031A0000F9211240BB60F922F933F934F935F937F
:1031B0006F937F938F939F93AF93BF93EF93FF93FF
:1031C00089EE93E013DFFF91EF91BF91AF919F9153
:1031D0008F917F916F915F914F913F912F910F90C0
:1031E0000BBE0F900FBE0F901F9018951F920F925D
:1031F0000FB60F9211240BB60F922F938F939F93BC
:10320000EF93FF93E091F903F091FA038081E0914D
:10321000FF03F091000482FD12C0908180910204AE
:103220008F5F8F7320910304821751F0E0910204A5
:10323000F0E0E751FC4F958F8093020401C080813C
:10324000FF91EF919F918F912F910F900BBE0F9057
:103250000FBE0F901F9018951F93CF93DF93282FC9
:1032600030E0F901E056FC4F8491F901E05CFC4F3D
:10327000D491F901E650FD4FC491CC23C9F0162F2B
:1032800081110E949F03EC2FF0E0EE0FFF1FEA5721
:10329000FC4FA591B4918FB7F894111105C09C9182
:1032A000ED2FE095E92302C0EC91ED2BEC938FBF5D
:1032B000DF91CF911F910895CF92DF92EF92FF920D
:1032C0000F931F93E82FF92F05C001501109210911
:1032D000310961F1908196239417B9F305C001502B
:1032E00011092109310911F1908196239413F7CF27
:1032F000C12CD12CE12CF12C0AC08FEFC81AD80AAE
:10330000E80AF80A0C151D052E053F0579F08081A5
:103310008623841791F36C2D7D2D8E2D9F2D1F916B
:103320000F91FF90EF90DF90CF90089560E070E0F4
:1033300080E090E01F910F91FF90EF90DF90CF9091
:1033400008958EE192E09093CF048093CE04809113
:1033500073008B7F80937300809173008F7D8093C7
:1033600073008091B4058093B5058091B3058111F8
:10337000FCCF809173008D7F809373000895E9EEF8
:10338000F3E01382128288EE93E0A0E0B0E0848341
:103390009583A683B7832CE032E03183208325EC2C
:1033A00030E03587248724EC30E03787268720EC0F
:1033B00030E0318B208B21EC30E0338B228B22EC00
:1033C00030E0358B248B26EC30E0378B268B118E4A
:1033D000128E138E148EE6E8F4E0168217821086A1
:1033E0001186128613861486158616861786108A0D
:1033F000118A128A138A148A158AE7E8F5E041E0F7
:1034000051E164EF71E440835183628373834EE43E
:103410005AEA63EC72EC44835583668377834FE802
:1034200050E164EF71E440875187628773874DE311
:103430005AEA63EC72EC44875587668777874DECD0
:103440005FE064EF71E4408B518B628B738B4BE2D6
:103450005AEA63EC72EC448B558B668B778B40E4B5
:1034600051E164EF71E4408F518F628F738F40E6BA
:103470005AEA63EC72EC448F558F668F778F42E780
:1034800051E164EF71E440A351A362A373A343E548
:103490005AEA63EC72EC44A355A366A377A3EAED62
:1034A000F4E0108211821382128214821582168235
:1034B0001782108612861186138614861586168644
:1034C0001786118A108A128A138A148A158A168A14
:1034D000108E178A118E128E138E148E158E12A2D4
:1034E00013A214A215A216A217A210AA11AA12AA18
:1034F00013AA14AA15AA1092180510921905109271
:103500001E0510921F0510922005109221051092A1
:1035100026051092270510922C0510922D05109269
:103520002E0510922F051092340510923505109239
:103530003A0510923B0510923C0510923D05109201
:1035400042051092430510924805109249051092C9
:103550004A0510924B051092500510925105109299
:103560005605109257051092580510925905109261
:103570005E0510925F0522E020936F0510927005A2
:1035800010927105109272051092740510927305D5
:1035900010927605109275051092770510927805B5
:1035A0001092790510927A0510927B0510927C0595
:1035B00010927D0510927E0510927F051092800575
:1035C0001092810510928205109283051092840555
:1035D000109285051092860510926005EEECF4E0DD
:1035E0001382128284839583A683B7838EE192E04F
:1035F000918380830895CF93DF9300D01F92CDB73E
:10360000DEB7789484B5826084BD84B5816084BD62
:1036100085B5826085BD85B5816085BD80916E0070
:10362000816080936E0010928100809181008260A1
:1036300080938100809181008160809381008091DE
:1036400080008160809380008091B10084608093CD
:10365000B1008091B00081608093B00080919100B2
:1036600082608093910080919100816080939100AD
:10367000809190008160809390008091A100826091
:103680008093A1008091A10081608093A10080912E
:10369000A00081608093A0008091210182608093CE
:1036A000210180912101816080932101809120017D
:1036B00081608093200180917A00846080937A00F9
:1036C00080917A00826080937A0080917A00816094
:1036D00080937A0080917A00806880937A001092BB
:1036E000C1001092CA041092CB041092CC04109224
:1036F000CD04109288041092890410928A041092CA
:103700008B040E9446056B017C012B013C0128EBD8
:10371000420E2BE0521E611C711C0E9446056C1566
:103720007D058E059F0528F0461657066806790622
:10373000A0F789EE93E09093C9048093C8040E9497
:103740001A110E944605609388047093890480933F
:103750008A0490938B0460E872E08091C804909191
:10376000C904D2DB0E9446056B017C012B013C01A0
:103770003AE0430E511C611C711C0E9446056C15F9
:103780007D058E059F0528F04616570668067906C2
:10379000A0F781E080939C0462E972E089EE93E0F7
:1037A000A1DB60E08BE30E94420460E08AE30E94B8
:1037B000420460E082E40E94420460E083E40E94EC
:1037C00042046FE374E082E40E9442116CE374E00F
:1037D00083E40E94421161E082E20E94420460E0C0
:1037E00083E20E94420461E084E20E94420460E0BD
:1037F00085E20E94420460E089E30E94420461E0A5
:1038000085E00E94420462E08AE20E94420461E094
:103810008AE20E94420461E08CE00E94420461E07E
:1038200089E00E9442040E941A11109273001092C3
:10383000200181E88093210183E896E09093BA0506
:103840008093B9058BE39CE39093B8058093B7050B
:1038500062E080E30E94420461E08EE2FDDC61E010
:103860008EE20E9442041092B6051092B5051092A5
:10387000B4051092B3051092B2051092B10580E222
:103880008ABB8093730084EF482E55245394612C97
:10389000712C9AEA892E912C26E9222E312C01E0F6
:1038A00010E03FE7A32EB12C0E944605672B682B42
:1038B000692B41F40E94460562307105810591052E
:1038C00008F40AC10E9446056093D8057093D90593
:1038D0008093DA059093DB05C090D405D090D50590
:1038E000E090D605F090D7056C157D058E059F05F7
:1038F00040F46093D4057093D5058093D6059093DA
:10390000D705C090D405D090D505E090D605F090AD
:10391000D7059B01AC012C193D094E095F096901CE
:103920007A013AEFC316D104E104F10408F4D4C0DB
:103930006093D4057093D5058093D6059093D705F1
:103940004092940450929504609296047092970469
:10395000109298041092990410929A0410929B0469
:1039600080918C0490918D04A0918E04B0918F046D
:103970008093900490939104A0939204B093930445
:103980000E94460560938C0470938D0480938E048E
:1039900090938F040E944605609388047093890475
:1039A00080938A0490938B040E9446056B017C01EE
:1039B0006BE972E08091C8049091C904A5DA2AE00D
:1039C00041E050E060E070E08091C8049091C9044B
:1039D000F6D862EA72E08091C8049091C90494DA42
:1039E0002AE0B701A6018091C8049091C904E7D8E4
:1039F00064EA72E08091C8049091C90485DA8091EC
:103A00008C0490918D04A0918E04B0918F04B70125
:103A1000A601481B590B6A0B7B0B2AE08091C80456
:103A20009091C904CCD864EA72E08091C804909166
:103A3000C9046ADA40918C0450918D0460918E041F
:103A400070918F048091900490919104A0919204C0
:103A5000B0919304481B590B6A0B7B0B2AE08091B1
:103A6000C8049091C904ABD866EA72E08091C8049A
:103A70009091C90449DA0E944605AB01BC012AE0D5
:103A80008091C8049091C9049AD868EA72E0809144
:103A9000C8049091C90426DA0E9446056B017C0196
:103AA0009B01AC012B5F3F4F4F4F5F4F29833A8300
:103AB0004B835C830E9446056C157D058E059F0532
:103AC00008F081C10E94460560938C0470938D04B8
:103AD00080938E0490938F0480917B00877F8093E6
:103AE0007B0033E430937C0080917A008064809383
:103AF0007A0080917A0086FDFCCF809178008091D9
:103B00007900F8948091BB059091BC05A091BD050A
:103B1000B091BE058093D0059093D105A093D205B6
:103B2000B093D305789464E170E085E00E947E0450
:103B30008EEC94E00E944C02181619063CF48EECB0
:103B400094E00E946E020E94B612F2CF0E94E20937
:103B50000E94790B1092270560912C0570912D051C
:103B600080912E0590912F057AD120E030E048EC2D
:103B700052E4A2D309D47093CF056093CE050E947E
:103B8000180A0E94580A2091CC053091CD05309337
:103B9000CB052093CA058091C8059091C9059093E3
:103BA000C7058093C605263431050CF1863491058E
:103BB000F4F080910602909107028336910539F462
:103BC00048EC50E0509305024093040204C09092E8
:103BD00005028092040260910402709105027093C4
:103BE000C5056093C4058CE00E947E0454C0A90101
:103BF000495251094D31510530F0AC01495251093A
:103C00004D315105E8F48091060290910702833608
:103C1000910539F484EB90E09093050280930402BF
:103C200006C090920502809204020E947E08609174
:103C30000402709105027093C5056093C40599C094
:103C4000A901455151094331510530F0AC014551AD
:103C500051094331510510F53092050220920402BA
:103C60003092C5052092C40566E970E08CE00E94A0
:103C70007E048091C2059091C305181619062CF098
:103C8000109307020093060206C0A2E0B0E0B093D2
:103C90000702A09306020E947E088BC024313105E2
:103CA0000CF06BC044970CF068C0B092C505A092B0
:103CB000C405E0900402F0900502B7018CE00E9478
:103CC0007E0462E370E080E090E00E947E096FE78E
:103CD00070E089E00E947E04E3E6F0E0F0930702E2
:103CE000E093060222E330E03093C5052093C4053B
:103CF000B7018CE00E947E048091CA059091CB05AB
:103D000088978CF58091C6059091C70588975CF5DA
:103D10000E94E2090E94790B1092270560912C0500
:103D200070912D0580912E0590912F0598D020E05F
:103D300030E048EC52E4C0D227D37093CF056093B3
:103D4000CE050E94180A0E94580A0E94440D6FEA8C
:103D500072E089EE93E0C6D866E470E080E090E01F
:103D60000E947E09C9CFB092C505A092C4056FE735
:103D700070E08CE00E947E041CC08091C105882305
:103D800049F042E050E050930702409306020E943F
:103D90002B080FC08091C005882359F010930702AB
:103DA0000093060260E070E089E00E947E041092B9
:103DB000BF050E94440D66E470E080E090E00E9440
:103DC0007E099CD971CD29813A814B815C8126176E
:103DD00037074807590708F06DCE74CE1F93FC01D2
:103DE00099278827BC01E89411911032E9F3193022
:103DF00010F01E30C8F31B3249F01D3241F46894B4
:103E000005C012D0610F711D811D911D11911053BC
:103E10001A30B8F33EF490958095709561957F4F78
:103E20008F4F9F4F1F910895592F482F372F262FBF
:103E3000660F771F881F991F660F771F881F991FAE
:103E4000620F731F841F951F660F771F881F991FAE
:103E5000089540D008F481E00895E89409C097FBE4
:103E60003EF490958095709561957F4F8F4F9F4F51
:103E70009923A9F0F92F96E9BB279395F695879595
:103E800077956795B795F111F8CFFAF4BB0F11F458
:103E900060FF1BC06F5F7F4F8F4F9F4F16C08823FF
:103EA00011F096E911C0772321F09EE8872F762F35
:103EB00005C0662371F096E8862F70E060E02AF076
:103EC0009A95660F771F881FDAF7880F9695879562
:103ED00097F90895990F0008550FAA0BE0E8FEEF37
:103EE00016161706E807F907C0F012161306E407BE
:103EF000F50798F0621B730B840B950B39F40A26B7
:103F000061F0232B242B252B21F408950A2609F494
:103F1000A140A6958FEF811D811D08950BD078C01B
:103F200069D028F06ED018F0952309F05AC05FC010
:103F30001124A2C07ED0A0F3959FD1F3950F50E03D
:103F4000551F629FF001729FBB27F00DB11D639F4B
:103F5000AA27F00DB11DAA1F649F6627B00DA11DF1
:103F6000661F829F2227B00DA11D621F739FB00D97
:103F7000A11D621F839FA00D611D221F749F332707
:103F8000A00D611D231F849F600D211D822F762FA0
:103F90006A2F11249F5750408AF0E1F088234AF09D
:103FA000EE0FFF1FBB1F661F771F881F91505040E9
:103FB000A9F79E3F510570F014C05EC05F3FECF35F
:103FC000983EDCF3869577956795B795F795E795D5
:103FD0009F5FC1F7FE2B880F911D9695879597F9E6
:103FE000089597F99F6780E870E060E008959FEF7B
:103FF00080EC089500240A94161617061806090680
:10400000089500240A94121613061406050608954E
:10401000092E0394000C11F4882352F0BB0F40F4D6
:10402000BF2B11F460FF04C06F5F7F4F8F4F9F4F16
:10403000089557FD9058440F551F59F05F3F71F098
:104040004795880F97FB991F61F09F3F79F08795FF
:104050000895121613061406551FF2CF4695F1DF88
:1040600008C0161617061806991FF1CF8695710518
:10407000610508940895E894BB2766277727CB014C
:1040800097F90895DB018F939F932DD0BF91AF9146
:10409000A29F800D911DA39F900DB29F900D1124A2
:1040A0000895A1E21A2EAA1BBB1BFD010DC0AA1F79
:1040B000BB1FEE1FFF1FA217B307E407F50720F091
:1040C000A21BB30BE40BF50B661F771F881F991F0C
:1040D0001A9469F760957095809590959B01AC0155
:1040E000BD01CF0108950FD0A59F900DB49F900DF5
:1040F000A49F800D911D11240895B7FFF4CFF3DF25
:10410000821B930B0895A29FB001B39FC001A39F90
:10411000700D811D1124911DB29F700D811D112400
:10412000911D08955058BB27AA270ED071CF62DF8A
:1041300030F067DF20F031F49F3F11F41EF457CFC9
:104140000EF4E095E7FB4DCFE92F73DF80F3BA174C
:10415000620773078407950718F071F49EF58BCFFB
:104160000EF4E0950B2EBA2FA02D0B01B901900192
:104170000C01CA01A0011124FF27591B99F0593FD6
:1041800050F4503E68F11A16F040A22F232F342F1E
:104190004427585FF3CF469537952795A795F0406C
:1041A0005395C9F77EF41F16BA0B620B730B840B81
:1041B000BAF09150A1F0FF0FBB1F661F771F881F39
:1041C000C2F70EC0BA0F621F731F841F48F4879591
:1041D00077956795B795F7959E3F08F0B3CF939580
:1041E000880F08F09927EE0F97958795089502DFBD
:1041F00058F080E891E009F49EEF03DF28F040E8F2
:1042000051E059F45EEF09C0F2CE35CFE92FE078E6
:1042100010DF68F3092E052AC1F326173707480770
:10422000590738F00E2E07F8E02569F0E025E06424
:104230000AC0EF6307F8009407FADB01B9019D019A
:10424000DC01CA01AD01EF9346D0E2DE0AD05F91F6
:10425000552331F02BED3FE049E450FD49EC63CFAD
:104260000895DF93DD27B92FBF7740E85FE3161687
:10427000170648075B0710F4D92F19D19F938F9326
:104280007F936F9363D1EEE7F1E0AFD0C1DE2F9162
:104290003F914F915F914EDEDD2349F09058A2EAA5
:1042A0002AED3FE049EC5FE3D0785D274DDFDF91F9
:1042B000AFCEC1D0E395E6C00CD0AACEA2DE40F0CE
:1042C00099DE30F021F45F3F19F08BCE5111D4CE3E
:1042D0008ECEAFDE98F39923C9F35523B1F3951B26
:1042E000550BBB27AA2762177307840738F09F5F17
:1042F0005F4F220F331F441FAA1FA9F333D00E2E86
:104300003AF0E0E830D091505040E695001CCAF7F2
:1043100029D0FE2F27D0660F771F881FBB1F2617B7
:1043200037074807AB07B0E809F0BB0B802DBF018A
:10433000FF2793585F4F2AF09E3F510568F051CEFA
:104340009BCE5F3FECF3983EDCF3869577956795BF
:10435000B795F7959F5FC9F7880F911D969587953B
:1043600097F90895E1E0660F771F881FBB1F62175A
:1043700073078407BA0720F0621B730B840BBA0B18
:10438000EE1F88F7E095089504D06894B11174CEBB
:10439000089557DE88F09F5790F0B92F9927B751AD
:1043A000A0F0D1F0660F771F881F991F1AF0BA95F9
:1043B000C9F712C0B13081F05EDEB1E008955BCE86
:1043C000672F782F8827B85F39F0B93FCCF38695EF
:1043D00077956795B395D9F73EF49095809570954C
:1043E00061957F4F8F4F9F4F0895DF93CF931F931A
:1043F0000F93FF92EF92DF927B018C01689405C0CE
:10440000DA2EEF0197DDFE01E894A5912591359113
:1044100045915591AEF3EF0197DEFE019701A8019A
:10442000DA9479F7DF90EF90FF900F911F91CF9181
:10443000DF910895DCCD05DEE8F3E894E0E0BB27EA
:104440009F57F0F02AED3FE049EC06C0EE0FBB0F9E
:10445000661F771F881F28F0B23A62077307840728
:1044600028F0B25A620B730B840BE3959A9572F79E
:10447000803830F49A95BB0F661F771F881FD2F7DC
:1044800090486DC0EF93E0FF06C0A2EA2AED3FE03E
:1044900049EC5FEB59DEBCDD0F90039401FC9058B2
:1044A000EBEAF1E06FC016DD08F48FEF08959B0191
:1044B000AC0160E070E080E89FE3FECE9F93BBDF3D
:1044C0000F9007FCEE5FDECF11F40EF490CD45C0E7
:1044D000B8DDD0F39923D9F3CEF39F57550B87FF5F
:1044E0004AD00024A0E640EA90018058569597955E
:1044F00028F4805C660F771F881F20F02617370787
:10450000480730F4621B730B840B202931294A2B96
:10451000A69517940794202531254A2758F7660F4A
:10452000771F881F20F026173707480730F4620BE3
:10453000730B840B200D311D411DA09581F7B9012E
:10454000842F9158880F9695879508959B01AC010B
:10455000E5CCC0DC880B990B08959F3F31F091505A
:1045600020F4879577956795B795880F911D969557
:10457000879597F9089591505040660F771F881FCF
:10458000D2F708959F938F937F936F93FF93EF9349
:104590009B01AC01C3DCEF91FF9127DF2F913F918D
:1045A0004F915F91BBCC97FB072E16F4009406D079
:1045B00077FD08D013D007FC05D03EF49095819587
:1045C0009F4F0895709561957F4F0895EE0FFF1FDF
:1045D000881F8BBF0790F691E02D1994AA1BBB1B77
:1045E00051E107C0AA1FBB1FA617B70710F0A61BF3
:1045F000B70B881F991F5A95A9F780959095BC0114
:10460000CD01089581E090E0F8941FC0FB01DC012A
:104610008D91019080190110D9F3990B0895FB0138
:10462000DC0101900D920020E1F70895FB01DC010F
:104630004150504048F001900D920020C9F701C050
:104640001D9241505040E0F7089511E0C4EFD1E0D1
:1046500000E005C0802FFE01B9DF2196011DC53F96
:0C466000D10780E00807B1F7F894FFCF05
:10466C00FFFF6300B40063000000000017188517FB
:10467C00B0175D18E117BF17D317000000008902AF
:10468C008517C30284024C026E025B022047505312
:10469C0020466978203D20002057617970696E743E
:1046AC00204C4154203D200053747261696768743A
:1046BC00005269676874004C656674004750524D2F
:1046CC004300474E524D4300475047474100474E29
:1046DC00474741006E616E00696E66006F7666003A
:1046EC00564D4450565F317C315F564D4450560DFB
:1046FC000A005374617274696E6700564D445045DC
:10470C005F003A323A007C005F564D4450450069D8
:08471C006E207768696C6500EE
:00000001FF
