:10000000FEC100000C946D100C9442100C9417105B
:100010000C94EC0F0C94C10F0C94960F0C946B0F76
:100020000C94400F0C94CB0E0C945C0E0C94E60DCB
:1000300017C2000015C2000013C2000011C2000068
:100040000FC200000DC200000BC2000009C2000078
:1000500007C2000005C2000003C20000C4C50000C2
:10006000FFC100000C943A180C941118F9C100005B
:10007000F7C10000F5C10000F3C10000F1C10000AC
:10008000EFC10000EDC10000EBC10000E9C10000BC
:10009000E7C10000E5C10000E3C10000E1C10000CC
:1000A000DFC10000DDC10000DBC10000D9C10000DC
:1000B000D7C10000D5C1000024C70000D0C7000090
:1000C000D5C60000CDC10000CBC10000C9C10000F1
:1000D000C7C10000C5C10000C3C10000C1C100000C
:1000E000BFC100004C024F023E024202480286029B
:1000F000530257025D02610265026B026F027302D6
:10010000860279027D028102DE04E304E804F2043F
:10011000FC04750506050E05160520052A0534059F
:1001200043054D057505570561056B054A145C14BB
:100130005F1466146D149B14A214AF14BC14C8147D
:10014000C814C814C814C814C814C814C814C814CF
:10015000C814C814C814C814C814C814C814C814BF
:10016000C814C814C814C814C814C8144A1457149E
:100170005C145F1466146D14741481148E14084A90
:10018000D73B3BCE016E84BCBFFDC12F3D6C7431AB
:100190009ABD56833DDA3D00C77F11BED9E4BB4C02
:1001A0003E916BAAAABE000000803F05A84CCDB2CC
:1001B000D44EB93836A9020C50B9918688083CA6AD
:1001C000AAAA2ABE000000803F0020204F6C6420B5
:1001D000446972656374696F6E203D20002020447D
:1001E0006972656374696F6E203D200046726565B3
:1001F000204D656D6F72793A200020204572726F34
:1002000072203D2000202043757272656E74203D7F
:1002100020002020546172676574203D2000205327
:100220007064203D200020536F6E61722052696718
:100230006874203D2000536F6E6172204C656674B7
:10024000203D200020436F6D70617373204865610D
:1002500064696E67203D2000204F726967696E6196
:100260006C2044697374203D20002044697374201D
:100270003D2000204C6F6E67203D2000204C4F4EEB
:10028000203D2000204C4154203D20000000210052
:10029000240027002A002D00300033000101000057
:1002A000040107010A0100002200250028002B009C
:1002B0002E003100340002010000050108010B018D
:1002C00000000A0B02090C0D0E08070304010000D0
:1002D000000000000000000000000000000000001E
:1002E00000000000000000000000000012111000DB
:1002F00000000000000000000000000000000000FE
:10030000000000000000000020002300260029005B
:100310002C002F003200000100000301060109013A
:100320000001040505030304050604050607010092
:10033000010003020100000102030405060707068D
:100340000504030201000702010007060504030279
:100350000100030201000001020304050607000179
:100360000203040506070203040506060705050542
:1003700005070508080808020202020A0A0808041C
:10038000040404010101010101010103030303034A
:10039000030303040707070C0C0C0C0C0C0C0C02D9
:1003A00002020206060606060606060B0B0B0B0BE0
:1003B0000B0B0B01021020200808102040102040D9
:1003C0008002010201080402010102040810204019
:1003D0008080402010080402018004020180402037
:1003E0001008040201080402010102040810204060
:1003F000800102040810204080001319F518112410
:100400001FBECFEFD1E2DEBFCDBF00E00CBF12E0D8
:10041000A0E0B2E0ECE6F3E400E00BBF02C007901E
:100420000D92A83CB107D9F725E0A8ECB2E001C0D5
:100430001D92AA3EB207E1F711E0CEEFD1E000E055
:1004400006C021970109802FFE010E947A21CD3F2D
:10045000D10780E00807A9F70E94571A0C94A5213C
:10046000CFCD90E0FC013197E231F10508F04EC0AC
:100470008827EE58FF4F8F4F0C947A21809180008F
:100480008F7703C0809180008F7D809380000895D6
:1004900080918000877FF9CF84B58F7702C084B5C3
:1004A0008F7D84BD08958091B0008F7703C08091C7
:1004B000B0008F7D8093B0000895809190008F7779
:1004C00007C0809190008F7D03C080919000877F4E
:1004D0008093900008958091A0008F7707C080914D
:1004E000A0008F7D03C08091A000877F8093A00033
:1004F0000895809120018F7707C0809120018F7D22
:1005000003C080912001877F8093200108953FB729
:10051000F8948091AB039091AC03A091AD03B0919E
:10052000AE0326B5A89B05C02F3F19F00196A11D6B
:10053000B11D3FBFBA2FA92F982F8827820F911D79
:10054000A11DB11DBC01CD0142E0660F771F881FC0
:10055000991F4A95D1F708955091C5054091C4055A
:10056000852F90E0242F30E0541710F4805B9F4FCC
:10057000821B930B08958091C505E091C4058E17E9
:1005800051F0EF5FE03508F0E0E0F0E0EA5AFC4FB0
:10059000808190E008958FEF9FEF08958091C505C9
:1005A0009091C405891769F09F5F903508F090E03D
:1005B000E92FF0E0EA5AFC4F80819093C40590E067
:1005C00008958FEF9FEF08958091C3058111FCCFAF
:1005D00008958091C2058F5F843408F080E0909187
:1005E000C1059817E1F32FB7F8949091C3059923AB
:1005F00041F0E82FF0E0E45FFC4F60838093C20598
:100600001DC081E08093C305609351031092500395
:1006100082E08ABB80917300826080937300809136
:1006200020018F7380688093200180912401909134
:100630002501409690932901809328012FBF81E0E6
:1006400090E008950F931F93CF93DF93082F70E0EE
:10065000FB01E054FD4F8491FB01ED54FC4FD4911C
:10066000FB01E359FC4FC49110E0CC23D1F0811180
:10067000F8DEEC2FF0E0EE0FFF1FEA5FFC4FA591D4
:10068000B491EC91ED2369F042DF000F111F000FD0
:10069000111FF801E853FD4F6083718382839383B8
:1006A00013C035DFF801EE0FFF1FEE0FFF1FE853F9
:1006B000FD4F20813181621B730B000F111FF80168
:1006C000E553FA4F71836083DF91CF911F910F91B2
:1006D000089563E481E0B6CF62E480E0B3CF08958B
:1006E00080E090E008954F925F926F927F928F9298
:1006F0009F92AF92BF92CF92DF92EF92FF92CF93F1
:10070000DF93CDB7DEB72C970FB6F894DEBF0FBEE0
:10071000CDBF2091DE023091DF024091E002509186
:10072000E1026091D6027091D7028091D802909137
:10073000D9020E94391F25E33AEF4EE85CE30E949C
:10074000191E2B013C0125E33AEF4EE85CE3609172
:10075000E2027091E3028091E4029091E5020E942E
:10076000191E4B015C0125E33AEF4EE85CE3609112
:10077000D2027091D3028091D4029091D5020E944E
:10078000191E6B017C01C301B2010E9405216D831A
:100790007E838F839887C701B6010E9400206983FA
:1007A0007A838B839C83C501B4010E9405216987EC
:1007B0007A878B879C87C301B2010E9400202B019E
:1007C0003C0129813A814B815C8169857A858B85E1
:1007D0009C850E94191EA30192010E94191E2B01E3
:1007E0003C01C501B4010E9400204B015C01C7011E
:1007F000B6010E9405219B01AC01C501B4010E9414
:10080000191EA30192010E94391F6B017C012981ED
:100810003A814B815C816D817E818F8198850E94B8
:10082000191EA70196010E94AD1F6B017C0120E0FB
:1008300030E0A9010E94B41D87FF0AC02BED3FE004
:1008400049EC50E4C701B6010E943A1F6B017C01DC
:1008500021EE3EE245E652E4C701B6010E94191EB0
:100860000E946B207093DB026093DA02CB012C961E
:100870000FB6F894DEBF0FBECDBFDF91CF91FF90D2
:10088000EF90DF90CF90BF90AF909F908F907F9030
:100890006F905F904F9008951F93CF93DF93282F11
:1008A00030E0F901E054FD4F8491F901ED54FC4F23
:1008B000D491F901E359FC4FC491CC23C1F0162F18
:1008C0008111CFDDEC2FF0E0EE0FFF1FEA55FD4F59
:1008D000A591B4918FB7F894111105C09C91ED2F9B
:1008E000E095E92302C0EC91ED2BEC938FBFDF91F3
:1008F000CF911F910895CF93DF9390E0FC01ED54C9
:10090000FC4F2491FC01E359FC4F8491882361F151
:1009100090E0880F991FFC01E457FD4FC591D491D9
:10092000FC01EA55FD4FA591B491611109C09FB733
:10093000F8948881209582238883EC912E230BC024
:10094000623061F49FB7F8943881822F80958323B9
:100950008883EC912E2B2C939FBF06C08FB7F89401
:10096000E8812E2B28838FBFDF91CF9108951F93AD
:10097000CF93DF93182FEB0161E0BDDF209711F4D7
:1009800060E004C0CF3FD10531F461E0812FDF91F9
:10099000CF911F9181CFE12FF0E0E054FD4FE49122
:1009A0004E2F50E0FA013197E231F10508F09DC079
:1009B0008827EC57FF4F8F4F0C947A2184B58068BD
:1009C00084BDC7BD97C084B5806284BDC8BD92C0D8
:1009D00080918000806880938000D0938900C093CC
:1009E000880088C080918000806280938000D093CE
:1009F0008B00C0938A007EC08091800088608093C5
:100A00008000D0938D00C0938C0074C08091B000A2
:100A100080688093B000C093B3006CC08091B00038
:100A200080628093B000C093B40064C08091900055
:100A3000806880939000D0939900C09398005AC02A
:100A400080919000806280939000D0939B00C0932F
:100A50009A0050C080919000886080939000D0935D
:100A60009D00C0939C0046C08091A0008068809348
:100A7000A0008091A0008F7B8093A000D093A9005C
:100A8000C093A80037C08091A00080628093A0002E
:100A9000D093AB00C093AA002DC08091A0008860C5
:100AA0008093A000D093AD00C093AC0023C0809190
:100AB0002001806880932001D0932901C0932801F0
:100AC00019C080912001806280932001D0932B0176
:100AD000C0932A010FC0809120018860809320017B
:100AE000D0932D01C0932C0105C0C038D1050CF066
:100AF0004CCF46CFDF91CF911F9108952FB7F89437
:100B00006091A7037091A8038091A9039091AA0313
:100B10002FBF0895CF92DF92EF92FF92EFDF6B012C
:100B20007C016FE370E089E022DF809108039091FF
:100B30000903A0910A03B0910B03A7019601281B9A
:100B4000390B4A0B5B0BDA01C901883E9340A105C2
:100B5000B105A8F083E690E0909307028093060227
:100B60006FE770E089E003DF81E080930703C092C4
:100B70000803D0920903E0920A03F0920B03FF905E
:100B8000EF90DF90CF900895CF92DF92EF92FF9297
:100B900060E08AE281DEB2DF6B017C0180910303B9
:100BA00090910403A0910503B0910603A70196015B
:100BB000281B390B4A0B5B0BDA01C901883E9340B5
:100BC000A105B10558F061E08AE266DEC092030338
:100BD000D0920403E0920503F0920603FF90EF9099
:100BE000DF90CF9008951F920F920FB60F921124AD
:100BF0002F933F938F939F93AF93BF938091A703BE
:100C00009091A803A091A903B091AA033091A603E3
:100C100023E0230F2D3720F40196A11DB11D05C03F
:100C200026E8230F0296A11DB11D2093A6038093F1
:100C3000A7039093A803A093A903B093AA0380915C
:100C4000AB039091AC03A091AD03B091AE030196BC
:100C5000A11DB11D8093AB039093AC03A093AD0392
:100C6000B093AE03BF91AF919F918F913F912F9120
:100C70000F900FBE0F901F901895CF93DF93EC014C
:100C80008A859B85AC85BD858E839F83A887B98720
:100C900035DF6A837B838C839D8381E089838883AE
:100CA000DF91CF9108952F923F924F925F926F9272
:100CB0007F928F929F92AF92BF92CF92DF92EF92EC
:100CC000FF920F931F93CF93DF93D82FC92F8B01E0
:100CD0000E94791D24E630E040E050E00E94DC1ED6
:100CE00049015A019B01AC0160E876E988E990E08E
:100CF0000E94CD1E6B017C01F80191828082ED2F54
:100D0000FC2F2191822F022E000C990BC0970A977D
:100D1000C0F32E3239F51F0180E8882E86E9982E1F
:100D200088E9A82EB12C9AE0492E512C612C712C07
:100D3000F101C1911F010C2E000CDD0BE097CA30B0
:100D4000D10580F4C501B401A30192010E94DC1E0B
:100D500049015A01DE010E94241FC60ED71EE81E5B
:100D6000F91EE6CFA5E0B0E0A70196010E941A1F88
:100D70006F5F7F4F8F4F9F4F23E030E040E050E0A8
:100D80000E94DC1EF801228333834483558316823C
:100D9000DF91CF911F910F91FF90EF90DF90CF9057
:100DA000BF90AF909F908F907F906F905F904F908B
:100DB0003F902F900895FF920F931F93CF93DF934F
:100DC000EC01FF24F39488818D3211F0F12C01C0E5
:100DD0002196CE010E94791D9B01AC01A4E6B0E0F2
:100DE0000E941A1FFE014991242F042E000C330B80
:100DF000205331092A303105A8F34E3241F52181C3
:100E0000022E000C330B205331092A303105F8F43F
:100E10004AE0429F8001439F100D1124012E000CD7
:100E2000220B330B600F711F821F931F0281002E54
:100E3000000C110B005311090A30110540F4012E6A
:100E4000000C220B330B600F711F821F931FFF20BA
:100E500039F090958095709561957F4F8F4F9F4F9A
:100E6000DF91CF911F910F91FF9008951F920F92E4
:100E70000FB60F9211240BB60F922F938F939F935F
:100E8000EF93FF93809173008B7F80937300809129
:100E900021018F7B809321018091C605209155030C
:100EA000205890915403893020F49695922B8F5FAF
:100EB000FACF909354038091C5058F5F803508F079
:100EC00080E02091C405821739F0E82FF0E0EA5A5B
:100ED000FC4F90838093C5051092C6058091210137
:100EE0008F7B8093210110925503FF91EF919F9189
:100EF0008F912F910F900BBE0F900FBE0F901F90F0
:100F000018951F920F920FB60F9211240BB60F92E5
:100F10002F933F934F935F936F937F938F939F9301
:100F2000AF93BF93EF93FF93809126019091270198
:100F30004091550320912101442331F02F7B2093D0
:100F400021011092550306C020642093210120E85E
:100F5000209355033091C605311125C041116CC055
:100F60002091C7053091C805280F391F30932B01F8
:100F700020932A0124E02ABB20917300246020934F
:100F800073002091C9053091CA05820F931F3695D1
:100F90002795820F931F909353038093520381E010
:100FA0008093C60549C0409152035091530360910C
:100FB000C9057091CA05DB01A095B095E091550374
:100FC00020915403841B950BA817B90768F1269547
:100FD0002E2B460F571F3F5F861B970B3930A0F310
:100FE00020935403809173008B7F809373008091D2
:100FF000C5058F5F803508F080E09091C4058917A2
:1010000049F0E82FF0E090915403EA5AFC4F9083A6
:101010008093C505809121018F7B809321011092DF
:1010200055031092C60508C02093540350935303F0
:10103000409352033093C605FF91EF91BF91AF915A
:101040009F918F917F916F915F914F913F912F91E0
:101050000F900BBE0F900FBE0F901F9018951F9210
:101060000F920FB60F9211240BB60F922F933F934E
:101070004F935F936F937F938F939F93EF93FF9320
:101080008091C3056091510320912801309129017D
:101090004091C9055091CA05909150038A30F8F4E7
:1010A000240F351F893019F0762F717001C071E05F
:1010B00066958F5F791791F390912001772311F056
:1010C000906C02C09F739068909320013093290127
:1010D0002093280170935003609351034AC090916C
:1010E000C205E091C1059E1319C08A3051F48BE00E
:1010F0008093C305240F351F3093290120932801C5
:101100003AC01092C305809120018F738093200113
:10111000809173008D7F809373002DC0EF5FE43466
:1011200008F0E0E0E093C105F0E0E45FFC4F90815F
:101130009093510310925003909120019F739068F7
:10114000909320018A3059F48091C9059091CA0585
:10115000280F391F309329012093280109C080915D
:1011600024019091250140969093290180932801B4
:1011700081E08093C305FF91EF919F918F917F91C3
:101180006F915F914F913F912F910F900BBE0F90F8
:101190000FBE0F901F901895CF92DF92EF92FF92A3
:1011A00060E08AE279DBAADC6B017C018091FF02BE
:1011B00090910003A0910103B0910203A701960151
:1011C000281B390B4A0B5B0BDA01C90180339547A9
:1011D000A105B10558F061E08AE25EDBC092FF0232
:1011E000D0920003E0920103F0920203FF90EF908F
:1011F000DF90CF900895CF92DF92EF92FF92CF933E
:10120000DF93C0910602D0910702C336D10509F0E1
:101210006DC08091020290910302019781F51092B6
:10122000D3056CDC6B017C016FE370E089E09FDB30
:101230008091F6029091F702A091F802B091F90224
:10124000A7019601281B390B4A0B5B0BDA01C90178
:10125000883E9340A105B10590F06FE770E089E00A
:1012600086DB1092FE02C092F602D092F702E09264
:10127000F802F092F902D0930302C0930202809127
:101280000202909103021092D305029761F536DCB9
:101290006B017C0160EC70E089E069DB8091F20217
:1012A0009091F302A091F402B091F502A70196018A
:1012B000281B390B4A0B5B0BDA01C901883E9340AE
:1012C000A105B10580F06FE770E089E050DB109276
:1012D000D30510920703C092F202D092F302E0927B
:1012E000F402F092F50283E690E06EC0C130D105C1
:1012F00009F04FC08091020290910302029789F495
:1013000083E690E0909307028093060274DFD09307
:101310000702C09306026FDFD0930302C09302025C
:1013200057C08091FE02811131C0E8DB6B017C0166
:1013300060EC70E089E01BDB8091FA029091FB0287
:10134000A091FC02B091FD02A7019601281B390B68
:101350004A0B5B0BDA01C901883E9340A105B10538
:10136000A8F083E690E090930702809306026FE76F
:1013700070E089E0FCDA81E08093FE02C092FA021C
:10138000D092FB02E092FC02F092FD0281E090E03C
:101390001BC0C230D105E1F480910202909103029A
:1013A000019759F483E690E0909307028093060238
:1013B00022DFD0930702C0930602809107038111B8
:1013C00001C0A8DB82E090E09093030280930202C8
:1013D000DF91CF91FF90EF90DF90CF9008958F92A3
:1013E0009F92AF92BF92CF92DF92EF92FF926B01EA
:1013F0007C0184DB4B015C018CED94E0ADD8892B42
:1014000031F08CED94E0CAD80E943F12F5CF76DB24
:10141000DC01CB0188199909AA09BB098C159D0526
:10142000AE05BF0548F3FF90EF90DF90CF90BF90DF
:10143000AF909F908F900895BC018CE098CA8091E6
:10144000DA029091DB022091D8053091D905821BF8
:10145000930B8C342FEF920714F488599E4F90937E
:10146000D0058093CF058091CF059091D005853B25
:10147000910534F0885691409093D0058093CF0524
:101480008091CF059091D00505960B9750F48091EF
:10149000D305811106C083E690E090930702809304
:1014A000060208950F931F93CF93DF9360E082E2CB
:1014B000F3D983E090E00197F1F761E082E2ECD9A3
:1014C0008BE290E00197F1F760E082E2E5D983E2F8
:1014D0000E943C1524E930E040E050E00E94FE1EEE
:1014E00089012D3331053CF481E08093D205283009
:1014F00031051CF409C01092D2052850310925335A
:10150000310548F441DB07C062E370E080E090E021
:1015100066DF00E010E060E084E2BED983E090E0A6
:101520000197F1F761E084E2B7D98BE290E001978F
:10153000F1F760E084E2B0D985E20E943C1524E92D
:1015400030E040E050E00E94FE1EE9012D333105FD
:101550003CF481E08093D105283031051CF409C0AA
:101560001092D105285031092533310548F40CDBA0
:1015700007C062E370E080E090E031DFC0E0D0E0DF
:101580000C3E110514F000EF10E0CC3ED10514F034
:10159000C0EFD0E02091D6053091D705200F311F44
:1015A00037FF02C02F5F3F4F359527953093D70502
:1015B0002093D6058091D4059091D5058C0F9D1F61
:1015C00097FD0196959587959093D5058093D405C1
:1015D000DF91CF911F910F910895CF92DF92EF92FB
:1015E000FF921092E9046091EA047091EB0480E0AC
:1015F00090E00E94B81D6B017C016091EC04709139
:10160000ED048091EE049091EF040E94B81D28E251
:101610003BE64EE65EE40E9403209B01AC01C7015D
:10162000B6010E943A1F2091F004DC01CB01211188
:10163000B0588093E2029093E302A093E402B09347
:10164000E5026091F1047091F20480E090E00E9464
:10165000B81D6B017C016091F3047091F4048091DA
:10166000F5049091F6040E94B81D28E23BE64EE690
:101670005EE40E9403209B01AC01C701B6010E94F9
:101680003A1F2091F704DC01CB012111B05880935F
:10169000DE029093DF02A093E002B093E10205D056
:1016A000FF90EF90DF90CF901EC84F925F926F92A5
:1016B0007F928F929F92AF92BF92CF92DF92EF92E2
:1016C000FF92CF93DF93CDB7DEB760970FB6F89454
:1016D000DEBF0FBECDBF2091D6023091D702409120
:1016E000D8025091D9026091DE027091DF028091A0
:1016F000E0029091E1020E94391F25E33AEF4EE8A3
:101700005CE30E94191E6B017C010E9405216D871C
:101710007E878F87988BC701B6010E94002069835E
:101720007A838B839C8325E33AEF4EE85CE36091F8
:10173000E2027091E3028091E4029091E5020E943E
:10174000191E6B017C0125E33AEF4EE85CE36091E2
:10175000D2027091D3028091D4029091D5020E945E
:10176000191E2B013C01C701B6010E9405214B0146
:101770005C01C701B6010E9400206D837E838F83C8
:101780009887C301B2010E94052169877A878B87F8
:101790009C87C301B2010E9400206B017C01298556
:1017A0003A854B855C856D817E818F8198850E940D
:1017B000191E2B013C01A7019601C501B4010E942D
:1017C000191E29813A814B815C810E94191E9B015F
:1017D000AC01C301B2010E94391F9B01AC010E9400
:1017E000191E2B013C012D853E854F855889C70167
:1017F000B6010E94191E9B01AC010E94191E9B019B
:10180000AC01C301B2010E943A1F0E940F212B01BB
:101810003C0129853A854B855C85C501B4010E9450
:10182000191E4B015C01A70196016D817E818F819C
:1018300098850E94191E29813A814B815C810E9402
:10184000191E9B01AC01C501B4010E943A1F9B0106
:10185000AC01C301B2010E94AD1F26E73BE742EC99
:101860005AE40E94191E0E94702028EE33E040E0E6
:1018700050E00E94DC1E49015A0126303105410525
:10188000510508F059C0E0900002F0900102EFEF1E
:10189000EE1AFE0AF0920102E0920002F70183E0E4
:1018A000EE0FFF1F8A95E1F7EB56FA4F64817581C1
:1018B000868197816093D2027093D3028093D40281
:1018C0009093D50240805180628073804092D6020E
:1018D0005092D7026092D8027092D90220E030E094
:1018E000A9010E94B41D811109C020E030E0A901C6
:1018F000C301B2010E94B41D882321F0F5E0EF1668
:10190000F10474F06FE770E089E031D883E690E08D
:1019100090930702809306028FE790E08DDDFFCF62
:101920005CDEC3DE9093DD028093DC029093D102F3
:101930008093D0020E947303C40160960FB6F8949E
:10194000DEBF0FBECDBFDF91CF91FF90EF90DF9054
:10195000CF90BF90AF909F908F907F906F905F904F
:101960004F9008950F931F93CF93DF931F921F9271
:10197000CDB7DEB78091EA0281110CC0BFD8609369
:10198000E6027093E7028093E8029093E90281E017
:101990008093EA02B3D80091E6021091E702209109
:1019A000E8023091E902601771078207930740F45B
:1019B0006093E6027093E7028093E8029093E90255
:1019C0006CE272E087EF93E00E94081710925105D5
:1019D00080915605909157050E94EC1584E892E09D
:1019E0002DD56091E2027091E3028091E402909122
:1019F000E50242E00E9427168CE792E01FD5609135
:101A0000DE027091DF028091E0029091E10242E0FB
:101A10000E9427166FE872E087EF93E00E949B1800
:101A200068E372E087EF93E00E940817E0910002FC
:101A3000F091010283E0EE0FFF1F8A95E1F7EB566C
:101A4000FA4F648175818681978142E00E94271652
:101A500083E792E0F3D4E0910002F091010293E079
:101A6000EE0FFF1F9A95E1F7EB56FA4F60817181F7
:101A70008281938142E00E9427166FE872E087EF2F
:101A800093E00E949B188AE692E0D8D40EDE0E9472
:101A9000EC1588E592E0D2D48091DC029091DD02D1
:101AA0000E94EC1584E492E0C9D46FE872E087EFFD
:101AB00093E00E949B188091D8059091D9050E94CF
:101AC000EC1586E392E0BAD48091D6059091D705C3
:101AD0000E94B01586E292E0B1D48091D405909135
:101AE000D5050E94B0158EE192E0A8D48091040241
:101AF000909105020E94EC1582E192E09FD48091C2
:101B0000DA029091DB020E94EC1585E092E096D417
:101B10008091D8059091D9050E94EC158AEF91E04B
:101B20008DD48091CF059091D0050E94B0158CEE98
:101B300091E084D42091E6053091E7052115310527
:101B400011F42AEE35E0CE010196821B930B0E9420
:101B5000B0158DED91E072D480910602909107024C
:101B60008336910519F468E472E00AC08230910569
:101B700019F461E572E004C0019731F467E572E0A1
:101B800087EF93E00E94F6168AEC91E057D480919B
:101B90000202909103028336910519F468E472E021
:101BA0000AC08230910519F461E572E004C0019722
:101BB00031F467E572E087EF93E00E94F6160F902C
:101BC0000F90DF91CF911F910F9108951F920F9267
:101BD0000FB60F9211240BB60F922F933F934F9392
:101BE0005F936F937F938F939F93AF93BF93CF93A5
:101BF000EF93FF9320910601C091BF039091F403EE
:101C00008091F103322F309583239223892B909179
:101C10006D00C227C923C8232093BF03CC23C1F181
:101C2000C0FF05C0E091C003F091C1031995C1FF49
:101C300005C0E091C203F091C3031995C2FF05C02E
:101C4000E091C403F091C5031995C3FF05C0E0916D
:101C5000C603F091C7031995C4FF05C0E091C803FE
:101C6000F091C9031995C5FF05C0E091CA03F09131
:101C7000CB031995C6FF05C0E091CC03F091CD03CD
:101C80001995C7FF05C0E091CE03F091CF031995D8
:101C9000FF91EF91CF91BF91AF919F918F917F91E4
:101CA0006F915F914F913F912F910F900BBE0F90CD
:101CB0000FBE0F901F9018951F920F920FB60F92A4
:101CC00011240BB60F922F933F934F935F936F9313
:101CD0007F938F939F93AF93BF93CF93EF93FF9394
:101CE00020910301C091D1039091F5038091F203FB
:101CF000322F309583239223892B9091D003C227D2
:101D0000C923C8232093D103CC2389F1C0FF05C088
:101D1000E091D203F091D3031995C1FF05C0E09182
:101D2000D403F091D5031995C2FF05C0E091D60305
:101D3000F091D7031995C3FF05C0E091D803F09146
:101D4000D9031995C4FF05C0E091DA03F091DB03D4
:101D50001995C5FF05C0E091DC03F091DD031995ED
:101D6000C6FF05C0E091DE03F091DF031995FF91F6
:101D7000EF91CF91BF91AF919F918F917F916F9193
:101D80005F914F913F912F910F900BBE0F900FBE1F
:101D90000F901F9018951F920F920FB60F9211245B
:101DA0000BB60F922F933F934F935F936F937F9355
:101DB0008F939F93AF93BF93CF93EF93FF9323B1F1
:101DC000C091E0039091F6038091F303322F309598
:101DD00083239223892B90916B00C227C923C823A8
:101DE0002093E003CC23C1F1C0FF05C0E091E103E3
:101DF000F091E2031995C1FF05C0E091E303F09172
:101E0000E4031995C2FF05C0E091E503F091E603F4
:101E10001995C3FF05C0E091E703F091E803199518
:101E2000C4FF05C0E091E903F091EA031995C5FFED
:101E300005C0E091EB03F091EC031995C6FF05C0D6
:101E4000E091ED03F091EE031995C7FF05C0E09115
:101E5000EF03F091F0031995FF91EF91CF91BF91AE
:101E6000AF919F918F917F916F915F914F913F9132
:101E70002F910F900BBE0F900FBE0F901F901895D3
:101E80001F920F920FB60F9211240BB60F922F9341
:101E90003F934F935F936F937F938F939F93AF93F2
:101EA000BF93EF93FF93E091BD03F091BE031995AB
:101EB000FF91EF91BF91AF919F918F917F916F9122
:101EC0005F914F913F912F910F900BBE0F900FBEDE
:101ED0000F901F9018951F920F920FB60F9211241A
:101EE0000BB60F922F933F934F935F936F937F9314
:101EF0008F939F93AF93BF93EF93FF93E091BB03B7
:101F0000F091BC031995FF91EF91BF91AF919F9113
:101F10008F917F916F915F914F913F912F910F9092
:101F20000BBE0F900FBE0F901F9018951F920F922F
:101F30000FB60F9211240BB60F922F933F934F932E
:101F40005F936F937F938F939F93AF93BF93EF9321
:101F5000FF93E091B903F091BA031995FF91EF91C6
:101F6000BF91AF919F918F917F916F915F914F91B1
:101F70003F912F910F900BBE0F900FBE0F901F90AF
:101F800018951F920F920FB60F9211240BB60F9255
:101F90002F933F934F935F936F937F938F939F9371
:101FA000AF93BF93EF93FF93E091B703F091B80322
:101FB0001995FF91EF91BF91AF919F918F917F9173
:101FC0006F915F914F913F912F910F900BBE0F90AA
:101FD0000FBE0F901F9018951F920F920FB60F9281
:101FE00011240BB60F922F933F934F935F936F93F0
:101FF0007F938F939F93AF93BF93EF93FF93E09162
:10200000B503F091B6031995FF91EF91BF91AF9190
:102010009F918F917F916F915F914F913F912F9100
:102020000F900BBE0F900FBE0F901F9018951F9230
:102030000F920FB60F9211240BB60F922F933F936E
:102040004F935F936F937F938F939F93AF93BF93C0
:10205000EF93FF93E091B303F091B4031995FF91CF
:10206000EF91BF91AF919F918F917F916F915F9110
:102070004F913F912F910F900BBE0F900FBE0F907D
:102080001F9018951F920F920FB60F9211240BB646
:102090000F922F933F934F935F936F937F938F9301
:1020A0009F93AF93BF93EF93FF93E091B103F091B0
:1020B000B2031995FF91EF91BF91AF919F918F91CD
:1020C0007F916F915F914F913F912F910F900BBE38
:1020D0000F900FBE0F901F9018951F920F920FB682
:1020E0000F9211240BB60F922F933F934F935F9350
:1020F0006F937F938F939F93AF93BF93EF93FF93D0
:10210000E091AF03F091B0031995FF91EF91BF916A
:10211000AF919F918F917F916F915F914F913F917F
:102120002F910F900BBE0F900FBE0F901F90189520
:10213000E091F703F091F8030190F081E02D682F12
:1021400087EF93E01994E7EFF3E0A089B18982E08B
:102150008C93A485B5851C92A685B78580E18C9368
:10216000108EA489B58986E08C93A289B3898C915D
:1021700080618C93A289B3898C9188608C93A289A9
:10218000B3898C9180688C930288F389E02D8081DB
:102190008F7D808308958F779EEF980F923008F49B
:1021A000A4C095EB980F923008F49FC09EEE980F54
:1021B000943008F49AC0282F30E0F901863420F0DA
:1021C000E355FC4F849116C0ED54FC4F8491F90106
:1021D000E359FC4F9491923059F44091F603482B07
:1021E0004093F6034091F303482B4093F3031AC046
:1021F0009A3061F49091F503982B9093F5039091A8
:10220000F203982B9093F2039AE00CC09B3051F4A8
:102210004091F403482B4093F4034091F103482B81
:102220004093F103F901E05EFC4FA4919230C1F4B8
:10223000B0E0AA0FBB1FAF51BC4F6D937C93EAE097
:10224000F3E0A591B4919C919093E0032BE630E0EC
:102250003093C0052093BF059091680091603BC00A
:102260009A3001F5B0E0AA0FBB1FAE52BC4F6D9380
:102270007C93EAE1F3E0A591B4919C919093D10312
:102280002CE630E03093C0052093BF0590916800A4
:102290009260909368009091D003982B9093D00314
:1022A000880F1BC09B30C9F4B0E0AA0FBB1FA0541D
:1022B000BC4F6D937C93ECE1F3E0A591B4919C91BC
:1022C0009093BF032DE630E03093C0052093BF0507
:1022D00090916800946090936800A091BF05B091C0
:1022E000C005EC918E2B8C9308959FB7F8948331A1
:1022F00009F45BC0D8F4833009F47BC0823109F45F
:1023000066C0823009F098C07093B8036093B70339
:10231000EC9880916A008C7F80936A0080916A00BB
:10232000816080936A00E49AEC9A86C08531C9F096
:1023300050F18B3409F46FC08C3409F07DC0709378
:10234000BE036093BD03EF9880916A008F73809302
:102350006A0080916A00806480936A00E79AEF9A2D
:102360006BC07093B0036093AF03E89880916900ED
:102370008C7F8093690080916900816080936900FF
:10238000E09AE89A59C07093B2036093B103E99858
:1023900080916900837F80936900809169008460E7
:1023A00080936900E19AE99A47C07093B4036093FF
:1023B000B303EA98809169008F7C809369008091D3
:1023C0006900806180936900E29AEA9A35C070934F
:1023D000B6036093B503EB98809169008F73809387
:1023E000690080916900806480936900E39AEB9AA8
:1023F00023C07093BA036093B903ED9880916A008B
:10240000837F80936A0080916A00846080936A0071
:10241000E59AED9A11C07093BC036093BB03EE98EC
:1024200080916A008F7C80936A0080916A0080614D
:1024300080936A00E69AEE9A9FBF08950F931F93C8
:10244000CF93DF938C01C0E0D0E0F801EC0FFD1FCB
:102450006491662371F0E091F703F091F803019025
:10246000F081E02D87EF93E01995892B11F02196EB
:10247000ECCFCE01DF91CF911F910F910895EF9294
:10248000FF920F931F93CF93DF9340918505509157
:10249000860560918705709188054F5F5F4F6F4F8C
:1024A0007F4F409385055093860560938705709311
:1024B0008805843209F4A6C2E0917F05853234F4A0
:1024C0008A3071F08D3009F0ABC20AC08A3241F017
:1024D0008C3209F0A5C290916C05982790936C05F9
:1024E000082FEF3008F074C1F0E0E259FA4F108283
:1024F00080916D05882309F46DC120916E053FEB35
:10250000320F822F022E000C990B363010F4C79731
:1025100007C02156263018F48755910901C0C0978D
:10252000282F2295207F30916F054FEB430F832F8B
:10253000032E000C990B463010F4C79707C0315694
:10254000363018F48755910901C0C097820F9091D9
:102550006C0589132AC18091910590919205A091F3
:102560009305B09194050196A11DB11D809391052D
:1025700090939205A0939305B09394058091800564
:10258000882399F08091890590918A05A0918B0507
:10259000B0918C050196A11DB11D80938905909382
:1025A0008A05A0938B05B0938C0510917D051123AE
:1025B00009F46BC0113009F0D2C0809110059091E0
:1025C0001105A0911205B091130580930C0590930D
:1025D0000D05A0930E05B0930F050E947E05609334
:1025E00014057093150580931605909317051093A5
:1025F0000B0510930A0580911E0590911F05A0916F
:102600002005B091210580931A0590931B05A09396
:102610001C05B0931D050E947E05609322057093F2
:102620002305809324059093250510931905109395
:10263000180580918005882309F491C087E0E8EFB0
:10264000F4E0AAEEB4E001900D928A95E1F787E0FC
:10265000EFEFF4E0A1EFB4E001900D928A95E1F77D
:102660000E947E0560930605709307058093080518
:10267000909309051093E9041093E80486E295E02D
:102680000E943D0684E395E068C080911E0590910C
:102690001F05A0912005B091210580931A05909304
:1026A0001B05A0931C05B0931D050E947E05609339
:1026B000220570932305809324059093250511E04E
:1026C000109319051093180580918005882321F136
:1026D00087E0E8EFF4E0AAEEB4E001900D928A956D
:1026E000E1F787E0EFEFF4E0A1EFB4E001900D92A5
:1026F0008A95E1F70E947E056093060570930705B1
:1027000080930805909309051093E9041093E80459
:1027100082E495E00E943D0680915A0590915B0508
:10272000A0915C05B0915D05809356059093570587
:10273000A0935805B09359050E947E0560935205F9
:1027400070935305809354059093550581E08093D1
:102750005105809350058EE595E00E943D06C0919D
:102760008305D091840511E0209709F43CC1E091E4
:102770008305F091840566A177A18EA19FA10E9497
:102780008621892B09F02FC1BE01CE0140960E94FF
:102790008F210E947E0568A379A38AA39BA31DA312
:1027A0001CA30AA4DBA5C02DDFCF80918D059091DD
:1027B0008E05A0918F05B09190050196A11DB11DC8
:1027C00080938D0590938E05A0938F05B09390050F
:1027D00090E00AC180917E05811142C06CE572E0F3
:1027E0008EE695E00E948621892B41F062E672E038
:1027F0008EE695E00E948621892B11F481E014C0B9
:1028000068E672E08EE695E00E948621892B41F011
:102810006EE672E08EE695E00E948621892B19F41F
:1028200010927D0503C082E080937D058091810533
:10283000909182059093840580938305C0918305D0
:10284000D0918405209721F2EEA0FFA06EE675E0FE
:10285000C7010E94862197FFF9C08AA59BA5EACFF0
:10286000E0917D05E23009F493C090916E059923C3
:1028700009F48EC020E2E29FF0011124E82B319789
:10288000E932F10508F084C08827EA56FF4F8F4FE0
:102890000C947A218EE695E00E94DB0660931E057B
:1028A00070931F05809320059093210571C081E0EE
:1028B000913409F043C043C068EF74E009C081E07F
:1028C000933509F080E08093FE0462C06FEF74E0FE
:1028D0008EE695E00E9453065BC081E0973509F0D3
:1028E00080E08093050554C08EE695E00E94DB06EB
:1028F00060933005709331058093320590933305D2
:1029000047C08EE695E00E94DB0660933E0570931B
:102910003F0580934005909341053AC08EE695E0CF
:102920000E94791D60931005709311058093120524
:10293000909313052DC081E091330CF480E08093D7
:10294000800526C08EE695E00E94791D60935A05A9
:1029500070935B0580935C0590935D0519C08EE6CE
:1029600095E00E94DB06609368057093690580938B
:102970006A0590936B050CC08EE695E00E94DB061D
:1029800060934C0570934D0580934E0590934F05D1
:10299000C0918305D0918405209709F419CFE09167
:1029A0008305F091840566A177A18EA19FA10E9465
:1029B0008621892B09F00CCF28A539A580917E05A9
:1029C00090E0821793070CF403CF2817390739F4E6
:1029D00040E150E06EE675E0CE010E9496210AA427
:1029E000DBA5C02DD9CF91E080917E058F5F8093CC
:1029F0007E0510927F0581E00A3209F080E0809325
:102A00006D0532C010927F0510927E0510926C0504
:102A100082E080937D0510926D051092800514C0B0
:102A2000EE3040F491E09E0F90937F05F0E0E25984
:102A3000FA4F808390916D05911106C020916C052D
:102A4000822780936C0510C090E00EC06EE675E0A2
:102A5000C7010E948621181619060CF0B9CE1092F3
:102A6000840510928305B4CE892FDF91CF911F91F9
:102A70000F91FF90EF9008950F931F9390E0FC014A
:102A8000ED54FC4F6491FC01E359FC4FE491F0E0FC
:102A9000EE0FFF1FEA5FFC4F8591949100E412E472
:102AA0002FE030E0462F5CD361157105810591055B
:102AB00049F0DC01CB010196A11DB11DBC01CD0186
:102AC0009F7003C060E070E0CB011F910F910895EB
:102AD0004F925F926F927F92EF92FF920F931F93AC
:102AE000CF93DF93CDB7DEB7A1970FB6F894DEBFD3
:102AF0000FBECDBF7C01FA01CB0119A2223008F430
:102B00002AE08E010F5D1F4F422E512C612C712C3B
:102B1000BF01A30192010E94DC1EF901CA0101500C
:102B200011096A3014F4605D01C0695CD8016C93CE
:102B3000232B242B252B61F7B801C701FCD2A196CA
:102B40000FB6F894DEBF0FBECDBFDF91CF911F91BE
:102B50000F91FF90EF907F906F905F904F9008954E
:102B60000F931F93CF93DF9300D01F92CDB7DEB7A3
:102B7000AC01990F660B770B77FF19C08DE2498383
:102B80005A836B837C83D4DA8C0149815A816B81AF
:102B90007C8170956095509541955F4F6F4F7F4F49
:102BA0002AE087EF93E094DF080F191F05C02AE0A1
:102BB00087EF93E08DDF8C016FE872E087EF93E0A1
:102BC000BAD2800F911F0F900F900F900F90DF914E
:102BD000CF911F910F9108950F931F93CF93DF9380
:102BE00000D01F92CDB7DEB7AC01990F660B770B03
:102BF00077FF21C08DE249835A836B837C8398DA07
:102C00008C0149815A816B817C81709560955095CA
:102C100041955F4F6F4F7F4F2AE087EF93E058DF7A
:102C2000800F911F0F900F900F900F90DF91CF9119
:102C30001F910F9108952AE087EF93E00F900F9076
:102C40000F900F90DF91CF911F910F9141CF4F9235
:102C50005F926F927F928F929F92AF92BF92CF922C
:102C6000DF92EF92FF926B017C01B42E9B01AC01CD
:102C70000E945021882319F064E772E026C02601E3
:102C80003701E89477F82FEF3FEF4FE75FE7C30195
:102C9000B2010E94502181110CC02FEF3FEF4FE78E
:102CA0005FE7C301B20160D718161CF468E772E051
:102CB0000CC02FEF3FEF4FE75FE4C701B6010E9462
:102CC000FA2018168CF46CE772E087EF93E0FF901F
:102CD000EF90DF90CF90BF90AF909F908F907F90BC
:102CE0006F905F904F9027C22FEF3FEF4FE75FEC61
:102CF000C701B60139D787FDE6CF20E030E0A90152
:102D0000C701B60131D787FF08C08DE211DA4C0147
:102D1000F7FAF094F7F8F09402C0812C912CA12CD2
:102D200060E070E080E09FE3AB1441F020E030E031
:102D300040E251E40E940320A394F6CF9B01AC0132
:102D4000C701B6010E943A1F2B013C010E9470206E
:102D50006B017C010DD79B01AC01C301B2010E9444
:102D6000391F2B013C012AE0B701A60187EF93E050
:102D7000AFDE7C01E80CF91CBB2021F08EE2D8D933
:102D8000E80EF91EDB2CDD2019F120E030E040E2F6
:102D900051E4C301B2014DD72B013C010E947020C8
:102DA0004B01A12CB12C2AE0B501A40187EF93E0DF
:102DB0008FDEE80EF91EC501B401DAD69B01AC0125
:102DC000C301B2010E94391F2B013C01DA94DBCF11
:102DD000C701FF90EF90DF90CF90BF90AF909F9092
:102DE0008F907F906F905F904F9008950F931F93F7
:102DF000CF93DF93EC019FD18C016FE872E0CE019D
:102E00009AD1800F911FDF91CF911F910F9108955B
:102E100092C1FC01538D448D252F30E0842F90E02A
:102E2000821B930B541710F0CF96089501970895C5
:102E3000FC01918D828D981761F0828DDF01A80FC2
:102E4000B11D5D968C91928D9F5F9F73928F90E0E4
:102E500008958FEF9FEF0895FC01918D828D981753
:102E600031F0828DE80FF11D858D90E008958FEF90
:102E70009FEF0895FC01918D228D892F90E0805C59
:102E80009F4F821B91098F739927089587EF93E0D5
:102E9000F1DF21E0892B09F420E0822F0895FC0165
:102EA000848DDF01A80FB11DA35ABF4F2C91848DD3
:102EB00090E001968F739927848FA689B7892C9308
:102EC000A089B1898C9180648C93938D848D9813A3
:102ED00006C00288F389E02D80818F7D808308956C
:102EE000EF92FF920F931F93CF93DF93EC0181E05A
:102EF000888F9B8D8C8D981305C0E889F989808116
:102F000085FD23C0F62E0B8D10E00F5F1F4F0F7352
:102F10001127E02E8C8DE8120BC00FB607FCFACFFC
:102F2000E889F989808185FFF5CFCE01B8DFF2CF3E
:102F30008B8DFE01E80FF11DE35AFF4FF0820B8FDE
:102F4000EA89FB898081806207C0EE89FF896083FE
:102F5000E889F98980818064808381E090E0DF9155
:102F6000CF911F910F91FF90EF900895CF93DF9332
:102F7000EC01888D8823C1F0EA89FB89808185FD79
:102F800005C0A889B9898C9186FD0EC00FB607FCD3
:102F9000F5CF808185FFF2CFA889B9898C9185FF13
:102FA000EDCFCE017CDFE8CFDF91CF91089580E0B7
:102FB00090E0892B19F06ADF811125C080E090E054
:102FC000892B41F080E090E0892B21F00E940000E5
:102FD00081111CC080E090E0892B41F080E090E0FE
:102FE000892B21F00E940000811113C080E090E045
:102FF000892BA1F080E090E0892B81F00E940000F5
:1030000081110AC008950E940000D8CF0E940000DC
:10301000E1CF0E940000EACF0C94000008950E94C6
:1030200082211F920F920FB60F9211240BB60F92AE
:103030002F933F934F935F936F937F938F939F93C0
:10304000AF93BF93EF93FF9387EF93E028DFFF9158
:10305000EF91BF91AF919F918F917F916F915F9110
:103060004F913F912F910F900BBE0F900FBE0F907D
:103070001F9018951F920F920FB60F9211240BB646
:103080000F922F938F939F93EF93FF93E0910704F9
:10309000F09108048081E0910D04F0910E0482FD0E
:1030A00012C09081809110048F5F8F732091110462
:1030B000821751F0E0911004F0E0E950FC4F958F39
:1030C0008093100401C08081FF91EF919F918F91B7
:1030D0002F910F900BBE0F900FBE0F901F90189561
:1030E000CF92DF92EF92FF920F931F93CF93DF93D4
:1030F0006C017A018B01C0E0D0E0CE15DF0589F0CC
:10310000D8016D918D01D601ED91FC910190F08176
:10311000E02DC6011995892B11F47E0102C021967C
:10312000ECCFC701DF91CF911F910F91FF90EF90EE
:10313000DF90CF9008956115710579F0FB01019042
:103140000020E9F73197AF01461B570BDC01ED91E9
:10315000FC910280F381E02D199480E090E00895C5
:10316000CF92DF92EF92FF920F931F93E82FF92FE8
:1031700005C0015011092109310961F1908196239F
:103180009417B9F305C0015011092109310911F152
:10319000908196239413F7CFC12CD12CE12CF12CE4
:1031A0000AC08FEFC81AD80AE80AF80A0C151D05DC
:1031B0002E053F0579F080818623841791F36C2DCD
:1031C0007D2D8E2D9F2D1F910F91FF90EF90DF9001
:1031D000CF90089560E070E080E090E01F910F9143
:1031E000FF90EF90DF90CF9008958EE192E0909362
:1031F000DD048093DC04809173008B7F80937300E7
:10320000809173008F7D809373008091C4058093BB
:10321000C5058091C3058111FCCF809173008D7F1E
:10322000809373000895E7EFF3E01382128288EE33
:1032300093E0A0E0B0E084839583A683B7832CE07D
:1032400032E03183208325EC30E03587248724EC7D
:1032500030E03787268720EC30E0318B208B21EC63
:1032600030E0338B228B22EC30E0358B248B26EC44
:1032700030E0378B268B118E128E138E148EE4E97C
:10328000F4E0168217821086118612861386148641
:10329000158616861786108A118A128A138A148A4E
:1032A000158A20910402309105023093BE052093C7
:1032B000BD05E5E9F5E041E051E164EF71E44083EB
:1032C0005183628373834EE45AEA63EC72EC448365
:1032D0005583668377834FE850E164EF71E440875C
:1032E0005187628773874DE35AEA63EC72EC448737
:1032F0005587668777874DEC5FE064EF71E4408B1C
:10330000518B628B738B4BE25AEA63EC72EC448B09
:10331000558B668B778B40E451E164EF71E4408F0D
:10332000518F628F738F40E65AEA63EC72EC448FE0
:10333000558F668F778F42E751E164EF71E440A3C8
:1033400051A362A373A343E55AEA63EC72EC44A36E
:1033500055A366A377A3E8EEF4E0108211821382EE
:1033600012821482158216821782108612861186A6
:1033700013861486158616861786118A108A128A75
:10338000138A148A158A168A108E178A118E128E45
:10339000138E148E158E12A213A214A215A216A2B9
:1033A00017A210AA11AA12AA13AA14AA15AA109257
:1033B00026051092270510922C0510922D051092CB
:1033C0002E0510922F05109234051092350510929B
:1033D0003A0510923B0510923C0510923D05109263
:1033E000420510924305109248051092490510922B
:1033F0004A0510924B0510925005109251051092FB
:1034000056051092570510925805109259051092C2
:103410005E0510925F05109264051092650510928A
:1034200066051092670510926C0510926D0522E0FA
:1034300020937D0510927E0510927F0510928005E5
:1034400010928205109281051092840510928305D6
:1034500010928505109286051092870510928805B6
:103460001092890510928A0510928B0510928C0596
:1034700010928D0510928E0510928F051092900576
:103480001092910510929205109293051092940556
:1034900010926E05ECEDF4E0138212828483958322
:1034A000A683B7838EE192E0918380830895CF93C2
:1034B000DF9300D01F92CDB7DEB7789484B58260D9
:1034C00084BD84B5816084BD85B5826085BD85B5C8
:1034D000816085BD80916E00816080936E00109246
:1034E00081008091810082608093810080918100C1
:1034F0008160809381008091800081608093800052
:103500008091B10084608093B1008091B0008160AF
:103510008093B000809191008260809391008091AF
:1035200091008160809391008091900081608093F0
:1035300090008091A10082608093A1008091A10001
:1035400081608093A1008091A00081608093A000A1
:10355000809121018260809321018091210181600D
:1035600080932101809120018160809320018091CE
:103570007A00846080937A0080917A0082608093E0
:103580007A0080917A00816080937A0080917A003D
:10359000806880937A001092C1001092D804109233
:1035A000D9041092DA041092DB041092960410925F
:1035B000970410929804109299040E947E056B0162
:1035C0007C014B015C0128EB820E2BE0921EA11CBA
:1035D000B11C0E947E056C157D058E059F0528F0A7
:1035E00086169706A806B906A0F787EF93E0909392
:1035F000D7048093D6040E94A3100E947E05609396
:10360000960470939704809398049093990460E8CB
:1036100072E08091D6049091D704FADB0E947E0577
:103620006B017C014B015C013AE0830E911CA11CF3
:10363000B11C0E947E056C157D058E059F0528F046
:1036400086169706A806B906A0F781E08093AA041B
:1036500062E972E087EF93E0C9DB60E08BE30E94F0
:103660007B0460E08AE30E947B0460E082E40E94C5
:103670007B0460E083E40E947B046CE673E082E4F8
:103680000E94CB1069E673E083E40E94CB1061E0F6
:1036900082E20E947B0462E083E20E947B0461E09C
:1036A00084E20E947B0462E085E20E947B0460E089
:1036B00089E30E947B0461E085E00E947B0462E074
:1036C0008AE20E947B0461E08AE20E947B0461E05E
:1036D0008CE00E947B0461E089E00E947B040E94F0
:1036E000A310109273001092200181E880932101B1
:1036F00083E896E09093CA058093C9058BE39CE329
:103700009093C8058093C70562E080E30E947B0424
:1037100061E08EE20E944C0461E08EE20E947B0434
:103720001092C6051092C5051092C4051092C305EB
:103730001092C2051092C10580E28ABB809373008B
:1037400083E4382E94E4C92E9DEFD92EEE24EA941A
:10375000FE2C2AE9822E2CEF922EAA24AA94BA2CAF
:103760000E947E05672B682B692B41F40E947E0521
:10377000623071058105910508F40DC10E947E0536
:103780006093E2057093E3058093E4059093E5056B
:103790000091DE051091DF052091E0053091E105F3
:1037A000601771078207930740F46093DE057093FA
:1037B000DF058093E0059093E1050091DE0510910F
:1037C000DF052091E0053091E1052B013C01401A15
:1037D000510A620A730A930182010A3F1105210509
:1037E000310508F4D8C06093DE057093DF0580933F
:1037F000E0059093E10524EF31E040E050E02093B4
:10380000A2043093A3044093A4045093A5041092FF
:10381000A6041092A7041092A8041092A904809103
:103820009A0490919B04A0919C04B0919D04809374
:103830009E0490939F04A093A004B093A1040E94BF
:103840007E0560939A0470939B0480939C049093EC
:103850009D040E947E056093960470939704809364
:103860009804909399040E947E052B013C016BE91A
:1038700072E08091D6049091D704CADA2AE041E040
:1038800050E060E070E08091D6049091D70420D998
:1038900062EA72E08091D6049091D704B9DA2AE006
:1038A000B301A2018091D6049091D70411D965EC9F
:1038B00072E08091D6049091D704AADA80919A049C
:1038C00090919B04A0919C04B0919D04B301A2012E
:1038D000481B590B6A0B7B0B2AE08091D604909110
:1038E000D704F6D865EC72E08091D6049091D704A5
:1038F0008FDA40919A0450919B0460919C047091DE
:103900009D0480919E0490919F04A091A004B09189
:10391000A104481B590B6A0B7B0B2AE08091D6044B
:103920009091D704D5D866EA72E08091D604909140
:10393000D7046EDA0E947E05AB01BC012AE08091BB
:10394000D6049091D704C4D868EA72E08091D60476
:103950009091D7044BDA0E947E052B013C019B011C
:10396000AC012B5F3F4F4F4F5F4F29833A834B830F
:103970005C830E947E05641575058605970508F031
:10398000ADC00E947E0560939A0470939B0480935F
:103990009C0490939D0480917B00877F80937B00A3
:1039A00030927C0080917A00806480937A008091CC
:1039B0007A0086FDFCCF8091780080917900F894A0
:1039C0008091CB059091CC05A091CD05B091CE050D
:1039D0008093DA059093DB05A093DC05B093DD05B9
:1039E00078944090DA055090DB055A824982009124
:1039F000DC051091DD0564E170E085E00E94B7040C
:103A00008CED94E00E94AC02181619063CF48CED83
:103A100094E00E94CE020E943F12F2CF0E94CC0896
:103A2000C801012E000CAA0BBB0B9C01AD01285054
:103A3000374041095109A0E4BFEF08D2A701960120
:103A4000DDD129013A018FEF480E511C611C711C18
:103A5000B2018CE00E94B7046FEA72E087EF93E056
:103A6000D7D9C201B9D865EB72E087EF93E0D0D91E
:103A7000C801B2D849805A80C201550CAA0BBB0BB1
:103A80009C01AD012E59374041095109A0ECB0E02D
:103A9000D1D1A5019401B2D129013A018FE3480E99
:103AA000511C611C711CB20189E00E94B7046EEBCD
:103AB00072E087EF93E0ACD9C2018ED865EB72E07B
:103AC00087EF93E0A5D989819A814AD868EC70E0A4
:103AD00080E090E00E94EF096ADA42CE29813A81C3
:103AE0004B815C81261737074807590708F041CFFB
:103AF00048CF1F93FC0199278827BC01E8941191B6
:103B00001032E9F3193010F01E30C8F31B3249F0BF
:103B10001D3241F4689405C012D0610F711D811DE2
:103B2000911D119110531A30B8F33EF49095809581
:103B3000709561957F4F8F4F9F4F1F910895592F1B
:103B4000482F372F262F660F771F881F991F660F64
:103B5000771F881F991F620F731F841F951F660FA1
:103B6000771F881F991F089540D008F481E00895B9
:103B7000E89409C097FB3EF4909580957095619507
:103B80007F4F8F4F9F4F9923A9F0F92F96E9BB27BD
:103B90009395F695879577956795B795F111F8CF39
:103BA000FAF4BB0F11F460FF1BC06F5F7F4F8F4FA4
:103BB0009F4F16C0882311F096E911C0772321F09A
:103BC0009EE8872F762F05C0662371F096E8862F32
:103BD00070E060E02AF09A95660F771F881FDAF789
:103BE000880F9695879597F90895990F0008550FB6
:103BF000AA0BE0E8FEEF16161706E807F907C0F073
:103C000012161306E407F50798F0621B730B840B7A
:103C1000950B39F40A2661F0232B242B252B21F454
:103C200008950A2609F4A140A6958FEF811D811DF4
:103C300008950BD078C069D028F06ED018F0952385
:103C400009F05AC05FC01124A2C07ED0A0F3959F96
:103C5000D1F3950F50E0551F629FF001729FBB2773
:103C6000F00DB11D639FAA27F00DB11DAA1F649F1F
:103C70006627B00DA11D661F829F2227B00DA11DD2
:103C8000621F739FB00DA11D621F839FA00D611D58
:103C9000221F749F3327A00D611D231F849F600D79
:103CA000211D822F762F6A2F11249F5750408AF0B2
:103CB000E1F088234AF0EE0FFF1FBB1F661F771F3E
:103CC000881F91505040A9F79E3F510570F014C0D5
:103CD0005EC05F3FECF3983EDCF386957795679581
:103CE000B795F795E7959F5FC1F7FE2B880F911D5C
:103CF0009695879597F9089597F99F6780E870E002
:103D000060E008959FEF80EC089500240A94161651
:103D1000170618060906089500240A9412161306B9
:103D2000140605060895092E0394000C11F4882347
:103D300052F0BB0F40F4BF2B11F460FF04C06F5F63
:103D40007F4F8F4F9F4F089557FD9058440F551F39
:103D500059F05F3F71F04795880F97FB991F61F00D
:103D60009F3F79F087950895121613061406551F84
:103D7000F2CF4695F1DF08C0161617061806991FF0
:103D8000F1CF86957105610508940895E894BB27E5
:103D900066277727CB0197F90895DB018F939F93CF
:103DA00049D0BF91AF91A29F800D911DA39F900D0F
:103DB000B29F900D11240895A1E21A2EAA1BBB1BDD
:103DC000FD010DC0AA1FBB1FEE1FFF1FA217B307E7
:103DD000E407F50720F0A21BB30BE40BF50B661FFD
:103DE000771F881F991F1A9469F7609570958095C1
:103DF00090959B01AC01BD01CF010895052E97FB65
:103E000016F400940FD057FD05D0D6DF07FC02D082
:103E100046F408C050954095309521953F4F4F4F3F
:103E20005F4F089590958095709561957F4F8F4F66
:103E30009F4F08950FD0A59F900DB49F900DA49F04
:103E4000800D911D11240895B7FFF4CFF3DF821B7D
:103E5000930B0895A29FB001B39FC001A39F700D63
:103E6000811D1124911DB29F700D811D1124911D82
:103E700008955058BB27AA270ED055CF46DF30F003
:103E80004BDF20F031F49F3F11F41EF43BCF0EF4D2
:103E9000E095E7FB31CFE92F57DF80F3BA176207D0
:103EA00073078407950718F071F49EF56FCF0EF431
:103EB000E0950B2EBA2FA02D0B01B90190010C013A
:103EC000CA01A0011124FF27591B99F0593F50F452
:103ED000503E68F11A16F040A22F232F342F4427AA
:103EE000585FF3CF469537952795A795F0405395A2
:103EF000C9F77EF41F16BA0B620B730B840BBAF072
:103F00009150A1F0FF0FBB1F661F771F881FC2F7DC
:103F10000EC0BA0F621F731F841F48F487957795F0
:103F20006795B795F7959E3F08F0B3CF9395880FA7
:103F300008F09927EE0F979587950895E6DE58F0DB
:103F400080E891E009F49EEFE7DE28F040E851E0D8
:103F500059F45EEF09C0D6CE19CFE92FE078F4DE30
:103F600068F3092E052AC1F32617370748075907B2
:103F700038F00E2E07F8E02569F0E025E0640AC06D
:103F8000EF6307F8009407FADB01B9019D01DC013A
:103F9000CA01AD01EF9346D0C6DE0AD05F9155232A
:103FA00031F02BED3FE049E450FD49EC63CF08953B
:103FB000DF93DD27B92FBF7740E85FE316161706BA
:103FC00048075B0710F4D92F19D19F938F937F93E4
:103FD0006F9363D1EEE7F1E0AFD0A5DE2F913F9173
:103FE0004F915F9132DEDD2349F09058A2EA2AED2D
:103FF0003FE049EC5FE3D0785D274DDFDF9193CE62
:10400000C1D0E395E6C00CD08ECE86DE40F07DDEDA
:1040100030F021F45F3F19F06FCE5111B8CE72CE5F
:1040200093DE98F39923C9F35523B1F3951B550BF0
:10403000BB27AA2762177307840738F09F5F5F4F7B
:10404000220F331F441FAA1FA9F333D00E2E3AF0BC
:10405000E0E830D091505040E695001CCAF729D0D6
:10406000FE2F27D0660F771F881FBB1F2617370725
:104070004807AB07B0E809F0BB0B802DBF01FF2755
:1040800093585F4F2AF09E3F510568F035CE7FCEA2
:104090005F3FECF3983EDCF3869577956795B7958F
:1040A000F7959F5FC9F7880F911D9695879597F9AA
:1040B0000895E1E0660F771F881FBB1F6217730723
:1040C0008407BA0720F0621B730B840BBA0BEE1F38
:1040D00088F7E095089504D06894B11158CE0895FA
:1040E0003BDE88F09F5790F0B92F9927B751A0F089
:1040F000D1F0660F771F881F991F1AF0BA95C9F77C
:1041000012C0B13081F042DEB1E008953FCE672F9A
:10411000782F8827B85F39F0B93FCCF3869577952B
:104120006795B395D9F73EF4909580957095619514
:104130007F4F8F4F9F4F0895DF93CF931F930F9320
:10414000FF92EF92DF927B018C01689405C0DA2E1A
:10415000EF017BDDFE01E894A59125913591459114
:104160005591AEF3EF0197DEFE019701A801DA94B5
:1041700079F7DF90EF90FF900F911F91CF91DF9132
:104180000895C0CDE9DDE8F3E894E0E0BB279F5750
:10419000F0F02AED3FE049EC06C0EE0FBB0F661FC2
:1041A000771F881F28F0B23A62077307840728F048
:1041B000B25A620B730B840BE3959A9572F78038B1
:1041C00030F49A95BB0F661F771F881FD2F790486F
:1041D0006DC0EF93E0FF06C0A2EA2AED3FE049EC94
:1041E0005FEB59DEA0DD0F90039401FC9058EBEAE1
:1041F000F1E06FC0FADC08F48FEF08959B01AC0189
:1042000060E070E080E89FE3FECE9F93BBDF0F90FD
:1042100007FCEE5FDECF11F40EF474CD45C09CDDDB
:10422000D0F39923D9F3CEF39F57550B87FF4AD08C
:104230000024A0E640EA900180585695979528F40E
:10424000805C660F771F881F20F026173707480706
:1042500030F4621B730B840B202931294A2BA6955D
:1042600017940794202531254A2758F7660F771FA2
:10427000881F20F026173707480730F4620B730BAE
:10428000840B200D311D411DA09581F7B901842FAC
:104290009158880F9695879508959B01AC01C9CCDC
:1042A000A4DC880B990B08959F3F31F0915020F4C6
:1042B000879577956795B795880F911D9695879502
:1042C00097F9089591505040660F771F881FD2F7D5
:1042D00008959F938F937F936F93FF93EF939B0129
:1042E000AC01A7DCEF91FF9127DF2F913F914F9118
:1042F0005F919FCCEE0FFF1F881F8BBF0790F69139
:10430000E02D199481E090E0F8941FC0FB01DC01DE
:104310008D91019080190110D9F3990B0895FB013B
:10432000DC0101900D920020E1F70895FB01DC0112
:104330004150504048F001900D920020C9F701C053
:104340001D9241505040E0F7089511E0CEEFD1E0CA
:1043500000E005C0802FFE01CDDF2196011DCF3F7B
:0C436000D10780E00807B1F7F894FFCF08
:10436C00FFFF6300BE0063000000000070177018B0
:10437C000917B6173A1718172C1700000000E90296
:10438C0070187003E402AC02CE02BB0220475053FB
:10439C0020466978203D20002057617970696E7441
:1043AC00204C4154203D200053747261696768743D
:1043BC00005269676874004C656674004750524D32
:1043CC004300474E524D4300475047474100474E2C
:1043DC00474741006E616E00696E66006F7666003D
:1043EC00564D4450565F317C315F564D4450560DFE
:1043FC000A005374617274696E6700564D445045DF
:10440C005F003A323A007C005F564D445045004301
:10441C004833203A002056616C75653A2000202DF7
:08442C0020434831203A000052
:020000023000CC
:10E000000D9489F10D94B2F10D94B2F10D94B2F129
:10E010000D94B2F10D94B2F10D94B2F10D94B2F1F0
:10E020000D94B2F10D94B2F10D94B2F10D94B2F1E0
:10E030000D94B2F10D94B2F10D94B2F10D94B2F1D0
:10E040000D94B2F10D94B2F10D94B2F10D94B2F1C0
:10E050000D94B2F10D94B2F10D94B2F10D94B2F1B0
:10E060000D94B2F10D94B2F10D94B2F10D94B2F1A0
:10E070000D94B2F10D94B2F10D94B2F10D94B2F190
:10E080000D94B2F10D94B2F10D94B2F10D94B2F180
:10E090000D94B2F10D94B2F10D94B2F10D94B2F170
:10E0A0000D94B2F10D94B2F10D94B2F10D94B2F160
:10E0B0000D94B2F10D94B2F10D94B2F10D94B2F150
:10E0C0000D94B2F10D94B2F10D94B2F10D94B2F140
:10E0D0000D94B2F10D94B2F10D94B2F10D94B2F130
:10E0E0000D94B2F141546D656761323536300041AF
:10E0F000726475696E6F206578706C6F72657220DE
:10E1000073746B3530305632206279204D4C530099
:10E11000426F6F746C6F616465723E004875683F52
:10E1200000436F6D70696C6564206F6E203D200048
:10E130004350552054797065202020203D20005FF9
:10E140005F4156525F415243485F5F3D2000415658
:10E1500052204C696243205665723D20004743437C
:10E160002056657273696F6E203D20004350552024
:10E1700049442020202020203D20004C6F7720663D
:10E18000757365202020203D20004869676820665F
:10E190007573652020203D200045787420667573D6
:10E1A00065202020203D20004C6F636B2066757336
:10E1B000652020203D20004D617220203720323024
:10E1C000313300312E362E3800342E332E350056A2
:10E1D00023202020414444522020206F7020636F70
:10E1E00064652020202020696E73747275637469E1
:10E1F0006F6E2061646472202020496E74657272B3
:10E20000757074006E6F20766563746F7200726A49
:10E210006D702020006A6D70200057686174207056
:10E220006F72743A00506F7274206E6F7420737541
:10E2300070706F72746564004D7573742062652030
:10E2400061206C6574746572002000577269747483
:10E25000696E672045450052656164696E672045B7
:10E26000450045452065727220636E743D00504F35
:10E27000525400303D5A65726F2061646472003FF1
:10E280003D43505520737461747300403D454550C3
:10E29000524F4D207465737400423D426C696E6B41
:10E2A000204C454400453D44756D70204545505215
:10E2B0004F4D00463D44756D7020464C415348001B
:10E2C000483D48656C70004C3D4C69737420492F83
:10E2D0004F20506F72747300513D51756974005234
:10E2E0003D44756D702052414D00563D73686F7707
:10E2F00020696E7465727275707420566563746FF0
:10E30000727300593D506F727420626C696E6B00BD
:10E310002A0011241FBECFEFD1E2DEBFCDBF01E046
:10E320000CBF12E0A0E0B2E0EEE1FDEF03E00BBFB6
:10E3300002C007900D92A030B107D9F712E0A0E01B
:10E34000B2E001C01D92AE30B107E1F70F9460F367
:10E350000D948DFE01E20EBF0FEF0DBF11241FBE05
:10E360000D9460F30D9400F020E030E040ED57E0B4
:10E3700005C0FA013197F1F72F5F3F4F2817390792
:10E38000C0F308959C01260F311DC901A0E0B0E043
:10E390002F5F3F4FABBFFC018791882361F08093D3
:10E3A000C6008091C00086FFFCCF8091C0008064D1
:10E3B0008093C000EACF08958DE08093C6008091DD
:10E3C000C00086FFFCCF8091C00080648093C000B5
:10E3D0008AE08093C6008091C00086FFFCCF8091C8
:10E3E000C00080648093C00008950F94C2F10F9420
:10E3F000DCF10895FC019081992359F09093C600B7
:10E400008091C00086FFFCCF8091C0008064809323
:10E41000C0003196992379F70895282F982F929567
:10E420009F70892F805D8A3308F0895F8093C600D2
:10E430008091C00086FFFCCF8091C00080648093F3
:10E44000C000822F8F70982F905D9A3308F0995FEB
:10E450009093C6008091C00086FFFCCF8091C000E1
:10E4600080648093C00008959C01FB01853691056E
:10E470001CF46330710594F0C90164E670E00F94F8
:10E480002EFE605D7F4F6093C6008091C00086FFC6
:10E49000FCCF8091C00080648093C0002B30310598
:10E4A00014F43297B4F0C90164E670E00F942EFEC4
:10E4B0006AE070E00F942EFE605D7F4F6093C600AF
:10E4C0008091C00086FFFCCF8091C0008064809363
:10E4D000C000C9016AE070E00F942EFEC0968093E0
:10E4E000C6008091C00086FFFCCF8091C000806490
:10E4F0008093C00008951F93182F8EE692EE60E07F
:10E500000F94C2F11093C6008091C00086FFFCCF2B
:10E510008091C00080648093C0000F94DCF11F9153
:10E5200008952F923F924F925F926F927F928F92B7
:10E530009F92AF92BF92CF92DF92EF92FF920F9392
:10E540001F93DF93CF93CDB7DEB762970FB6F894E2
:10E55000DEBF0FBECDBF382E622ECA01DB015C01CB
:10E560006D01772420E2222E2E010894411C511CBB
:10E570008BC081E0A81680E0B80681E0C80680E084
:10E58000D80628F0C601AA27BB270F940DF2BB2797
:10E59000AD2D9C2D8B2D0F940DF28A2D0F940DF225
:10E5A0002092C6008091C00086FFFCCF8091C00001
:10E5B00080648093C0009DE29093C6008091C0006B
:10E5C00086FFFCCF8091C00080648093C0002092C1
:10E5D000C6008091C00086FFFCCF8091C00080649F
:10E5E0008093C00019828601750188249924A1E0D6
:10E5F0003A1651F03A1620F0B2E03B1661F409C029
:10E600000BBFF701779007C0C7010F9477FE782EF4
:10E6100002C0F7017080872D0F940DF22092C60082
:10E620008091C00086FFFCCF8091C0008064809301
:10E63000C000872D8052F401EF70F0708F3520F408
:10E64000E40DF51D708204C0E40DF51D8EE280839B
:10E650000894E11CF11C011D111D0894811C911CE2
:10E6600090E18916910409F0C2CF80E190E0A0E02A
:10E67000B0E0A80EB91ECA1EDB1E198AC2010F9493
:10E68000FAF10F94DCF16A94662009F072CF629679
:10E690000FB6F894DEBF0FBECDBFCF91DF911F91B3
:10E6A0000F91FF90EF90DF90CF90BF90AF909F9031
:10E6B0008F907F906F905F904F903F902F90089534
:10E6C0002F923F924F925F926F927F928F929F9282
:10E6D000AF92BF92CF92DF92EF92FF920F931F9370
:10E6E000DF93CF93CDB7DEB7CD53D1400FB6F894BB
:10E6F000DEBF0FBECDBF01E20EBF0FEF0DBF94B75F
:10E70000F894A89514BE80916000886180936000A1
:10E7100010926000789493FF05C0E0910002F091A0
:10E7200001021995279A2F9A8091C00082608093E8
:10E73000C00080E18093C40088E18093C1000000A4
:10E74000EE24FF24870144E0A42EB12CCC24DD2448
:10E7500024C0C5010197F1F70894E11CF11C011DCB
:10E76000111D21E2E2162EE4F20620E0020720E06D
:10E77000120718F031E0C32ED12CC801B70127ECE5
:10E780003BE140E050E00F9441FE611571058105C9
:10E79000910519F485B1805885B98091C00087FD35
:10E7A00003C0C114D104A9F2A6014F5F5F4FC25E3E
:10E7B000DE4F59834883CE51D140C25EDE4F8881FF
:10E7C0009981CE51D140019711F00D9410FEC05D9A
:10E7D000DE4F19821882C053D14060E0C15DDE4F28
:10E7E0001882CF52D14088249924C35DDE4F19820C
:10E7F0001882CD52D140C05EDE4F188219821A8233
:10E800001B82C052D140CE5CDE4F188219821A8220
:10E810001B82C253D140EE24FF2487010BBFF701B6
:10E8200007911691C45CDE4F19830883CC53D14005
:10E830000D940BFEC25EDE4F28813981CE51D1404E
:10E840002130310509F52091C600C25EDE4F1982E4
:10E850001882CE51D14022C02F5F3F4F4F4F5F4FA4
:10E86000213082E138078AE7480780E0580780F0C6
:10E87000C45CDE4FE881F981CC53D140EF5FFF4F9C
:10E8800019F0EE27FF27099420E030E040E050E047
:10E890008091C00087FFE0CF2091C600C35DDE4FAE
:10E8A00048815981CD52D1404F5F5F4FC35DDE4FEC
:10E8B00059834883CD52D140213209F063C64A3092
:10E8C000510508F05FC60894811C911C53E0851621
:10E8D000910409F059C600E010E018C081E280936D
:10E8E000C6008091C00086FFFCCF8091C00080648C
:10E8F0008093C0002F5F3F4F2931310579F70F9486
:10E90000DCF10F5F1F4F0530110519F020E030E0FA
:10E91000E5CF10920A0210920B0210920C02109294
:10E920000D02109206021092070210920802109235
:10E930000902109202021092030210920402109235
:10E9400005028FEE90EE60E00F94F5F180E191EE1C
:10E9500060E00F94C2F18091C00087FFFCCF9091DE
:10E96000C600903608F09F759032B8F09093C600BC
:10E970008091C00086FFFCCF8091C00080648093AE
:10E98000C000A0E2A093C6008091C00086FFFCCF2B
:10E990008091C00080648093C000983409F4D7C18E
:10E9A0009934B8F4923409F459C1933458F490333B
:10E9B00019F1903308F4E3C59F33A1F1903409F0C5
:10E9C000DEC5BDC0953409F470C1963409F0D7C5D1
:10E9D00098C1923509F42BC2933538F49C3409F46C
:10E9E000F5C1913509F0CBC518C2963509F445C279
:10E9F000993509F0C4C567C483E792EE62E00F94CD
:10EA0000F5F110920602109207021092080210927D
:10EA1000090210920A0210920B0210920C0210923C
:10EA20000D0213C18FE792EE62E00F94F5F18FEEC5
:10EA300090EE60E00F94F5F181E291EE60E00F94CA
:10EA4000C2F187EB91EE60E00F94F5F180E391EE77
:10EA500060E00F94C2F184EE90EE60E00F94F5F167
:10EA60008FE391EE60E00F94C2F186E090E061E008
:10EA700070E00F9434F20F94DCF18DE591EE60E0DC
:10EA80000F94C2F189EC91EE60E00F94F5F18EE401
:10EA900091EE60E00F94C2F183EC91EE60E00F9490
:10EAA000F5F18CE691EE60E00F94C2F18EE10F94E7
:10EAB0000DF288E90F940DF281E00F940DF20F949E
:10EAC000DCF18BE791EE60E00F94C2F119E0E0E039
:10EAD000F0E010935700E4918E2F0F940DF20F94F5
:10EAE000DCF18AE891EE60E00F94C2F1E3E0F0E03F
:10EAF00010935700E4918E2F0F940DF20F94DCF1D8
:10EB000089E991EE60E00F94C2F1E2E0F0E0109349
:10EB10005700E4918E2F0F940DF20F94DCF188EAE8
:10EB200091EE60E00F94C2F1E1E0F0E01093570045
:10EB30001491812F0F940DF20F94DCF107CF8BE825
:10EB400092EE62E00F94F5F18BE492EE60E00F94A8
:10EB5000F5F10F94DCF100E010E019C0C8016F2D51
:10EB60000F947FFEFF2031F489E492EE60E00F9471
:10EB7000C2F10BC0F092C6008091C00086FFFCCFAE
:10EB80008091C00080648093C0000F5F1F4FC80158
:10EB900081519F41A0E0B0E0ABBFFC01F790BAE229
:10EBA000FB1621F0E2E000301E07C1F60F94DCF105
:10EBB0000F94DCF187E592EE60E00F94F5F10F948D
:10EBC000DCF1CC24DD2400E010E01EC0C8010F946D
:10EBD00077FEF82E882331F489E492EE60E00F94FA
:10EBE000C2F10BC08093C6008091C00086FFFCCFAD
:10EBF0008091C00080648093C000FE1419F00894D6
:10EC0000C11CD11C0F5F1F4FC80181519F41A0E063
:10EC1000B0E0ABBFFC01E790FAE2EF1621F022E092
:10EC20000030120799F60F94DCF10F94DCF182E6C4
:10EC300092EE60E00F94C2F1C60161E070E00F94C3
:10EC400034F20F94DCF10F94DCF110920202109276
:10EC50000302109204021092050278CE89E992EE26
:10EC600062E00F94F5F1279A2F9A16C02F9880E052
:10EC700090E0E0EDF7E03197F1F7019684369105E9
:10EC8000C1F72F9A80E090E0E0EDF7E03197F1F7DF
:10EC9000019684369105C1F78091C00087FFE6CFC9
:10ECA0008091C00087FFFCCF64C485EA92EE62E0E9
:10ECB0000F94F5F140910202509103026091040219
:10ECC0007091050281E020E10F9491F2809102029F
:10ECD00090910302A0910402B091050280509F4FD1
:10ECE000AF4FBF4F8093020290930302A0930402A0
:10ECF000B093050280509041A040B04008F426CE69
:10ED0000A4CF83EB92EE62E00F94F5F140910602FE
:10ED100050910702609108027091090280E020E1A1
:10ED20000F9491F28091060290910702A09108023F
:10ED3000B091090280509F4FAF4FBF4F80930602A2
:10ED400090930702A0930802B0930902FFCD80ECD4
:10ED500092EE62E00F94F5F183E792EE60E00F949B
:10ED6000F5F18FE792EE60E00F94F5F18BE892EE0B
:10ED700060E00F94F5F189E992EE60E00F94F5F10F
:10ED800085EA92EE60E00F94F5F183EB92EE60E09D
:10ED90000F94F5F180EC92EE60E00F94F5F187ECC2
:10EDA00092EE60E00F94F5F188ED92EE60E00F9442
:10EDB000F5F18FED92EE60E00F94F5F18AEE92EEB0
:10EDC00060E00F94F5F183E093EEBDCD87EC92EE19
:10EDD00062E00F94F5F181E40F947BF282E40F94EA
:10EDE0007BF283E40F947BF284E40F947BF285E45E
:10EDF0000F947BF286E40F947BF287E40F947BF20E
:10EE000088E40F947BF28AE40F947BF28BE40F94F6
:10EE10007BF28CE40F947BF299CD88ED92EE62E068
:10EE20000F94F5F1772473948824992409C48FED05
:10EE300092EE62E00F94F5F140910A0250910B02BC
:10EE400060910C0270910D0282E020E10F9491F22A
:10EE500080910A0290910B02A0910C02B0910D02D8
:10EE600080509F4FAF4FBF4F80930A0290930B0289
:10EE7000A0930C02B0930D0269CD8AEE92EE62E08F
:10EE80000F94F5F184EE90EE60E00F94F5F18FECC5
:10EE900091EE60E00F94F5F1662477244301CC5D98
:10EEA000DE4F19821882C452D140D401C301B695F5
:10EEB000A79597958795CA5DDE4F88839983AA8326
:10EEC000BB83C652D140CC5DDE4FA881B981C4520C
:10EED000D1401196CC5DDE4FB983A883C452D14096
:10EEE000CD0162E070E00F9434F2B0E2B093C6005E
:10EEF0008091C00086FFFCCF8091C0008064809329
:10EF0000C000EDE2E093C6008091C00086FFFCCF18
:10EF10008091C00080648093C000F0E2F093C6004E
:10EF20008091C00086FFFCCF8091C00080648093F8
:10EF3000C000CA5DDE4FE880F9800A811B81C6529D
:10EF4000D140BB27A12F902F8F2D0F940DF2CA5DBA
:10EF5000DE4F8881C652D1400F940DF2B0E2FB2EF5
:10EF6000F092C6008091C00086FFFCCF8091C00067
:10EF700080648093C0000DE30093C6008091C000C0
:10EF800086FFFCCF8091C00080648093C00010E2B7
:10EF90001093C6008091C00086FFFCCF8091C00016
:10EFA00080648093C0008BBEF3012791C65DDE4F65
:10EFB0002883CA52D140A22EBB24CC24DD2408943D
:10EFC000611C711C811C911C8BBEF3018791282E42
:10EFD0003324442455240894611C711C811C911C09
:10EFE0008BBEF3013791C55DDE4F3883CB52D140E4
:10EFF0000894611C711C811C911C8BBEF30147910C
:10F00000C45DDE4F4883CC52D140ADEFEA2EAFEF66
:10F01000FA2EAFEF0A2FAFEF1A2F6E0C7F1C801E57
:10F02000911E142D032DF22CEE24EA0CFB1C0C1D5A
:10F030001D1D0F940DF220E22093C6008091C000A8
:10F0400086FFFCCF8091C00080648093C000C65DC5
:10F05000DE4F8881CA52D1400F940DF230E23093D6
:10F06000C6008091C00086FFFCCF8091C000806404
:10F070008093C000C45DDE4F8881CC52D1400F9494
:10F080000DF240E24093C6008091C00086FFFCCFA5
:10F090008091C00080648093C000C55DDE4F888190
:10F0A000CB52D1400F940DF250E25093C6008091A4
:10F0B000C00086FFFCCF8091C00080648093C000B8
:10F0C0008FEFE8168FEFF80680E0080780E018075A
:10F0D00031F484E092EE60E00F94C2F1DFC0D80119
:10F0E000C7018070907CA070B0708050904CA040A0
:10F0F000B040D1F52FEF3FE340E050E0E222F322B1
:10F1000004231523CA5DDE4FA880B980CA80DB8046
:10F11000C652D140AE0CBF1CC01ED11EAA0CBB1CD7
:10F12000CC1CDD1C8EE092EE60E00F94C2F1BB2798
:10F13000A12F902F8F2D0F940DF28E2D0F940DF285
:10F1400030E23093C6008091C00086FFFCCF8091F2
:10F15000C00080648093C0004EE34093C60080915D
:10F16000C00086FFFCCF87C08EE09EEFA0E0B0E03D
:10F17000E822F9220A231B239CE0E91694E9F90608
:10F1800090E0090790E0190709F088C0C45DDE4FE0
:10F19000A881CC52D140EA2EFF2400E010E0102FCD
:10F1A0000F2DFE2CEE24C55DDE4FB881CB52D14031
:10F1B000EB0EF11C011D111DD601C501817090706F
:10F1C000A070B070DC0199278827E80EF91E0A1F8D
:10F1D0001B1F20EF30E040E050E0A222B322C42207
:10F1E000D52241E1AA0CBB1CCC1CDD1C4A95D1F7F1
:10F1F000EA0CFB1C0C1D1D1D81E090E0A0E0B0E0BE
:10F20000282239224A225B2235E1220C331C441C7D
:10F21000551C3A95D1F7E20CF31C041D151D57013E
:10F220006801AA0CBB1CCC1CDD1C85E192EE60E0E1
:10F230000F94C2F1C801AA27BB270F940DF2BB2778
:10F24000A12F902F8F2D0F940DF28E2D0F940DF274
:10F2500090E29093C6008091C00086FFFCCF809121
:10F26000C00080648093C000AEE3A093C60080918C
:10F27000C00086FFFCCF8091C00080648093C000F6
:10F28000C601AA27BB270F940DF2BB27AD2D9C2DDD
:10F290008B2D0F940DF28A2D0F940DF20F94DCF14B
:10F2A000CC5DDE4FE881F981C452D140F99709F471
:10F2B0004DCBF4E0EF2EF12C012D112D6E0C7F1CA7
:10F2C000801E911EF2CD83E093EE62E00F94F5F183
:10F2D0008AE192EE60E00F94C2F18091C00087FF56
:10F2E000FCCF1091C6001F751093C6008091C0001E
:10F2F00086FFFCCF8091C00080648093C0000F9493
:10F30000DCF1812F81548A3108F036C1163409F4BA
:10F3100095C0173490F4133409F44EC0143430F40B
:10F320001134F1F0123409F01DC130C0143409F465
:10F3300059C0153409F016C16BC01A3409F4C4C0A1
:10F340001B3438F4173409F48FC0183409F00AC19B
:10F35000A1C01B3409F4D2C01C3409F003C1E8C0B9
:10F360008FEF81B90DC082B1809582B980E090E0C5
:10F37000E0EDF7E03197F1F70196883C9105C1F790
:10F380008091C00087FFEFCF12B8EFC08FEF84B934
:10F390000DC085B1809585B980E090E0E0EDF7E0A3
:10F3A0003197F1F70196883C9105C1F78091C00033
:10F3B00087FFEFCF15B8D9C08FEF87B90DC088B1DF
:10F3C000809588B980E090E0E0EDF7E03197F1F7C3
:10F3D0000196883C9105C1F78091C00087FFEFCF6F
:10F3E00018B8C3C08FEF8AB90DC08BB180958BB9A7
:10F3F00080E090E0E0EDF7E03197F1F70196883C8E
:10F400009105C1F78091C00087FFEFCF1BB8ADC059
:10F410008FEF8DB90DC08EB180958EB980E090E0F0
:10F42000E0EDF7E03197F1F70196883C9105C1F7DF
:10F430008091C00087FFEFCF1EB897C08FEF80BBD1
:10F440000DC081B3809581BB80E090E0E0EDF7E0F6
:10F450003197F1F70196883C9105C1F78091C00082
:10F4600087FFEFCF11BA81C08FEF83BB0DC084B38C
:10F47000809584BB80E090E0E0EDF7E03197F1F714
:10F480000196883C9105C1F78091C00087FFEFCFBE
:10F4900014BA6BC08FEF809301010FC080910201FD
:10F4A00080958093020180E090E0E0EDF7E03197F5
:10F4B000F1F70196883C9105C1F78091C00087FF64
:10F4C000EDCF1092020151C08FEF809304010FC065
:10F4D0008091050180958093050180E090E0E0ED4A
:10F4E000F7E03197F1F70196883C9105C1F78091DB
:10F4F000C00087FFEDCF1092050137C08FEF8093DA
:10F5000007010FC08091080180958093080180E079
:10F5100090E0E0EDF7E03197F1F70196883C910536
:10F52000C1F78091C00087FFEDCF109208011DC088
:10F530008FEF80930A010FC080910B01809580931B
:10F540000B0180E090E0E0EDF7E03197F1F70196F4
:10F55000883C9105C1F78091C00087FFEDCF1092E4
:10F560000B0103C085E292EEEEC98091C00087FFD7
:10F57000FCCF8091C600EAC988E392EEE4C98CE131
:10F5800091EEE1C988249924933011F1943028F444
:10F59000913089F09230B8F408C0953061F195301F
:10F5A000F0F0963009F048C043C02B3109F042C951
:10F5B00091E06BE13FC96227C15DDE4F2883CF52E6
:10F5C000D14092E037C9B22FA0E0622793E032C960
:10F5D000822F90E0A82BB92B622794E02BC92E3004
:10F5E00009F039C3622795E0C05DDE4F19821882A9
:10F5F000C053D1401FC9E1E0F0E0EC0FFD1FC05D3A
:10F60000DE4F08811981C053D140E00FF11F2083E4
:10F610000F5F1F4FC05DDE4F19830883C053D14079
:10F6200062270A171B0709F005C9D80196E002C92D
:10F63000261709F010C303C0973009F0FBC87724E0
:10F640009981933109F412C19431C8F4963009F4C8
:10F65000D8C0973050F4923009F406C1933009F4C1
:10F660006DC0913009F059C253C0913109F477C08F
:10F67000923108F0BBC0903109F04FC2F5C098310B
:10F6800009F487C0993150F4953109F4EFC09531F0
:10F6900008F4C6C1963109F040C2C2C19A3109F4DA
