:1000000085C100000C94280B0C94FD0A0C94D20AB4
:100010000C94A70A0C947C0A0C94510A0C94260A9E
:100020000C94FB090C9486090C9417090C94A108F4
:100030009EC100009CC100009AC1000098C1000050
:1000400096C1000094C1000092C1000090C1000060
:100050008EC100008CC100008AC10000DBC300001B
:1000600086C100000C94840C0C945B0C80C10000D1
:100070007EC100007CC100007AC1000078C1000090
:1000800076C1000074C1000072C1000070C10000A0
:100090006EC100006CC100006AC1000068C10000B0
:1000A00066C1000064C1000062C1000060C10000C0
:1000B0005EC100005CC100003BC50000E7C5000058
:1000C000ECC4000054C1000052C1000050C1000047
:1000D0004EC100004CC100004AC1000048C10000F0
:1000E00046C1000072027502640268026E02AC0230
:1000F00079027D02830287028B02910295029902A6
:10010000AC029F02A302A7025E03630368037203AB
:100110007C03F50386038E039603A003AA03B403AE
:10012000C303CD03F503D703E103EB03200F320F25
:10013000350F3C0F430F710F780F850F920F9E0FF5
:100140009E0F9E0F9E0F9E0F9E0F9E0F9E0F9E0F47
:100150009E0F9E0F9E0F9E0F9E0F9E0F9E0F9E0F37
:100160009E0F9E0F9E0F9E0F9E0F9E0F200F2D0F16
:10017000320F350F3C0F430F4A0F570F640F00002B
:100180002100240027002A002D0030003300010147
:100190000000040107010A010000220025002800D8
:1001A0002B002E003100340002010000050108017F
:1001B0000B0100000A0B02090C0D0E0807030401D5
:1001C000000000000000000000000000000000002F
:1001D00000000000000000000000000000001211FC
:1001E00010000000000000000000000000000000FF
:1001F00000000000000000007841580079415800DC
:1002000044737400537064004C6F6E004C61740052
:1002100053617400000020002300260029002C00F8
:100220002F00320000010000030106010901000156
:100230000405050303040506040506070100010083
:100240000302010000010203040506070706050476
:100250000302010007020100070605040302010072
:100260000302010000010203040506070001020366
:10027000040506070203040506060705050505072C
:100280000508080808020202020A0A080804040411
:10029000040101010101010101030303030303033D
:1002A00003040707070C0C0C0C0C0C0C0C020202CC
:1002B0000206060606060606060B0B0B0B0B0B0BBF
:1002C0000B0102102020080810204010204080025E
:1002D000010201080402010102040810204080808C
:1002E0004020100804020180040201804020100810
:1002F00004020108040201010204081020408001E8
:1003000002040810204080001817A81211241FBEF4
:10031000CFEFD1E2DEBFCDBF00E00CBF12E0A0E026
:10032000B2E0EAE9FBE300E00BBF02C007900D92E8
:10033000A23AB107D9F725E0A2EAB2E001C01D92C6
:10034000A336B207E1F711E0C5E8D1E000E006C04E
:1003500021970109802FFE010E94C81AC438D107D5
:1003600080E00807A9F70E94C6120C94BC1D48CE75
:100370003FB7F8948091510390915203A091530399
:10038000B091540326B5A89B05C02F3F19F00196E4
:10039000A11DB11D3FBFBA2FA92F982F8827820F0B
:1003A000911DA11DB11DBC01CD0142E0660F771F5B
:1003B000881F991F4A95D1F708955091590340918C
:1003C0005803852F90E0242F30E0541710F4805B01
:1003D0009F4F821B930B089580915903E09158031E
:1003E0008E1751F0EF5FE03508F0E0E0F0E0E45008
:1003F000FD4F808190E008958FEF9FEF08958091E9
:10040000590390915803891769F09F5F903508F060
:1004100090E0E92FF0E0E450FD4F80819093580385
:1004200090E008958FEF9FEF089580915703811119
:10043000FCCF0895809156038F5F843408F080E0EC
:10044000909155039817E1F32FB7F89490915703C3
:10045000992341F0E82FF0E0EE54FD4F6083809344
:1004600056031DC081E0809357036093F7021092FA
:10047000F60282E08ABB80917300826080937300F1
:10048000809120018F7380688093200180912401E6
:1004900090912501409690932901809328012FBFC8
:1004A00081E090E00895089580E090E0089590E064
:1004B000FC013197E231F10508F04EC08827EE5873
:1004C000FF4F8F4F0C94C81A809180008F7703C024
:1004D000809180008F7D80938000089580918000BE
:1004E000877FF9CF84B58F7702C084B58F7D84BDB7
:1004F00008958091B0008F7703C08091B0008F7D08
:100500008093B0000895809190008F7707C080910C
:1005100090008F7D03C080919000877F8093900032
:1005200008958091A0008F7707C08091A0008F7DF3
:1005300003C08091A000877F8093A00008958091E0
:1005400020018F7707C0809120018F7D03C08091AB
:100550002001877F8093200108950F931F93CF93ED
:10056000DF93082F70E0FB01EE54FE4F8491FB01F6
:10057000EF53FD4FD491FB01E558FD4FC49110E0BE
:10058000CC23D1F0811193DFEC2FF0E0EE0FFF1FB1
:10059000EC5EFD4FA591B491EC91ED2369F0E8DE9E
:1005A000000F111F000F111FF801EE55FD4F608362
:1005B00071838283938313C0DBDEF801EE0FFF1F8C
:1005C000EE0FFF1FEE55FD4F20813181621B730B33
:1005D000000F111FF801E15AFC4F71836083DF9116
:1005E000CF911F910F91089563E481E0B6CF62E44B
:1005F00080E0B3CFCF93DF9390E0FC01EF53FD4F4A
:100600002491FC01E558FD4F8491882361F190E02D
:10061000880F991FFC01E258FE4FC591D491FC014F
:10062000E856FE4FA591B491611109C09FB7F894A7
:100630008881209582238883EC912E230BC0623021
:1006400061F49FB7F8943881822F80958323888343
:10065000EC912E2B2C939FBF06C08FB7F894E881A6
:100660002E2B28838FBFDF91CF9108951F93CF93B7
:10067000DF93182FEB0161E0BDDF209711F460E0FC
:1006800004C0CF3FD10539F461E0812FDF91CF91D4
:100690001F910C94BA0CE12FF0E0EE54FE4FE49160
:1006A0004E2F50E0FA013197E231F10508F09DC07C
:1006B0008827EC57FF4F8F4F0C94C81A84B5806879
:1006C00084BDC7BD97C084B5806284BDC8BD92C0DB
:1006D00080918000806880938000D0938900C093CF
:1006E000880088C080918000806280938000D093D1
:1006F0008B00C0938A007EC08091800088608093C8
:100700008000D0938D00C0938C0074C08091B000A5
:1007100080688093B000C093B3006CC08091B0003B
:1007200080628093B000C093B40064C08091900058
:10073000806880939000D0939900C09398005AC02D
:1007400080919000806280939000D0939B00C09332
:100750009A0050C080919000886080939000D09360
:100760009D00C0939C0046C08091A000806880934B
:10077000A0008091A0008F7B8093A000D093A9005F
:10078000C093A80037C08091A00080628093A00031
:10079000D093AB00C093AA002DC08091A0008860C8
:1007A0008093A000D093AD00C093AC0023C0809193
:1007B0002001806880932001D0932901C0932801F3
:1007C00019C080912001806280932001D0932B0179
:1007D000C0932A010FC0809120018860809320017E
:1007E000D0932D01C0932C0105C0C038D1050CF069
:1007F0004BCF45CFDF91CF911F9108952FB7F8943C
:1008000060914D0370914E0380914F03909150037E
:100810002FBF08951F920F920FB60F9211242F939E
:100820003F938F939F93AF93BF9380914D0390918C
:100830004E03A0914F03B091500330914C0323E03D
:10084000230F2D3720F40196A11DB11D05C026E808
:10085000230F0296A11DB11D20934C0380934D03DD
:1008600090934E03A0934F03B09350038091510394
:1008700090915203A0915303B09154030196A11D8E
:10088000B11D8093510390935203A0935303B093EF
:100890005403BF91AF919F918F913F912F910F90F2
:1008A0000FBE0F901F901895CF93DF93EC018A85B0
:1008B0009B85AC85BD858E839F83A887B9879EDF86
:1008C0006A837B838C839D8381E089838883DF9126
:1008D000CF9108952F923F924F925F926F927F92A5
:1008E0008F929F92AF92BF92CF92DF92EF92FF9240
:1008F0000F931F93CF93DF93D82FC92F8B010E94A3
:10090000021824E630E040E050E00E9465194901F9
:100910005A019B01AC0160E876E988E990E00E9409
:1009200056196B017C01F80191828082ED2FFC2F1A
:100930002191822F022E000C990BC0970A97C0F3C9
:100940002E3239F51F0180E8882E86E9982E88E935
:10095000A82EB12C9AE0492E512C612C712CF1015A
:10096000C1911F010C2E000CDD0BE097CA30D105A0
:1009700080F4C501B401A30192010E9465194901E7
:100980005A01DE010E94AD19C60ED71EE81EF91EDF
:10099000E6CFA5E0B0E0A70196010E94A3196F5F22
:1009A0007F4F8F4F9F4F23E030E040E050E00E94A8
:1009B0006519F80122833383448355831682DF91BE
:1009C000CF911F910F91FF90EF90DF90CF90BF904C
:1009D000AF909F908F907F906F905F904F903F90DF
:1009E0002F900895FF920F931F93CF93DF93EC0105
:1009F000FF24F39488818D3211F0F12C01C02196EF
:100A0000CE010E9402189B01AC01A4E6B0E00E9456
:100A1000A319FE014991242F042E000C330B2053FF
:100A200031092A303105A8F34E3241F52181022ED9
:100A3000000C330B205331092A303105F8F44AE019
:100A4000429F8001439F100D1124012E000C220BA8
:100A5000330B600F711F821F931F0281002E000C49
:100A6000110B005311090A30110540F4012E000C3E
:100A7000220B330B600F711F821F931FFF2039F071
:100A800090958095709561957F4F8F4F9F4FDF9127
:100A9000CF911F910F91FF9008951F920F920FB663
:100AA0000F9211240BB60F922F938F939F93EF9376
:100AB000FF93809173008B7F80937300809121015D
:100AC0008F7B8093210180915A032091FB02205853
:100AD0009091FA02893020F49695922B8F5FFACF8D
:100AE0009093FA02809159038F5F803508F080E07F
:100AF00020915803821739F0E82FF0E0E450FD4FC1
:100B000090838093590310925A03809121018F7B27
:100B1000809321011092FB02FF91EF919F918F91A1
:100B20002F910F900BBE0F900FBE0F901F90189536
:100B30001F920F920FB60F9211240BB60F922F93A4
:100B40003F934F935F936F937F938F939F93AF9355
:100B5000BF93EF93FF9380912601909127014091DD
:100B6000FB0220912101442331F02F7B20932101AE
:100B70001092FB0206C020642093210120E82093FC
:100B8000FB0230915A03311125C041116CC02091F4
:100B90005B0330915C03280F391F30932B012093A6
:100BA0002A0124E02ABB2091730024602093730063
:100BB00020915D0330915E03820F931F3695279538
:100BC000820F931F9093F9028093F80281E0809343
:100BD0005A0349C04091F8025091F90260915D03B7
:100BE00070915E03DB01A095B095E091FB0220912E
:100BF000FA02841B950BA817B90768F126952E2BCE
:100C0000460F571F3F5F861B970B3930A0F3209389
:100C1000FA02809173008B7F809373008091590357
:100C20008F5F803508F080E090915803891749F074
:100C3000E82FF0E09091FA02E450FD4F908380930A
:100C40005903809121018F7B809321011092FB0237
:100C500010925A0308C02093FA025093F90240936D
:100C6000F80230935A03FF91EF91BF91AF919F919A
:100C70008F917F916F915F914F913F912F910F9045
:100C80000BBE0F900FBE0F901F9018951F920F92E2
:100C90000FB60F9211240BB60F922F933F934F93E1
:100CA0005F936F937F938F939F93EF93FF938091C5
:100CB00057036091F702209128013091290140915A
:100CC0005D0350915E039091F6028A30F8F4240F90
:100CD000351F893019F0762F717001C071E066956B
:100CE0008F5F791791F390912001772311F0906C29
:100CF00002C09F7390689093200130932901209344
:100D000028017093F6026093F7024AC0909156034F
:100D1000E09155039E1319C08A3051F48BE0809303
:100D20005703240F351F30932901209328013AC01F
:100D300010925703809120018F738093200180913E
:100D400073008D7F809373002DC0EF5FE43408F053
:100D5000E0E0E0935503F0E0EE54FD4F9081909376
:100D6000F7021092F602909120019F739068909381
:100D700020018A3059F480915D0390915E03280F21
:100D8000391F309329012093280109C08091240143
:100D9000909125014096909329018093280181E04C
:100DA00080935703FF91EF919F918F917F916F9166
:100DB0005F914F913F912F910F900BBE0F900FBEFF
:100DC0000F901F9018953F924F925F926F927F9273
:100DD0008F929F92AF92BF92CF92DF92EF92FF924B
:100DE0000F931F93CF93DF936B017C01E9014111B6
:100DF00012C0C230D1052CF08AE20E941210219755
:100E0000F8CF80E20E94121063E672E083EC93E078
:100E10000E94B911F2C09B01AC010E94C41A882340
:100E200019F064E472E01AC046015701E894B7F87B
:100E30002FEF3FEF4FE75FE7C501B4010E94C41AEF
:100E4000811111C02FEF3FEF4FE75FE7C501B401FC
:100E50000E943D1818163CF468E472E083EC93E0BD
:100E60000E94B91185C02FEF3FEF4FE75FE4C70144
:100E7000B6010E94C01A18161CF46CE472E0EECFA2
:100E80002FEF3FEF4FE75FECC701B6010E943D181F
:100E900087FDF3CF20E030E0A901C701B6010E9431
:100EA0003D1887FF0AC08DE20E94121046015701CB
:100EB000B7FAB094B7F8B09402C046015701302E8B
:100EC000712C60E070E080E09FE3731440F420E058
:100ED00030E040E251E40E94271A7394F6CF9B0160
:100EE000AC01C501B4010E94C3194B015C010E9411
:100EF000941A2B013C010E9441189B01AC01C501D1
:100F0000B4010E94C2194B015C012AE0B301A201A5
:100F100083EC93E00E94CE11332019F08EE20E9400
:100F20001210302E332021F120E030E040E251E475
:100F3000C501B4010E94A2184B015C010E94941AE1
:100F40002B01612C712C2AE0B301A20183EC93E008
:100F50000E94CE11C301B2010E9441189B01AC0155
:100F6000C501B4010E94C2194B015C013A94DACF69
:100F700063E672E083EC93E00E94B911C701B60109
:100F80000E948F1A5B0177FF04C0AA24BB24A61A13
:100F9000B70A20E030E0A901C701B6010E943D1860
:100FA000082E000C990B8827990F881F9927019606
:100FB000080F191F88EEA81683E0B8065CF484E6D3
:100FC000A816B10454F48AE0A816B1044CF481E0E8
:100FD00090E008C084E090E005C083E090E002C0AB
:100FE00082E090E0080F191F0C171D0734F480E20F
:100FF0000E9412100F5F1F4FF7CFC701B601DF919C
:10100000CF911F910F91FF90EF90DF90CF90BF9005
:10101000AF909F908F907F906F905F904F903F9098
:1010200008958F929F92AF92BF92CF92DF92EF92EC
:10103000FF926B017C01E2DB4B015C0188EA94E0EA
:10104000BCD9892B29F088EA94E0D9D9EED4F6CF1F
:10105000D5DBDC01CB0188199909AA09BB098C15DC
:101060009D05AE05BF0550F3FF90EF90DF90CF9048
:10107000BF90AF909F908F900895EF92FF920F9343
:101080001F93CF93DF93CDB7DEB7A0970FB6F89439
:10109000DEBF0FBECDBF790122E1E0E0F2E08E01BC
:1010A0000F5F1F4FD80101900D922A95E1F7FE01C5
:1010B00073962EE0DF011D922A95E9F7442389F00B
:1010C0009F938F937F936F9380E592E09F938F938D
:1010D0001F930F930E94F31A0FB6F894DEBF0FBE52
:1010E000CDBFF801EE0DFF1D1082F8010190002028
:1010F000E9F7319720E2CF01801B910B8E159F05F8
:1011000014F42193F8CF1E141F042CF4FE01EE0DED
:10111000FF1D80E28083B80183EC93E00E945112AE
:1011200060E070E0CB017DDFA0960FB6F894DEBFE3
:101130000FBECDBFDF91CF911F910F91FF90EF9028
:1011400008951F920F920FB60F9211240BB60F92B3
:101150002F933F934F935F936F937F938F939F93BF
:10116000AF93BF93CF93EF93FF9320910601C0916C
:101170008B039091C0038091BD03322F3095832360
:101180009223892B90916D00C227C923C8232093F5
:101190008B03CC23C1F1C0FF05C0E0918C03F0911B
:1011A0008D031995C1FF05C0E0918E03F0918F0367
:1011B0001995C2FF05C0E0919003F0919103199534
:1011C000C3FF05C0E0919203F09193031995C4FF0A
:1011D00005C0E0919403F09195031995C5FF05C0F2
:1011E000E0919603F09197031995C6FF05C0E09131
:1011F0009803F09199031995C7FF05C0E0919A03F0
:10120000F0919B031995FF91EF91CF91BF91AF9111
:101210009F918F917F916F915F914F913F912F910E
:101220000F900BBE0F900FBE0F901F9018951F923E
:101230000F920FB60F9211240BB60F922F933F937C
:101240004F935F936F937F938F939F93AF93BF93CE
:10125000CF93EF93FF9320910301C0919D03909151
:10126000C1038091BE03322F309583239223892BB3
:1012700090919C03C227C923C82320939D03CC23AC
:1012800089F1C0FF05C0E0919E03F0919F0319957D
:10129000C1FF05C0E091A003F091A1031995C2FF21
:1012A00005C0E091A203F091A3031995C3FF05C007
:1012B000E091A403F091A5031995C4FF05C0E09146
:1012C000A603F091A7031995C5FF05C0E091A803F7
:1012D000F091A9031995C6FF05C0E091AA03F0910A
:1012E000AB031995FF91EF91CF91BF91AF919F9172
:1012F0008F917F916F915F914F913F912F910F90BF
:101300000BBE0F900FBE0F901F9018951F920F925B
:101310000FB60F9211240BB60F922F933F934F935A
:101320005F936F937F938F939F93AF93BF93CF936D
:10133000EF93FF9323B1C091AC039091C2038091CE
:10134000BF03322F309583239223892B90916B001A
:10135000C227C923C8232093AC03CC23C1F1C0FF0B
:1013600005C0E091AD03F091AE031995C1FF05C032
:10137000E091AF03F091B0031995C2FF05C0E09171
:10138000B103F091B2031995C3FF05C0E091B30317
:10139000F091B4031995C4FF05C0E091B503F09135
:1013A000B6031995C5FF05C0E091B703F091B803E6
:1013B0001995C6FF05C0E091B903F091BA031995DC
:1013C000C7FF05C0E091BB03F091BC031995FF91E5
:1013D000EF91CF91BF91AF919F918F917F916F913D
:1013E0005F914F913F912F910F900BBE0F900FBEC9
:1013F0000F901F9018951F920F920FB60F92112405
:101400000BB60F922F933F934F935F936F937F93FE
:101410008F939F93AF93BF93EF93FF93E0918903D3
:10142000F0918A031995FF91EF91BF91AF919F9130
:101430008F917F916F915F914F913F912F910F907D
:101440000BBE0F900FBE0F901F9018951F920F921A
:101450000FB60F9211240BB60F922F933F934F9319
:101460005F936F937F938F939F93AF93BF93EF930C
:10147000FF93E0918703F09188031995FF91EF9115
:10148000BF91AF919F918F917F916F915F914F919C
:101490003F912F910F900BBE0F900FBE0F901F909A
:1014A00018951F920F920FB60F9211240BB60F9240
:1014B0002F933F934F935F936F937F938F939F935C
:1014C000AF93BF93EF93FF93E0918503F091860371
:1014D0001995FF91EF91BF91AF919F918F917F915E
:1014E0006F915F914F913F912F910F900BBE0F9095
:1014F0000FBE0F901F9018951F920F920FB60F926C
:1015000011240BB60F922F933F934F935F936F93DA
:101510007F938F939F93AF93BF93EF93FF93E0914C
:101520008303F09184031995FF91EF91BF91AF91DF
:101530009F918F917F916F915F914F913F912F91EB
:101540000F900BBE0F900FBE0F901F9018951F921B
:101550000F920FB60F9211240BB60F922F933F9359
:101560004F935F936F937F938F939F93AF93BF93AB
:10157000EF93FF93E0918103F09182031995FF911E
:10158000EF91BF91AF919F918F917F916F915F91FB
:101590004F913F912F910F900BBE0F900FBE0F9068
:1015A0001F9018951F920F920FB60F9211240BB631
:1015B0000F922F933F934F935F936F937F938F93EC
:1015C0009F93AF93BF93EF93FF93E0917F03F091CD
:1015D00080031995FF91EF91BF91AF919F918F91EA
:1015E0007F916F915F914F913F912F910F900BBE23
:1015F0000F900FBE0F901F9018951F920F920FB66D
:101600000F9211240BB60F922F933F934F935F933A
:101610006F937F938F939F93AF93BF93EF93FF93BA
:10162000E0917D03F0917E031995FF91EF91BF91B9
:10163000AF919F918F917F916F915F914F913F916A
:101640002F910F900BBE0F900FBE0F901F9018950B
:101650001F920F920FB60F9211240BB60F922F9379
:101660003F934F935F936F937F938F939F93AF932A
:10167000BF93EF93FF93E0917B03F0917C03199567
:10168000FF91EF91BF91AF919F918F917F916F915A
:101690005F914F913F912F910F900BBE0F900FBE16
:1016A0000F901F901895FC01538D448D252F30E02D
:1016B000842F90E0821B930B541710F0CF9608955F
:1016C00001970895FC01918D828D981761F0828DAC
:1016D000DF01A80FB11D5D968C91928D9F5F9F7366
:1016E000928F90E008958FEF9FEF0895FC01918D08
:1016F000828D981731F0828DE80FF11D858D90E075
:1017000008958FEF9FEF0895FC01918D228D892F11
:1017100090E0805C9F4F821B91098F7399270895F9
:1017200083EC93E0F1DF21E0892B09F420E0822FA4
:101730000895FC01848DDF01A80FB11DA35ABF4F8E
:101740002C91848D90E001968F739927848FA689C0
:10175000B7892C93A089B1898C9180648C93938DE7
:10176000848D981306C00288F389E02D80818F7DD7
:1017700080830895EF92FF920F931F93CF93DF938F
:10178000EC0181E0888F9B8D8C8D981305C0E889D2
:10179000F989808185FD23C0F62E0B8D10E00F5F47
:1017A0001F4F0F731127E02E8C8DE8120BC00FB660
:1017B00007FCFACFE889F989808185FFF5CFCE0152
:1017C000B8DFF2CF8B8DFE01E80FF11DE35AFF4F1A
:1017D000F0820B8FEA89FB898081806207C0EE89E5
:1017E000FF896083E889F98980818064808381E052
:1017F00090E0DF91CF911F910F91FF90EF900895AE
:10180000CF93DF93EC01888D8823C1F0EA89FB89AF
:10181000808185FD05C0A889B9898C9186FD0EC09F
:101820000FB607FCF5CF808185FFF2CFA889B98973
:101830008C9185FFEDCFCE017CDFE8CFDF91CF919A
:10184000089580E090E0892B19F06ADF811125C0AE
:1018500080E090E0892B41F080E090E0892B21F03E
:101860000E94000081111CC080E090E0892B41F0B3
:1018700080E090E0892B21F00E940000811113C0CC
:1018800080E090E0892BA1F080E090E0892B81F04E
:101890000E94000081110AC008950E940000D8CF64
:1018A0000E940000E1CF0E940000EACF0C940000EB
:1018B00008950E94D01A1F920F920FB60F92112412
:1018C0000BB60F922F933F934F935F936F937F933A
:1018D0008F939F93AF93BF93EF93FF9383EC93E02A
:1018E00028DFFF91EF91BF91AF919F918F917F91F1
:1018F0006F915F914F913F912F910F900BBE0F9081
:101900000FBE0F901F9018951F920F920FB60F9257
:1019100011240BB60F922F938F939F93EF93FF9306
:10192000E091D303F091D4038081E091D903F09149
:10193000DA0382FD12C090818091DC038F5F8F7388
:101940002091DD03821751F0E091DC03F0E0ED53CC
:10195000FC4F958F8093DC0301C08081FF91EF9154
:101960009F918F912F910F900BBE0F900FBE0F90F4
:101970001F9018951F93CF93DF93282F30E0F90124
:10198000EE54FE4F8491F901EF53FD4FD491F901CC
:10199000E558FD4FC491CC23C9F0162F81110E9448
:1019A0005702EC2FF0E0EE0FFF1FE856FE4FA59117
:1019B000B4918FB7F894111105C09C91ED2FE0956B
:1019C000E92302C0EC91ED2BEC938FBFDF91CF9117
:1019D0001F910895CF92DF92EF92FF920F931F9382
:1019E000CF93DF936C017A018B01C0E0D0E0CE157C
:1019F000DF0589F0D8016D918D01D601ED91FC9143
:101A00000190F081E02DC6011995892B11F47E011A
:101A100002C02196ECCFC701DF91CF911F910F91AA
:101A2000FF90EF90DF90CF900895EF92FF920F9389
:101A30001F93CF93DF9340915105509152056091D0
:101A40005305709154054F5F5F4F6F4F7F4F409329
:101A50005105509352056093530570935405843299
:101A600009F4A6C2E0914B05853234F48A3071F056
:101A70008D3009F0ABC20AC08A3241F08C3209F0D5
:101A8000A5C290913805982790933805082FEF301C
:101A900008F074C1F0E0E65CFA4F108280913905DD
:101AA000882309F46DC120913A053FEB320F822F54
:101AB000022E000C990B363010F4C79707C0215640
:101AC000263018F48755910901C0C097282F229518
:101AD000207F30913B054FEB430F832F032E000CEB
:101AE000990B463010F4C79707C03156363018F4BA
:101AF0008755910901C0C097820F909138058913CD
:101B00002AC180915D0590915E05A0915F05B0911D
:101B100060050196A11DB11D80935D0590935E0542
:101B2000A0935F05B093600580914C05882399F0E0
:101B30008091550590915605A0915705B091580593
:101B40000196A11DB11D8093550590935605A09354
:101B50005705B093580510914905112309F46BC03E
:101B6000113009F0D2C08091DC049091DD04A09185
:101B7000DE04B091DF048093D8049093D904A0933D
:101B8000DA04B093DB040E94FE036093E0047093D8
:101B9000E1048093E2049093E3041093D70410933C
:101BA000D6048091EA049091EB04A091EC04B091EA
:101BB000ED048093E6049093E704A093E804B093C7
:101BC000E9040E94FE036093EE047093EF04809397
:101BD000F0049093F1041093E5041093E4048091D1
:101BE0004C05882309F491C087E0E4ECF4E0A6EB0F
:101BF000B4E001900D928A95E1F787E0EBECF4E018
:101C0000ADEBB4E001900D928A95E1F70E94FE03DE
:101C10006093D2047093D3048093D4049093D5043A
:101C20001093B5041093B40482EF94E00E9454041E
:101C300080E095E068C08091EA049091EB04A09167
:101C4000EC04B091ED048093E6049093E704A09334
:101C5000E804B093E9040E94FE036093EE047093DD
:101C6000EF048093F0049093F10411E01093E504E5
:101C70001093E40480914C05882321F187E0E4EC83
:101C8000F4E0A6EBB4E001900D928A95E1F787E0CD
:101C9000EBECF4E0ADEBB4E001900D928A95E1F746
:101CA0000E94FE036093D2047093D3048093D40403
:101CB0009093D5041093B5041093B4048EE095E08E
:101CC0000E9454048091260590912705A091280533
:101CD000B09129058093220590932305A0932405B4
:101CE000B09325050E94FE0360931E0570931F05A7
:101CF000809320059093210581E080931D058093BA
:101D00001C058AE295E00E945404C0914F05D091D1
:101D1000500511E0209709F43CC1E0914F05F09186
:101D2000500566A177A18EA19FA10E94D41A892B8C
:101D300009F02FC1BE01CE0140960E94DD1A0E941B
:101D4000FE0368A379A38AA39BA31DA31CA30AA4D3
:101D5000DBA5C02DDFCF8091590590915A05A09148
:101D60005B05B0915C050196A11DB11D80935905DD
:101D700090935A05A0935B05B0935C0590E00AC16F
:101D800080914A05811142C069E872E08AE395E0DA
:101D90000E94D41A892B41F06FE872E08AE395E043
:101DA0000E94D41A892B11F481E014C065E972E015
:101DB0008AE395E00E94D41A892B41F06BE972E026
:101DC0008AE395E00E94D41A892B19F410924905F0
:101DD00003C082E08093490580914D0590914E05A6
:101DE0009093500580934F05C0914F05D0915005B9
:101DF000209721F2EEA0FFA06AE375E0C7010E94E0
:101E0000D41A97FFF9C08AA59BA5EACFE0914905AE
:101E1000E23009F493C090913A05992309F48EC0F9
:101E200020E2E29FF0011124E82B3197E932F1051D
:101E300008F084C08827EA56FF4F8F4F0C94C81AC9
:101E40008AE395E00E94F2046093EA047093EB0445
:101E50008093EC049093ED0471C081E0913409F01B
:101E600043C043C064EC74E009C081E0933509F0DD
:101E700080E08093CA0462C06BEC74E08AE395E072
:101E80000E946A045BC081E0973509F080E080938E
:101E9000D10454C08AE395E00E94F2046093FC04EC
:101EA0007093FD048093FE049093FF0447C08AE37F
:101EB00095E00E94F20460930A0570930B058093ED
:101EC0000C0590930D053AC08AE395E00E94021834
:101ED0006093DC047093DD048093DE049093DF0450
:101EE0002DC081E091330CF480E080934C0526C036
:101EF0008AE395E00E9402186093260570932705F7
:101F0000809328059093290519C08AE395E00E94E3
:101F1000F2046093340570933505809336059093F1
:101F200037050CC08AE395E00E94F204609318051F
:101F30007093190580931A0590931B05C0914F0566
:101F4000D0915005209709F419CFE0914F05F091F9
:101F5000500566A177A18EA19FA10E94D41A892B5A
:101F600009F00CCF28A539A580914A0590E0821789
:101F700093070CF403CF2817390739F440E150E0F8
:101F80006AE375E0CE010E94E41A0AA4DBA5C02D25
:101F9000D9CF91E080914A058F5F80934A051092D6
:101FA0004B0581E00A3209F080E08093390532C0A8
:101FB00010924B0510924A051092380582E08093EA
:101FC00049051092390510924C0514C0EE3040F4CA
:101FD00091E09E0F90934B05F0E0E65CFA4F808312
:101FE00090913905911106C0209138058227809380
:101FF000380510C090E00EC06AE375E0C7010E948A
:10200000D41A181619060CF0B9CE10925005109279
:102010004F05B4CE892FDF91CF911F910F91FF9083
:10202000EF900895E091C303F091C4030190F08113
:10203000E02D682F83EC93E01994E3ECF3E0A089A2
:10204000B18982E08C93A485B5851C92A685B7855D
:1020500080E18C93108EA489B58986E08C93A28947
:10206000B3898C9180618C93A289B3898C918860AB
:102070008C93A289B3898C9180688C930288F389B0
:10208000E02D80818F7D808308958F779EEF980F5C
:10209000923008F4A4C095EB980F923008F49FC0DA
:1020A0009EEE980F943008F49AC0282F30E0F90182
:1020B000863420F0E554FD4F849116C0EF53FD4F58
:1020C0008491F901E558FD4F9491923059F4409173
:1020D000C203482B4093C2034091BF03482B409357
:1020E000BF031AC09A3061F49091C103982B90936A
:1020F000C1039091BE03982B9093BE039AE00CC04D
:102100009B3051F44091C003482B4093C003409151
:10211000BD03482B4093BD03F901E25DFD4FA4913F
:102120009230C1F4B0E0AA0FBB1FA355BC4F6D9312
:102130007C93E8E1F2E0A591B4919C919093AC037B
:102140002BE630E0309362052093610590916800A2
:1021500091603BC09A3001F5B0E0AA0FBB1FA256B8
:10216000BC4F6D937C93E8E2F2E0A591B4919C9111
:1021700090939D032CE630E0309362052093610537
:102180009091680092609093680090919C03982BC6
:1021900090939C03880F1BC09B30C9F4B0E0AA0F3A
:1021A000BB1FA457BC4F6D937C93EAE2F2E0A5916C
:1021B000B4919C9190938B032DE630E030936205AF
:1021C0002093610590916800946090936800A091BD
:1021D0006105B0916205EC918E2B8C9308959FB7A9
:1021E000F894833109F45BC0D8F4833009F47BC0E0
:1021F000823109F466C0823009F098C0709384037C
:1022000060938303EC9880916A008C7F80936A00CE
:1022100080916A00816080936A00E49AEC9A86C09B
:102220008531C9F050F18B3409F46FC08C3409F05A
:102230007DC070938A0360938903EF9880916A0050
:102240008F7380936A0080916A00806480936A0033
:10225000E79AEF9A6BC070937C0360937B03E898D6
:10226000809169008C7F8093690080916900816012
:1022700080936900E09AE89A59C070937E03609356
:102280007D03E99880916900837F80936900809144
:102290006900846080936900E19AE99A47C070936D
:1022A000800360937F03EA98809169008F7C80931C
:1022B000690080916900806180936900E29AEA9ADE
:1022C00035C07093820360938103EB98809169001D
:1022D0008F738093690080916900806480936900A6
:1022E000E39AEB9A23C07093860360938503ED987D
:1022F00080916A00837F80936A0080916A00846085
:1023000080936A00E59AED9A11C0709388036093F8
:102310008703EE9880916A008F7C80936A00809199
:102320006A00806180936A00E69AEE9A9FBF0895E2
:102330000F931F93CF93DF938C01C0E0D0E0F8019F
:10234000EC0FFD1F6491662371F0E091C303F091DF
:10235000C4030190F081E02D83EC93E01995892B63
:1023600011F02196ECCFCE01DF91CF911F910F910B
:1023700008956115710579F0FB0101900020E9F7DE
:102380003197AF01461B570BDC01ED91FC910280A8
:10239000F381E02D199480E090E008954F925F92D0
:1023A0006F927F92EF92FF920F931F93CF93DF93E1
:1023B000CDB7DEB7A1970FB6F894DEBF0FBECDBF85
:1023C0007C01FA01CB0119A2223008F42AE08E0127
:1023D0000F5D1F4F422E512C612C712CBF01A301A8
:1023E000920173D7F901CA01015011096A3014F43E
:1023F000605D01C0695CD8016C93232B242B252BD5
:1024000069F7B801C701B5DFA1960FB6F894DEBF32
:102410000FBECDBFDF91CF911F910F91FF90EF9035
:102420007F906F905F904F9008950F931F93CF937D
:10243000DF9300D01F92CDB7DEB7AC01990F660BCA
:10244000770B77FF19C08DE249835A836B837C83B6
:10245000E9DD8C0149815A816B817C8170956095A1
:10246000509541955F4F6F4F7F4F2AE083EC93E08B
:1024700095DF080F191F05C02AE083EC93E08EDF7B
:102480008C0163E672E083EC93E073DF800F911FB1
:102490000F900F900F900F90DF91CF911F910F91A0
:1024A00008950F931F93CF93DF93EC0162DF8C01AC
:1024B00063E672E0CE015DDF800F911FDF91CF9167
:1024C0001F910F910895CF92DF92EF92FF920F9399
:1024D0001F93E82FF92F05C0015011092109310977
:1024E00061F1908196239417B9F305C00150110949
:1024F0002109310911F1908196239413F7CFC12C52
:10250000D12CE12CF12C0AC08FEFC81AD80AE80AA6
:10251000F80A0C151D052E053F0579F080818623EC
:10252000841791F36C2D7D2D8E2D9F2D1F910F9172
:10253000FF90EF90DF90CF90089560E070E080E032
:1025400090E01F910F91FF90EF90DF90CF90089552
:1025500086E392E09093A9048093A804809173008D
:102560008B7F80937300809173008F7D80937300C5
:102570008091580380935903809157038111FCCFB8
:10258000809173008D7F809373000895CF93DF93C4
:10259000CDB7DEB728970FB6F894DEBF0FBECDBF1C
:1025A000789484B5826084BD84B5816084BD85B52E
:1025B000826085BD85B5816085BD80916E0081603A
:1025C00080936E00109281008091810082608093E0
:1025D00081008091810081608093810080918000E2
:1025E0008160809380008091B10084608093B1000D
:1025F0008091B00081608093B000809191008260F2
:1026000080939100809191008160809391008091EE
:1026100090008160809390008091A10082608093FF
:10262000A1008091A10081608093A1008091A00011
:1026300081608093A00080912101826080932101BC
:10264000809121018160809321018091200181602E
:102650008093200180917A00846080937A00809139
:102660007A00826080937A0080917A008160809302
:102670007A0080917A00806880937A001092C1007D
:102680001092A4041092A5041092A6041092A7041C
:102690001092620410926304109264041092650414
:1026A0000E94FE036B017C014B015C0128EB820E52
:1026B0002BE0921EA11CB11C0E94FE036C157D052F
:1026C0008E059F0528F086169706A806B906A0F77E
:1026D00083EC93E09093A3048093A204AEDC0E9469
:1026E000FE03609362047093630480936404909388
:1026F000650464E572E08091A2049091A30439DE40
:102700000E94FE036B017C014B015C013AE0830EE9
:10271000911CA11CB11C0E94FE036C157D058E0549
:102720009F0528F086169706A806B906A0F781E04F
:102730008093760466E672E083EC93E0B2DE61E0BB
:1027400082E20E94FA0260E083E20E94FA0260E004
:1027500082E40E94FA0260E083E40E94FA0260E0F0
:1027600089E30E94FA0261E085E00E94FA0267EFC5
:1027700072E082E48ADC64EF72E083E486DC62E08B
:102780008AE20E94FA0262E08BE20E94FA0261E0B1
:102790008AE20E94FA0261E08BE20E94FA024DDCBA
:1027A000109273001092200181E88093210183E848
:1027B00096E090935E0380935D038BE39CE390939C
:1027C0005C0380935B0362E080E30E94FA0261E0B5
:1027D0008EE2D0D861E08EE20E94FA0210925A0393
:1027E00010925903109258031092570310925603F7
:1027F0001092550380E28ABB8093730094E6892E81
:102800009DEF992EAA24AA94BA2C24EB422E2CEFE9
:10281000522E66246A94762C0E94FE03672B682B46
:10282000692B41F40E94FE03623071058105910518
:1028300008F40EC10E94FE0360937703709378033F
:102840008093790390937A03C0907303D0907403BC
:10285000E0907503F09076036C157D058E059F055D
:1028600040F46093730370937403809375039093A3
:102870007603C0907303D0907403E0907503F090DA
:1028800076039B01AC012C193D094E095F096901D2
:102890007A013AEFC316D104E104F10408F4D8C078
:1028A000609373037093740380937503909376031E
:1028B00084EF91E0A0E0B0E080936E0490936F0409
:1028C000A0937004B0937104109272041092730478
:1028D00010927404109275048091660490916704BC
:1028E000A0916804B091690480936A0490936B048A
:1028F000A0936C04B0936D040E94FE036093660481
:102900007093670480936804909369040E94FE03A7
:1029100060936204709363048093640490936504ED
:102920000E94FE036B017C016FE672E08091A204BD
:102930009091A3041EDD2AE041E050E060E070E0E9
:102940008091A2049091A30429DD66E772E0809152
:10295000A2049091A3040DDD2AE0B701A6018091A5
:10296000A2049091A3041ADD68E772E08091A204AA
:102970009091A304FEDC8091660490916704A0917D
:102980006804B0916904B701A601481B590B6A0B92
:102990007B0B2AE08091A2049091A304FFDC68E7FE
:1029A00072E08091A2049091A304E3DC409166045C
:1029B00050916704609168047091690480916A0481
:1029C00090916B04A0916C04B0916D04481B590B5D
:1029D0006A0B7B0B2AE08091A2049091A304DEDCB9
:1029E0006AE772E08091A2049091A304C2DC0E9485
:1029F000FE03AB01BC012AE08091A2049091A304E4
:102A0000CDDC6CE772E08091A2049091A30449DDD3
:102A10000E94FE036B017C019B01AC012B5F3F4FC9
:102A20004F4F5F4F29833A834B835C830E94FE03A1
:102A30006C157D058E059F0508F0EFC10E94FE0311
:102A400060936604709367048093680490936904AC
:102A500064E170E085E00E94360388EA94E00E9419
:102A6000DD01181619063CF488EA94E00E94FF0183
:102A70000E94150DF2CF80E192E05ADC40911C05D6
:102A800010921D0560912205709123058091240507
:102A90009091250522E030E00E943D088CE092E014
:102AA00047DC3091B40439831092B5046091B604C8
:102AB0007091B70480E090E0E4D26B017C016091FA
:102AC000B8047091B9048091BA049091BB04D9D232
:102AD00028E23BE64EE65EE4BAD49B01AC01C701B6
:102AE000B60151D42091BC042111905806E010E0A9
:102AF0002BE030E049810E94E30688E092E018DC98
:102B00004091B40449831092B5046091BD04709162
:102B1000BE0480E090E0B5D26B017C016091BF04FF
:102B20007091C0048091C1049091C204AAD228E29D
:102B30003BE64EE65EE48BD49B01AC01C701B601D7
:102B400022D42091C3042111905806E010E02CE01B
:102B500030E049810E94E30684E092E0E9DBF090F6
:102B6000F2041092F3046091F8047091F9048091DA
:102B7000FA049091FB0487D22EEB3CE443E95FE337
:102B8000E1D220E030E048EC52E461D402E010E011
:102B900026E030E04F2D0E94E30680E092E0C8DBA3
:102BA00060E082E20E94BA0C83E090E00197F1F7C6
:102BB00061E082E20E94BA0C83E290E00197F1F7B3
:102BC00060E082E20E94BA0CE4EEF2E06491EEE989
:102BD000F2E08491E82FF0E0EE0FFF1FEC5EFD4F76
:102BE0008591949100E412E42FE030E0462F6BDCF5
:102BF000611571058105910549F0DC01CB01019654
:102C0000A11DB11DBC01CD019F7003C060E070E04B
:102C1000CB0137D220E030E048EE51E418D420E078
:102C200030E040E05FE38ED26B017C0120E030E0D9
:102C300046E154E422D21816ACF120E030E048E935
:102C400051E4C701B6019CD487FD2CC020E030E0E0
:102C500040E752E4C701B60110D21816FCF020E09C
:102C600030E040E752E4C701B60107D287FF12C047
:102C700020E030E0A901C701B60182D4181654F44F
:102C800061E08AE20E94BA0C64EF71E080E090E0BB
:102C90000E94110860E08AE20E94BA0CC701B601E6
:102CA0003ED41B0126E030E041E0B101032C000CD2
:102CB000880B990B0E943D080E94FE03C090670399
:102CC000D0906803E0906903F0906A03DC01CB01C7
:102CD0008C199D09AE09BF0980339547A105B1053F
:102CE000C0F061E08AE20E94BA0C64E670E080E025
:102CF00090E00E94110860E08AE20E94BA0C0E94F3
:102D0000FE03609367037093680380936903909355
:102D10006A03F894EFE5F3E0ABE6B3E088E00190F6
:102D20000D928A95E1F778948CEF91E001DB409168
:102D30006B0350916C0360E070E02AE083EC93E059
:102D40002DDB63E872E083EC93E0ABDB88EF91E08E
:102D5000EFDA40916D0350916E0360E070E02AE07D
:102D600083EC93E01BDB63E872E083EC93E099DB98
:102D7000E0906B03F0906C0320916D0330916E0333
:102D8000C901330FAA0BBB0B9C01AD012452374084
:102D900041095109AFEFB0E0D6D2A5019401B7D2F5
:102DA000B90189E02D833E834F8358870E94360303
:102DB00065E872E083EC93E074DB2D813E81C9010C
:102DC00034DBC701FF0CAA0BBB0B9C01AD012C58D7
:102DD000374041095109AFEFB0E0B5D2A3019201EC
:102DE00096D267E872E083EC93E02D833E834F83B5
:102DF000588757DB2D813E81C90117DB2D813E812C
:102E0000B9018AE00E9436036CE370E080E090E054
:102E10000E9411080E94210CFFCC29813A814B812C
:102E20005C81261737074807590708F0FFCD06CE03
:102E3000E3ECF3E01382128288EE93E0A0E0B0E0CE
:102E400084839583A683B78324E232E03183208391
:102E500025EC30E03587248724EC30E0378726875F
:102E600020EC30E0318B208B21EC30E0338B228B57
:102E700022EC30E0358B248B26EC30E0378B268B30
:102E8000118E128E138E148EE0E6F4E016821782F5
:102E90001086118612861386148615861686178666
:102EA000108A118A128A138A148A158AE4EBF4E0D4
:102EB0001082118213821282148215821682178266
:102EC0001086128611861386148615861686178636
:102ED000118A108A128A138A148A158A168A108E09
:102EE000178A118E128E138E148E158E12A213A2B3
:102EF00014A215A216A217A210AA11AA12AA13AA06
:102F000014AA15AA1092F2041092F3041092F80475
:102F10001092F9041092FA041092FB04109200052A
:102F200010920105109206051092070510920805EF
:102F30001092090510920E0510920F0510921405BB
:102F400010921505109216051092170510921C0587
:102F500010921D051092220510922305109224054F
:102F60001092250510922A0510922B05109230051B
:102F700010923105109232051092330510923805E7
:102F80001092390522E02093490510924A051092CB
:102F90004B0510924C0510924E0510924D05109263
:102FA000500510924F051092510510925205109243
:102FB0005305109254051092550510925605109223
:102FC0005705109258051092590510925A05109203
:102FD0005B0510925C0510925D0510925E051092E3
:102FE0005F051092600510923A05E8EAF4E013825A
:102FF000128284839583A683B78386E392E09183CC
:10300000808308951F93FC0199278827BC01E894C9
:1030100011911032E9F3193010F01E30C8F31B3251
:1030200049F01D3241F4689405C012D0610F711D42
:10303000811D911D119110531A30B8F33EF49095F3
:103040008095709561957F4F8F4F9F4F1F91089589
:10305000592F482F372F262F660F771F881F991F4C
:10306000660F771F881F991F620F731F841F951F9C
:10307000660F771F881F991F089540D008F481E0DC
:103080000895E89409C097FB3EF49095809570955B
:1030900061957F4F8F4F9F4F9923A9F0F92F96E9A4
:1030A000BB279395F695879577956795B795F11119
:1030B000F8CFFAF4BB0F11F460FF1BC06F5F7F4FB6
:1030C0008F4F9F4F16C0882311F096E911C07723C8
:1030D00021F09EE8872F762F05C0662371F096E8D1
:1030E000862F70E060E02AF09A95660F771F881FA0
:1030F000DAF7880F9695879597F90895990F000844
:10310000550FAA0BE0E8FEEF16161706E807F907B9
:10311000C0F012161306E407F50798F0621B730B54
:10312000840B950B39F40A2661F0232B242B252BD5
:1031300021F408950A2609F4A140A6958FEF811D78
:10314000811D08950BD078C069D028F06ED018F09A
:10315000952309F05AC05FC01124A2C07ED0A0F30D
:10316000959FD1F3950F50E0551F629FF001729F1C
:10317000BB27F00DB11D639FAA27F00DB11DAA1F3B
:10318000649F6627B00DA11D661F829F2227B00D88
:10319000A11D621F739FB00DA11D621F839FA00D13
:1031A000611D221F749F3327A00D611D231F849F63
:1031B000600D211D822F762F6A2F11249F575040BA
:1031C0008AF0E1F088234AF0EE0FFF1FBB1F661F55
:1031D000771F881F91505040A9F79E3F510570F00E
:1031E00014C05EC05F3FECF3983EDCF386957795A4
:1031F0006795B795F795E7959F5FC1F7FE2B880F09
:10320000911D9695879597F9089597F99F6780E89E
:1032100070E060E008959FEF80EC089500240A9428
:103220001616170618060906089500240A941216A1
:103230001306140605060895092E0394000C11F4D4
:10324000882352F0BB0F40F4BF2B11F460FF04C081
:103250006F5F7F4F8F4F9F4F089557FD9058440FDA
:10326000551F59F05F3F71F04795880F97FB991FE5
:1032700061F09F3F79F087950895121613061406A2
:10328000551FF2CF4695F1DF08C01616170618062F
:10329000991FF1CF86957105610508940895E8940A
:1032A000BB2766277727CB0197F90895DB018F931A
:1032B0009F9349D0BF91AF91A29F800D911DA39F75
:1032C000900DB29F900D11240895A1E21A2EAA1B11
:1032D000BB1BFD010DC0AA1FBB1FEE1FFF1FA217C6
:1032E000B307E407F50720F0A21BB30BE40BF50BC3
:1032F000661F771F881F991F1A9469F7609570954C
:10330000809590959B01AC01BD01CF010895052EDC
:1033100097FB16F400940FD057FD05D0D6DF07FCBD
:1033200002D046F408C050954095309521953F4F06
:103330004F4F5F4F089590958095709561957F4FA1
:103340008F4F9F4F08950FD0A59F900DB49F900D64
:10335000A49F800D911D11240895B7FFF4CFF3DFD2
:10336000821B930B0895A29FB001B39FC001A39F3E
:10337000700D811D1124911DB29F700D811D1124AE
:10338000911D08955058BB27AA270ED055CF46DF70
:1033900030F04BDF20F031F49F3F11F41EF43BCFAF
:1033A0000EF4E095E7FB31CFE92F57DF80F3BA1732
:1033B000620773078407950718F071F49EF56FCFC5
:1033C0000EF4E0950B2EBA2FA02D0B01B901900140
:1033D0000C01CA01A0011124FF27591B99F0593F84
:1033E00050F4503E68F11A16F040A22F232F342FCC
:1033F0004427585FF3CF469537952795A795F0401A
:103400005395C9F77EF41F16BA0B620B730B840B2E
:10341000BAF09150A1F0FF0FBB1F661F771F881FE6
:10342000C2F70EC0BA0F621F731F841F48F487953E
:1034300077956795B795F7959E3F08F0B3CF93952D
:10344000880F08F09927EE0F9795879508950CD06F
:10345000F3CEEBDE40F0E2DE30F021F45F3F19F016
:10346000D4CE51111DCFD7CEF8DE98F39923C9F3EE
:103470005523B1F3951B550BBB27AA27621773077A
:10348000840738F09F5F5F4F220F331F441FAA1F2E
:10349000A9F333D00E2E3AF0E0E830D091505040EE
:1034A000E695001CCAF729D0FE2F27D0660F771F9C
:1034B000881FBB1F261737074807AB07B0E809F07E
:1034C000BB0B802DBF01FF2793585F4F2AF09E3F13
:1034D000510568F09ACEE4CE5F3FECF3983EDCF302
:1034E000869577956795B795F7959F5FC9F7880F8C
:1034F000911D9695879597F90895E1E0660F771FDE
:10350000881FBB1F621773078407BA0720F0621B6E
:10351000730B840BBA0BEE1F88F7E095089504D067
:103520006894B111BDCE0895A0DE88F09F5790F049
:10353000B92F9927B751A0F0D1F0660F771F881FD8
:10354000991F1AF0BA95C9F712C0B13081F0A7DE01
:10355000B1E00895A4CE672F782F8827B85F39F09F
:10356000B93FCCF3869577956795B395D9F73EF437
:1035700090958095709561957F4F8F4F9F4F0895DF
:10358000BDDD08F48FEF0895B9DD880B990B089520
:10359000EE0FFF1F881F8BBF0790F691E02D199447
:1035A00081E090E0F894E8C2FB01DC018D9101908C
:1035B00080190110D9F3990B0895FB01DC010190EA
:1035C0000D920020E1F70895FB01DC0141505040CD
:1035D00048F001900D920020C9F701C01D924150A2
:1035E0005040E0F708950F931F93CF93DF93CDB72B
:1035F000DEB72E970FB6F894DEBF0FBECDBF0E8993
:103600001F8986E08C831A8309838FEF9FE79E834F
:103610008D83AE01465E5F4F688D798DCE01019638
:1036200011D02F813885F801E20FF31F10822E96FA
:103630000FB6F894DEBF0FBECDBFDF91CF911F91C3
:103640000F9108952F923F924F925F926F927F92C7
:103650008F929F92AF92BF92CF92DF92EF92FF92A2
:103660000F931F93CF93DF93CDB7DEB72C970FB691
:10367000F894DEBF0FBECDBF7C016B018A01FC0157
:1036800017821682838181FFB0C1CE0101964C0161
:10369000F7019381F60193FD859193FF81916F016D
:1036A000882309F49EC1853239F493FD859193FFF7
:1036B00081916F01853221F4B70190E0C7D1E8CF45
:1036C000512C312C20E02032A0F48B3269F030F400
:1036D000803259F0833269F420612CC08D3239F088
:1036E000803339F4216026C02260246023C0286022
:1036F00021C027FD27C030ED380F3A3078F426FF7F
:1037000006C0FAE05F9E300D1124532E13C08AE0EC
:10371000389E300D1124332E20620CC08E3221F4DD
:1037200026FD5FC1206406C08C3611F4206802C0FB
:10373000883641F4F60193FD859193FF81916F01E5
:103740008111C1CF982F9F7D9554933028F40C5F41
:103750001F4FFFE3F9830DC0833631F0833771F0DB
:10376000833509F057C021C0F801808189830E5F3D
:103770001F4F44244394512C540114C03801F2E0EB
:103780006F0E711CF801A080B18026FF03C0652D6B
:1037900070E002C06FEF7FEFC5012C874CD12C0188
:1037A00083012C852F77222E16C03801F2E06F0E90
:1037B000711CF801A080B18026FF03C0652D70E068
:1037C00002C06FEF7FEFC5012C872AD12C012C8519
:1037D0002068222E830123FC19C0832D90E0481617
:1037E0005906A0F4B70180E290E030D13A94F5CFC9
:1037F000F50127FC859127FE81915F01B70190E0DB
:1038000025D131103A94F1E04F1A51084114510476
:1038100079F7DEC0843611F0893631F5F80127FFDB
:1038200007C060817181828193810C5F1F4F08C046
:1038300060817181072E000C880B990B0E5F1F4F62
:103840002F76722E97FF09C090958095709561959F
:103850007F4F8F4F9F4F2068722E2AE030E0A401E7
:103860002DD1A82EA81843C0853729F42F7EB22E5B
:103870002AE030E025C0F22FF97FBF2E8F36C1F04D
:1038800018F4883579F0ADC0803719F0883721F009
:10389000A8C02F2F2061B22EB4FE0DC08B2D8460E6
:1038A000B82E09C024FF0AC09F2F9660B92E06C00B
:1038B00028E030E005C020E130E002C020E132E045
:1038C000F801B7FE07C060817181828193810C5F2E
:1038D0001F4F06C06081718180E090E00E5F1F4F36
:1038E000A401ECD0A82EA818FB2DFF777F2E76FE22
:1038F0000BC0372D3E7FA51450F474FE0AC072FC35
:1039000008C0372D3E7E05C0BA2C372D03C0BA2C17
:1039100001C0B52C34FF0DC0FE01EA0DF11D808100
:10392000803311F4397E09C032FF06C0B394B394DA
:1039300004C0832F867809F0B39433FD12C030FFA2
:1039400006C05A2CB31418F4530C5B18B32CB314E0
:1039500060F4B70180E290E03C8778D0B3943C8576
:10396000F6CFB31410F43B1801C0312C34FF11C052
:10397000B70180E390E03C8769D03C8532FF16C0F8
:1039800031FD03C088E790E002C088E590E0B70110
:103990000CC0832F867851F031FF02C08BE201C04A
:1039A00080E237FD8DE2B70190E050D0A51430F4ED
:1039B000B70180E390E04AD05A94F8CFAA94F4017A
:1039C000EA0DF11D8081B70190E040D0A110F6CF43
:1039D000332009F45DCEB70180E290E037D03A940D
:1039E000F7CFF7018681978102C08FEF9FEF2C966A
:1039F0000FB6F894DEBF0FBECDBFDF91CF911F9100
:103A00000F91FF90EF90DF90CF90BF90AF909F907D
:103A10008F907F906F905F904F903F902F90089580
:103A2000FC010590615070400110D8F78095909589
:103A30008E0F9F1F0895FC0161507040019001108E
:103A4000D8F7809590958E0F9F1F08950F931F9321
:103A5000CF93DF93FB01238121FD03C08FEF9FEF05
:103A600028C022FF16C04681578124813581421724
:103A7000530744F4A081B1819D012F5F3F4F3183F3
:103A800020838C93268137812F5F3F4F3783268396
:103A900010C0EB01092F182F0084F185E02D199536
:103AA000892BE1F68E819F8101969F838E83812FE2
:103AB000902FDF91CF911F910F910895FA01AA27BE
:103AC000283051F1203181F1E8946F936E7F6E5F61
:103AD0007F4F8F4F9F4FAF4FB1E03ED0B4E03CD00F
:103AE000670F781F891F9A1FA11D680F791F8A1FF2
:103AF000911DA11D6A0F711D811D911DA11D20D059
:103B000009F468943F912AE0269F11243019305D12
:103B10003193DEF6CF010895462F4770405D419303
:103B2000B3E00FD0C9F7F6CF462F4F70405D4A3350
:103B300018F0495D31FD4052419302D0A9F7EACF18
:103B4000B4E0A6959795879577956795BA95C9F747
:103B500000976105710508959B01AC010A2E06943A
:103B60005795479537952795BA95C9F7620F731FF3
:103B7000841F951FA01D089511E0C5E8D1E000E065
:103B800005C0802FFE0104DD2196011DC638D10736
:0A3B900080E00807B1F7F894FFCFBA
:103B9A002A2A2A2A2A2A2A2A2A2A2A2A2A2A2A2A7B
:103BAA002A000000000000000000000000000000E1
:103BBA0000000000BA0BEA0C530B000C840B620BDA
:103BCA00760B000000001A02EA0C54021502DD010D
:103BDA00FF01EC016E616E00696E66006F76660029
:103BEA00256C6400564D4450565F317C315F564D0A
:103BFA004450560D0A005374617274696E67005618
:103C0A004D4450455F003A323A007C005F564D44BD
:103C1A005045000900310032004750524D430047D9
:103C2A004E524D4300475047474100474E47474190
:023C3A00000088
:020000023000CC
:10E000000D9489F10D94B2F10D94B2F10D94B2F129
:10E010000D94B2F10D94B2F10D94B2F10D94B2F1F0
:10E020000D94B2F10D94B2F10D94B2F10D94B2F1E0
:10E030000D94B2F10D94B2F10D94B2F10D94B2F1D0
:10E040000D94B2F10D94B2F10D94B2F10D94B2F1C0
:10E050000D94B2F10D94B2F10D94B2F10D94B2F1B0
:10E060000D94B2F10D94B2F10D94B2F10D94B2F1A0
:10E070000D94B2F10D94B2F10D94B2F10D94B2F190
:10E080000D94B2F10D94B2F10D94B2F10D94B2F180
:10E090000D94B2F10D94B2F10D94B2F10D94B2F170
:10E0A0000D94B2F10D94B2F10D94B2F10D94B2F160
:10E0B0000D94B2F10D94B2F10D94B2F10D94B2F150
:10E0C0000D94B2F10D94B2F10D94B2F10D94B2F140
:10E0D0000D94B2F10D94B2F10D94B2F10D94B2F130
:10E0E0000D94B2F141546D656761323536300041AF
:10E0F000726475696E6F206578706C6F72657220DE
:10E1000073746B3530305632206279204D4C530099
:10E11000426F6F746C6F616465723E004875683F52
:10E1200000436F6D70696C6564206F6E203D200048
:10E130004350552054797065202020203D20005FF9
:10E140005F4156525F415243485F5F3D2000415658
:10E1500052204C696243205665723D20004743437C
:10E160002056657273696F6E203D20004350552024
:10E1700049442020202020203D20004C6F7720663D
:10E18000757365202020203D20004869676820665F
:10E190007573652020203D200045787420667573D6
:10E1A00065202020203D20004C6F636B2066757336
:10E1B000652020203D20004D617220203720323024
:10E1C000313300312E362E3800342E332E350056A2
:10E1D00023202020414444522020206F7020636F70
:10E1E00064652020202020696E73747275637469E1
:10E1F0006F6E2061646472202020496E74657272B3
:10E20000757074006E6F20766563746F7200726A49
:10E210006D702020006A6D70200057686174207056
:10E220006F72743A00506F7274206E6F7420737541
:10E2300070706F72746564004D7573742062652030
:10E2400061206C6574746572002000577269747483
:10E25000696E672045450052656164696E672045B7
:10E26000450045452065727220636E743D00504F35
:10E27000525400303D5A65726F2061646472003FF1
:10E280003D43505520737461747300403D454550C3
:10E29000524F4D207465737400423D426C696E6B41
:10E2A000204C454400453D44756D70204545505215
:10E2B0004F4D00463D44756D7020464C415348001B
:10E2C000483D48656C70004C3D4C69737420492F83
:10E2D0004F20506F72747300513D51756974005234
:10E2E0003D44756D702052414D00563D73686F7707
:10E2F00020696E7465727275707420566563746FF0
:10E30000727300593D506F727420626C696E6B00BD
:10E310002A0011241FBECFEFD1E2DEBFCDBF01E046
:10E320000CBF12E0A0E0B2E0EEE1FDEF03E00BBFB6
:10E3300002C007900D92A030B107D9F712E0A0E01B
:10E34000B2E001C01D92AE30B107E1F70F9460F367
:10E350000D948DFE01E20EBF0FEF0DBF11241FBE05
:10E360000D9460F30D9400F020E030E040ED57E0B4
:10E3700005C0FA013197F1F72F5F3F4F2817390792
:10E38000C0F308959C01260F311DC901A0E0B0E043
:10E390002F5F3F4FABBFFC018791882361F08093D3
:10E3A000C6008091C00086FFFCCF8091C0008064D1
:10E3B0008093C000EACF08958DE08093C6008091DD
:10E3C000C00086FFFCCF8091C00080648093C000B5
:10E3D0008AE08093C6008091C00086FFFCCF8091C8
:10E3E000C00080648093C00008950F94C2F10F9420
:10E3F000DCF10895FC019081992359F09093C600B7
:10E400008091C00086FFFCCF8091C0008064809323
:10E41000C0003196992379F70895282F982F929567
:10E420009F70892F805D8A3308F0895F8093C600D2
:10E430008091C00086FFFCCF8091C00080648093F3
:10E44000C000822F8F70982F905D9A3308F0995FEB
:10E450009093C6008091C00086FFFCCF8091C000E1
:10E4600080648093C00008959C01FB01853691056E
:10E470001CF46330710594F0C90164E670E00F94F8
:10E480002EFE605D7F4F6093C6008091C00086FFC6
:10E49000FCCF8091C00080648093C0002B30310598
:10E4A00014F43297B4F0C90164E670E00F942EFEC4
:10E4B0006AE070E00F942EFE605D7F4F6093C600AF
:10E4C0008091C00086FFFCCF8091C0008064809363
:10E4D000C000C9016AE070E00F942EFEC0968093E0
:10E4E000C6008091C00086FFFCCF8091C000806490
:10E4F0008093C00008951F93182F8EE692EE60E07F
:10E500000F94C2F11093C6008091C00086FFFCCF2B
:10E510008091C00080648093C0000F94DCF11F9153
:10E5200008952F923F924F925F926F927F928F92B7
:10E530009F92AF92BF92CF92DF92EF92FF920F9392
:10E540001F93DF93CF93CDB7DEB762970FB6F894E2
:10E55000DEBF0FBECDBF382E622ECA01DB015C01CB
:10E560006D01772420E2222E2E010894411C511CBB
:10E570008BC081E0A81680E0B80681E0C80680E084
:10E58000D80628F0C601AA27BB270F940DF2BB2797
:10E59000AD2D9C2D8B2D0F940DF28A2D0F940DF225
:10E5A0002092C6008091C00086FFFCCF8091C00001
:10E5B00080648093C0009DE29093C6008091C0006B
:10E5C00086FFFCCF8091C00080648093C0002092C1
:10E5D000C6008091C00086FFFCCF8091C00080649F
:10E5E0008093C00019828601750188249924A1E0D6
:10E5F0003A1651F03A1620F0B2E03B1661F409C029
:10E600000BBFF701779007C0C7010F9477FE782EF4
:10E6100002C0F7017080872D0F940DF22092C60082
:10E620008091C00086FFFCCF8091C0008064809301
:10E63000C000872D8052F401EF70F0708F3520F408
:10E64000E40DF51D708204C0E40DF51D8EE280839B
:10E650000894E11CF11C011D111D0894811C911CE2
:10E6600090E18916910409F0C2CF80E190E0A0E02A
:10E67000B0E0A80EB91ECA1EDB1E198AC2010F9493
:10E68000FAF10F94DCF16A94662009F072CF629679
:10E690000FB6F894DEBF0FBECDBFCF91DF911F91B3
:10E6A0000F91FF90EF90DF90CF90BF90AF909F9031
:10E6B0008F907F906F905F904F903F902F90089534
:10E6C0002F923F924F925F926F927F928F929F9282
:10E6D000AF92BF92CF92DF92EF92FF920F931F9370
:10E6E000DF93CF93CDB7DEB7CD53D1400FB6F894BB
:10E6F000DEBF0FBECDBF01E20EBF0FEF0DBF94B75F
:10E70000F894A89514BE80916000886180936000A1
:10E7100010926000789493FF05C0E0910002F091A0
:10E7200001021995279A2F9A8091C00082608093E8
:10E73000C00080E18093C40088E18093C1000000A4
:10E74000EE24FF24870144E0A42EB12CCC24DD2448
:10E7500024C0C5010197F1F70894E11CF11C011DCB
:10E76000111D21E2E2162EE4F20620E0020720E06D
:10E77000120718F031E0C32ED12CC801B70127ECE5
:10E780003BE140E050E00F9441FE611571058105C9
:10E79000910519F485B1805885B98091C00087FD35
:10E7A00003C0C114D104A9F2A6014F5F5F4FC25E3E
:10E7B000DE4F59834883CE51D140C25EDE4F8881FF
:10E7C0009981CE51D140019711F00D9410FEC05D9A
:10E7D000DE4F19821882C053D14060E0C15DDE4F28
:10E7E0001882CF52D14088249924C35DDE4F19820C
:10E7F0001882CD52D140C05EDE4F188219821A8233
:10E800001B82C052D140CE5CDE4F188219821A8220
:10E810001B82C253D140EE24FF2487010BBFF701B6
:10E8200007911691C45CDE4F19830883CC53D14005
:10E830000D940BFEC25EDE4F28813981CE51D1404E
:10E840002130310509F52091C600C25EDE4F1982E4
:10E850001882CE51D14022C02F5F3F4F4F4F5F4FA4
:10E86000213082E138078AE7480780E0580780F0C6
:10E87000C45CDE4FE881F981CC53D140EF5FFF4F9C
:10E8800019F0EE27FF27099420E030E040E050E047
:10E890008091C00087FFE0CF2091C600C35DDE4FAE
:10E8A00048815981CD52D1404F5F5F4FC35DDE4FEC
:10E8B00059834883CD52D140213209F063C64A3092
:10E8C000510508F05FC60894811C911C53E0851621
:10E8D000910409F059C600E010E018C081E280936D
:10E8E000C6008091C00086FFFCCF8091C00080648C
:10E8F0008093C0002F5F3F4F2931310579F70F9486
:10E90000DCF10F5F1F4F0530110519F020E030E0FA
:10E91000E5CF10920A0210920B0210920C02109294
:10E920000D02109206021092070210920802109235
:10E930000902109202021092030210920402109235
:10E9400005028FEE90EE60E00F94F5F180E191EE1C
:10E9500060E00F94C2F18091C00087FFFCCF9091DE
:10E96000C600903608F09F759032B8F09093C600BC
:10E970008091C00086FFFCCF8091C00080648093AE
:10E98000C000A0E2A093C6008091C00086FFFCCF2B
:10E990008091C00080648093C000983409F4D7C18E
:10E9A0009934B8F4923409F459C1933458F490333B
:10E9B00019F1903308F4E3C59F33A1F1903409F0C5
:10E9C000DEC5BDC0953409F470C1963409F0D7C5D1
:10E9D00098C1923509F42BC2933538F49C3409F46C
:10E9E000F5C1913509F0CBC518C2963509F445C279
:10E9F000993509F0C4C567C483E792EE62E00F94CD
:10EA0000F5F110920602109207021092080210927D
:10EA1000090210920A0210920B0210920C0210923C
:10EA20000D0213C18FE792EE62E00F94F5F18FEEC5
:10EA300090EE60E00F94F5F181E291EE60E00F94CA
:10EA4000C2F187EB91EE60E00F94F5F180E391EE77
:10EA500060E00F94C2F184EE90EE60E00F94F5F167
:10EA60008FE391EE60E00F94C2F186E090E061E008
:10EA700070E00F9434F20F94DCF18DE591EE60E0DC
:10EA80000F94C2F189EC91EE60E00F94F5F18EE401
:10EA900091EE60E00F94C2F183EC91EE60E00F9490
:10EAA000F5F18CE691EE60E00F94C2F18EE10F94E7
:10EAB0000DF288E90F940DF281E00F940DF20F949E
:10EAC000DCF18BE791EE60E00F94C2F119E0E0E039
:10EAD000F0E010935700E4918E2F0F940DF20F94F5
:10EAE000DCF18AE891EE60E00F94C2F1E3E0F0E03F
:10EAF00010935700E4918E2F0F940DF20F94DCF1D8
:10EB000089E991EE60E00F94C2F1E2E0F0E0109349
:10EB10005700E4918E2F0F940DF20F94DCF188EAE8
:10EB200091EE60E00F94C2F1E1E0F0E01093570045
:10EB30001491812F0F940DF20F94DCF107CF8BE825
:10EB400092EE62E00F94F5F18BE492EE60E00F94A8
:10EB5000F5F10F94DCF100E010E019C0C8016F2D51
:10EB60000F947FFEFF2031F489E492EE60E00F9471
:10EB7000C2F10BC0F092C6008091C00086FFFCCFAE
:10EB80008091C00080648093C0000F5F1F4FC80158
:10EB900081519F41A0E0B0E0ABBFFC01F790BAE229
:10EBA000FB1621F0E2E000301E07C1F60F94DCF105
:10EBB0000F94DCF187E592EE60E00F94F5F10F948D
:10EBC000DCF1CC24DD2400E010E01EC0C8010F946D
:10EBD00077FEF82E882331F489E492EE60E00F94FA
:10EBE000C2F10BC08093C6008091C00086FFFCCFAD
:10EBF0008091C00080648093C000FE1419F00894D6
:10EC0000C11CD11C0F5F1F4FC80181519F41A0E063
:10EC1000B0E0ABBFFC01E790FAE2EF1621F022E092
:10EC20000030120799F60F94DCF10F94DCF182E6C4
:10EC300092EE60E00F94C2F1C60161E070E00F94C3
:10EC400034F20F94DCF10F94DCF110920202109276
:10EC50000302109204021092050278CE89E992EE26
:10EC600062E00F94F5F1279A2F9A16C02F9880E052
:10EC700090E0E0EDF7E03197F1F7019684369105E9
:10EC8000C1F72F9A80E090E0E0EDF7E03197F1F7DF
:10EC9000019684369105C1F78091C00087FFE6CFC9
:10ECA0008091C00087FFFCCF64C485EA92EE62E0E9
:10ECB0000F94F5F140910202509103026091040219
:10ECC0007091050281E020E10F9491F2809102029F
:10ECD00090910302A0910402B091050280509F4FD1
:10ECE000AF4FBF4F8093020290930302A0930402A0
:10ECF000B093050280509041A040B04008F426CE69
:10ED0000A4CF83EB92EE62E00F94F5F140910602FE
:10ED100050910702609108027091090280E020E1A1
:10ED20000F9491F28091060290910702A09108023F
:10ED3000B091090280509F4FAF4FBF4F80930602A2
:10ED400090930702A0930802B0930902FFCD80ECD4
:10ED500092EE62E00F94F5F183E792EE60E00F949B
:10ED6000F5F18FE792EE60E00F94F5F18BE892EE0B
:10ED700060E00F94F5F189E992EE60E00F94F5F10F
:10ED800085EA92EE60E00F94F5F183EB92EE60E09D
:10ED90000F94F5F180EC92EE60E00F94F5F187ECC2
:10EDA00092EE60E00F94F5F188ED92EE60E00F9442
:10EDB000F5F18FED92EE60E00F94F5F18AEE92EEB0
:10EDC00060E00F94F5F183E093EEBDCD87EC92EE19
:10EDD00062E00F94F5F181E40F947BF282E40F94EA
:10EDE0007BF283E40F947BF284E40F947BF285E45E
:10EDF0000F947BF286E40F947BF287E40F947BF20E
:10EE000088E40F947BF28AE40F947BF28BE40F94F6
:10EE10007BF28CE40F947BF299CD88ED92EE62E068
:10EE20000F94F5F1772473948824992409C48FED05
:10EE300092EE62E00F94F5F140910A0250910B02BC
:10EE400060910C0270910D0282E020E10F9491F22A
:10EE500080910A0290910B02A0910C02B0910D02D8
:10EE600080509F4FAF4FBF4F80930A0290930B0289
:10EE7000A0930C02B0930D0269CD8AEE92EE62E08F
:10EE80000F94F5F184EE90EE60E00F94F5F18FECC5
:10EE900091EE60E00F94F5F1662477244301CC5D98
:10EEA000DE4F19821882C452D140D401C301B695F5
:10EEB000A79597958795CA5DDE4F88839983AA8326
:10EEC000BB83C652D140CC5DDE4FA881B981C4520C
:10EED000D1401196CC5DDE4FB983A883C452D14096
:10EEE000CD0162E070E00F9434F2B0E2B093C6005E
:10EEF0008091C00086FFFCCF8091C0008064809329
:10EF0000C000EDE2E093C6008091C00086FFFCCF18
:10EF10008091C00080648093C000F0E2F093C6004E
:10EF20008091C00086FFFCCF8091C00080648093F8
:10EF3000C000CA5DDE4FE880F9800A811B81C6529D
:10EF4000D140BB27A12F902F8F2D0F940DF2CA5DBA
:10EF5000DE4F8881C652D1400F940DF2B0E2FB2EF5
:10EF6000F092C6008091C00086FFFCCF8091C00067
:10EF700080648093C0000DE30093C6008091C000C0
:10EF800086FFFCCF8091C00080648093C00010E2B7
:10EF90001093C6008091C00086FFFCCF8091C00016
:10EFA00080648093C0008BBEF3012791C65DDE4F65
:10EFB0002883CA52D140A22EBB24CC24DD2408943D
:10EFC000611C711C811C911C8BBEF3018791282E42
:10EFD0003324442455240894611C711C811C911C09
:10EFE0008BBEF3013791C55DDE4F3883CB52D140E4
:10EFF0000894611C711C811C911C8BBEF30147910C
:10F00000C45DDE4F4883CC52D140ADEFEA2EAFEF66
:10F01000FA2EAFEF0A2FAFEF1A2F6E0C7F1C801E57
:10F02000911E142D032DF22CEE24EA0CFB1C0C1D5A
:10F030001D1D0F940DF220E22093C6008091C000A8
:10F0400086FFFCCF8091C00080648093C000C65DC5
:10F05000DE4F8881CA52D1400F940DF230E23093D6
:10F06000C6008091C00086FFFCCF8091C000806404
:10F070008093C000C45DDE4F8881CC52D1400F9494
:10F080000DF240E24093C6008091C00086FFFCCFA5
:10F090008091C00080648093C000C55DDE4F888190
:10F0A000CB52D1400F940DF250E25093C6008091A4
:10F0B000C00086FFFCCF8091C00080648093C000B8
:10F0C0008FEFE8168FEFF80680E0080780E018075A
:10F0D00031F484E092EE60E00F94C2F1DFC0D80119
:10F0E000C7018070907CA070B0708050904CA040A0
:10F0F000B040D1F52FEF3FE340E050E0E222F322B1
:10F1000004231523CA5DDE4FA880B980CA80DB8046
:10F11000C652D140AE0CBF1CC01ED11EAA0CBB1CD7
:10F12000CC1CDD1C8EE092EE60E00F94C2F1BB2798
:10F13000A12F902F8F2D0F940DF28E2D0F940DF285
:10F1400030E23093C6008091C00086FFFCCF8091F2
:10F15000C00080648093C0004EE34093C60080915D
:10F16000C00086FFFCCF87C08EE09EEFA0E0B0E03D
:10F17000E822F9220A231B239CE0E91694E9F90608
:10F1800090E0090790E0190709F088C0C45DDE4FE0
:10F19000A881CC52D140EA2EFF2400E010E0102FCD
:10F1A0000F2DFE2CEE24C55DDE4FB881CB52D14031
:10F1B000EB0EF11C011D111DD601C501817090706F
:10F1C000A070B070DC0199278827E80EF91E0A1F8D
:10F1D0001B1F20EF30E040E050E0A222B322C42207
:10F1E000D52241E1AA0CBB1CCC1CDD1C4A95D1F7F1
:10F1F000EA0CFB1C0C1D1D1D81E090E0A0E0B0E0BE
:10F20000282239224A225B2235E1220C331C441C7D
:10F21000551C3A95D1F7E20CF31C041D151D57013E
:10F220006801AA0CBB1CCC1CDD1C85E192EE60E0E1
:10F230000F94C2F1C801AA27BB270F940DF2BB2778
:10F24000A12F902F8F2D0F940DF28E2D0F940DF274
:10F2500090E29093C6008091C00086FFFCCF809121
:10F26000C00080648093C000AEE3A093C60080918C
:10F27000C00086FFFCCF8091C00080648093C000F6
:10F28000C601AA27BB270F940DF2BB27AD2D9C2DDD
:10F290008B2D0F940DF28A2D0F940DF20F94DCF14B
:10F2A000CC5DDE4FE881F981C452D140F99709F471
:10F2B0004DCBF4E0EF2EF12C012D112D6E0C7F1CA7
:10F2C000801E911EF2CD83E093EE62E00F94F5F183
:10F2D0008AE192EE60E00F94C2F18091C00087FF56
:10F2E000FCCF1091C6001F751093C6008091C0001E
:10F2F00086FFFCCF8091C00080648093C0000F9493
:10F30000DCF1812F81548A3108F036C1163409F4BA
:10F3100095C0173490F4133409F44EC0143430F40B
:10F320001134F1F0123409F01DC130C0143409F465
:10F3300059C0153409F016C16BC01A3409F4C4C0A1
:10F340001B3438F4173409F48FC0183409F00AC19B
:10F35000A1C01B3409F4D2C01C3409F003C1E8C0B9
:10F360008FEF81B90DC082B1809582B980E090E0C5
:10F37000E0EDF7E03197F1F70196883C9105C1F790
:10F380008091C00087FFEFCF12B8EFC08FEF84B934
:10F390000DC085B1809585B980E090E0E0EDF7E0A3
:10F3A0003197F1F70196883C9105C1F78091C00033
:10F3B00087FFEFCF15B8D9C08FEF87B90DC088B1DF
:10F3C000809588B980E090E0E0EDF7E03197F1F7C3
:10F3D0000196883C9105C1F78091C00087FFEFCF6F
:10F3E00018B8C3C08FEF8AB90DC08BB180958BB9A7
:10F3F00080E090E0E0EDF7E03197F1F70196883C8E
:10F400009105C1F78091C00087FFEFCF1BB8ADC059
:10F410008FEF8DB90DC08EB180958EB980E090E0F0
:10F42000E0EDF7E03197F1F70196883C9105C1F7DF
:10F430008091C00087FFEFCF1EB897C08FEF80BBD1
:10F440000DC081B3809581BB80E090E0E0EDF7E0F6
:10F450003197F1F70196883C9105C1F78091C00082
:10F4600087FFEFCF11BA81C08FEF83BB0DC084B38C
:10F47000809584BB80E090E0E0EDF7E03197F1F714
:10F480000196883C9105C1F78091C00087FFEFCFBE
:10F4900014BA6BC08FEF809301010FC080910201FD
:10F4A00080958093020180E090E0E0EDF7E03197F5
:10F4B000F1F70196883C9105C1F78091C00087FF64
:10F4C000EDCF1092020151C08FEF809304010FC065
:10F4D0008091050180958093050180E090E0E0ED4A
:10F4E000F7E03197F1F70196883C9105C1F78091DB
:10F4F000C00087FFEDCF1092050137C08FEF8093DA
:10F5000007010FC08091080180958093080180E079
:10F5100090E0E0EDF7E03197F1F70196883C910536
:10F52000C1F78091C00087FFEDCF109208011DC088
:10F530008FEF80930A010FC080910B01809580931B
:10F540000B0180E090E0E0EDF7E03197F1F70196F4
:10F55000883C9105C1F78091C00087FFEDCF1092E4
:10F560000B0103C085E292EEEEC98091C00087FFD7
:10F57000FCCF8091C600EAC988E392EEE4C98CE131
:10F5800091EEE1C988249924933011F1943028F444
:10F59000913089F09230B8F408C0953061F195301F
:10F5A000F0F0963009F048C043C02B3109F042C951
:10F5B00091E06BE13FC96227C15DDE4F2883CF52E6
:10F5C000D14092E037C9B22FA0E0622793E032C960
:10F5D000822F90E0A82BB92B622794E02BC92E3004
:10F5E00009F039C3622795E0C05DDE4F19821882A9
:10F5F000C053D1401FC9E1E0F0E0EC0FFD1FC05D3A
:10F60000DE4F08811981C053D140E00FF11F2083E4
:10F610000F5F1F4FC05DDE4F19830883C053D14079
:10F6200062270A171B0709F005C9D80196E002C92D
:10F63000261709F010C303C0973009F0FBC87724E0
:10F640009981933109F412C19431C8F4963009F4C8
:10F65000D8C0973050F4923009F406C1933009F4C1
:10F660006DC0913009F059C253C0913109F477C08F
:10F67000923108F0BBC0903109F04FC2F5C098310B
:10F6800009F487C0993150F4953109F4EFC09531F0
:10F6900008F4C6C1963109F040C2C2C19A3109F4DA
:10F6A0006CC09A3108F491C09B3109F45BC09D3164
:10F6B00009F033C29D81903359F48F81882311F46E
:10F6C0009EE11CC0813011F091E018C098E916C08D
:10F6D000892F807591F0903539F4E0E0F0E089E011
:10F6E0008093570094910AC0983539F4E3E0F0E034
:10F6F00089E080935700949101C090E01A821B82A8
:10F700008D818C831D829E831F8227E030E009C299
:10F710001A8288E08B8381E48C8386E58D8382E581
:10F720008E8389E48F8383E5888780E589878FE5E9
:10F730008A8782E38B872BE030E0F3C18A818139AD
:10F7400041F0823941F0803911F48FE005C080E04A
:10F7500003C082E001C08AE01A828B8344C0772410
:10F76000739482C08D81882311F48EE12CC0813086
:10F7700011F081E028C088E926C01A82E1E0F0E0BB
:10F7800089E08093570084918B831C8224E030E0D1
:10F79000C8C18B81803589F48C81883039F4E2E0EE
:10F7A000F0E089E08093570084910DC0E0E0F0E044
:10F7B00089E080935700849106C0E3E0F0E089E09F
:10F7C0008093570084911A82DFCF8D81836C99E0FA
:10F7D000E1E0F0E0082E90935700E89507B600FCB2
:10F7E000FDCF1A821B8223E030E09BC180EC8A832C
:10F7F000CE5CDE4F188219821A821B82C253D1401E
:10F800008EC18A8190E0A0E0B0E0582F44273327D2
:10F8100022278B8190E0A0E0B0E0DC0199278827C7
:10F82000282B392B4A2B5B2B8D8190E0A0E0B0E098
:10F83000282B392B4A2B5B2B8C8190E0A0E0B0E089
:10F84000BA2FA92F982F8827282B392B4A2B5B2BCF
:10F85000220F331F441F551FC05EDE4F288339839C
:10F860004A835B83C052D1401A8259C13A81C95C34
:10F87000DE4F3883C753D140CA5CDE4F1882C6536F
:10F88000D1408B81C82EDD24CA5CDE4F488159816E
:10F89000C653D140C42AD52A933109F082C0CE5C28
:10F8A000DE4F88819981AA81BB81C253D1408050AB
:10F8B000904CA340B04030F583E0CE5CDE4FE88052
:10F8C000F9800A811B81C253D140F70100935B008C
:10F8D00080935700E89507B600FCFDCFCE5CDE4F65
:10F8E000088119812A813B81C253D14000501F4FAA
:10F8F0002F4F3F4FCE5CDE4F088319832A833B8313
:10F90000C253D140C05EDE4F488159816A817B81FC
:10F91000C052D140DE011B9631E08C9111962C91A2
:10F9200011971296C75CDE4F2883C953D140C85C3B
:10F93000DE4F1882C853D14090E0C85CDE4FE881AA
:10F94000F981C853D1408E2B9F2B0C01FA01609393
:10F950005B0030935700E89511244E5F5F4F6F4F67
:10F960007F4F0EEFE02E0FEFF02ECE0CDF1CC114F8
:10F97000D10499F685E0C05EDE4F088119812A81A5
:10F980003B81C052D140F80120935B008093570027
:10F99000E89507B600FCFDCF81E180935700E8951C
:10F9A00035C0C05EDE4F88819981AA81BB81C0527B
:10F9B000D140B695A795979587957C018601ABE0D8
:10F9C000AA2EB12CAC0EBD1E0BC0D5016D915D01F0
:10F9D000C7010F947FFE0894E11CF11C01501040F8
:10F9E0000115110591F7A60160E070E0440F551F65
:10F9F000661F771FC05EDE4FE880F9800A811B8199
:10FA0000C052D1404E0D5F1D601F711F1A82C05E33
:10FA1000DE4F488359836A837B83C052D1407FC0C5
:10FA2000FA80C55CDE4FF882CB53D140C65CDE4F16
:10FA30001882CA53D1408B81C82EDD24C65CDE4FAC
:10FA400008811981CA53D140C02AD12A1A828981DA
:10FA5000BE016D5F7F4F843121F59601C05EDE4FA0
:10FA6000E880F9800A811B81C052D1400BBFF701A9
:10FA700087919691DB018C9311969C936E5F7F4FDB
:10FA8000D801C7010296A11DB11DC05EDE4F88835B
:10FA90009983AA83BB83C052D14022503040F1F6F3
:10FAA00036C0C05EDE4F288139814A815B81C052F9
:10FAB000D1400894C108D108760100E010E0089414
:10FAC000C11CD11C0894E11CF11C011D111DE20E8A
:10FAD000F31E041F151F21BDBB27A52F942F832FB5
:10FAE00082BD2F5F3F4F4F4F5F4FF89A80B5DB01CC
:10FAF0008D93BD012E153F054007510761F7C05E8C
:10FB0000DE4F288339834A835B83C052D1409601FC
:10FB10002D5F3F4FFB01108204C080EC8A8322E0FE
:10FB200030E08BE18093C6008091C00086FFFCCF5F
:10FB30008091C00080648093C000C15DDE4FF88179
:10FB4000CF52D140F093C6008091C00086FFFCCF19
:10FB50008091C00080648093C000432F3093C60022
:10FB60008091C00086FFFCCF8091C00080648093AC
:10FB7000C000922F2093C6008091C00086FFFCCF6A
:10FB80008091C00080648093C0008EE08093C600A6
:10FB90008091C00086FFFCCF8091C000806480937C
:10FBA000C00065E1C15DDE4FE880CF52D1406E25D7
:10FBB00069276427FE01319610C090819093C6009A
:10FBC0008091C00086FFFCCF31968091C000806498
:10FBD0008093C0006927215030402115310569F715
:10FBE0006093C6008091C00086FFFCCF8091C0006A
:10FBF00080648093C00085B1805885B9772081F4F6
:10FC0000C15DDE4F0881CF52D1400F5FC15DDE4F35
:10FC10000883CF52D14090E0A0E0B0E00D941AF4F8
:10FC200027982F9880E090E020ED37E0F901319798
:10FC3000F1F7019684369105C9F700008091C00064
:10FC40008D7F8093C00081E180935700E895EE2777
:10FC5000FF270994FFCF90E00D941AF497FB092E2B
:10FC600007260AD077FD04D02ED006D000201AF443
:10FC7000709561957F4F0895F6F7909581959F4F08
:10FC80000895A1E21A2EAA1BBB1BFD010DC0AA1FDD
:10FC9000BB1FEE1FFF1FA217B307E407F50720F0F5
:10FCA000A21BB30BE40BF50B661F771F881F991F70
:10FCB0001A9469F760957095809590959B01AC01B9
:10FCC000BD01CF010895AA1BBB1B51E107C0AA1FAC
:10FCD000BB1FA617B70710F0A61BB70B881F991FED
:10FCE0005A95A9F780959095BC01CD010895F99991
:10FCF000FECF92BD81BDF89A992780B50895262F31
:10FD0000F999FECF1FBA92BD81BD20BD0FB6F89400
:0EFD1000FA9AF99A0FBE01960895F894FFCF63
:040000033000E000E9
:00000001FF