:10000000FEC100000C948F100C9464100C943910F5
:100010000C940E100C94E30F0C94B80F0C948D0FED
:100020000C94620F0C94ED0E0C947E0E0C94080E42
:1000300017C2000015C2000013C2000011C2000068
:100040000FC200000DC200000BC2000009C2000078
:1000500007C2000005C2000003C20000C4C50000C2
:10006000FFC100000C945C180C943318F9C1000017
:10007000F7C10000F5C10000F3C10000F1C10000AC
:10008000EFC10000EDC10000EBC10000E9C10000BC
:10009000E7C10000E5C10000E3C10000E1C10000CC
:1000A000DFC10000DDC10000DBC10000D9C10000DC
:1000B000D7C10000D5C1000024C70000D0C7000090
:1000C000D5C60000CDC10000CBC10000C9C10000F1
:1000D000C7C10000C5C10000C3C10000C1C100000C
:1000E000BFC100004C024F023E024202480286029B
:1000F000530257025D02610265026B026F027302D6
:10010000860279027D028102DE04E304E804F2043F
:10011000FC04750506050E05160520052A0534059F
:1001200043054D057505570561056B056C147E1477
:10013000811488148F14BD14C414D114DE14EA146D
:10014000EA14EA14EA14EA14EA14EA14EA14EA14BF
:10015000EA14EA14EA14EA14EA14EA14EA14EA14AF
:10016000EA14EA14EA14EA14EA14EA146C1479148E
:100170007E14811488148F149614A314B014084AA2
:10018000D73B3BCE016E84BCBFFDC12F3D6C7431AB
:100190009ABD56833DDA3D00C77F11BED9E4BB4C02
:1001A0003E916BAAAABE000000803F05A84CCDB2CC
:1001B000D44EB93836A9020C50B9918688083CA6AD
:1001C000AAAA2ABE000000803F0020204F6C6420B5
:1001D000446972656374696F6E203D20002020447D
:1001E0006972656374696F6E203D200046726565B3
:1001F000204D656D6F72793A200020204572726F34
:1002000072203D2000202043757272656E74203D7F
:1002100020002020546172676574203D2000205327
:100220007064203D200020536F6E61722052696718
:100230006874203D2000536F6E6172204C656674B7
:10024000203D200020436F6D70617373204865610D
:1002500064696E67203D2000204F726967696E6196
:100260006C2044697374203D20002044697374201D
:100270003D2000204C6F6E67203D2000204C4F4EEB
:10028000203D2000204C4154203D20000000210052
:10029000240027002A002D00300033000101000057
:1002A000040107010A0100002200250028002B009C
:1002B0002E003100340002010000050108010B018D
:1002C00000000A0B02090C0D0E08070304010000D0
:1002D000000000000000000000000000000000001E
:1002E00000000000000000000000000012111000DB
:1002F00000000000000000000000000000000000FE
:10030000000000000000000020002300260029005B
:100310002C002F003200000100000301060109013A
:100320000001040505030304050604050607010092
:10033000010003020100000102030405060707068D
:100340000504030201000702010007060504030279
:100350000100030201000001020304050607000179
:100360000203040506070203040506060705050542
:1003700005070508080808020202020A0A0808041C
:10038000040404010101010101010103030303034A
:10039000030303040707070C0C0C0C0C0C0C0C02D9
:1003A00002020206060606060606060B0B0B0B0BE0
:1003B0000B0B0B01021020200808102040102040D9
:1003C0008002010201080402010102040810204019
:1003D0008080402010080402018004020180402037
:1003E0001008040201080402010102040810204060
:1003F00080010204081020408000351917191124CB
:100400001FBECFEFD1E2DEBFCDBF00E00CBF12E0D8
:10041000A0E0B2E0EEECF3E400E00BBF02C0079016
:100420000D92A03BB107D9F725E0A0EBB2E001C0E7
:100430001D92A23DB207E1F711E0CEEFD1E000E05E
:1004400006C021970109802FFE010E94AB21CD3FFC
:10045000D10780E00807A9F70E94791A0C94D621E9
:10046000CFCD90E0FC013197E231F10508F04EC0AC
:100470008827EE58FF4F8F4F0C94AB21809180005E
:100480008F7703C0809180008F7D809380000895D6
:1004900080918000877FF9CF84B58F7702C084B5C3
:1004A0008F7D84BD08958091B0008F7703C08091C7
:1004B000B0008F7D8093B0000895809190008F7779
:1004C00007C0809190008F7D03C080919000877F4E
:1004D0008093900008958091A0008F7707C080914D
:1004E000A0008F7D03C08091A000877F8093A00033
:1004F0000895809120018F7707C0809120018F7D22
:1005000003C080912001877F8093200108953FB729
:10051000F8948091930390919403A0919503B091E6
:10052000960326B5A89B05C02F3F19F00196A11D83
:10053000B11D3FBFBA2FA92F982F8827820F911D79
:10054000A11DB11DBC01CD0142E0660F771F881FC0
:10055000991F4A95D1F708955091AD054091AC058A
:10056000852F90E0242F30E0541710F4805B9F4FCC
:10057000821B930B08958091AD05E091AC058E1719
:1005800051F0EF5FE03508F0E0E0F0E0E25CFC4FB6
:10059000808190E008958FEF9FEF08958091AD05E1
:1005A0009091AC05891769F09F5F903508F090E055
:1005B000E92FF0E0E25CFC4F80819093AC0590E085
:1005C00008958FEF9FEF08958091AB058111FCCFC7
:1005D00008958091AA058F5F843408F080E090919F
:1005E000A9059817E1F32FB7F8949091AB059923DB
:1005F00041F0E82FF0E0EC50FD4F60838093AA05B6
:100600001DC081E08093AB056093390310923803DD
:1006100082E08ABB80917300826080937300809136
:1006200020018F7380688093200180912401909134
:100630002501409690932901809328012FBF81E0E6
:1006400090E008950F931F93CF93DF93082F70E0EE
:10065000FB01E054FD4F8491FB01ED54FC4FD4911C
:10066000FB01E359FC4FC49110E0CC23D1F0811180
:10067000F8DEEC2FF0E0EE0FFF1FEA5FFC4FA591D4
:10068000B491EC91ED2369F042DF000F111F000FD0
:10069000111FF801E055FD4F6083718382839383BE
:1006A00013C035DFF801EE0FFF1FEE0FFF1FE055FF
:1006B000FD4F20813181621B730B000F111FF80168
:1006C000ED54FA4F71836083DF91CF911F910F91A9
:1006D000089563E481E0B6CF62E480E0B3CF08958B
:1006E00080E090E008954F925F926F927F928F9298
:1006F0009F92AF92BF92CF92DF92EF92FF92CF93F1
:10070000DF93CDB7DEB72C970FB6F894DEBF0FBEE0
:10071000CDBF2091C6023091C7024091C8025091CE
:10072000C9026091BE027091BF028091C002909197
:10073000C1020E946A1F25E33AEF4EE85CE30E9483
:10074000661E2B013C0125E33AEF4EE85CE3609125
:10075000CA027091CB028091CC029091CD020E948E
:10076000661E4B015C0125E33AEF4EE85CE36091C5
:10077000BA027091BB028091BC029091BD020E94AE
:10078000661E6B017C01C301B2010E9436216D839C
:100790007E838F839887C701B6010E9431206983C9
:1007A0007A838B839C83C501B4010E9436216987BB
:1007B0007A878B879C87C301B2010E9431202B016D
:1007C0003C0129813A814B815C8169857A858B85E1
:1007D0009C850E94661EA30192010E94661E2B0149
:1007E0003C01C501B4010E9431204B015C01C701ED
:1007F000B6010E9436219B01AC01C501B4010E94E3
:10080000661EA30192010E946A1F6B017C0129816F
:100810003A814B815C816D817E818F8198850E94B8
:10082000661EA70196010E94DE1F6B017C0120E07D
:1008300030E0A9010E94011E87FF0AC02BED3FE0B6
:1008400049EC50E4C701B6010E946B1F6B017C01AB
:1008500021EE3EE245E652E4C701B6010E94661E63
:100860000E949C207093C3026093C202CB012C961D
:100870000FB6F894DEBF0FBECDBFDF91CF91FF90D2
:10088000EF90DF90CF90BF90AF909F908F907F9030
:100890006F905F904F9008951F93CF93DF93282F11
:1008A00030E0F901E054FD4F8491F901ED54FC4F23
:1008B000D491F901E359FC4FC491CC23C1F0162F18
:1008C0008111CFDDEC2FF0E0EE0FFF1FEA55FD4F59
:1008D000A591B4918FB7F894111105C09C91ED2F9B
:1008E000E095E92302C0EC91ED2BEC938FBFDF91F3
:1008F000CF911F910895CF93DF9390E0FC01ED54C9
:10090000FC4F2491FC01E359FC4F8491882361F151
:1009100090E0880F991FFC01E457FD4FC591D491D9
:10092000FC01EA55FD4FA591B491611109C09FB733
:10093000F8948881209582238883EC912E230BC024
:10094000623061F49FB7F8943881822F80958323B9
:100950008883EC912E2B2C939FBF06C08FB7F89401
:10096000E8812E2B28838FBFDF91CF9108951F93AD
:10097000CF93DF93182FEB0161E0BDDF209711F4D7
:1009800060E004C0CF3FD10531F461E0812FDF91F9
:10099000CF911F9181CFE12FF0E0E054FD4FE49122
:1009A0004E2F50E0FA013197E231F10508F09DC079
:1009B0008827EC57FF4F8F4F0C94AB2184B580688C
:1009C00084BDC7BD97C084B5806284BDC8BD92C0D8
:1009D00080918000806880938000D0938900C093CC
:1009E000880088C080918000806280938000D093CE
:1009F0008B00C0938A007EC08091800088608093C5
:100A00008000D0938D00C0938C0074C08091B000A2
:100A100080688093B000C093B3006CC08091B00038
:100A200080628093B000C093B40064C08091900055
:100A3000806880939000D0939900C09398005AC02A
:100A400080919000806280939000D0939B00C0932F
:100A50009A0050C080919000886080939000D0935D
:100A60009D00C0939C0046C08091A0008068809348
:100A7000A0008091A0008F7B8093A000D093A9005C
:100A8000C093A80037C08091A00080628093A0002E
:100A9000D093AB00C093AA002DC08091A0008860C5
:100AA0008093A000D093AD00C093AC0023C0809190
:100AB0002001806880932001D0932901C0932801F0
:100AC00019C080912001806280932001D0932B0176
:100AD000C0932A010FC0809120018860809320017B
:100AE000D0932D01C0932C0105C0C038D1050CF066
:100AF0004CCF46CFDF91CF911F9108952FB7F89437
:100B000060918F0370919003809191039091920373
:100B10002FBF0895CF92DF92EF92FF92EFDF6B012C
:100B20007C016FE370E089E022DF8091F002909118
:100B3000F102A091F202B091F302A7019601281BE5
:100B4000390B4A0B5B0BDA01C901883E9340A105C2
:100B5000B105A8F083E690E0909307028093060227
:100B60006FE770E089E003DF81E08093EF02C092DD
:100B7000F002D092F102E092F202F092F302FF90C2
:100B8000EF90DF90CF900895CF92DF92EF92FF9297
:100B900060E08AE281DEB2DF6B017C018091EB02D2
:100BA0009091EC02A091ED02B091EE02A7019601A6
:100BB000281B390B4A0B5B0BDA01C901883E9340B5
:100BC000A105B10558F061E08AE266DEC092EB0251
:100BD000D092EC02E092ED02F092EE02FF90EF90E4
:100BE000DF90CF9008951F920F920FB60F921124AD
:100BF0002F933F938F939F93AF93BF9380918F03D6
:100C000090919003A0919103B091920330918E0343
:100C100023E0230F2D3720F40196A11DB11D05C03F
:100C200026E8230F0296A11DB11D20938E03809309
:100C30008F0390939003A0939103B09392038091BC
:100C4000930390919403A0919503B091960301961C
:100C5000A11DB11D8093930390939403A0939503DA
:100C6000B0939603BF91AF919F918F913F912F9138
:100C70000F900FBE0F901F901895CF93DF93EC014C
:100C80008A859B85AC85BD858E839F83A887B98720
:100C900035DF6A837B838C839D8381E089838883AE
:100CA000DF91CF9108952F923F924F925F926F9272
:100CB0007F928F929F92AF92BF92CF92DF92EF92EC
:100CC000FF920F931F93CF93DF93D82FC92F8B01E0
:100CD0000E94C61D24E630E040E050E00E94291F3B
:100CE00049015A019B01AC0160E876E988E990E08E
:100CF0000E941A1F6B017C01F80191828082ED2F06
:100D0000FC2F2191822F022E000C990BC0970A977D
:100D1000C0F32E3239F51F0180E8882E86E9982E1F
:100D200088E9A82EB12C9AE0492E512C612C712C07
:100D3000F101C1911F010C2E000CDD0BE097CA30B0
:100D4000D10580F4C501B401A30192010E94291FBD
:100D500049015A01DE010E94551FC60ED71EE81E2A
:100D6000F91EE6CFA5E0B0E0A70196010E944B1F57
:100D70006F5F7F4F8F4F9F4F23E030E040E050E0A8
:100D80000E94291FF80122833383448355831682EE
:100D9000DF91CF911F910F91FF90EF90DF90CF9057
:100DA000BF90AF909F908F907F906F905F904F908B
:100DB0003F902F900895FF920F931F93CF93DF934F
:100DC000EC01FF24F39488818D3211F0F12C01C0E5
:100DD0002196CE010E94C61D9B01AC01A4E6B0E0A5
:100DE0000E944B1FFE014991242F042E000C330B4F
:100DF000205331092A303105A8F34E3241F52181C3
:100E0000022E000C330B205331092A303105F8F43F
:100E10004AE0429F8001439F100D1124012E000CD7
:100E2000220B330B600F711F821F931F0281002E54
:100E3000000C110B005311090A30110540F4012E6A
:100E4000000C220B330B600F711F821F931FFF20BA
:100E500039F090958095709561957F4F8F4F9F4F9A
:100E6000DF91CF911F910F91FF9008951F920F92E4
:100E70000FB60F9211240BB60F922F938F939F935F
:100E8000EF93FF93809173008B7F80937300809129
:100E900021018F7B809321018091AE0520913D033C
:100EA000205890913C03893020F49695922B8F5FC7
:100EB000FACF90933C038091AD058F5F803508F0A9
:100EC00080E02091AC05821739F0E82FF0E0E25C79
:100ED000FC4F90838093AD051092AE058091210167
:100EE0008F7B8093210110923D03FF91EF919F91A1
:100EF0008F912F910F900BBE0F900FBE0F901F90F0
:100F000018951F920F920FB60F9211240BB60F92E5
:100F10002F933F934F935F936F937F938F939F9301
:100F2000AF93BF93EF93FF93809126019091270198
:100F300040913D0320912101442331F02F7B2093E8
:100F4000210110923D0306C020642093210120E876
:100F500020933D033091AE05311125C041116CC085
:100F60002091AF053091B005280F391F30932B0128
:100F700020932A0124E02ABB20917300246020934F
:100F800073002091B1053091B205820F931F369501
:100F90002795820F931F90933B0380933A0381E040
:100FA0008093AE0549C040913A0350913B03609154
:100FB000B1057091B205DB01A095B095E0913D03BC
:100FC00020913C03841B950BA817B90768F126955F
:100FD0002E2B460F571F3F5F861B970B3930A0F310
:100FE00020933C03809173008B7F809373008091EA
:100FF000AD058F5F803508F080E09091AC058917D2
:1010000049F0E82FF0E090913C03E25CFC4F9083C4
:101010008093AD05809121018F7B809321011092F7
:101020003D031092AE0508C020933C0350933B0350
:1010300040933A033093AE05FF91EF91BF91AF918A
:101040009F918F917F916F915F914F913F912F91E0
:101050000F900BBE0F900FBE0F901F9018951F9210
:101060000F920FB60F9211240BB60F922F933F934E
:101070004F935F936F937F938F939F93EF93FF9320
:101080008091AB05609139032091280130912901AD
:101090004091B1055091B205909138038A30F8F42F
:1010A000240F351F893019F0762F717001C071E05F
:1010B00066958F5F791791F390912001772311F056
:1010C000906C02C09F739068909320013093290127
:1010D0002093280170933803609339034AC090919C
:1010E000AA05E091A9059E1319C08A3051F48BE03E
:1010F0008093AB05240F351F3093290120932801DD
:101100003AC01092AB05809120018F73809320012B
:10111000809173008D7F809373002DC0EF5FE43466
:1011200008F0E0E0E093A905F0E0EC50FD4F90817D
:101130009093390310923803909120019F73906827
:10114000909320018A3059F48091B1059091B205B5
:10115000280F391F309329012093280109C080915D
:1011600024019091250140969093290180932801B4
:1011700081E08093AB05FF91EF919F918F917F91DB
:101180006F915F914F913F912F910F900BBE0F90F8
:101190000FBE0F901F901895CF92DF92EF92FF92A3
:1011A00060E08AE279DBAADC6B017C018091E702D6
:1011B0009091E802A091E902B091EA02A70196019C
:1011C000281B390B4A0B5B0BDA01C90180339547A9
:1011D000A105B10558F061E08AE25EDBC092E7024A
:1011E000D092E802E092E902F092EA02FF90EF90DA
:1011F000DF90CF900895CF92DF92EF92FF92CF933E
:10120000DF93C0910602D0910702C336D10509F0E1
:101210006DC08091020290910302019781F51092B6
:10122000BB056CDC6B017C016FE370E089E09FDB48
:101230008091DE029091DF02A091E002B091E10284
:10124000A7019601281B390B4A0B5B0BDA01C90178
:10125000883E9340A105B10590F06FE770E089E00A
:1012600086DB1092E602C092DE02D092DF02E092AC
:10127000E002F092E102D0930302C0930202809157
:101280000202909103021092BB05029761F536DCD1
:101290006B017C0160EC70E089E069DB8091DA022F
:1012A0009091DB02A091DC02B091DD02A7019601D2
:1012B000281B390B4A0B5B0BDA01C901883E9340AE
:1012C000A105B10580F06FE770E089E050DB109276
:1012D000BB051092EF02C092DA02D092DB02E092DC
:1012E000DC02F092DD0283E690E06EC0C130D105F1
:1012F00009F04FC08091020290910302029789F495
:1013000083E690E0909307028093060274DFD09307
:101310000702C09306026FDFD0930302C09302025C
:1013200057C08091E602811131C0E8DB6B017C017E
:1013300060EC70E089E01BDB8091E2029091E302B7
:10134000A091E402B091E502A7019601281B390B98
:101350004A0B5B0BDA01C901883E9340A105B10538
:10136000A8F083E690E090930702809306026FE76F
:1013700070E089E0FCDA81E08093E602C092E2024C
:10138000D092E302E092E402F092E50281E090E084
:101390001BC0C230D105E1F480910202909103029A
:1013A000019759F483E690E0909307028093060238
:1013B00022DFD0930702C09306028091EF028111D1
:1013C00001C0A8DB82E090E09093030280930202C8
:1013D000DF91CF91FF90EF90DF90CF9008958F92A3
:1013E0009F92AF92BF92CF92DF92EF92FF926B01EA
:1013F0007C0184DB4B015C0184EC94E0ADD8892B4B
:1014000031F084EC94E0CAD80E946112F5CFF3DE8B
:1014100075DBDC01CB0188199909AA09BB098C1578
:101420009D05AE05BF0540F3FF90EF90DF90CF9094
:10143000BF90AF909F908F900895BC018CE097CAA9
:101440008091C2029091C3022091C0053091C105E4
:10145000821B930B8C342FEF920714F488599E4F04
:101460009093B8058093B7058091B7059091B80522
:10147000853B910534F0885691409093B805809350
:10148000B7058091B7059091B80505960B9750F474
:101490008091BB05811106C083E690E0909307021E
:1014A0008093060208950F931F93CF93DF9360E01C
:1014B00082E2F2D983E090E00197F1F761E082E205
:1014C000EBD983E290E00197F1F760E082E2E4D9A2
:1014D00083E20E945E150E94071E2EE835E741E96F
:1014E0005FE30E94661E20E030E044E952E40E947F
:1014F000342020E030E040E05FE30E94661E0E945E
:101500009C208B016D3371053CF421E02093BA05DA
:10151000683071051CF409C01092BA056850710951
:101520006533710548F430DB07C069E170E080E0A5
:1015300090E055DF00E010E060E084E2ADD983E0A8
:1015400090E00197F1F761E084E2A6D983E290E0B0
:101550000197F1F760E084E29FD985E20E945E1571
:101560000E94071E2EE835E741E95FE30E94661EF0
:1015700020E030E044E952E40E94342020E030E0F2
:1015800040E05FE30E94661E0E949C20EB016D33E9
:1015900071053CF421E02093B905683071051CF415
:1015A00009C01092B905685071096533710548F496
:1015B000EBDA07C069E170E080E090E010DFC0E0A6
:1015C000D0E00C3E110514F000EF10E0CC3ED10548
:1015D00014F0C0EFD0E02091BE053091BF05200F80
:1015E000311F37FF02C02F5F3F4F3595279530934E
:1015F000BF052093BE058091BC059091BD058C0F61
:101600009D1F97FD0196959587959093BD058093B5
:10161000BC05DF91CF911F910F910895CF92DF927A
:10162000EF92FF921092D1046091D2047091D30492
:1016300080E090E00E94051E6B017C016091D40463
:101640007091D5048091D6049091D7040E94051E14
:1016500028E23BE64EE65EE40E9434209B01AC01AA
:10166000C701B6010E946B1F2091D804DC01CB0199
:101670002111B0588093CA029093CB02A093CC0260
:10168000B093CD026091D9047091DA0480E090E0CB
:101690000E94051E6B017C016091DB047091DC04EB
:1016A0008091DD049091DE040E94051E28E23BE655
:1016B0004EE65EE40E9434209B01AC01C701B601F6
:1016C0000E946B1F2091DF04DC01CB012111B05877
:1016D0008093C6029093C702A093C802B093C90238
:1016E00006D0FF90EF90DF90CF900C9473034F9251
:1016F0005F926F927F928F929F92AF92BF92CF92A2
:10170000DF92EF92FF92CF93DF93CDB7DEB7609772
:101710000FB6F894DEBF0FBECDBF2091BE02309150
:10172000BF024091C0025091C1026091C602709107
:10173000C7028091C8029091C9020E946A1F25E3E6
:101740003AEF4EE85CE30E94661E6B017C010E944A
:1017500036216D877E878F87988BC701B6010E94DF
:10176000312069837A838B839C8325E33AEF4EE8AB
:101770005CE36091CA027091CB028091CC0290919F
:10178000CD020E94661E6B017C0125E33AEF4EE814
:101790005CE36091BA027091BB028091BC029091AF
:1017A000BD020E94661E2B013C01C701B6010E94CA
:1017B00036214B015C01C701B6010E9431206D83C7
:1017C0007E838F839887C301B2010E943621698787
:1017D0007A878B879C87C301B2010E9431206B01FD
:1017E0007C0129853A854B855C856D817E818F8161
:1017F00098850E94661E2B013C01A7019601C50138
:10180000B4010E94661E29813A814B815C810E944D
:10181000661E9B01AC01C301B2010E946A1F9B01BD
:10182000AC010E94661E2B013C012D853E854F8533
:101830005889C701B6010E94661E9B01AC010E9437
:10184000661E9B01AC01C301B2010E946B1F0E9486
:1018500040212B013C0129853A854B855C85C501DA
:10186000B4010E94661E4B015C01A70196016D81C7
:101870007E818F8198850E94661E29813A814B81E5
:101880005C810E94661E9B01AC01C501B4010E94EF
:101890006B1F9B01AC01C301B2010E94DE1F26E752
:1018A0003BE742EC5AE40E94661E0E94A12028EE0B
:1018B00033E040E050E00E94291F49015A012630E0
:1018C00031054105510508F059C0E0900002F09043
:1018D0000102EFEFEE1AFE0AF0920102E09200021E
:1018E000F70183E0EE0FFF1F8A95E1F7E358FA4F07
:1018F00064817581868197816093BA027093BB027F
:101900008093BC029093BD024080518062807380BE
:101910004092BE025092BF026092C0027092C10219
:1019200020E030E0A9010E94011E811109C020E0E1
:1019300030E0A901C301B2010E94011E882321F0F9
:10194000F5E0EF16F10474F06FE770E089E00FD86E
:1019500083E690E090930702809306028FE790E081
:101960006CDDFFCF5BDEC3DE9093C5028093C402C3
:101970009093B9028093B8020E947303C4016096E9
:101980000FB6F894DEBF0FBECDBFDF91CF91FF90B1
:10199000EF90DF90CF90BF90AF909F908F907F900F
:1019A0006F905F904F9008950F931F93CF93DF93A5
:1019B0001F921F92CDB7DEB78091D20281110CC069
:1019C0009DD86093CE027093CF028093D002909303
:1019D000D10281E08093D20291D80091CE02109181
:1019E000CF022091D0023091D10260177107820797
:1019F000930740F46093CE027093CF028093D0029D
:101A00009093D1026CE272E08FED93E00E942A176E
:101A10001092390580913E0590913F050E940E1667
:101A200084E892E02DD56091CA027091CB0280913A
:101A3000CC029091CD0242E00E9449168CE792E0E0
:101A40001FD56091C6027091C7028091C802909123
:101A5000C90242E00E9449166FE872E08FED93E000
:101A60000E94BD1868E372E08FED93E00E942A1790
:101A7000E0910002F091010283E0EE0FFF1F8A95D2
:101A8000E1F7E358FA4F648175818681978142E0DE
:101A90000E94491683E792E0F3D4E0910002F091AE
:101AA000010293E0EE0FFF1F9A95E1F7E358FA4F1A
:101AB000608171818281938142E00E9449166FE8C2
:101AC00072E08FED93E00E94BD188AE692E0D8D4D0
:101AD0000EDE0E940E1688E592E0D2D48091C402F8
:101AE0009091C5020E940E1684E492E0C9D46FE87A
:101AF00072E08FED93E00E94BD188091C005909137
:101B0000C1050E940E1686E392E0BAD48091BE050C
:101B10009091BF050E94D21586E292E0B1D48091E7
:101B2000BC059091BD050E94D2158EE192E0A8D42B
:101B300080910402909105020E940E1682E192E0CB
:101B40009FD48091C2029091C3020E940E1685E03C
:101B500092E096D48091C0059091C1050E940E1626
:101B60008AEF91E08DD48091B7059091B8050E94DD
:101B7000D2158CEE91E084D42091CE053091CF0522
:101B80002115310511F422ED35E0CE010196821BBD
:101B9000930B0E94D2158DED91E072D480910602D4
:101BA000909107028336910519F468E472E00AC047
:101BB0008230910519F461E572E004C0019731F4B7
:101BC00067E572E08FED93E00E9418178AEC91E0D0
:101BD00057D480910202909103028336910519F443
:101BE00068E472E00AC08230910519F461E572E0A0
:101BF00004C0019731F467E572E08FED93E00E9435
:101C000018170F900F90DF91CF911F910F910895AA
:101C10001F920F920FB60F9211240BB60F922F93B3
:101C20003F934F935F936F937F938F939F93AF9364
:101C3000BF93CF93EF93FF9320910601C091A70329
:101C40009091DC038091D903322F30958323922326
:101C5000892B90916D00C227C923C8232093A70325
:101C6000CC23C1F1C0FF05C0E091A803F091A90306
:101C70001995C1FF05C0E091AA03F091AB03199536
:101C8000C2FF05C0E091AC03F091AD031995C3FF0D
:101C900005C0E091AE03F091AF031995C4FF05C0F4
:101CA000E091B003F091B1031995C5FF05C0E09133
:101CB000B203F091B3031995C6FF05C0E091B403D8
:101CC000F091B5031995C7FF05C0E091B603F091F7
:101CD000B7031995FF91EF91CF91BF91AF919F916C
:101CE0008F917F916F915F914F913F912F910F90C5
:101CF0000BBE0F900FBE0F901F9018951F920F9262
:101D00000FB60F9211240BB60F922F933F934F9360
:101D10005F936F937F938F939F93AF93BF93CF9373
:101D2000EF93FF9320910301C091B9039091DD03DC
:101D30008091DA03322F309583239223892B90915F
:101D4000B803C227C923C8232093B903CC2389F140
:101D5000C0FF05C0E091BA03F091BB031995C1FF24
:101D600005C0E091BC03F091BD031995C2FF05C009
:101D7000E091BE03F091BF031995C3FF05C0E09148
:101D8000C003F091C1031995C4FF05C0E091C203DF
:101D9000F091C3031995C5FF05C0E091C403F0910C
:101DA000C5031995C6FF05C0E091C603F091C703AE
:101DB0001995FF91EF91CF91BF91AF919F918F9125
:101DC0007F916F915F914F913F912F910F900BBE3B
:101DD0000F900FBE0F901F9018951F920F920FB685
:101DE0000F9211240BB60F922F933F934F935F9353
:101DF0006F937F938F939F93AF93BF93CF93EF9303
:101E0000FF9323B1C091C8039091DE038091DB035F
:101E1000322F309583239223892B90916B00C22718
:101E2000C923C8232093C803CC23C1F1C0FF05C038
:101E3000E091C903F091CA031995C1FF05C0E09173
:101E4000CB03F091CC031995C2FF05C0E091CD03FF
:101E5000F091CE031995C3FF05C0E091CF03F09137
:101E6000D0031995C4FF05C0E091D103F091D203CE
:101E70001995C5FF05C0E091D303F091D4031995DE
:101E8000C6FF05C0E091D503F091D6031995C7FFB1
:101E900005C0E091D703F091D8031995FF91EF9118
:101EA000CF91BF91AF919F918F917F916F915F91F2
:101EB0004F913F912F910F900BBE0F900FBE0F903F
:101EC0001F9018951F920F920FB60F9211240BB608
:101ED0000F922F933F934F935F936F937F938F93C3
:101EE0009F93AF93BF93EF93FF93E091A503F0917E
:101EF000A6031995FF91EF91BF91AF919F918F919B
:101F00007F916F915F914F913F912F910F900BBEF9
:101F10000F900FBE0F901F9018951F920F920FB643
:101F20000F9211240BB60F922F933F934F935F9311
:101F30006F937F938F939F93AF93BF93EF93FF9391
:101F4000E091A303F091A4031995FF91EF91BF9144
:101F5000AF919F918F917F916F915F914F913F9141
:101F60002F910F900BBE0F900FBE0F901F901895E2
:101F70001F920F920FB60F9211240BB60F922F9350
:101F80003F934F935F936F937F938F939F93AF9301
:101F9000BF93EF93FF93E091A103F091A2031995F2
:101FA000FF91EF91BF91AF919F918F917F916F9131
:101FB0005F914F913F912F910F900BBE0F900FBEED
:101FC0000F901F9018951F920F920FB60F92112429
:101FD0000BB60F922F933F934F935F936F937F9323
:101FE0008F939F93AF93BF93EF93FF93E0919F03E2
:101FF000F091A0031995FF91EF91BF91AF919F913F
:102000008F917F916F915F914F913F912F910F90A1
:102010000BBE0F900FBE0F901F9018951F920F923E
:102020000FB60F9211240BB60F922F933F934F933D
:102030005F936F937F938F939F93AF93BF93EF9330
:10204000FF93E0919D03F0919E031995FF91EF910D
:10205000BF91AF919F918F917F916F915F914F91C0
:102060003F912F910F900BBE0F900FBE0F901F90BE
:1020700018951F920F920FB60F9211240BB60F9264
:102080002F933F934F935F936F937F938F939F9380
:10209000AF93BF93EF93FF93E0919B03F0919C0369
:1020A0001995FF91EF91BF91AF919F918F917F9182
:1020B0006F915F914F913F912F910F900BBE0F90B9
:1020C0000FBE0F901F9018951F920F920FB60F9290
:1020D00011240BB60F922F933F934F935F936F93FF
:1020E0007F938F939F93AF93BF93EF93FF93E09171
:1020F0009903F0919A031995FF91EF91BF91AF91D8
:102100009F918F917F916F915F914F913F912F910F
:102110000F900BBE0F900FBE0F901F9018951F923F
:102120000F920FB60F9211240BB60F922F933F937D
:102130004F935F936F937F938F939F93AF93BF93CF
:10214000EF93FF93E0919703F09198031995FF9116
:10215000EF91BF91AF919F918F917F916F915F911F
:102160004F913F912F910F900BBE0F900FBE0F908C
:102170001F901895E091DF03F091E0030190F0814A
:10218000E02D682F8FED93E01994EFEDF3E0A08937
:10219000B18982E08C93A485B5851C92A685B7850C
:1021A00080E18C93108EA489B58986E08C93A289F6
:1021B000B3898C9180618C93A289B3898C9188605A
:1021C0008C93A289B3898C9180688C930288F3895F
:1021D000E02D80818F7D808308958F779EEF980F0B
:1021E000923008F4A4C095EB980F923008F49FC089
:1021F0009EEE980F943008F49AC0282F30E0F90131
:10220000863420F0E355FC4F849116C0ED54FC4F0A
:102210008491F901E359FC4F9491923059F4409123
:10222000DE03482B4093DE034091DB03482B4093B1
:10223000DB031AC09A3061F49091DD03982B9093E0
:10224000DD039091DA03982B9093DA039AE00CC0A7
:102250009B3051F44091DC03482B4093DC034091C8
:10226000D903482B4093D903F901E05EFC4FA491B8
:102270009230C1F4B0E0AA0FBB1FA753BC4F6D93BF
:102280007C93EAE0F3E0A591B4919C919093C8030C
:102290002BE630E03093A8052093A70590916800C5
:1022A00091603BC09A3001F5B0E0AA0FBB1FA65465
:1022B000BC4F6D937C93EAE1F3E0A591B4919C91BE
:1022C0009093B9032CE630E03093A8052093A7053E
:1022D000909168009260909368009091B803982B59
:1022E0009093B803880F1BC09B30C9F4B0E0AA0FCD
:1022F000BB1FA855BC4F6D937C93ECE1F3E0A59117
:10230000B4919C919093A7032DE630E03093A805FB
:102310002093A70590916800946090936800A09125
:10232000A705B091A805EC918E2B8C9308959FB7CB
:10233000F894833109F45BC0D8F4833009F47BC08E
:10234000823109F466C0823009F098C07093A0030E
:1023500060939F03EC9880916A008C7F80936A0061
:1023600080916A00816080936A00E49AEC9A86C04A
:102370008531C9F050F18B3409F46FC08C3409F009
:102380007DC07093A6036093A503EF9880916A00C7
:102390008F7380936A0080916A00806480936A00E2
:1023A000E79AEF9A6BC07093980360939703E8984D
:1023B000809169008C7F80936900809169008160C1
:1023C00080936900E09AE89A59C070939A036093E9
:1023D0009903E99880916900837F809369008091D7
:1023E0006900846080936900E19AE99A47C070931C
:1023F0009C0360939B03EA98809169008F7C809393
:10240000690080916900806180936900E29AEA9A8C
:1024100035C070939E0360939D03EB988091690093
:102420008F73809369008091690080648093690054
:10243000E39AEB9A23C07093A2036093A103ED98F3
:1024400080916A00837F80936A0080916A00846033
:1024500080936A00E59AED9A11C07093A40360938B
:10246000A303EE9880916A008F7C80936A0080912C
:102470006A00806180936A00E69AEE9A9FBF089591
:102480000F931F93CF93DF938C01C0E0D0E0F8014E
:10249000EC0FFD1F6491662371F0E091DF03F09172
:1024A000E0030190F081E02D8FED93E01995892BE9
:1024B00011F02196ECCFCE01DF91CF911F910F91BA
:1024C0000895EF92FF920F931F93CF93DF93409164
:1024D0006D0550916E0560916F05709170054F5FAD
:1024E0005F4F6F4F7F4F40936D0550936E05609324
:1024F0006F0570937005843209F4A6C2E0916705F8
:10250000853234F48A3071F08D3009F0ABC20AC0E4
:102510008A3241F08C3209F0A5C290915405982777
:1025200090935405082FEF3008F074C1F0E0EA5A98
:10253000FA4F108280915505882309F46DC12091CE
:1025400056053FEB320F822F022E000C990B3630CE
:1025500010F4C79707C02156263018F48755910903
:1025600001C0C097282F2295207F309157054FEB4F
:10257000430F832F032E000C990B463010F4C7979E
:1025800007C03156363018F48755910901C0C097FD
:10259000820F9091540589132AC1809179059091F9
:1025A0007A05A0917B05B0917C050196A11DB11D16
:1025B0008093790590937A05A0937B05B0937C0571
:1025C00080916805882399F080917105909172053A
:1025D000A0917305B09174050196A11DB11D809362
:1025E000710590937205A0937305B09374051091D3
:1025F0006505112309F46BC0113009F0D2C0809138
:10260000F8049091F904A091FA04B091FB0480932E
:10261000F4049093F504A093F604B093F7040E9499
:102620007E056093FC047093FD048093FE049093F8
:10263000FF041093F3041093F20480910605909127
:102640000705A0910805B0910905809302059093B4
:102650000305A0930405B09305050E947E056093D1
:102660000A0570930B0580930C0590930D0510934C
:1026700001051093000580916805882309F491C035
:1026800087E0E0EEF4E0A2EDB4E001900D928A95CF
:10269000E1F787E0E7EEF4E0A9EDB4E001900D92F8
:1026A0008A95E1F70E947E056093EE047093EF0433
:1026B0008093F0049093F1041093D1041093D0040C
:1026C0008EE095E00E943D068CE195E068C0809127
:1026D000060590910705A0910805B0910905809322
:1026E000020590930305A0930405B09305050E948D
:1026F0007E0560930A0570930B0580930C059093FB
:102700000D0511E0109301051093000580916805F7
:10271000882321F187E0E0EEF4E0A2EDB4E001903F
:102720000D928A95E1F787E0E7EEF4E0A9EDB4E0D9
:1027300001900D928A95E1F70E947E056093EE0468
:102740007093EF048093F0049093F1041093D104FC
:102750001093D0048AE295E00E943D0680914205E4
:1027600090914305A0914405B091450580933E05A5
:1027700090933F05A0934005B09341050E947E05CC
:1027800060933A0570933B0580933C0590933D051B
:1027900081E0809339058093380586E495E00E94B6
:1027A0003D06C0916B05D0916C0511E0209709F4AE
:1027B0003CC1E0916B05F0916C0566A177A18EA1FB
:1027C0009FA10E94B721892B09F02FC1BE01CE0124
:1027D00040960E94C0210E947E0568A379A38AA327
:1027E0009BA31DA31CA30AA4DBA5C02DDFCF809152
:1027F000750590917605A0917705B09178050196C1
:10280000A11DB11D8093750590937605A093770562
:10281000B093780590E00AC180916605811142C0AD
:102820006CE572E086E595E00E94B721892B41F0C6
:1028300062E672E086E595E00E94B721892B11F4EB
:1028400081E014C068E672E086E595E00E94B72159
:10285000892B41F06EE672E086E595E00E94B72193
:10286000892B19F41092650503C082E080936505F9
:102870008091690590916A0590936C0580936B0532
:10288000C0916B05D0916C05209721F2EEA0FFA0BE
:1028900066E575E0C7010E94B72197FFF9C08AA5D8
:1028A0009BA5EACFE0916505E23009F493C09091D1
:1028B0005605992309F48EC020E2E29FF00111240D
:1028C000E82B3197E932F10508F084C08827EA56F1
:1028D000FF4F8F4F0C94AB2186E595E00E94DB06FD
:1028E000609306057093070580930805909309058A
:1028F00071C081E0913409F043C043C060EE74E0E0
:1029000009C081E0933509F080E08093E60462C05D
:1029100067EE74E086E595E00E9453065BC081E0B7
:10292000973509F080E08093ED0454C086E595E08A
:102930000E94DB06609318057093190580931A05B1
:1029400090931B0547C086E595E00E94DB066093E7
:1029500026057093270580932805909329053AC092
:1029600086E595E00E94C61D6093F8047093F90413
:102970008093FA049093FB042DC081E091330CF412
:1029800080E08093680526C086E595E00E94C61D1C
:1029900060934205709343058093440590934505E9
:1029A00019C086E595E00E94DB06609350057093A0
:1029B000510580935205909353050CC086E595E030
:1029C0000E94DB06609334057093350580933605CD
:1029D00090933705C0916B05D0916C05209709F451
:1029E00019CFE0916B05F0916C0566A177A18EA1DE
:1029F0009FA10E94B721892B09F00CCF28A539A5EA
:102A00008091660590E0821793070CF403CF281796
:102A1000390739F440E150E066E575E0CE010E94E7
:102A2000C7210AA4DBA5C02DD9CF91E0809166050E
:102A30008F5F809366051092670581E00A3209F086
:102A400080E08093550532C01092670510926605AC
:102A50001092540582E080936505109255051092FE
:102A6000680514C0EE3040F491E09E0F9093670526
:102A7000F0E0EA5AFA4F808390915505911106C013
:102A80002091540582278093540510C090E00EC019
:102A900066E575E0C7010E94B721181619060CF00B
:102AA000B9CE10926C0510926B05B4CE892FDF91D0
:102AB000CF911F910F91FF90EF9008950F931F9367
:102AC00090E0FC01ED54FC4F6491FC01E359FC4F94
:102AD000E491F0E0EE0FFF1FEA5FFC4F85919491C7
:102AE00000E412E42FE030E0462F5CD3611571055D
:102AF0008105910549F0DC01CB010196A11DB11DB5
:102B0000BC01CD019F7003C060E070E0CB011F915C
:102B10000F9108954F925F926F927F92EF92FF9282
:102B20000F931F93CF93DF93CDB7DEB7A1970FB667
:102B3000F894DEBF0FBECDBF7C01FA01CB0119A214
:102B4000223008F42AE08E010F5D1F4F422E512CD7
:102B5000612C712CBF01A30192010E94291FF90170
:102B6000CA01015011096A3014F4605D01C0695C4A
:102B7000D8016C93232B242B252B61F7B801C701B7
:102B8000FCD2A1960FB6F894DEBF0FBECDBFDF9189
:102B9000CF911F910F91FF90EF907F906F905F907A
:102BA0004F9008950F931F93CF93DF9300D01F9200
:102BB000CDB7DEB7AC01990F660B770B77FF19C065
:102BC0008DE249835A836B837C83D4DA8C014981FB
:102BD0005A816B817C8170956095509541955F4FCE
:102BE0006F4F7F4F2AE08FED93E094DF080F191F9E
:102BF00005C02AE08FED93E08DDF8C016FE872E075
:102C00008FED93E0BAD2800F911F0F900F900F902D
:102C10000F90DF91CF911F910F9108950F931F9304
:102C2000CF93DF9300D01F92CDB7DEB7AC01990FE1
:102C3000660B770B77FF21C08DE249835A836B8344
:102C40007C8398DA8C0149815A816B817C817095F3
:102C50006095509541955F4F6F4F7F4F2AE08FED04
:102C600093E058DF800F911F0F900F900F900F90FF
:102C7000DF91CF911F910F9108952AE08FED93E09E
:102C80000F900F900F900F90DF91CF911F910F91A8
:102C900041CF4F925F926F927F928F929F92AF92AD
:102CA000BF92CF92DF92EF92FF926B017C01B42E24
:102CB0009B01AC010E948121882319F064E772E036
:102CC00026C026013701E89477F82FEF3FEF4FE752
:102CD0005FE7C301B2010E94812181110CC02FEF77
:102CE0003FEF4FE75FE7C301B2018BD718161CF423
:102CF00068E772E00CC02FEF3FEF4FE75FE4C701DA
:102D0000B6010E942B2118168CF46CE772E08FED4F
:102D100093E0FF90EF90DF90CF90BF90AF909F90A7
:102D20008F907F906F905F904F9027C22FEF3FEF73
:102D30004FE75FECC701B60164D787FDE6CF20E01F
:102D400030E0A901C701B6015CD787FF08C08DE25A
:102D500011DA4C01F7FAF094F7F8F09402C0812CE4
:102D6000912CA12C60E070E080E09FE3AB1441F077
:102D700020E030E040E251E40E943420A394F6CFFA
:102D80009B01AC01C701B6010E946B1F2B013C01E6
:102D90000E94A1206B017C0138D79B01AC01C301CB
:102DA000B2010E946A1F2B013C012AE0B701A60173
:102DB0008FED93E0AFDE7C01E80CF91CBB2021F025
:102DC0008EE2D8D9E80EF91EDB2CDD2019F120E0C7
:102DD00030E040E251E4C301B20178D72B013C015D
:102DE0000E94A1204B01A12CB12C2AE0B501A40125
:102DF0008FED93E08FDEE80EF91EC501B40105D713
:102E00009B01AC01C301B2010E946A1F2B013C016E
:102E1000DA94DBCFC701FF90EF90DF90CF90BF90A7
:102E2000AF909F908F907F906F905F904F9008959C
:102E30000F931F93CF93DF93EC019FD18C016FE829
:102E400072E0CE019AD1800F911FDF91CF911F9137
:102E50000F91089592C1FC01538D448D252F30E0D0
:102E6000842F90E0821B930B541710F0CF96089597
:102E700001970895FC01918D828D981761F0828DE4
:102E8000DF01A80FB11D5D968C91928D9F5F9F739E
:102E9000928F90E008958FEF9FEF0895FC01918D40
:102EA000828D981731F0828DE80FF11D858D90E0AD
:102EB00008958FEF9FEF0895FC01918D228D892F4A
:102EC00090E0805C9F4F821B91098F739927089532
:102ED0008FED93E0F1DF21E0892B09F420E0822FD0
:102EE0000895FC01848DDF01A80FB11DA35ABF4FC7
:102EF0002C91848D90E001968F739927848FA689F9
:102F0000B7892C93A089B1898C9180648C93938D1F
:102F1000848D981306C00288F389E02D80818F7D0F
:102F200080830895EF92FF920F931F93CF93DF93C7
:102F3000EC0181E0888F9B8D8C8D981305C0E8890A
:102F4000F989808185FD23C0F62E0B8D10E00F5F7F
:102F50001F4F0F731127E02E8C8DE8120BC00FB698
:102F600007FCFACFE889F989808185FFF5CFCE018A
:102F7000B8DFF2CF8B8DFE01E80FF11DE35AFF4F52
:102F8000F0820B8FEA89FB898081806207C0EE891D
:102F9000FF896083E889F98980818064808381E08A
:102FA00090E0DF91CF911F910F91FF90EF900895E6
:102FB000CF93DF93EC01888D8823C1F0EA89FB89E8
:102FC000808185FD05C0A889B9898C9186FD0EC0D8
:102FD0000FB607FCF5CF808185FFF2CFA889B989AC
:102FE0008C9185FFEDCFCE017CDFE8CFDF91CF91D3
:102FF000089580E090E0892B19F06ADF811125C0E7
:1030000080E090E0892B41F080E090E0892B21F076
:103010000E94000081111CC080E090E0892B41F0EB
:1030200080E090E0892B21F00E940000811113C004
:1030300080E090E0892BA1F080E090E0892B81F086
:103040000E94000081110AC008950E940000D8CF9C
:103050000E940000E1CF0E940000EACF0C94000023
:1030600008950E94B3211F920F920FB60F92112460
:103070000BB60F922F933F934F935F936F937F9372
:103080008F939F93AF93BF93EF93FF938FED93E055
:1030900028DFFF91EF91BF91AF919F918F917F9129
:1030A0006F915F914F913F912F910F900BBE0F90B9
:1030B0000FBE0F901F9018951F920F920FB60F9290
:1030C00011240BB60F922F938F939F93EF93FF933F
:1030D000E091EF03F091F0038081E091F503F0912E
:1030E000F60382FD12C090818091F8038F5F8F7389
:1030F0002091F903821751F0E091F803F0E0E152DA
:10310000FC4F958F8093F80301C08081FF91EF9170
:103110009F918F912F910F900BBE0F900FBE0F902C
:103120001F901895CF92DF92EF92FF920F931F930B
:10313000CF93DF936C017A018B01C0E0D0E0CE1514
:10314000DF0589F0D8016D918D01D601ED91FC91DB
:103150000190F081E02DC6011995892B11F47E01B3
:1031600002C02196ECCFC701DF91CF911F910F9143
:10317000FF90EF90DF90CF9008956115710579F081
:10318000FB0101900020E9F73197AF01461B570B77
:10319000DC01ED91FC910280F381E02D199480E037
:1031A00090E00895CF92DF92EF92FF920F931F93DA
:1031B000E82FF92F05C0015011092109310961F1EA
:1031C000908196239417B9F305C001501109210984
:1031D000310911F1908196239413F7CFC12CD12C92
:1031E000E12CF12C0AC08FEFC81AD80AE80AF80AB5
:1031F0000C151D052E053F0579F080818623841767
:1032000091F36C2D7D2D8E2D9F2D1F910F91FF9091
:10321000EF90DF90CF90089560E070E080E090E064
:103220001F910F91FF90EF90DF90CF9008958EE166
:1032300092E09093C5048093C404809173008B7FC7
:1032400080937300809173008F7D809373008091D1
:10325000AC058093AD058091AB058111FCCF8091C9
:1032600073008D7F809373000895EFEDF3E0138278
:10327000128288EE93E0A0E0B0E084839583A68379
:10328000B7832CE032E03183208325EC30E03587B2
:10329000248724EC30E03787268720EC30E0318B20
:1032A000208B21EC30E0338B228B22EC30E0358B0D
:1032B000248B26EC30E0378B268B118E128E138EEA
:1032C000148EECE7F4E016821782108611861286BF
:1032D00013861486158616861786108A118A128A16
:1032E000138A148A158A20910402309105023093C2
:1032F000A6052093A505EDE7F5E041E051E164EF77
:1033000071E440835183628373834EE45AEA63EC31
:1033100072EC44835583668377834FE850E164EF12
:1033200071E440875187628773874DE35AEA63EC03
:1033300072EC44875587668777874DEC5FE064EFD2
:1033400071E4408B518B628B738B4BE25AEA63ECD6
:1033500072EC448B558B668B778B40E451E164EFC4
:1033600071E4408F518F628F738F40E65AEA63ECAD
:1033700072EC448F558F668F778F42E751E164EF8F
:1033800071E440A351A362A373A343E55AEA63EC3B
:1033900072EC44A355A366A377A3E0EDF4E010829A
:1033A000118213821282148215821682178210866D
:1033B0001286118613861486158616861786118A3C
:1033C000108A128A138A148A158A168A108E178A0E
:1033D000118E128E138E148E158E12A213A214A2A9
:1033E00015A216A217A210AA11AA12AA13AA14AA09
:1033F00015AA10920E0510920F0510921405109246
:103400001505109216051092170510921C051092C2
:103410001D0510922205109223051092240510928A
:10342000250510922A0510922B0510923005109256
:103430003105109232051092330510923805109222
:10344000390510923E0510923F05109240051092EA
:103450004105109246051092470510924C051092B6
:103460004D0510924E0510924F0510925405109282
:10347000550522E0209365051092660510926705B8
:103480001092680510926A051092690510926C05F9
:1034900010926B0510926D0510926E0510926F05DB
:1034A00010927005109271051092720510927305BA
:1034B000109274051092750510927605109277059A
:1034C000109278051092790510927A0510927B057A
:1034D00010927C0510925605E4ECF4E013821282FF
:1034E00084839583A683B7838EE192E09183808362
:1034F0000895789484B5826084BD84B5816084BD6C
:1035000085B5826085BD85B5816085BD80916E0081
:10351000816080936E0010928100809181008260B2
:1035200080938100809181008160809381008091EF
:1035300080008160809380008091B10084608093DE
:10354000B1008091B00081608093B00080919100C3
:1035500082608093910080919100816080939100BE
:10356000809190008160809390008091A1008260A2
:103570008093A1008091A10081608093A10080913F
:10358000A00081608093A0008091210182608093DF
:10359000210180912101816080932101809120018E
:1035A00081608093200180917A00846080937A000A
:1035B00080917A00826080937A0080917A008160A5
:1035C00080937A0080917A00806880937A001092CC
:1035D000C1001092C0041092C1041092C204109253
:1035E000C30410927E0410927F0410928004109203
:1035F00081040E947E056B017C014B015C0128EB7C
:10360000820E2BE0921EA11CB11C0E947E056C153F
:103610007D058E059F0528F086169706A806B90633
:10362000A0F78FED93E09093BF048093BE040E94B7
:10363000C5100E947E0560937E0470937F04809382
:1036400080049093810460E872E08091BE049091C0
:10365000BF0400DC0E947E056B017C014B015C0114
:103660003AE0830E911CA11CB11C0E947E056C15D2
:103670007D058E059F0528F086169706A806B906D3
:10368000A0F781E08093920462E972E08FED93E00D
:10369000CFDB60E08BE30E947B0460E08AE30E9462
:1036A0007B0460E082E40E947B0460E083E40E948B
:1036B0007B046CE673E082E40E94ED1069E673E03F
:1036C00083E40E94ED1061E082E20E947B0462E0EC
:1036D00083E20E947B0461E084E20E947B0462E05A
:1036E00085E20E947B0460E089E30E947B0461E044
:1036F00085E00E947B0462E08AE20E947B0461E034
:103700008AE20E947B0461E08CE00E947B0461E01D
:1037100089E00E947B040E94C510109273001092F1
:10372000200181E88093210183E896E09093B2051F
:103730008093B1058BE39CE39093B0058093AF0534
:1037400062E080E30E947B0461E08EE20E944C0410
:1037500061E08EE20E947B041092AE051092AD05EE
:103760001092AC051092AB051092AA051092A90513
:1037700080E28ABB8093730084EFC82EDD24D3944B
:10378000E12CF12C93E4392EC1E0D0E008EC10E0FC
:103790000E947E05672B682B692B41F40E947E05F1
:1037A000623071058105910508F407C10E947E050C
:1037B0006093CA057093CB058093CC059093CD059B
:1037C0004090C6055090C7056090C8057090C90527
:1037D000641575058605970540F46093C6057093DA
:1037E000C7058093C8059093C9054090C6055090C1
:1037F000C7056090C8057090C9059B01AC012419EC
:1038000035094609570929013A013AEF431651048F
:103810006104710408F4D1C06093C6057093C705B4
:103820008093C8059093C905C0928A04D0928B04F6
:10383000E0928C04F0928D0410928E0410928F040A
:1038400010929004109291048091820490918304CC
:10385000A0918404B091850480938604909387049A
:10386000A0938804B09389040E947E05609382042B
:103870007093830480938404909385040E947E0552
:1038800060937E0470937F048093800490938104FE
:103890000E947E052B013C016BE972E08091BE0421
:1038A0009091BF04D7DA2AE041E050E060E070E098
:1038B0008091BE049091BF042DD962EA72E080919C
:1038C000BE049091BF04C6DA2AE0B301A201809140
:1038D000BE049091BF041ED964EA72E08091BE04D8
:1038E0009091BF04B7DA8091820490918304A091F3
:1038F0008404B0918504B301A201481B590B6A0BE3
:103900007B0B2AE08091BE049091BF0403D964EA46
:1039100072E08091BE049091BF049CDA40918204D1
:103920005091830460918404709185048091860491
:1039300090918704A0918804B0918904481B590B89
:103940006A0B7B0B2AE08091BE049091BF04E2D801
:1039500066EA72E08091BE049091BF047BDA0E9417
:103960007E05AB01BC012AE08091BE049091BF04AA
:10397000D1D868EA72E08091BE049091BF0458DA11
:103980000E947E054B015C012B013C0145E0440E89
:10399000511C611C711C0E947E05681579058A0501
:1039A0009B0508F0ECC00E947E0560938204709332
:1039B0008304809384049093850480917B00877FA7
:1039C00080937B0030927C0080917A0080648093A9
:1039D0007A0080917A0086FDFCCF809178008091FA
:1039E0007900F8948091B3059091B405A091B50544
:1039F000B091B6058093C2059093C305A093C4050A
:103A0000B093C505789464E170E085E00E94B70446
:103A100084EC94E00E94AC02181619063CF484EC85
:103A200094E00E94CE020E946112F2CF0E94CC0864
:103A30000E940E0B10921D056091220570912305C6
:103A40008091240590912505E2D020E030E048ECFB
:103A500052E40AD371D37093C1056093C0050E94EC
:103A6000200A0E94530A8091BE059091BF058A35B5
:103A70009105E4F02091BC053091BD052A35310552
:103A8000ACF020910602309107028091BB052336ED
:103A9000310549F481112CC082ED90E0909305022C
:103AA0008093040225C08823F9F022C09C0127548A
:103AB00031092331310518F58091BC059091BD0580
:103AC000875491094397F0F48091BB05811110C090
:103AD00080910602909107028336910529F4109394
:103AE00005020093040204C0D0930502C0930402AF
:103AF00080910402909105020E941D0A36C086340E
:103B000091053CF08091BC059091BD0586349105EE
:103B100064F586E990E00E941D0A9091BA058091B3
:103B2000BB052091B905992359F0211109C08111D4
:103B30001AC022E030E0309307022093060213C03F
:103B4000222349F0911107C081110DC0D0930702C3
:103B5000C093060208C02091B7053091B80512162F
:103B600013062CF3F1CF0E94FB080E94D40C64E6EC
:103B700070E080E090E00E94EF093BDA09CE461643
:103B800057066806790608F006CF0DCF1F93FC0193
:103B900099278827BC01E89411911032E9F3193074
:103BA00010F01E30C8F31B3249F01D3241F4689406
:103BB00005C012D0610F711D811D911D119110530F
:103BC0001A30B8F33EF490958095709561957F4FCB
:103BD0008F4F9F4F1F910895592F482F372F262F12
:103BE000660F771F881F991F660F771F881F991F01
:103BF000620F731F841F951F660F771F881F991F01
:103C0000089540D008F481E00895E89409C097FB36
:103C10003EF490958095709561957F4F8F4F9F4FA3
:103C20009923A9F0F92F96E9BB279395F6958795E7
:103C300077956795B795F111F8CFFAF4BB0F11F4AA
:103C400060FF1BC06F5F7F4F8F4F9F4F16C0882351
:103C500011F096E911C0772321F09EE8872F762F87
:103C600005C0662371F096E8862F70E060E02AF0C8
:103C70009A95660F771F881FDAF7880F96958795B4
:103C800097F90895990F0008550FAA0BE0E8FEEF89
:103C900016161706E807F907C0F012161306E40710
:103CA000F50798F0621B730B840B950B39F40A2609
:103CB00061F0232B242B252B21F408950A2609F4E7
:103CC000A140A6958FEF811D811D08950BD078C06E
:103CD00069D028F06ED018F0952309F05AC05FC063
:103CE0001124A2C07ED0A0F3959FD1F3950F50E090
:103CF000551F629FF001729FBB27F00DB11D639F9E
:103D0000AA27F00DB11DAA1F649F6627B00DA11D43
:103D1000661F829F2227B00DA11D621F739FB00DE9
:103D2000A11D621F839FA00D611D221F749F332759
:103D3000A00D611D231F849F600D211D822F762FF2
:103D40006A2F11249F5750408AF0E1F088234AF0EF
:103D5000EE0FFF1FBB1F661F771F881F915050403B
:103D6000A9F79E3F510570F014C05EC05F3FECF3B1
:103D7000983EDCF3869577956795B795F795E79527
:103D80009F5FC1F7FE2B880F911D9695879597F938
:103D9000089597F99F6780E870E060E008959FEFCD
:103DA00080EC089500240A941616170618060906D2
:103DB000089500240A9412161306140605060895A1
:103DC000092E0394000C11F4882352F0BB0F40F429
:103DD000BF2B11F460FF04C06F5F7F4F8F4F9F4F69
:103DE000089557FD9058440F551F59F05F3F71F0EB
:103DF0004795880F97FB991F61F09F3F79F0879552
:103E00000895121613061406551FF2CF4695F1DFDA
:103E100008C0161617061806991FF1CF869571056A
:103E2000610508940895E894BB2766277727CB019E
:103E300097F90895DB018F939F932DD0BF91AF9198
:103E4000A29F800D911DA39F900DB29F900D1124F4
:103E50000895A1E21A2EAA1BBB1BFD010DC0AA1FCB
:103E6000BB1FEE1FFF1FA217B307E407F50720F0E3
:103E7000A21BB30BE40BF50B661F771F881F991F5E
:103E80001A9469F760957095809590959B01AC01A7
:103E9000BD01CF0108950FD0A59F900DB49F900D47
:103EA000A49F800D911D11240895B7FFF4CFF3DF77
:103EB000821B930B0895A29FB001B39FC001A39FE3
:103EC000700D811D1124911DB29F700D811D112453
:103ED000911D08955058BB27AA270ED071CF62DFDD
:103EE00030F067DF20F031F49F3F11F41EF457CF1C
:103EF0000EF4E095E7FB4DCFE92F73DF80F3BA179F
:103F0000620773078407950718F071F49EF58BCF4D
:103F10000EF4E0950B2EBA2FA02D0B01B9019001E4
:103F20000C01CA01A0011124FF27591B99F0593F28
:103F300050F4503E68F11A16F040A22F232F342F70
:103F40004427585FF3CF469537952795A795F040BE
:103F50005395C9F77EF41F16BA0B620B730B840BD3
:103F6000BAF09150A1F0FF0FBB1F661F771F881F8B
:103F7000C2F70EC0BA0F621F731F841F48F48795E3
:103F800077956795B795F7959E3F08F0B3CF9395D2
:103F9000880F08F09927EE0F97958795089502DF0F
:103FA00058F080E891E009F49EEF03DF28F040E844
:103FB00051E059F45EEF09C0F2CE35CFE92FE07839
:103FC00010DF68F3092E052AC1F3261737074807C3
:103FD000590738F00E2E07F8E02569F0E025E06477
:103FE0000AC0EF6307F8009407FADB01B9019D01ED
:103FF000DC01CA01AD01EF9346D0E2DE0AD05F9149
:10400000552331F02BED3FE049E450FD49EC63CFFF
:104010000895DF93DD27B92FBF7740E85FE31616D9
:10402000170648075B0710F4D92F19D19F938F9378
:104030007F936F9363D1EEE7F1E0AFD0C1DE2F91B4
:104040003F914F915F914EDEDD2349F09058A2EAF7
:104050002AED3FE049EC5FE3D0785D274DDFDF914B
:10406000AFCEC1D0E395E6C00CD0AACEA2DE40F020
:1040700099DE30F021F45F3F19F08BCE5111D4CE90
:104080008ECEAFDE98F39923C9F35523B1F3951B78
:10409000550BBB27AA2762177307840738F09F5F69
:1040A0005F4F220F331F441FAA1FA9F333D00E2ED8
:1040B0003AF0E0E830D091505040E695001CCAF745
:1040C00029D0FE2F27D0660F771F881FBB1F26170A
:1040D00037074807AB07B0E809F0BB0B802DBF01DD
:1040E000FF2793585F4F2AF09E3F510568F051CE4D
:1040F0009BCE5F3FECF3983EDCF386957795679512
:10410000B795F7959F5FC9F7880F911D969587958D
:1041100097F90895E1E0660F771F881FBB1F6217AC
:1041200073078407BA0720F0621B730B840BBA0B6A
:10413000EE1F88F7E095089504D06894B11174CE0D
:10414000089557DE88F09F5790F0B92F9927B751FF
:10415000A0F0D1F0660F771F881F991F1AF0BA954B
:10416000C9F712C0B13081F05EDEB1E008955BCED8
:10417000672F782F8827B85F39F0B93FCCF3869541
:1041800077956795B395D9F73EF49095809570959E
:1041900061957F4F8F4F9F4F0895DF93CF931F936C
:1041A0000F93FF92EF92DF927B018C01689405C020
:1041B000DA2EEF0197DDFE01E894A5912591359166
:1041C00045915591AEF3EF0197DEFE019701A801ED
:1041D000DA9479F7DF90EF90FF900F911F91CF91D4
:1041E000DF910895DCCD05DEE8F3E894E0E0BB273D
:1041F0009F57F0F02AED3FE049EC06C0EE0FBB0FF1
:10420000661F771F881F28F0B23A6207730784077A
:1042100028F0B25A620B730B840BE3959A9572F7F0
:10422000803830F49A95BB0F661F771F881FD2F72E
:1042300090486DC0EF93E0FF06C0A2EA2AED3FE090
:1042400049EC5FEB59DEBCDD0F90039401FC905804
:10425000EBEAF1E06FC016DD08F48FEF08959B01E3
:10426000AC0160E070E080E89FE3FECE9F93BBDF8F
:104270000F9007FCEE5FDECF11F40EF490CD45C039
:10428000B8DDD0F39923D9F3CEF39F57550B87FFB1
:104290004AD00024A0E640EA9001805856959795B0
:1042A00028F4805C660F771F881F20F026173707D9
:1042B000480730F4621B730B840B202931294A2BE9
:1042C000A69517940794202531254A2758F7660F9D
:1042D000771F881F20F026173707480730F4620B36
:1042E000730B840B200D311D411DA09581F7B90181
:1042F000842F9158880F9695879508959B01AC015E
:10430000E5CCC0DC880B990B08959F3F31F09150AC
:1043100020F4879577956795B795880F911D9695A9
:10432000879597F9089591505040660F771F881F21
:10433000D2F708959F938F937F936F93FF93EF939B
:104340009B01AC01C3DCEF91FF9127DF2F913F91DF
:104350004F915F91BBCCEE0FFF1F881F8BBF079063
:10436000F691E02D199481E090E0F8941FC0FB01D4
:10437000DC018D91019080190110D9F3990B0895FA
:10438000FB01DC0101900D920020E1F70895FB0193
:10439000DC014150504048F001900D920020C9F7D7
:1043A00001C01D9241505040E0F7089511E0CEEF5A
:1043B000D1E000E005C0802FFE01CDDF2196011D78
:0E43C000CF3FD10780E00807B1F7F894FFCF98
:1043CE00FFFF6300C8006300000000009217921800
:1043DE002B17D8175C173A174E1700000000E9028A
:1043EE0092187003E402AC02CE02BB022047505377
:1043FE0020466978203D20002057617970696E74DF
:10440E00204C4154203D20005374726169676874DA
:10441E00005269676874004C656674004750524DCF
:10442E004300474E524D4300475047474100474EC9
:10443E00474741006E616E00696E66006F766600DA
:10444E00564D4450565F317C315F564D4450560D9B
:10445E000A005374617274696E6700564D4450457C
:10446E005F003A323A007C005F564D4450450000E2
:00000001FF
