:100000000C940F010C94540B0C942F0B0C94D80AE5
:100010000C94810A0C94200A0C9437010C9437013B
:100020000C9437010C9437010C94FF020C94A90333
:100030000C94B8020C9437010C9437010C943701DE
:100040000C94B00D0C9437010C94C70C0C94A10CBB
:100050000C9437010C9437010C9437010C94370140
:100060000C9437010C9437017C118E119111981169
:100070009F11CD11D411E111EE11FA11FA11FA11FB
:10008000FA11FA11FA11FA11FA11FA11FA11FA1118
:10009000FA11FA11FA11FA11FA11FA11FA11FA1108
:1000A000FA11FA11FA11FA117C1189118E119111BC
:1000B00098119F11A611B311C011084AD73B3BCE2E
:1000C000016E84BCBFFDC12F3D6C74319ABD568357
:1000D0003DDA3D00C77F11BED9E4BB4C3E916BAA0F
:1000E000AABE000000803F05A84CCDB2D44EB9385E
:1000F00036A9020C50B9918688083CA6AAAA2ABE45
:10010000000000803F0046726565204D656D6F728E
:10011000793A20002020446972656374696F6E200B
:100120003D200020204572726F72203D200020206B
:1001300043757272656E74203D20002020546172F8
:10014000676574203D200020537064203D2000200E
:10015000536F6E6172205269676874203D200053AE
:100160006F6E6172204C656674203D200020436FE5
:100170006D706173732048656164696E67203D200E
:1001800000204F726967696E616C20446973742046
:100190003D20002044697374203D2000204C6F6E88
:1001A00067203D2000204C4F4E203D2000204C4138
:1001B00054203D200000000000240027002A0000F9
:1001C000000000250028002B0000000008000201AC
:1001D0000000030407000000000000000078415800
:1001E000200079415820000000000023002600294B
:1001F00000040404040404040402020202020203D0
:1002000003030303030102040810204080010204D9
:10021000081020010204081020006717A9141124F7
:100220001FBECFEFD8E0DEBFCDBF11E0A0E0B1E050
:10023000EAE6FAE302C005900D92AA3BB107D9F7AE
:1002400024E0AAEBB1E001C01D92AD38B207E1F79E
:1002500011E0CEE0D1E004C02197FE010E94E21C33
:10026000CD30D107C9F70E94C7140C94281D0C94F7
:10027000000080919E02E0919D028E1751F0EF5F89
:10028000E03508F0E0E0F0E0E65BFD4F808190E0D3
:1002900008958FEF9FEF089580919E0290919D02A7
:1002A000891769F09F5F903508F090E0E92FF0E042
:1002B000E65BFD4F808190939D0290E008958FEF63
:1002C0009FEF089580919C028111FCCF0895809149
:1002D0009B028F5F843408F080E090919A02981717
:1002E000E1F32FB7F89490919C02992341F0E82F05
:1002F000F0E0E050FE4F608380939B021DC081E0E0
:1003000080939C02609345021092440282E086BB77
:1003100080916F00826080936F00809180008F7366
:100320008068809380008091840090918500409641
:1003300090938900809388002FBF81E090E008951A
:10034000089580E090E00895CF92DF92EF92FF92BF
:100350006FEF70E086E00E94450D0E94A40D6B01D6
:100360007C018091FC019091FD01A091FE01B09172
:10037000FF01A7019601281B390B4A0B5B0BDA0121
:10038000C9018F349340A105B10580F06FE770E09B
:1003900086E00E94450D81E08093FB01C092FC0144
:1003A000D092FD01E092FE01F092FF016FE770E054
:1003B00086E0FF90EF90DF90CF900C94450D4F9228
:1003C0005F926F927F928F929F92AF92BF92CF92E5
:1003D000DF92EF92FF92CF93DF93CDB7DEB72C97EA
:1003E0000FB6F894DEBF0FBECDBF2091D50130917E
:1003F000D6014091D7015091D8016091CD01709103
:10040000CE018091CF019091D0010E944F1A25E337
:100410003AEF4EE85CE30E9445192B013C0125E3CD
:100420003AEF4EE85CE36091D9017091DA01809176
:10043000DB019091DC010E9445194B015C0125E331
:100440003AEF4EE85CE36091C9017091CA01809176
:10045000CB019091CC010E9445196B017C01C30135
:10046000B2010E944E1C6D837E838F839887C701E3
:10047000B6010E942E1B69837A838B839C83C501FE
:10048000B4010E944E1C69877A878B879C87C301C1
:10049000B2010E942E1B2B013C0129813A814B8124
:1004A0005C8169857A858B859C850E944519A301AD
:1004B00092010E9445192B013C01C501B4010E9423
:1004C0002E1B4B015C01C701B6010E944E1C9B0113
:1004D000AC01C501B4010E944519A30192010E941B
:1004E0004F1A6B017C0129813A814B815C816D81BE
:1004F0007E818F8198850E944519A70196010E94EF
:10050000CF1A6B017C0120E030E0A9010E94DF18C6
:1005100087FF0AC02BED3FE049EC50E4C701B6016C
:100520000E94501A6B017C0121EE3EE245E652E446
:10053000C701B6010E9445190E94A51B7093D20104
:100540006093D101CB012C960FB6F894DEBF0FBE9D
:10055000CDBFDF91CF91FF90EF90DF90CF90BF9014
:10056000AF909F908F907F906F905F904F90089585
:100570001F920F920FB60F9211242F938F939F9378
:10058000EF93FF9380916F008B7F80936F0080913A
:1005900081008F7B8093810080919F02209149028E
:1005A000205890914802893020F49695922B8F5FC5
:1005B000FACF9093480280919E028F5F803508F0B9
:1005C00080E020919D02821739F0E82FF0E0E65B91
:1005D000FD4F908380939E0210929F028091810034
:1005E0008F7B8093810010924902FF91EF919F9140
:1005F0008F912F910F900FBE0F901F9018951F9203
:100600000F920FB60F9211242F933F934F935F9346
:100610006F937F938F939F93AF93BF93EF93FF93CA
:10062000809186009091870040914902209181003D
:10063000442331F02F7B209381001092490206C0A1
:1006400020642093810020E82093490230919F028A
:10065000311125C041116CC02091A0023091A1023E
:10066000280F391F30938B0020938A0024E026BB8B
:1006700020916F00246020936F002091A20230919E
:10068000A302820F931F36952795820F931F909395
:1006900047028093460281E080939F0249C04091C7
:1006A0004602509147026091A2027091A302DB01C1
:1006B000A095B095E091490220914802841B950BCA
:1006C000A817B90768F126952E2B460F571F3F5FD5
:1006D000861B970B3930A0F32093480280916F005E
:1006E0008B7F80936F0080919E028F5F803508F032
:1006F00080E090919D02891749F0E82FF0E09091F9
:100700004802E65BFD4F908380939E0280918100BA
:100710008F7B809381001092490210929F0208C043
:1007200020934802509347024093460230939F0221
:10073000FF91EF91BF91AF919F918F917F916F91B9
:100740005F914F913F912F910F900FBE0F901F908F
:1007500018951F920F920FB60F9211242F933F936B
:100760004F935F936F937F938F939F93EF93FF9339
:1007700080919C026091450220918800309189000F
:100780004091A2025091A302909144028A30F8F461
:10079000240F351F893019F0762F717001C071E078
:1007A00066958F5F791791F390918000772311F010
:1007B000906C02C09F739068909380003093890082
:1007C0002093880070934402609345024AC0909140
:1007D0009B02E0919A029E1319C08A3051F48BE07B
:1007E00080939C02240F351F30938900209388004A
:1007F0003AC010929C02809180008F738093800099
:1008000080916F008D7F80936F002DC0EF5FE43487
:1008100008F0E0E0E0939A02F0E0E050FE4F9081B3
:100820009093450210924402909180009F739068CB
:10083000909380008A3059F48091A2029091A30293
:10084000280F391F309389002093880009C08091B8
:100850008400909185004096909389008093880051
:1008600081E080939C02FF91EF919F918F917F9106
:100870006F915F914F913F912F910F900FBE0F900D
:100880001F901895CF92DF92EF92FF92CF93DF9354
:10089000C0910601D0910701C336D10509F074C09B
:1008A0001092FB018091020190910301813091052A
:1008B00089F56FEF70E086E00E94450D0E94A40D5F
:1008C0006B017C018091EF019091F001A091F10109
:1008D000B091F201A7019601281B390B4A0B5B0B63
:1008E000DA01C9018F349340A105B10508F444C071
:1008F0006FE770E086E00E94450DC092EF01D09254
:10090000F001E092F101F092F201D0930701C0935F
:10091000060132C0029781F560E070E086E00E9437
:10092000450D0E94A40D6B017C018091EB0190911B
:10093000EC01A091ED01B091EE01A7019601281BF9
:10094000390B4A0B5B0BDA01C9018F349340A105C7
:10095000B105B8F06FE770E086E00E94450DC092E7
:10096000EB01D092EC01E092ED01F092EE01D09318
:100970000701C093060105C06FE770E086E00E94A2
:10098000450D83E690E034C0C130D105A1F483E683
:1009900090E090930701809306010E944204D09357
:1009A0000301C09302016FEF70E086E00E94450DE5
:1009B0001092FB0121C0C230D105F1F480910201F7
:1009C00090910301019791F483E690E090930701E1
:1009D000809306010E944204D0930701C093060150
:1009E0008091FB01811102C00E94A40182E090E08D
:1009F0009093030180930201DF91CF91FF90EF90DC
:100A0000DF90CF9008958F929F92AF92BF92CF9236
:100A1000DF92EF92FF926B017C010E94A40D4B01CB
:100A20005C0188EA93E00E94900C892B39F088EAF7
:100A300093E00E944C010E94730FF3CF0E94420486
:100A40000E94A40DDC01CB0188199909AA09BB09F0
:100A50008C159D05AE05BF0520F3FF90EF90DF904C
:100A6000CF90BF90AF909F908F900895CF92DF92DC
:100A7000EF92FF9260E084E00E94F90C0E94A40DC6
:100A80006B017C018091F7019091F801A091F9012F
:100A9000B091FA01A7019601281B390B4A0B5B0B99
:100AA000DA01C901883E9340A105B10590F061E0EB
:100AB00084E00E94F90C64E670E080E090E00E941F
:100AC0000305C092F701D092F801E092F901F0928B
:100AD000FA01FF90EF90DF90CF900895CF92DF92D0
:100AE000EF92FF9260E084E00E94F90C0E94A40D56
:100AF0006B017C018091F3019091F401A091F501CB
:100B0000B091F601A7019601281B390B4A0B5B0B2C
:100B1000DA01C90180339547A105B10590F061E084
:100B200084E00E94F90C64E670E080E090E00E94AE
:100B30000305C092F301D092F401E092F501F09226
:100B4000F601FF90EF90DF90CF9008958091EA0139
:100B5000882361F082E090E0909307018093060182
:100B60008091FB01811113C00C94A4018091E901D3
:100B7000882369F081E090E090930701809306015B
:100B800060E070E086E00E94450D1092FB01089540
:100B90008091D1019091D2012091AE023091AF02AB
:100BA000821B930B8C342FEF920714F488599E4FBD
:100BB0009093A5028093A4028091A4029091A50233
:100BC000853B910534F0885691409093A50280931F
:100BD000A4028091A4029091A5029C012B5F3F4F3B
:100BE0002B30310518F483E690E00DC097FF09C063
:100BF00081E090E090930701809306011092FB0141
:100C0000089582E090E09093070180930601089593
:100C1000CF92DF92EF92FF920F931F93CF93DF93C8
:100C200060E08CE00E94F90C83E090E00197F1F71E
:100C300061E08CE00E94F90C83E290E00197F1F70B
:100C400060E08CE00E94F90C8BE00E946E126C3C1C
:100C500026E072078105910524F46CEC76E080E0D3
:100C600090E0CB016AE370E00E94CE1CEB017B01B7
:100C7000072E000C880B990B0E94E6182DEC3CEC1B
:100C800041E353E40E94DF1887FF04C081E08093B2
:100C9000EA0102C01092EA016497C53482E0D807E5
:100CA00028F4A99728F40E94360502C0E12CF12C03
:100CB000E092C501F092C60160E087E00E94F90C65
:100CC00083E090E00197F1F761E087E00E94F90C82
:100CD00083E290E00197F1F760E087E00E94F90C71
:100CE00086E00E946E126B017C016C3C76408105AF
:100CF000910534F44CECC42E46E0D42EE12CF12CBA
:100D00002DEC3CEC41E353E460E070E0CB010E9449
:100D1000DF1887FF04C081E08093E90102C01092D0
:100D2000E901C6016AE370E00E94CE1CEB01072EC8
:100D3000000C880B990B0E94E6186B017C0120E0E7
:100D400030E046E154E40E94DF181816BCF020E0C1
:100D500030E040EA51E4C701B6010E94411C87FD22
:100D60000DC020E030E040E752E4C701B6010E9428
:100D7000DF18181614F00E9436058E011093C40176
:100D80000093C3016091C5017091C601072E000C4C
:100D9000880B990B0E94E61820E030E040E250E416
:100DA0000E94331B0E94A51BEB017093AD02609360
:100DB000AC02B801110F880B990B0E94E61820E0D5
:100DC00030E040E250E40E94331B0E94A51B9B01CF
:100DD0007093A9026093A802CC3ED10534F080EF55
:100DE00090E09093AD028093AC022C3E310534F03C
:100DF00080EF90E09093A9028093A8022091AC022A
:100E00003091AD028091AA029091AB02820F931FA4
:100E100097FD0196959587959093AB028093AA02D2
:100E20002091A8023091A9028091A6029091A70278
:100E3000820F931F97FD0196959587959093A70232
:100E40008093A602DF91CF911F910F91FF90EF90B9
:100E5000DF90CF900895CF92DF92EF92FF921092A1
:100E6000B5036091B6037091B70380E090E00E94F3
:100E7000E4186B017C016091B8037091B903809113
:100E8000BA039091BB030E94E41828E23BE64EE6C9
:100E90005EE40E94331B9B01AC01C701B6010E94B6
:100EA000501A2091BC03DC01CB012111B058809372
:100EB000D9019093DA01A093DB01B093DC0160913A
:100EC000BD037091BE0380E090E00E94E4186B01C6
:100ED0007C016091BF037091C0038091C103909128
:100EE000C2030E94E41828E23BE64EE65EE40E945C
:100EF000331B9B01AC01C701B6010E94501A20911F
:100F0000C303DC01CB012111B0588093D50190932C
:100F1000D601A093D701B093D801109201040E948A
:100F20009707FF90EF90DF90CF900C94DF014F92E6
:100F30005F926F927F928F929F92AF92BF92CF9269
:100F4000DF92EF92FF92CF93DF93CDB7DEB760973A
:100F50000FB6F894DEBF0FBECDBF2091CD0130910A
:100F6000CE014091CF015091D0016091D501709197
:100F7000D6018091D7019091D8010E944F1A25E3A4
:100F80003AEF4EE85CE30E9445196B017C010E9438
:100F90004E1C6D877E878F87988BC701B6010E9494
:100FA0002E1B69837A838B839C8325E33AEF4EE87B
:100FB0005CE36091D9017091DA018091DB0190913D
:100FC000DC010E9445196B017C0125E33AEF4EE8F4
:100FD0005CE36091C9017091CA018091CB0190914D
:100FE000CC010E9445192B013C01C701B6010E94AA
:100FF0004E1C4B015C01C701B6010E942E1B6D8384
:101000007E838F839887C301B2010E944E1C69873B
:101010007A878B879C87C301B2010E942E1B6B01CC
:101020007C0129853A854B855C856D817E818F8128
:1010300098850E9445192B013C01A7019601C50125
:10104000B4010E94451929813A814B815C810E943B
:1010500045199B01AC01C301B2010E944F1A9B01CB
:10106000AC010E9445192B013C012D853E854F8521
:101070005889C701B6010E9445199B01AC010E9425
:1010800045199B01AC01C301B2010E94501A0E9494
:101090005C1C2B013C0129853A854B855C85C5018B
:1010A000B4010E9445194B015C01A70196016D81B5
:1010B0007E818F8198850E94451929813A814B81D3
:1010C0005C810E9445199B01AC01C501B4010E94DD
:1010D000501A9B01AC01C301B2010E94CF1A26E74E
:1010E0003BE742EC5AE40E9445190E94AC1B28EEF3
:1010F00033E040E050E00E94131A49015A012630C3
:1011000031054105510508F05EC0E0900001F09006
:101110000101EFEFEE1AFE0AF0920101E0920001E8
:10112000F70183E0EE0FFF1F8A95E1F7EF59FB4FC0
:1011300064817581868197816093C9017093CA012A
:101140008093CB019093CC0140805180628073806A
:101150004092CD015092CE016092CF017092D001A9
:1011600020E030E0A9010E94DF18811109C020E0D1
:1011700030E0A901C301B2010E94DF18882321F0E9
:10118000F5E0EF16F1048CF06FE770E086E00E9466
:10119000450D83E690E090930701809306016FE789
:1011A00070E087E00E94450DFFCF0E942B070E9450
:1011B00097079093D4018093D3019093C8018093B3
:1011C000C7010E94DF01C40160960FB6F894DEBF2C
:1011D0000FBECDBFDF91CF91FF90EF90DF90CF900A
:1011E000BF90AF909F908F907F906F905F904F9047
:1011F00008950F931F93CF93DF9300D0CDB7DEB741
:101200008091E10181110DC00E94A40D6093DD0168
:101210007093DE018093DF019093E00181E0809381
:10122000E1010E94A40D0091DD011091DE012091E9
:10123000DF013091E001601771078207930740F4E6
:101240006093DD017093DE018093DF019093E001F4
:101250006CE271E083EC92E00E949B1210921D04FC
:1012600080912204909123040E944C138DEA91E016
:101270000E94520F6091D9017091DA018091DB01D7
:101280009091DC0142E00E948A1385EA91E00E947D
:10129000520F6091D5017091D6018091D701909144
:1012A000D80142E00E948A136BE671E083EC92E081
:1012B0000E949B1268E371E083EC92E00E949B1213
:1012C000E0910001F091010183E0EE0FFF1F8A958C
:1012D000E1F7EF59FB4F648175818681978142E088
:1012E0000E948A138CE991E00E94520FE091000164
:1012F000F091010193E0EE0FFF1F9A95E1F7EF598E
:10130000FB4F608171818281938142E00E948A1348
:101310006BE671E083EC92E00E949B1283E991E01E
:101320000E94520F0E9497070E944C1381E891E09F
:101330000E94520F8091D3019091D4010E944C13CE
:101340008DE691E00E94520F6BE671E083EC92E033
:101350000E949B128091AE029091AF020E944C13AA
:101360008FE591E00E94520F8091AA029091AB020A
:101370000E944C138FE491E00E94520F8091A602CC
:101380009091A7020E944C1387E491E00E94520FB3
:1013900080910401909105010E944C138BE391E030
:1013A0000E94520F8091D1019091D2010E944C1362
:1013B0008EE291E00E94520F8091AE029091AF02B6
:1013C0000E944C1383E291E00E94520F8091A4028C
:1013D0009091A5020E940C1384E191E00E94520FAB
:1013E00080910601909107018336910519F488E4F4
:1013F00091E00AC08230910519F481E591E004C0C2
:10140000019721F487E591E00E94B01286E091E017
:101410000E94520F2091890430918A0421153105D0
:1014200011F42DE834E0CE010196821B930B0E944B
:101430000C130F900F90DF91CF911F910F91089592
:101440001F920F920FB60F9211242F933F934F9339
:101450005F936F937F938F939F93AF93BF93CF933C
:10146000EF93FF9329B1C091C2019091C101809186
:10147000C001322F309583239223892B90916D00E8
:10148000C227C923C8232093C201CC2341F1C0FF46
:1014900003C0E0E0F0E00995C1FF03C0E0E0F0E048
:1014A0000995C2FF03C0E0E0F0E00995C3FF03C067
:1014B000E0E0F0E00995C4FF03C0E0E0F0E009954A
:1014C000C5FF03C0E0E0F0E00995C6FF03C0E0E01F
:1014D000F0E00995C7FF03C0E0E0F0E00995FF9157
:1014E000EF91CF91BF91AF919F918F917F916F912C
:1014F0005F914F913F912F910F900FBE0F901F90D2
:1015000018951F920F920FB60F9211242F933F93AD
:101510004F935F936F937F938F939F93AF93BF93FB
:10152000CF93EF93FF9326B1C091BF019091BE017D
:101530008091BD01322F309583239223892B909186
:101540006C00C227C923C8232093BF01CC23F1F02C
:10155000C0FF03C0E0E0F0E00995C1FF03C0E0E098
:10156000F0E00995C2FF03C0E0E0F0E00995C3FF99
:1015700003C0E0E0F0E00995C4FF03C0E0E0F0E064
:101580000995C5FF03C0E0E0F0E00995FF91EF91F8
:10159000CF91BF91AF919F918F917F916F915F910B
:1015A0004F913F912F910F900FBE0F901F90189564
:1015B0001F920F920FB60F9211242F933F934F93C8
:1015C0005F936F937F938F939F93AF93BF93CF93CB
:1015D000EF93FF9323B1C091BC019091BB01809127
:1015E000BA01322F309583239223892B90916B007F
:1015F000C227C923C8232093BC01CC23F1F0C0FF2C
:1016000003C0E0E0F0E00995C1FF03C0E0E0F0E0D6
:101610000995C2FF03C0E0E0F0E00995C3FF03C0F5
:10162000E0E0F0E00995C4FF03C0E0E0F0E00995D8
:10163000C5FF03C0E0E0F0E00995FF91EF91CF9185
:10164000BF91AF919F918F917F916F915F914F91DA
:101650003F912F910F900FBE0F901F9018951F92E2
:101660000F920FB60F9211242F933F934F935F93D6
:101670006F937F938F939F93AF93BF93EF93FF935A
:10168000E0E0F0E00995FF91EF91BF91AF919F915C
:101690008F917F916F915F914F913F912F910F901B
:1016A0000FBE0F901F9018951F920F920FB60F92BA
:1016B00011242F933F934F935F936F937F938F9357
:1016C0009F93AF93BF93EF93FF93E0E0F0E0099512
:1016D000FF91EF91BF91AF919F918F917F916F910A
:1016E0005F914F913F912F910F900FBE0F901F90E0
:1016F0001895FC01538D448D252F30E0842F90E008
:10170000821B930B541710F0CF96089501970895FC
:10171000FC01918D828D981761F0828DDF01A80FF9
:10172000B11D5D968C91928D9F5F9F73928F90E01B
:1017300008958FEF9FEF0895FC01918D828D98178A
:1017400031F0828DE80FF11D858D90E008958FEFC7
:101750009FEF0895FC01918D228D892F90E0805C90
:101760009F4F821B91098F739927089583EC92E014
:101770000E94AA0B21E0892B09F420E0822F089512
:10178000FC01848DDF01A80FB11DA35ABF4F2C911E
:10179000848D90E001968F739927848FA689B789ED
:1017A0002C93A089B1898C9180648C93938D848DC6
:1017B000981306C00288F389E02D80818F7D808395
:1017C0000895EF92FF920F931F93CF93DF93EC0155
:1017D00081E0888F9B8D8C8D981305C0E889F989ED
:1017E000808185FD24C0F62E0B8D10E00F5F1F4F0A
:1017F0000F731127E02E8C8DE8120CC00FB607FC7A
:10180000FACFE889F989808185FFF5CFCE010E9462
:10181000C00BF1CF8B8DFE01E80FF11DE35AFF4F96
:10182000F0820B8FEA89FB898081806207C0EE8994
:10183000FF896083E889F98980818064808381E001
:1018400090E0DF91CF911F910F91FF90EF9008955D
:10185000CF93DF93EC01888D8823C9F0EA89FB8957
:10186000808185FD05C0A889B9898C9186FD0FC04E
:101870000FB607FCF5CF808185FFF2CFA889B98923
:101880008C9185FFEDCFCE010E94C00BE7CFDF9199
:10189000CF91089580E090E0892B29F00E94B60B4B
:1018A00081110C9400000895CF93DF9390E0FC0128
:1018B000EB5FFD4F2491FC01EF50FE4F8491882394
:1018C00061F190E0880F991FFC01EB54FE4FC59128
:1018D000D491FC01E154FE4FA591B491611109C06E
:1018E0009FB7F8948881209582238883EC912E23DA
:1018F0000BC0623061F49FB7F8943881822F8095D5
:1019000083238883EC912E2B2C939FBF06C08FB727
:10191000F894E8812E2B28838FBFDF91CF91089513
:1019200050919E0240919D02852F90E0242F30E03F
:10193000541710F4805B9F4F821B930B08950E94F5
:10194000041D1F920F920FB60F9211242F933F93F5
:101950004F935F936F937F938F939F93AF93BF93B7
:10196000EF93FF9383EC92E00E94C00BFF91EF9105
:10197000BF91AF919F918F917F916F915F914F91A7
:101980003F912F910F900FBE0F901F9018951F92AF
:101990000F920FB60F9211242F938F939F93EF9373
:1019A000FF93E091D302F091D4028081E091D902BB
:1019B000F091DA0282FD12C090818091DC028F5F8B
:1019C0008F732091DD02821751F0E091DC02F0E08C
:1019D000ED53FD4F958F8093DC0201C08081FF9114
:1019E000EF919F918F912F910F900FBE0F901F90AD
:1019F000189590E0FC01E753FE4F3491FC01EB5F3A
:101A0000FD4F2491FC01EF50FE4FE491EE2309F4C9
:101A10003BC0332339F1333091F038F43130A9F041
:101A2000323001F584B58F7D12C0373091F03830F7
:101A3000A1F03430B9F4809180008F7D03C0809193
:101A400080008F77809380000DC084B58F7784BD30
:101A500009C08091B0008F7703C08091B0008F7D66
:101A60008093B000F0E0EE0FFF1FE154FE4FA59110
:101A7000B4918FB7F894EC91611103C020952E2397
:101A800001C02E2B2C938FBF08951F93CF93DF930C
:101A9000182FEB0161E00E94540C209711F460E0D4
:101AA00004C0CF3FD10539F461E0812FDF91CF91A0
:101AB0001F910C94F90CE12FF0E0E753FE4FE491F5
:101AC000E330F9F048F4E130B9F0E230A1F584B543
:101AD000806284BDC8BD34C0E730E9F0E83019F158
:101AE000E43049F580918000806280938000D0933B
:101AF0008B00C0938A0024C084B5806884BDC7BDB4
:101B00001FC080918000806880938000D0938900FE
:101B1000C093880015C08091B00080688093B000A9
:101B2000C093B3000DC08091B00080628093B0007C
:101B3000C093B40005C0C038D1050CF0B5CFAFCF0D
:101B4000DF91CF911F9108952FB7F8946091B5025E
:101B50007091B6028091B7029091B8022FBF08959C
:101B60001F920F920FB60F9211242F933F938F93D2
:101B70009F93AF93BF938091B5029091B602A091CD
:101B8000B702B091B8023091B40223E0230F2D3791
:101B900020F40196A11DB11D05C026E8230F029671
:101BA000A11DB11D2093B4028093B5029093B6029B
:101BB000A093B702B093B8028091B0029091B102A5
:101BC000A091B202B091B3020196A11DB11D809304
:101BD000B0029093B102A093B202B093B302BF914E
:101BE000AF919F918F913F912F910F900FBE0F90CA
:101BF0001F901895CF93DF93EC018A859B85AC8568
:101C0000BD858E839F83A887B9870E94A40D6A83B0
:101C10007B838C839D8381E089838883DF91CF914F
:101C200008952F923F924F925F926F927F928F9280
:101C30009F92AF92BF92CF92DF92EF92FF920F935B
:101C40001F93CF93DF93D82FC92F8B010E94A31826
:101C500024E630E040E050E00E94131A49015A01A6
:101C60009B01AC0160E876E988E990E00E94031AE4
:101C70006B017C01F80191828082ED2FFC2F219174
:101C8000822F022E000C990BC0970A97C0F32E32B8
:101C900039F51F0180E8882E86E9982E88E9A82E5C
:101CA000B12C9AE0492E512C612C712CF101C1917B
:101CB0001F010C2E000CDD0BE097CA30D10580F41B
:101CC000C501B401A30192010E94131A49015A01EE
:101CD000DE010E94E81CC60ED71EE81EF91EE6CFE4
:101CE000A5E0B0E0A70196010E94351A6F5F7F4F13
:101CF0008F4F9F4F23E030E040E050E00E94131AE6
:101D0000F80122833383448355831682DF91CF9178
:101D10001F910F91FF90EF90DF90CF90BF90AF9009
:101D20009F908F907F906F905F904F903F902F90FB
:101D30000895FF920F931F93CF93DF93EC01FF243D
:101D4000F39488818D3211F0F12C01C02196CE01DF
:101D50000E94A3189B01AC01A4E6B0E00E94351AD2
:101D6000FE014991242F042E000C330B205331091E
:101D70002A303105A8F34E3241F52181022E000CA4
:101D8000330B205331092A303105F8F44AE0429FE1
:101D90008001439F100D1124012E000C220B330BE8
:101DA000600F711F821F931F0281002E000C110B08
:101DB000005311090A30110540F4012E000C220BCA
:101DC000330B600F711F821F931FFF2039F0909516
:101DD0008095709561957F4F8F4F9F4FDF91CF9189
:101DE0001F910F91FF900895E091C302F091C402FA
:101DF0000190F081E02D682F83EC92E00994CF925E
:101E0000DF92EF92FF920F931F93CF93DF936C01BA
:101E10007A018B01C0E0D0E0CE15DF0589F0D80152
:101E20006D918D01D601ED91FC910190F081E02D35
:101E3000C6010995892B11F47E0102C02196ECCFD1
:101E4000C701DF91CF911F910F91FF90EF90DF902D
:101E5000CF900895E3ECF2E0A089B18982E08C9301
:101E6000A485B5851C92A685B78580E18C93108EDC
:101E7000A489B58986E08C93A289B3898C9180610D
:101E80008C93A289B3898C9188608C93A289B38941
:101E90008C9180688C930288F389E02D80818F7DFE
:101EA000808308950F931F93CF93DF938C01C0E03D
:101EB000D0E0F801EC0FFD1F6491662371F0E09112
:101EC000C302F091C4020190F081E02D83EC92E016
:101ED0000995892B11F02196ECCFCE01DF91CF919E
:101EE0001F910F910895EF92FF920F931F93CF933D
:101EF000DF934091510450915204609153047091CA
:101F000054044F5F5F4F6F4F7F4F40935104509386
:101F100052046093530470935404843209F4A4C2AD
:101F2000E0914B04853234F48A3071F08D3009F041
:101F3000A9C20AC08A3241F08C3209F0A3C2909142
:101F40003804982790933804082FEF3008F074C1B4
:101F5000F0E0E65CFB4F108280913904882309F49D
:101F60006DC120913A043FEB320F822F022E000CFC
:101F7000990B363010F4C79707C02156263018F455
:101F80008755910901C0C097282F2295207F309155
:101F90003B044FEB430F832F032E000C990B46306D
:101FA00010F4C79707C03156363018F48755910999
:101FB00001C0C097820F9091380489132AC1809183
:101FC0005D0490915E04A0915F04B091600401965D
:101FD000A11DB11D80935D0490935E04A0935F04E6
:101FE000B093600480914C04882399F0809155044B
:101FF00090915604A0915704B09158040196A11DE8
:10200000B11D8093550490935604A0935704B09348
:10201000580410914904112309F46BC0113009F0E0
:10202000D2C08091DC039091DD03A091DE03B091DA
:10203000DF038093D8039093D903A093DA03B0937E
:10204000DB030E94A40D6093E0037093E10380938F
:10205000E2039093E3031093D7031093D603809188
:10206000EA039091EB03A091EC03B091ED03809310
:10207000E6039093E703A093E803B093E9030E947B
:10208000A40D6093EE037093EF038093F00390939D
:10209000F1031093E5031093E40380914C0488232B
:1020A00009F491C087E0E4ECF3E0A6EBB3E0019023
:1020B0000D928A95E1F787E0EBECF3E0ADEBB3E04E
:1020C00001900D928A95E1F70E94A40D6093D203CE
:1020D0007093D3038093D4039093D5031093B503E7
:1020E0001093B40382EF93E00E94FA0D80E094E035
:1020F00068C08091EA039091EB03A091EC03B0914A
:10210000ED038093E6039093E703A093E803B09375
:10211000E9030E94A40D6093EE037093EF03809394
:10212000F0039093F10311E01093E5031093E4039F
:1021300080914C04882321F187E0E4ECF3E0A6EBE6
:10214000B3E001900D928A95E1F787E0EBECF3E0C4
:10215000ADEBB3E001900D928A95E1F70E94A40DDA
:102160006093D2037093D3038093D4039093D503E9
:102170001093B5031093B4038EE094E00E94FA0D1F
:102180008091260490912704A0912804B0912904FD
:102190008093220490932304A0932404B0932504F5
:1021A0000E94A40D60931E0470931F04809320046A
:1021B0009093210481E080931D0480931C048AE2A3
:1021C00094E00E94FA0DC0914F04D091500411E0A8
:1021D000209709F43AC1E0914F04F091500466A1B0
:1021E00077A18EA19FA10E94091D892B09F02DC105
:1021F000BE01CE0140960E94121D0E94A40D68A34C
:1022000079A38AA39BA31DA31CA30AA4DBA5C02DAD
:10221000DFCF8091590490915A04A0915B04B09152
:102220005C040196A11DB11D8093590490935A043A
:10223000A0935B04B0935C0490E008C190914A04C1
:10224000911142C065E971E08AE394E00E94091DA2
:10225000892B41F06BE971E08AE394E00E94091D4B
:10226000892B11F481E014C061EA71E08AE394E003
:102270000E94091D892B41F067EA71E08AE394E02E
:102280000E94091D892B19F41092490403C082E0B1
:102290008093490480914D0490914E049093500492
:1022A00080934F04C0914F04D0915004209721F2A5
:1022B000EEA0FFA06AE374E0C7010E94091D97FF2A
:1022C000F7C08AA59BA5EACFE0914904E23009F462
:1022D00091C080913A04882309F48CC020E2E29FE7
:1022E000F0011124E92B3197E932F10508F082C0A1
:1022F000EC5CFF4F0C94E21C8AE394E00E94990E80
:102300006093EA037093EB038093EC039093ED03E7
:1023100071C091E0813409F043C043C064EC73E0C4
:1023200009C091E0833509F090E09093CA0362C040
:102330006BEC73E08AE394E00E94110E5BC091E0C5
:10234000873509F090E09093D10354C08AE394E07C
:102350000E94990E6093FC037093FD038093FE032B
:102360009093FF0347C08AE394E00E94990E609324
:102370000A0470930B0480930C0490930D043AC0EC
:102380008AE394E00E94A3186093DC037093DD035A
:102390008093DE039093DF032DC091E081330CF432
:1023A00090E090934C0426C08AE394E00E94A31826
:1023B0006093260470932704809328049093290443
:1023C00019C08AE394E00E94990E609334047093DC
:1023D000350480933604909337040CC08AE394E06C
:1023E0000E94990E609318047093190480931A0444
:1023F00090931B04C0914F04D0915004209709F48E
:102400001BCFE0914F04F091500466A177A18EA1FB
:102410009FA10E94091D892B09F00ECF28A539A57F
:1024200080914A0490E0821793070CF405CF281797
:10243000390739F440E150E06AE374E0CE010E94CC
:10244000191D0AA4DBA5C02DD9CF91E080914A04C3
:102450008F5F80934A0410924B0481E00A3209F0A6
:1024600080E08093390432C010924B0410924A04E9
:102470001092380482E0809349041092390410923B
:102480004C0414C0EE3040F491E09E0F90934B0446
:10249000F0E0E65CFB4F808390913904911106C017
:1024A0002091380482278093380410C090E00EC039
:1024B0006AE374E0C7010E94091D181619060CF0A2
:1024C000BBCE1092500410924F04B6CE892FDF91EC
:1024D000CF911F910F91FF90EF9008950F931F934D
:1024E00090E0FC01EB5FFD4F6491FC01EF50FE4F6B
:1024F000E491F0E0EE0FFF1FE951FE4F85919491BA
:1025000000E412E42FE030E0462F0E9464146115CD
:1025100071058105910549F0DC01CB010196A11DF2
:10252000B11DBC01CD019F7003C060E070E0CB0124
:102530001F910F9108956115710579F0FB010190CC
:102540000020E9F73197AF01461B570BDC01ED91F5
:10255000FC910280F381E02D099480E090E00895E1
:10256000CF93DF93BC0183EC92E00E949B12EC01BD
:102570006BE671E083EC92E00E949B128C0F9D1F32
:10258000DF91CF9108954F925F926F927F92EF9279
:10259000FF920F931F93CF93DF93CDB7DEB7A19731
:1025A0000FB6F894DEBF0FBECDBF7C01FA01CB01A0
:1025B00019A2223008F42AE08E010F5D1F4F422E2F
:1025C000512C612C712CBF01A30192010E94131A9E
:1025D000F901CA01015011096A3014F4605D01C0AB
:1025E000695CD8016C93232B242B252B61F7B80150
:1025F000C7010E949B12A1960FB6F894DEBF0FBED2
:10260000CDBFDF91CF911F910F91FF90EF907F9001
:102610006F905F904F9008950F931F93CF93DF9328
:1026200000D000D0CDB7DEB7AC01990F660B770BA9
:1026300077FF1BC08DE249835A836B837C830E94A2
:10264000F40E8C0149815A816B817C817095609573
:10265000509541955F4F6F4F7F4F2AE083EC92E09A
:102660000E94C312080F191F06C02AE083EC92E0F3
:102670000E94C3128C016BE671E083EC92E00E9431
:102680009B12800F911F0F900F900F900F90DF9172
:10269000CF911F910F9108950F931F93CF93DF93C5
:1026A00000D000D0CDB7DEB7AC01990F660B770B29
:1026B00077FF23C08DE249835A836B837C830E941A
:1026C000F40E8C0149815A816B817C8170956095F3
:1026D000509541955F4F6F4F7F4F2AE083EC92E01A
:1026E0000E94C312800F911F0F900F900F900F90B8
:1026F000DF91CF911F910F9108952AE083EC92E032
:102700000F900F900F900F90DF91CF911F910F912D
:102710000C94C3124F925F926F927F928F929F920E
:10272000AF92BF92CF92DF92EF92FF926B017C014A
:10273000B42E9B01AC010E94A01C882319F06DEA05
:1027400071E027C026013701E89477F82FEF3FEFBB
:102750004FE75FE7C301B2010E94A01C81110DC0C9
:102760002FEF3FEF4FE75FE7C301B2010E94DF1891
:1027700018161CF461EB71E00CC02FEF3FEF4FE730
:102780005FE4C701B6010E94411C181694F465EB82
:1027900071E083EC92E0FF90EF90DF90CF90BF90DC
:1027A000AF909F908F907F906F905F904F900C9420
:1027B0009B122FEF3FEF4FE75FECC701B6010E947E
:1027C000DF1887FDE4CF20E030E0A901C701B601A2
:1027D0000E94DF1887FF09C08DE20E94F40E4C01B1
:1027E000F7FAF094F7F8F09402C0812C912CA12C08
:1027F00060E070E080E09FE3AB1441F020E030E067
:1028000040E251E40E94331BA394F6CF9B01AC013C
:10281000C701B6010E94501A2B013C010E94AC1B5B
:102820006B017C010E94E4189B01AC01C301B20161
:102830000E944F1A2B013C012AE0B701A60183EC4C
:1028400092E00E94C3127C01E80CF91CBB2029F025
:102850008EE20E94F40EE80EF91EDB2CDD2031F131
:1028600020E030E040E251E4C301B2010E9445198A
:102870002B013C010E94AC1B4B01A12CB12C2AE086
:10288000B501A40183EC92E00E94C312E80EF91E88
:10289000C501B4010E94E4189B01AC01C301B2015F
:1028A0000E944F1A2B013C01DA94D8CFC701FF9048
:1028B000EF90DF90CF90BF90AF909F908F907F90E0
:1028C0006F905F904F900895CF92DF92EF92FF92BA
:1028D0000F931F93E82FF92F05C00150110921090B
:1028E000310961F1908196239417B9F305C0015025
:1028F00011092109310911F1908196239413F7CF21
:10290000C12CD12CE12CF12C0AC08FEFC81AD80AA7
:10291000E80AF80A0C151D052E053F0579F080819F
:102920008623841791F36C2D7D2D8E2D9F2D1F9165
:102930000F91FF90EF90DF90CF90089560E070E0EE
:1029400080E090E01F910F91FF90EF90DF90CF908B
:1029500008958EE191E09093A9038093A80380915C
:102960006F008B7F80936F0080916F008F7D8093CD
:102970006F0080919D0280939E0280919C02811144
:10298000FCCF80916F008D7F80936F0008957894C5
:1029900084B5826084BD84B5816084BD85B5826064
:1029A00085BD85B5816085BD80916E008160809315
:1029B0006E0010928100809181008260809381007E
:1029C000809181008160809381008091800081608E
:1029D000809380008091B10084608093B1008091E9
:1029E000B00081608093B00080917A008460809311
:1029F0007A0080917A00826080937A0080917A00D8
:102A0000816080937A0080917A00806880937A0058
:102A10001092C1001092A4031092A5031092A60375
:102A20001092A70310926203109263031092640342
:102A3000109265030E94A40D6B017C014B015C01A7
:102A400088EB880E8BE0981EA11CB11C0E94A40D7F
:102A50006C157D058E059F0528F086169706A8063D
:102A6000B906A0F783EC92E09093A3038093A203AE
:102A70000E942A0F0E94A40D609362037093630367
:102A800080936403909365036CE571E08091A203E9
:102A90009091A3030E949B120E94A40D6B017C01E4
:102AA0004B015C018AE0880E911CA11CB11C0E94A4
:102AB000A40D6C157D058E059F0528F086169706DA
:102AC000A806B906A0F781E0809376038EE691E030
:102AD0000E94B01260E083E10E94540C60E082E149
:102AE0000E94540C60E083E10E94540C60E082E19B
:102AF0000E94540C61E08CE00E94540C60E08BE07A
:102B00000E94540C61E087E00E94540C60E086E073
:102B10000E94540C60E081E10E94540C61E085E069
:102B20000E94540C62E084E00E94540C61E084E056
:102B30000E94540C61E087E00E94540C61E086E042
:102B40000E94540C0E942A0F10926F001092800075
:102B500081E88093810083E896E09093A3028093BC
:102B6000A2028BE39CE39093A1028093A00262E017
:102B700088E00E94540C61E089E00E94F90C61E059
:102B800089E00E94540C10929F0210929E021092B3
:102B90009D0210929C0210929B0210929A0280E277
:102BA00086BB80936F0083E4382E0AEA10E092ED32
:102BB000492E512C2CE8E22EF12C32E0632E712CA0
:102BC000CC24C394D12C53E6A52EB12C60EF862ED5
:102BD000912C30927C0080917A00806480937A00FE
:102BE00080917A0086FDFCCFC091780080917900B9
:102BF000D0E0D82B67E771E083EC92E00E949B1253
:102C0000CE010E940C13F8948091B9029091BA02FF
:102C1000A091BB02B091BC028093BF029093C0020E
:102C2000A093C102B093C202789482EE91E00E9418
:102C3000520F4091BF025091C00260E070E02AE064
:102C400083EC92E00E94C3128AE891E00E94B012E5
:102C50008DED91E00E94520F4091C1025091C2024D
:102C600060E070E02AE083EC92E00E94C3126AE820
:102C700071E083EC92E00E949B1264E170E085E0D9
:102C80000E94450D88EA93E00E94900C18161906E0
:102C90003CF488EA93E00E944C010E94730FF2CF4B
:102CA0000E946E050E942B07109201046091060499
:102CB0007091070480910804909109040E94E6181D
:102CC00020E030E048EC52E40E94331B0E94A51B38
:102CD0007093AF026093AE020E94C8050E9408067E
:102CE0002091AC023091AD023093AB022093AA0246
:102CF0008091A8029091A9029093A7028093A602C6
:102D000026343105FCF086349105E4F0809106010B
:102D1000909107018336910529F4909205018092E4
:102D2000040104C0109305010093040160910401A3
:102D3000709105017093BE026093BD0287E00E940E
:102D4000450D52C0A901495251094D31510530F08C
:102D5000AC01495251094D315105D8F48091060119
:102D6000909107018336910529F450920501409214
:102D7000040106C010930501009304010E9442045F
:102D800060910401709105017093BE026093BD02D1
:102D90008DC0A901455151094331510530F0AC01B5
:102DA000455151094331510510F5F0920501E0926A
:102DB0000401F092BE02E092BD026CE870E087E090
:102DC0000E94450D0E94A6058091A4029091A50243
:102DD000181619062CF0D0920701C092060104C003
:102DE00070920701609206010E94420465C024317E
:102DF00031050CF05FC044970CF05CC06FE770E0E9
:102E000087E00E94450D6FE770E086E00E94450D67
:102E1000B0920701A092060162E370E087E00E9491
:102E2000450D82E390E09093050180930401909317
:102E3000BE028093BD028091AA029091AB02889756
:102E40009CF58091A6029091A70288976CF50E944C
:102E50006E050E942B071092010460910604709188
:102E6000070480910804909109040E94E61820E06C
:102E700030E048EC52E40E94331B0E94A51B709383
:102E8000AF026093AE020E94C8050E9408060E942D
:102E9000F9088CE891E00E94B01266E470E080E0EE
:102EA00090E00E940305C7CF6FE770E087E00E94C3
:102EB000450D02C00E94A6050E94F90862E370E079
:102EC00080E090E00E9403050E944A0C82CEE3EC71
:102ED000F2E01382128288EE93E0A0E0B0E08483F7
:102EE0009583A683B7832CE031E03183208325ECE2
:102EF00030E03587248724EC30E03787268720ECC4
:102F000030E0318B208B21EC30E0338B228B22ECB4
:102F100030E0358B248B26EC30E0378B268B118EFE
:102F2000128E138E148EE0E6F3E01682178210865E
:102F30001186128613861486158616861786108AC1
:102F4000118A128A138A148A158AE1E6F4E041E0B4
:102F500051E164EF71E440835183628373834EE4F3
:102F60005AEA63EC72EC44835583668377834FE8B7
:102F700050E164EF71E440875187628773874DE3C6
:102F80005AEA63EC72EC44875587668777874DEC85
:102F90005FE064EF71E4408B518B628B738B4BE28B
:102FA0005AEA63EC72EC448B558B668B778B40E46A
:102FB00051E164EF71E4408F518F628F738F40E66F
:102FC0005AEA63EC72EC448F558F668F778F42E735
:102FD00051E164EF71E440A351A362A373A343E5FD
:102FE0005AEA63EC72EC44A355A366A377A3E4EB1F
:102FF000F3E01082118213821282148215821682EB
:1030000017821086128611861386148615861686F8
:103010001786118A108A128A138A148A158A168AC8
:10302000108E178A118E128E138E148E158E12A288
:1030300013A214A215A216A217A210AA11AA12AACC
:1030400013AA14AA15AA1092F2031092F303109275
:10305000F8031092F9031092FA031092FB031092F6
:1030600000041092010410920604109207041092BA
:1030700008041092090410920E0410920F0410928A
:103080001404109215041092160410921704109252
:103090001C0410921D04109222041092230410921A
:1030A00024041092250410922A0410922B041092EA
:1030B00030041092310410923204109233041092B2
:1030C00038041092390422E02093490410924A04F3
:1030D00010924B0410924C0410924E0410924D0426
:1030E0001092500410924F04109251041092520406
:1030F00010925304109254041092550410925604E6
:1031000010925704109258041092590410925A04C5
:1031100010925B0410925C0410925D0410925E04A5
:1031200010925F041092600410923A04E8EAF3E00F
:103130001382128284839583A683B7838EE191E004
:103140009183808308951F93FC0199278827BC01F0
:10315000E89411911032E9F3193010F01E30C8F3E1
:103160001B3251F01D3249F4689406C00E94CA18FF
:10317000610F711D811D911D119110531A30B0F313
:103180003EF490958095709561957F4F8F4F9F4F3E
:103190001F910895592F482F372F262F660F771F1D
:1031A000881F991F660F771F881F991F620F731F53
:1031B000841F951F660F771F881F991F08950E940F
:1031C000211908F481E00895E89409C097FB3EF4C2
:1031D00090958095709561957F4F8F4F9F4F992364
:1031E000A9F0F92F96E9BB279395F69587957795E2
:1031F0006795B795F111F8CFFAF4BB0F11F460FFA2
:103200001BC06F5F7F4F8F4F9F4F16C0882311F0F9
:1032100096E911C0772321F09EE8872F762F05C00D
:10322000662371F096E8862F70E060E02AF09A95A8
:10323000660F771F881FDAF7880F9695879597F99D
:103240000895990F0008550FAA0BE0E8FEEF161637
:103250001706E807F907C0F012161306E407F5078A
:1032600098F0621B730B840B950B39F40A2661F0FE
:10327000232B242B252B21F408950A2609F4A140A1
:10328000A6958FEF811D811D08950E9458190C94F9
:10329000C9190E94BB1938F00E94C21920F0952369
:1032A00011F00C94B2190C94B81911240C94FD1956
:1032B0000E94DA1970F3959FC1F3950F50E0551FE6
:1032C000629FF001729FBB27F00DB11D639FAA277B
:1032D000F00DB11DAA1F649F6627B00DA11D661FCA
:1032E000829F2227B00DA11D621F739FB00DA11DEB
:1032F000621F839FA00D611D221F749F3327A00DA5
:10330000611D231F849F600D211D822F762F6A2F40
:1033100011249F5750409AF0F1F088234AF0EE0FA5
:10332000FF1FBB1F661F771F881F91505040A9F7D2
:103330009E3F510580F00C94B2190C94FD195F3F2B
:10334000E4F3983ED4F3869577956795B795F7950E
:10335000E7959F5FC1F7FE2B880F911D9695879586
:1033600097F9089597F99F6780E870E060E0089505
:103370009FEF80EC089500240A941616170618068D
:103380000906089500240A94121613061406050669
:103390000895092E0394000C11F4882352F0BB0FFA
:1033A00040F4BF2B11F460FF04C06F5F7F4F8F4F5D
:1033B0009F4F089557FD9058440F551F59F05F3F98
:1033C00071F04795880F97FB991F61F09F3F79F047
:1033D00087950895121613061406551FF2CF4695C9
:1033E000F1DF08C0161617061806991FF1CF86954B
:1033F0007105610508940895E894BB27662777272F
:10340000CB0197F90895DB018F939F930E94351AA2
:10341000BF91AF91A29F800D911DA39F900DB29F70
:10342000900D11240895A1E21A2EAA1BBB1BFD01C9
:103430000DC0AA1FBB1FEE1FFF1FA217B307E40793
:10344000F50720F0A21BB30BE40BF50B661F771FEB
:10345000881F991F1A9469F76095709580959095CB
:103460009B01AC01BD01CF0108950E94401AA59FA8
:10347000900DB49F900DA49F800D911D112408956F
:10348000A29FB001B39FC001A39F700D811D1124A5
:10349000911DB29F700D811D1124911D08955058EA
:1034A000BB27AA270E94671A0C94C9190E94BB194E
:1034B00038F00E94C21920F039F49F3F19F426F425
:1034C0000C94B8190EF4E095E7FB0C94B219E92FAF
:1034D0000E94DA1958F3BA17620773078407950731
:1034E00020F079F4A6F50C94FC190EF4E0950B2E5F
:1034F000BA2FA02D0B01B90190010C01CA01A00146
:103500001124FF27591B99F0593F50F4503E68F1A0
:103510001A16F040A22F232F342F4427585FF3CFE1
:10352000469537952795A795F0405395C9F77EF4B2
:103530001F16BA0B620B730B840BBAF09150A1F0FB
:10354000FF0FBB1F661F771F881FC2F70EC0BA0F81
:10355000621F731F841F48F4879577956795B79509
:10356000F7959E3F08F0B0CF9395880F08F0992704
:10357000EE0F9795879508950E94BB1960F080E83B
:1035800091E009F49EEF0E94C21928F040E851E052
:1035900071F45EEF0CC00C94B8190C94FC19E92F6F
:1035A000E0780E94DA1940F3092E052AB1F32617B4
:1035B00037074807590738F00E2E07F8E02569F05D
:1035C000E025E0640AC0EF6307F8009407FADB0126
:1035D000B9019D01DC01CA01AD01EF930E944A1BB4
:1035E0000E94C9190E94FF1A5F91552339F02BEDF3
:1035F0003FE049E450FD49EC0C94501A0895DF93E4
:10360000DD27B92FBF7740E85FE316161706480796
:103610005B0718F4D92F0E94461C9F938F937F93CA
:103620006F930E949C1CEAEBF0E00E94DB1B0E945F
:10363000C9192F913F914F915F910E945819DD2335
:1036400051F09058A2EA2AED3FE049EC5FE3D078D0
:103650005D270E94671ADF910C94C9190E94041C0F
:10366000E3950C942D1C0E94471B0C94C9190E94D1
:10367000C21958F00E94BB1940F029F45F3F29F0AD
:103680000C94B21951110C94FD190C94B8190E94A4
:10369000DA1968F39923B1F3552391F3951B550B70
:1036A000BB27AA2762177307840738F09F5F5F4F15
:1036B000220F331F441FAA1FA9F335D00E2E3AF054
:1036C000E0E832D091505040E695001CCAF72BD06C
:1036D000FE2F29D0660F771F881FBB1F26173707BD
:1036E0004807AB07B0E809F0BB0B802DBF01FF27EF
:1036F00093585F4F3AF09E3F510578F00C94B21901
:103700000C94FD195F3FE4F3983ED4F386957795CA
:103710006795B795F7959F5FC9F7880F911D9695A7
:10372000879597F90895E1E0660F771F881FBB1F03
:10373000621773078407BA0720F0621B730B840BB0
:10374000BA0BEE1F88F7E09508950E94AC1B6894B1
:10375000B1110C94FD1908950E94E21988F09F5749
:1037600098F0B92F9927B751B0F0E1F0660F771FA5
:10377000881F991F1AF0BA95C9F714C0B13091F09B
:103780000E94FC19B1E008950C94FC19672F782F62
:103790008827B85F39F0B93FCCF386957795679560
:1037A000B395D9F73EF490958095709561957F4FCC
:1037B0008F4F9F4F0895DF93CF931F930F93FF92E7
:1037C000EF92DF927B018C01689406C0DA2EEF0144
:1037D0000E945819FE01E894A591259135914591D3
:1037E0005591A6F3EF010E94671AFE019701A80107
:1037F000DA9469F7DF90EF90FF900F911F91CF91CE
:10380000DF9108950C94B8190E94E219D8F3E89456
:10381000E0E0BB279F57F0F02AED3FE049EC06C0FF
:10382000EE0FBB0F661F771F881F28F0B23A6207A2
:103830007307840728F0B25A620B730B840BE3956D
:103840009A9572F7803830F49A95BB0F661F771FF0
:10385000881FD2F790480C94A71CEF93E0FF07C095
:10386000A2EA2AED3FE049EC5FEB0E94671A0E9452
:10387000C9190F90039401FC9058E7EEF0E00C9406
:10388000BA1C0E94211908F48FEF08959B01AC0126
:1038900060E070E080E89FE30C94331B9F930E94EC
:1038A000041C0F9007FCEE5F0C942D1C19F416F409
:1038B0000C94B8190C94A51C0E94E219B8F3992332
:1038C000C9F3B6F39F57550B87FF0E94B31C002422
:1038D000A0E640EA900180585695979528F4805CC0
:1038E000660F771F881F20F026173707480730F428
:1038F000621B730B840B202931294A2BA695179440
:103900000794202531254A2758F7660F771F881F0F
:1039100020F026173707480730F4620B730B840B2F
:10392000200D311D411DA09581F7B901842F9158BB
:10393000880F9695879508959B01AC010C944519C5
:103940000E942119880B990B08959F3F31F09150E7
:1039500020F4879577956795B795880F911D969573
:10396000879597F9089591505040660F771F881FEB
:10397000D2F708959F938F937F936F93FF93EF9365
:103980009B01AC010E944519EF91FF910E94DB1B46
:103990002F913F914F915F910C94451997FB072E02
:1039A00016F4009407D077FD09D00E94F01C07FCA4
:1039B00005D03EF4909581959F4F0895709561953F
:1039C0007F4F0895EE0FFF1F0590F491E02D0994AD
:1039D000B7FF0C94351A0E94351A821B930B089579
:1039E000AA1BBB1B51E107C0AA1FBB1FA617B70725
:1039F00010F0A61BB70B881F991F5A95A9F7809541
:103A00009095BC01CD01089581E090E0F8940C946C
:103A1000281DFB01DC018D91019080190110D9F363
:103A2000990B0895FB01DC0101900D920020E1F754
:103A30000895FB01DC014150504048F001900D9287
:103A40000020C9F701C01D9241505040E0F7089591
:103A500011E0CEE0D1E004C0FE010E94E21C2196FC
:0A3A6000CF30D107C9F7F894FFCF6B
:103A6A00FFFF6300D200630000000000E10BFF0EBD
:103A7A00790B280CAA0B880B9C0B0000000067012D
:103A8A00FF0EA1016201900C4C01390120475053ED
:103A9A0020466978203D20002057617970696E744C
:103AAA00204C4154203D2000537472616967687448
:103ABA00005269676874004C65667400564D44503C
:103ACA00565F317C315F564D4450560D0A0053748F
:103ADA00617274696E670044656275672050696E29
:103AEA002056616C7565203D20000900696E2077BB
:103AFA0068696C65004750524D4300474E524D432A
:103B0A0000475047474100474E474741006E616EA4
:0A3B1A0000696E66006F7666000019
:00000001FF
