:10000000FEC100000C94600F0C94350F0C940A0F85
:100010000C94DF0E0C94B40E0C94890E0C945E0EAE
:100020000C94330E0C94BE0D0C944F0D0C94D90C03
:1000300017C2000015C2000013C2000011C2000068
:100040000FC200000DC200000BC2000009C2000078
:1000500007C2000005C2000003C200008EC40000F9
:10006000FFC100000C94AD110C948411F9C1000083
:10007000F7C10000F5C10000F3C10000F1C10000AC
:10008000EFC10000EDC10000EBC10000E9C10000BC
:10009000E7C10000E5C10000E3C10000E1C10000CC
:1000A000DFC10000DDC10000DBC10000D9C10000DC
:1000B000D7C10000D5C10000EEC500009AC60000FF
:1000C0009FC50000CDC10000CBC10000C9C1000028
:1000D000C7C10000C5C10000C3C10000C1C100000C
:1000E000BFC10000FE110112F011F411FA11381213
:1000F000051209120F12131217121D1221122512C6
:1001000038122B122F1233128F1294129912A3123B
:10011000AD122613B712BF12C712D112DB12E512AD
:10012000F412FE122613081312131C1338184A185F
:100130004D1854185B1888188F189B18A818B418F5
:10014000B418B418B418B418B418B418B418B4184F
:10015000B418B418B418B418B418B418B418B4183F
:10016000B418B418B418B418B418B418381845181A
:100170004A184D1854185B1862186F187C18084AF2
:10018000D73B3BCE016E84BCBFFDC12F3D6C7431AB
:100190009ABD56833DDA3D00C77F11BED9E4BB4C02
:1001A0003E916BAAAABE000000803F05A84CCDB2CC
:1001B000D44EB93836A9020C50B9918688083CA6AD
:1001C000AAAA2ABE000000803F0046726565204D45
:1001D000656D6F72793A200020204F6C642044696D
:1001E00072656374696F6E203D200020204469723F
:1001F000656374696F6E203D200020204572726F28
:1002000072203D2000202043757272656E74203D7F
:1002100020002020546172676574203D2000205327
:100220007064203D200020536F6E61722052696718
:100230006874203D2000536F6E6172204C656674B7
:10024000203D200020436F6D70617373204865610D
:1002500064696E67203D2000204F726967696E6196
:100260006C2044697374203D20002044697374201D
:100270003D2000204C6F6E67203D2000204C4F4EEB
:10028000203D2000204C4154203D20000000210052
:10029000240027002A002D00300033000101000057
:1002A000040107010A0100002200250028002B009C
:1002B0002E003100340002010000050108010B018D
:1002C00000000A0B02090C0D0E08070304010000D0
:1002D000000000000000000000000000000000001E
:1002E00000000000000000000000000012111000DB
:1002F00000000000000000000000000000000000FE
:10030000000000000000000020002300260029005B
:100310002C002F003200000100000301060109013A
:100320000001040505030304050604050607010092
:10033000010003020100000102030405060707068D
:100340000504030201000702010007060504030279
:100350000100030201000001020304050607000179
:100360000203040506070203040506060705050542
:1003700005070508080808020202020A0A0808041C
:10038000040404010101010101010103030303034A
:10039000030303040707070C0C0C0C0C0C0C0C02D9
:1003A00002020206060606060606060B0B0B0B0BE0
:1003B0000B0B0B01021020200808102040102040D9
:1003C0008002010201080402010102040810204019
:1003D0008080402010080402018004020180402037
:1003E0001008040201080402010102040810204060
:1003F00080010204081020408000FE1B6D191124AA
:100400001FBECFEFD1E2DEBFCDBF00E00CBF12E0D8
:10041000A0E0B2E0E6ECF2E400E00BBF02C007901F
:100420000D92AA3CB107D9F725E0AAECB2E001C0D1
:100430001D92A63EB207E1F711E0CEEFD1E000E059
:1004400006C021970109802FFE010E942721CD3F80
:10045000D10780E00807A9F70E948B190C9452215C
:10046000CFCD3FB7F8948091B2039091B303A091A0
:10047000B403B091B50326B5A89B05C02F3F19F072
:100480000196A11DB11D3FBFBA2FA92F982F882714
:10049000820F911DA11DB11DBC01CD0142E0660F6F
:1004A000771F881F991F4A95D1F708955091BA0375
:1004B0004091B903852F90E0242F30E0541710F4B9
:1004C000805B9F4F821B930B08958091BA03E0914C
:1004D000B9038E1751F0EF5FE03508F0E0E0F0E08F
:1004E000E35AFC4F808190E008958FEF9FEF0895CD
:1004F0008091BA039091B903891769F09F5F903595
:1005000008F090E0E92FF0E0E35AFC4F80819093EF
:10051000B90390E008958FEF9FEF08958091B8039D
:100520008111FCCF08958091B7038F5F843408F068
:1005300080E09091B6039817E1F32FB7F89490916B
:10054000B803992341F0E82FF0E0ED5EFC4F6083A3
:100550008093B7031DC081E08093B8036093580374
:100560001092570382E08ABB80917300826080936F
:100570007300809120018F738068809320018091A7
:1005800024019091250140969093290180932801A0
:100590002FBF81E090E00895089580E090E00895F5
:1005A0004F925F926F927F928F929F92AF92BF9283
:1005B000CF92DF92EF92FF92CF93DF93CDB7DEB76A
:1005C0002C970FB6F894DEBF0FBECDBF2091E60288
:1005D0003091E7024091E8025091E9026091DC021B
:1005E0007091DD028091DE029091DF020E94E61E92
:1005F00025E33AEF4EE85CE30E94E21D2B013C014B
:1006000025E33AEF4EE85CE36091EA027091EB0279
:100610008091EC029091ED020E94E21D4B015C0181
:1006200025E33AEF4EE85CE36091D8027091D9027D
:100630008091DA029091DB020E94E21D6B017C0145
:10064000C301B2010E94B2206D837E838F8398879D
:10065000C701B6010E94AD1F69837A838B839C8397
:10066000C501B4010E94B22069877A878B879C8775
:10067000C301B2010E94AD1F2B013C0129813A81C7
:100680004B815C8169857A858B859C850E94E21D02
:10069000A30192010E94E21D2B013C01C501B4019E
:1006A0000E94AD1F4B015C01C701B6010E94B22040
:1006B0009B01AC01C501B4010E94E21DA30192019E
:1006C0000E94E61E6B017C0129813A814B815C818D
:1006D0006D817E818F8198850E94E21DA701960120
:1006E0000E945A1F6B017C0120E030E0A9010E94AA
:1006F0007D1D87FF0AC02BED3FE049EC50E4C701A8
:10070000B6010E94E71E6B017C0121EE3EE245E648
:1007100052E4C701B6010E94E21D0E9418207093A6
:10072000E3026093E202CB012C960FB6F894DEBF91
:100730000FBECDBFDF91CF91FF90EF90DF90CF90B4
:10074000BF90AF909F908F907F906F905F904F90F1
:1007500008950F931F93CF93DF93082F70E0FB0151
:10076000E054FD4F8491FB01ED54FC4FD491FB010B
:10077000E359FC4FC49110E0CC23D9F081110E94C1
:10078000E311EC2FF0E0EE0FFF1FEA5FFC4FA591A5
:10079000B491EC91ED2369F064DE000F111F000F9E
:1007A000111FF801E653FD4F6083718382839383A9
:1007B00013C057DEF801EE0FFF1FEE0FFF1FE653C9
:1007C000FD4F20813181621B730B000F111FF80157
:1007D000E054FC4F71836083DF91CF911F910F91A3
:1007E000089563E481E0B5CF62E480E0B2CF2FB733
:1007F000F8946091AE037091AF038091B003909133
:10080000B1032FBF0895CF92DF92EF92FF92EFDFF7
:100810006B017C016FEF70E089E00E9468128091AB
:100820000F0390911003A0911103B0911203A7013F
:100830009601281B390B4A0B5B0BCA01B9010E94B8
:10084000811D2CEF32EF48ED5EE30E94A72087FD6B
:100850001AC08CE292E00E943A1383E690E09093F3
:100860000502809304026FE770E089E00E9468123D
:1008700081E080930E03C0920F03D0921003E092A8
:100880001103F0921203FF90EF90DF90CF90089544
:10089000CF92DF92EF92FF9260E08AE20E943912DB
:1008A000A6DF6B017C0180910A0390910B03A0915C
:1008B0000C03B0910D03A7019601281B390B4A0BBD
:1008C0005B0BDA01C90180379741A105B10560F0E2
:1008D00061E08AE20E943912C0920A03D0920B03AF
:1008E000E0920C03F0920D03FF90EF90DF90CF9019
:1008F0000895CF92DF92EF92FF9279DF6B017C0136
:1009000060E070E089E00E9468128091FA029091A4
:10091000FB02A091FC02B091FD02A7019601281BE9
:10092000390B4A0B5B0BCA01B9010E94811D2CEFE8
:1009300032EF48ED5EE30E94A72087FD19C08AE3ED
:1009400092E00E943A1383E690E090930502809330
:1009500004026FE770E089E00E94681210920E03B3
:10096000C092FA02D092FB02E092FC02F092FD02E9
:10097000FF90EF90DF90CF9008951F920F920FB6E7
:100980000F9211242F933F938F939F93AF93BF9315
:100990008091AE039091AF03A091B003B091B103E9
:1009A0003091AD0323E0230F2D3720F40196A11DD4
:1009B000B11D05C026E8230F0296A11DB11D20938D
:1009C000AD038093AE039093AF03A093B003B093B5
:1009D000B1038091B2039091B303A091B403B0919D
:1009E000B5030196A11DB11D8093B2039093B3038B
:1009F000A093B403B093B503BF91AF919F918F9132
:100A00003F912F910F900FBE0F901F901895CF938D
:100A1000DF93EC018A859B85AC85BD858E839F83A2
:100A2000A887B987E4DE6A837B838C839D8381E01A
:100A300089838883DF91CF9108952F923F924F92BF
:100A40005F926F927F928F929F92AF92BF92CF925E
:100A5000DF92EF92FF920F931F93CF93DF93D82FE4
:100A6000C92F8B010E94421D24E630E040E050E097
:100A70000E94A51E49015A019B01AC0160E876E97C
:100A800088E990E00E94961E6B017C01F80191823A
:100A90008082ED2FFC2F2191822F022E000C990BCA
:100AA000C0970A97C0F32E3239F51F0180E8882ECF
:100AB00086E9982E88E9A82EB12C9AE0492E512C6F
:100AC000612C712CF101C1911F010C2E000CDD0B6A
:100AD000E097CA30D10580F4C501B401A3019201A9
:100AE0000E94A51E49015A01DE010E94D11EC60EB8
:100AF000D71EE81EF91EE6CFA5E0B0E0A7019601DB
:100B00000E94C71E6F5F7F4F8F4F9F4F23E030E0E3
:100B100040E050E00E94A51EF80122833383448305
:100B200055831682DF91CF911F910F91FF90EF9027
:100B3000DF90CF90BF90AF909F908F907F906F90FD
:100B40005F904F903F902F900895FF920F931F93C7
:100B5000CF93DF93EC01FF24F39488818D3211F061
:100B6000F12C01C02196CE010E94421D9B01AC01D7
:100B7000A4E6B0E00E94C71EFE014991242F042E76
:100B8000000C330B205331092A303105A8F34E32C3
:100B900041F52181022E000C330B205331092A30FC
:100BA0003105F8F44AE0429F8001439F100D112463
:100BB000012E000C220B330B600F711F821F931F3D
:100BC0000281002E000C110B005311090A3011058F
:100BD00040F4012E000C220B330B600F711F821F9B
:100BE000931FFF2039F090958095709561957F4F08
:100BF0008F4F9F4FDF91CF911F910F91FF900895DD
:100C00001F920F920FB60F9211240BB60F922F93D3
:100C10008F939F93EF93FF93809173008B7F8093CB
:100C20007300809121018F7B809321018091BB0310
:100C300020915C03205890915B03893020F49695B5
:100C4000922B8F5FFACF90935B038091BA038F5FF3
:100C5000803508F080E02091B903821739F0E82F41
:100C6000F0E0E35AFC4F90838093BA031092BB03E9
:100C7000809121018F7B8093210110925C03FF9171
:100C8000EF919F918F912F910F900BBE0F900FBE00
:100C90000F901F9018951F920F920FB60F9211246C
:100CA0000BB60F922F933F934F935F936F937F9366
:100CB0008F939F93AF93BF93EF93FF938091260100
:100CC0009091270140915C0320912101442331F050
:100CD0002F7B2093210110925C0306C02064209397
:100CE000210120E820935C033091BB03311125C022
:100CF00041116CC02091BC033091BD03280F391FF6
:100D000030932B0120932A0124E02ABB2091730009
:100D10002460209373002091BE033091BF03820FA3
:100D2000931F36952795820F931F90935A038093B4
:100D3000590381E08093BB0349C04091590350910E
:100D40005A036091BE037091BF03DB01A095B0957B
:100D5000E0915C0320915B03841B950BA817B907F6
:100D600068F126952E2B460F571F3F5F861B970B6A
:100D70003930A0F320935B03809173008B7F8093C5
:100D800073008091BA038F5F803508F080E0909106
:100D9000B903891749F0E82FF0E090915B03E35A1B
:100DA000FC4F90838093BA03809121018F7B8093C5
:100DB000210110925C031092BB0308C020935B03D7
:100DC00050935A03409359033093BB03FF91EF9123
:100DD000BF91AF919F918F917F916F915F914F9153
:100DE0003F912F910F900BBE0F900FBE0F901F9051
:100DF00018951F920F920FB60F9211240BB60F92F7
:100E00002F933F934F935F936F937F938F939F9312
:100E1000EF93FF938091B8036091580320912801CC
:100E2000309129014091BE035091BF039091570327
:100E30008A30F8F4240F351F893019F0762F71703D
:100E400001C071E066958F5F791791F39091200151
:100E5000772311F0906C02C09F73906890932001EB
:100E6000309329012093280170935703609358030E
:100E70004AC09091B703E091B6039E1319C08A301F
:100E800051F48BE08093B803240F351F3093290170
:100E9000209328013AC01092B803809120018F73EB
:100EA00080932001809173008D7F809373002DC00B
:100EB000EF5FE43408F0E0E0E093B603F0E0ED5ECD
:100EC000FC4F90819093580310925703909120010A
:100ED0009F739068909320018A3059F48091BE03EB
:100EE0009091BF03280F391F3093290120932801C7
:100EF00009C0809124019091250140969093290189
:100F00008093280181E08093B803FF91EF919F9136
:100F10008F917F916F915F914F913F912F910F90A2
:100F20000BBE0F900FBE0F901F901895CF92DF92BF
:100F3000EF92FF9260E08AE20E94391258DC6B0166
:100F40007C018091060390910703A0910803B09162
:100F50000903A7019601281B390B4A0B5B0BDA0129
:100F6000C90180339547A105B10560F061E08AE2CF
:100F70000E943912C0920603D0920703E092080340
:100F8000F0920903FF90EF90DF90CF900895CF92F9
:100F9000DF92EF92FF92CF93DF93C0910402D09142
:100FA0000502C336D10509F073C080910202909109
:100FB0000302019799F51BDC6B017C016FEF70E078
:100FC00089E00E9468128091020390910303A0912E
:100FD0000403B0910503A7019601281B390B4A0BA6
:100FE0005B0BCA01B9010E94811D2CEF32EF48ED65
:100FF0005EE30E94A72087FD11C06FE770E089E0E3
:101000000E946812C0920203D0920303E09204038C
:10101000F0920503D0930302C09302028091020272
:1010200090910302029789F5E2DB6B017C0160E09D
:1010300070E089E00E9468128091FE029091FF02A8
:10104000A0910003B0910103A7019601281B390B61
:101050004A0B5B0BCA01B9010E94811D2CEF32EFD4
:1010600048ED5EE30E94A72087FD4BC06FE770E06C
:1010700089E00E94681210920E03C092FE02D09284
:10108000FF02E0920003F092010383E690E035C096
:10109000C130D105B9F48091020290910302029708
:1010A00059F483E690E090930502809304026FDF89
:1010B000D0930502C09304021CDCD0930302C093BA
:1010C00002021FC0C230D105E1F48091020290916A
:1010D0000302019759F483E690E090930502809310
:1010E000040255DFD0930502C093040280910E03E1
:1010F000811101C088DB82E090E09093030280932D
:101100000202DF91CF91FF90EF90DF90CF90089592
:101110008F929F92AF92BF92CF92DF92EF92FF9207
:101120006B017C0164DB4B015C018DEF94E0BED967
:10113000892B31F08DEF94E0DBD90E942D16F5CF8D
:1011400026DF55DBDC01CB0188199909AA09BB0907
:101150008C159D05AE05BF0540F3FF90EF90DF9025
:10116000CF90BF90AF909F908F900895BC018CE07E
:101170000C9468128091E2029091E3022091CA03DC
:101180003091CB03821B930B8C342FEF920714F416
:1011900088599E4F9093E1028093E0028091E00293
:1011A0009091E102853B910534F0885691409093EF
:1011B000E1028093E0028091E0029091E1029C01C3
:1011C0002B5F3F4F2B30310518F483E690E008C0C9
:1011D0008F3F9F4F1CF481E090E002C082E090E0DE
:1011E00090930502809304020895CF92DF92EF92CC
:1011F000FF920F931F93CF93DF938091D40290912E
:10120000D5028C3E910534F080EF90E09093D502AA
:101210008093D4028091D2029091D3028C3E9105AA
:1012200034F080EF90E09093D3028093D20260E09C
:1012300082E20E94391283E090E00197F1F761E0C9
:1012400082E20E94391283E290E00197F1F760E0B8
:1012500082E20E94391283E2CDD76C3C26E072070D
:101260008105910524F46CEC76E080E090E00E942A
:10127000831D2EE835E741E95FE30E94E21D20E08F
:1012800030E044E952E40E94B01F20E030E040E04A
:101290005FE30E94E21D0E9418206B017C010E9406
:1012A000831D2DEC3CEC41E353E40E947D1D87FF40
:1012B00004C081E08093C50302C01092C503D7012A
:1012C000C6014497A109B109853422E09207A1051E
:1012D000B10530F48997A105B10508F4D9DA860182
:1012E0001093C9030093C80360E084E20E9439129E
:1012F00083E090E00197F1F761E084E20E94391207
:1013000083E290E00197F1F760E084E20E943912F5
:1013100085E270D76C3C26E072078105910524F4C4
:101320006CEC76E080E090E00E94831D2EE835E7CB
:1013300041E95FE30E94E21D20E030E044E952E42D
:101340000E94B01F20E030E040E05FE30E94E21D19
:101350000E9418206B017C010E94831D2DEC3CEC47
:1013600041E353E40E947D1D87FF03C01092C40334
:1013700003C081E08093C403D701C6014497A1094B
:10138000B109853422E09207A105B10530F48997AF
:10139000A105B10508F47CDAE601D093C703C09338
:1013A000C603DF91CF911F910F91FF90EF90DF90D7
:1013B000CF900895CF92DF92EF92FF9210920A059C
:1013C00060910B0570910C0580E090E00E94811DFA
:1013D0006B017C0160910D0570910E0580910F05E8
:1013E000909110050E94811D28E23BE64EE65EE4E6
:1013F0000E94B01F9B01AC01C701B6010E94E71E0D
:1014000020911105DC01CB012111B0588093EA0233
:101410009093EB02A093EC02B093ED026091120561
:101420007091130580E090E00E94811D6B017C01AA
:10143000609114057091150580911605909117051E
:101440000E94811D28E23BE64EE65EE40E94B01F4A
:101450009B01AC01C701B6010E94E71E209118054F
:10146000DC01CB012111B0588093E6029093E70292
:10147000A093E802B093E9021092560505D0FF90C0
:10148000EF90DF90CF908CC84F925F926F927F92D7
:101490008F929F92AF92BF92CF92DF92EF92FF9284
:1014A000CF93DF93CDB7DEB760970FB6F894DEBF6A
:1014B0000FBECDBF2091DC023091DD024091DE02F3
:1014C0005091DF026091E6027091E7028091E8029C
:1014D0009091E9020E94E61E25E33AEF4EE85CE3B4
:1014E0000E94E21D6B017C010E94B2206D877E8705
:1014F0008F87988BC701B6010E94AD1F69837A83DD
:101500008B839C8325E33AEF4EE85CE36091EA022B
:101510007091EB028091EC029091ED020E94E21D2D
:101520006B017C0125E33AEF4EE85CE36091D80261
:101530007091D9028091DA029091DB020E94E21D43
:101540002B013C01C701B6010E94B2204B015C0196
:10155000C701B6010E94AD1F6D837E838F8398877C
:10156000C301B2010E94B22069877A878B879C876A
:10157000C301B2010E94AD1F6B017C0129853A8530
:101580004B855C856D817E818F8198850E94E21DEF
:101590002B013C01A7019601C501B4010E94E21D87
:1015A00029813A814B815C810E94E21D9B01AC0143
:1015B000C301B2010E94E61E9B01AC010E94E21D24
:1015C0002B013C012D853E854F855889C701B60109
:1015D0000E94E21D9B01AC010E94E21D9B01AC0137
:1015E000C301B2010E94E71E0E94BC202B013C01F6
:1015F00029853A854B855C85C501B4010E94E21DB1
:101600004B015C01A70196016D817E818F819885D8
:101610000E94E21D29813A814B815C810E94E21D7A
:101620009B01AC01C501B4010E94E71E9B01AC0106
:10163000C301B2010E945A1F26E73BE742EC5AE47D
:101640000E94E21D0E941D2028EE33E040E050E0A1
:101650000E94A51E49015A01263031054105510558
:1016600008F05AC0E0900002F0900102EFEFEE1A8D
:10167000FE0AF0920102E0920002F70183E0EE0F11
:10168000FF1F8A95E1F7EA54FA4F648175818681DC
:1016900097816093D8027093D9028093DA02909375
:1016A000DB0240805180628073804092DC02509265
:1016B000DD026092DE027092DF0220E030E0A901DC
:1016C0000E947D1D811109C020E030E0A901C30105
:1016D000B2010E947D1D882321F0F5E0EF16F10490
:1016E0007CF06FE770E089E0F3D683E690E09093BA
:1016F0000502809304026FE770E08CE0E9D6FFCF2B
:1017000059DEC2DE9093E5028093E4029093D70203
:101710008093D6020E94D002C40160960FB6F8945E
:10172000DEBF0FBECDBFDF91CF91FF90EF90DF9076
:10173000CF90BF90AF909F908F907F906F905F9071
:101740004F9008950F931F93CF93DF931F921F9293
:10175000CDB7DEB78091F20281110CC048D86093FA
:10176000EE027093EF028093F0029093F10281E019
:101770008093F2023CD80091EE021091EF0220918A
:10178000F0023091F102601771078207930740F46D
:101790006093EE027093EF028093F0029093F10257
:1017A00067E472E088E194E052D51092720580916E
:1017B0007705909178050E94231584E892E00E94B5
:1017C00002156091EA027091EB028091EC02909117
:1017D000ED0242E00E945E158CE792E00E94021545
:1017E0006091E6027091E7028091E8029091E9022F
:1017F00042E00E945E1566E872E088E194E027D539
:1018000063E572E088E194E022D5E0910002F09176
:10181000010283E0EE0FFF1F8A95E1F7EA54FA4FC9
:10182000648175818681978142E00E945E1583E71D
:1018300092E00E940215E0910002F091010293E013
:10184000EE0FFF1F9A95E1F7EA54FA4F608171811C
:101850008281938142E00E945E1566E872E088E131
:1018600094E0F5D48AE692E00E9402150DDE0E9413
:10187000231588E592E00E9402158091E402909180
:10188000E5020E94231584E492E00E94021566E8B6
:1018900072E088E194E0DBD48091CA039091CB039D
:1018A0000E94231586E392E00E9402158091C803EE
:1018B0009091C9030E94C61486E292E00E9402152C
:1018C0008091C6039091C7030E94C6148EE192E0F6
:1018D0000E94021580910602909107020E94231532
:1018E00082E192E00E9402158091E2029091E3026F
:1018F0000E94231585E092E00E9402158091CA03A0
:101900009091CB030E9423158AEF91E00E9402156B
:101910008091E0029091E1020E94C6148BEE91E06A
:101920000E94021580910402909105028336910570
:1019300019F483E692E00AC08230910519F48CE62E
:1019400092E004C0019719F482E792E093D688ED03
:1019500091E00E9402158091020290910302833669
:10196000910519F483E692E00AC08230910519F4DA
:101970008CE692E004C0019719F482E792E07AD6EF
:101980008AEC91E00E9402152091E2053091E30576
:101990002115310511F426EE35E0CE010196821BAA
:1019A000930BF4D70F900F90DF91CF911F910F9170
:1019B00008951F920F920FB60F9211240BB60F923B
:1019C0002F933F934F935F936F937F938F939F9347
:1019D000AF93BF93CF93EF93FF9320910601C091F4
:1019E000E0039091150480911204322F30958323E7
:1019F0009223892B90916D00C227C923C82320937D
:101A0000E003CC23C1F1C0FF05C0E091E103F091F8
:101A1000E2031995C1FF05C0E091E303F091E403EF
:101A20001995C2FF05C0E091E503F091E603199511
:101A3000C3FF05C0E091E703F091E8031995C4FFE7
:101A400005C0E091E903F091EA031995C5FF05C0CF
:101A5000E091EB03F091EC031995C6FF05C0E0910E
:101A6000ED03F091EE031995C7FF05C0E091EF0378
:101A7000F091F0031995FF91EF91CF91BF91AF9144
:101A80009F918F917F916F915F914F913F912F9196
:101A90000F900BBE0F900FBE0F901F9018951F92C6
:101AA0000F920FB60F9211240BB60F922F933F9304
:101AB0004F935F936F937F938F939F93AF93BF9356
:101AC000CF93EF93FF9320910301C091F203909184
:101AD000160480911304322F309583239223892B8F
:101AE0009091F103C227C923C8232093F203CC238A
:101AF00089F1C0FF05C0E091F303F091F40319955B
:101B0000C1FF05C0E091F503F091F6031995C2FFFE
:101B100005C0E091F703F091F8031995C3FF05C0E4
:101B2000E091F903F091FA031995C4FF05C0E09123
:101B3000FB03F091FC031995C5FF05C0E091FD037F
:101B4000F091FE031995C6FF05C0E091FF03F091E7
:101B500000041995FF91EF91CF91BF91AF919F91A3
:101B60008F917F916F915F914F913F912F910F9046
:101B70000BBE0F900FBE0F901F9018951F920F92E3
:101B80000FB60F9211240BB60F922F933F934F93E2
:101B90005F936F937F938F939F93AF93BF93CF93F5
:101BA000EF93FF9323B1C0910104909117048091AA
:101BB0001404322F309583239223892B90916B004C
:101BC000C227C923C82320930104CC23C1F1C0FF3D
:101BD00005C0E0910204F09103041995C1FF05C00E
:101BE000E0910404F09105041995C2FF05C0E0914D
:101BF0000604F09107041995C3FF05C0E09108049D
:101C0000F09109041995C4FF05C0E0910A04F09110
:101C10000B041995C5FF05C0E0910C04F0910D046B
:101C20001995C6FF05C0E0910E04F0910F041995B7
:101C3000C7FF05C0E0911004F09111041995FF91C0
:101C4000EF91CF91BF91AF919F918F917F916F91C4
:101C50005F914F913F912F910F900BBE0F900FBE50
:101C60000F901F9018951F920F920FB60F9211248C
:101C70000BB60F922F933F934F935F936F937F9386
:101C80008F939F93AF93BF93EF93FF93E091DE0306
:101C9000F091DF031995FF91EF91BF91AF919F9163
:101CA0008F917F916F915F914F913F912F910F9005
:101CB0000BBE0F900FBE0F901F9018951F920F92A2
:101CC0000FB60F9211240BB60F922F933F934F93A1
:101CD0005F936F937F938F939F93AF93BF93EF9394
:101CE000FF93E091DC03F091DD031995FF91EF91F3
:101CF000BF91AF919F918F917F916F915F914F9124
:101D00003F912F910F900BBE0F900FBE0F901F9021
:101D100018951F920F920FB60F9211240BB60F92C7
:101D20002F933F934F935F936F937F938F939F93E3
:101D3000AF93BF93EF93FF93E091DA03F091DB034E
:101D40001995FF91EF91BF91AF919F918F917F91E5
:101D50006F915F914F913F912F910F900BBE0F901C
:101D60000FBE0F901F9018951F920F920FB60F92F3
:101D700011240BB60F922F933F934F935F936F9362
:101D80007F938F939F93AF93BF93EF93FF93E091D4
:101D9000D803F091D9031995FF91EF91BF91AF91BD
:101DA0009F918F917F916F915F914F913F912F9173
:101DB0000F900BBE0F900FBE0F901F9018951F92A3
:101DC0000F920FB60F9211240BB60F922F933F93E1
:101DD0004F935F936F937F938F939F93AF93BF9333
:101DE000EF93FF93E091D603F091D7031995FF91FC
:101DF000EF91BF91AF919F918F917F916F915F9183
:101E00004F913F912F910F900BBE0F900FBE0F90EF
:101E10001F9018951F920F920FB60F9211240BB6B8
:101E20000F922F933F934F935F936F937F938F9373
:101E30009F93AF93BF93EF93FF93E091D403F091FF
:101E4000D5031995FF91EF91BF91AF919F918F911C
:101E50007F916F915F914F913F912F910F900BBEAA
:101E60000F900FBE0F901F9018951F920F920FB6F4
:101E70000F9211240BB60F922F933F934F935F93C2
:101E80006F937F938F939F93AF93BF93EF93FF9342
:101E9000E091D203F091D3031995FF91EF91BF9197
:101EA000AF919F918F917F916F915F914F913F91F2
:101EB0002F910F900BBE0F900FBE0F901F90189593
:101EC0001F920F920FB60F9211240BB60F922F9301
:101ED0003F934F935F936F937F938F939F93AF93B2
:101EE000BF93EF93FF93E091D003F091D103199545
:101EF000FF91EF91BF91AF919F918F917F916F91E2
:101F00005F914F913F912F910F900BBE0F900FBE9D
:101F10000F901F901895CF92DF92EF92FF920F9340
:101F20001F93CF93DF936C017A018B01C0E0D0E067
:101F3000CE15DF0589F0D8016D918D01D601ED91A7
:101F4000FC910190F081E02DC6011995892B11F4C7
:101F50007E0102C02196ECCFC701DF91CF911F9186
:101F60000F91FF90EF90DF90CF900895FC01538D7B
:101F7000448D252F30E0842F90E0821B930B541763
:101F800010F0CF96089501970895FC01918D828DF0
:101F9000981761F0828DDF01A80FB11D5D968C91BD
:101FA000928D9F5F9F73928F90E008958FEF9FEFC8
:101FB0000895FC01918D828D981731F0828DE80F84
:101FC000F11D858D90E008958FEF9FEF0895FC013E
:101FD000918D228D892F90E0805C9F4F821B91090B
:101FE0008F739927089588E194E0F1DF21E0892B30
:101FF00009F420E0822F0895FC01848DDF01A80FF1
:10200000B11DA35ABF4F2C91848D90E001968F7320
:102010009927848FA689B7892C93A089B1898C913F
:1020200080648C93938D848D981306C00288F38905
:10203000E02D80818F7D80830895EF92FF920F9332
:102040001F93CF93DF93EC0181E0888F9B8D8C8D64
:10205000981305C0E889F989808185FD23C0F62E93
:102060000B8D10E00F5F1F4F0F731127E02E8C8D2B
:10207000E8120BC00FB607FCFACFE889F989808116
:1020800085FFF5CFCE01B8DFF2CF8B8DFE01E80FD3
:10209000F11DE35AFF4FF0820B8FEA89FB898081A3
:1020A000806207C0EE89FF896083E889F9898081B1
:1020B0008064808381E090E0DF91CF911F910F9148
:1020C000FF90EF900895CF93DF93EC01888D8823E4
:1020D000C1F0EA89FB89808185FD05C0A889B9899D
:1020E0008C9186FD0EC00FB607FCF5CF808185FF71
:1020F000F2CFA889B9898C9185FFEDCFCE017CDF25
:10210000E8CFDF91CF91089580E090E0892B19F01E
:102110006ADF811125C080E090E0892B41F080E0EA
:1021200090E0892B21F00E94000081111CC080E00A
:1021300090E0892B41F080E090E0892B21F00E9413
:102140000000811113C080E090E0892BA1F080E0B5
:1021500090E0892B81F00E94000081110AC008954F
:102160000E940000D8CF0E940000E1CF0E94000032
:10217000EACF0C9400000895CF93DF9390E0FC0128
:10218000ED54FC4F2491FC01E359FC4F84918823CA
:1021900061F190E0880F991FFC01E457FD4FC59154
:1021A000D491FC01EA55FD4FA591B491611109C08C
:1021B0009FB7F8948881209582238883EC912E2301
:1021C0000BC0623061F49FB7F8943881822F8095FC
:1021D00083238883EC912E2B2C939FBF06C08FB74F
:1021E000F894E8812E2B28838FBFDF91CF9108953B
:1021F0000E942F210F931F9390E0FC01ED54FC4FA0
:102200006491FC01E359FC4FE491F0E0EE0FFF1FF5
:10221000EA5FFC4F8591949100E412E42FE030E0F6
:10222000462F0E942819611571058105910549F015
:10223000DC01CB010196A11DB11DBC01CD019F7038
:1022400003C060E070E0CB011F910F91089561150C
:10225000710579F0FB0101900020E9F73197AF019A
:10226000461B570BDC01ED91FC910280F381E02DC0
:10227000199480E090E008954F925F926F927F9260
:10228000EF92FF920F931F93CF93DF93CDB7DEB7FB
:10229000A1970FB6F894DEBF0FBECDBF7C01FA0147
:1022A000CB0119A2223008F42AE08E010F5D1F4FE6
:1022B000422E512C612C712CBF01A30192010E946E
:1022C000A51EF901CA01015011096A3014F4605DBC
:1022D00001C0695CD8016C93232B242B252B61F75B
:1022E000B801C701B4DFA1960FB6F894DEBF0FBEE8
:1022F000CDBFDF91CF911F910F91FF90EF907F9015
:102300006F905F904F9008951F920F920FB60F92AB
:1023100011240BB60F922F933F934F935F936F93BC
:102320007F938F939F93AF93BF93EF93FF9388E136
:1023300094E062DEFF91EF91BF91AF919F918F91F9
:102340007F916F915F914F913F912F910F900BBEB5
:102350000F900FBE0F901F9018951F920F920FB6FF
:102360000F9211240BB60F922F938F939F93EF939D
:10237000FF93E0912804F09129048081E0912E04DC
:10238000F0912F0482FD12C09081809131048F5F03
:102390008F7320913204821751F0E0913104F0E004
:1023A000E85EFB4F958F8093310401C08081FF91DF
:1023B000EF919F918F912F910F900BBE0F900FBEB9
:1023C0000F901F90189590E0FC013197E231F105D4
:1023D00008F04EC08827EE58FF4F8F4F0C942721EE
:1023E000809180008F7703C0809180008F7D8093E3
:1023F0008000089580918000877FF9CF84B58F7722
:1024000002C084B58F7D84BD08958091B0008F7720
:1024100003C08091B0008F7D8093B00008958091BB
:1024200090008F7707C0809190008F7D03C08091CE
:102430009000877F8093900008958091A0008F770F
:1024400007C08091A0008F7D03C08091A000877F8E
:102450008093A0000895809120018F7707C080911C
:1024600020018F7D03C080912001877F8093200110
:1024700008951F93CF93DF93282F30E0F901E054A4
:10248000FD4F8491F901ED54FC4FD491F901E359CA
:10249000FC4FC491CC23C1F0162F811194DFEC2F97
:1024A000F0E0EE0FFF1FEA55FD4FA591B4918FB7F5
:1024B000F894111105C09C91ED2FE095E92302C01D
:1024C000EC91ED2BEC938FBFDF91CF911F9108958D
:1024D0001F93CF93DF93182FEB0161E04DDE209720
:1024E00011F460E004C0CF3FD10531F461E0812FE9
:1024F000DF91CF911F91BDCFE12FF0E0E054FD4F70
:10250000E4914E2F50E0FA013197E231F10508F0E5
:102510009DC08827EC57FF4F8F4F0C94272184B51F
:10252000806884BDC7BD97C084B5806284BDC8BDC6
:1025300092C080918000806880938000D093890051
:10254000C093880088C08091800080628093800062
:10255000D0938B00C0938A007EC0809180008860F9
:1025600080938000D0938D00C0938C0074C08091C4
:10257000B00080688093B000C093B3006CC08091BD
:10258000B00080628093B000C093B40064C08091BA
:102590009000806880939000D0939900C093980039
:1025A0005AC080919000806280939000D0939B00ED
:1025B000C0939A0050C080919000886080939000F2
:1025C000D0939D00C0939C0046C08091A00080687D
:1025D0008093A0008091A0008F7B8093A000D09377
:1025E000A900C093A80037C08091A00080628093AA
:1025F000A000D093AB00C093AA002DC08091A00092
:1026000088608093A000D093AD00C093AC0023C03D
:1026100080912001806880932001D0932901C0938C
:10262000280119C080912001806280932001D093FD
:102630002B01C0932A010FC08091200188608093F4
:102640002001D0932D01C0932C0105C0C038D105C5
:102650000CF04CCF46CFDF91CF911F910895E091C0
:102660001804F09119040190F081E02D682F88E1A1
:1026700094E01994CF93DF93BC0188E194E0E7DD07
:10268000EC0166E872E088E194E0E1DD8C0F9D1FCB
:10269000DF91CF910895E8E1F4E0A089B18982E06B
:1026A0008C93A485B5851C92A685B78580E18C9313
:1026B000108EA489B58986E08C93A289B3898C9108
:1026C00080618C93A289B3898C9188608C93A28954
:1026D000B3898C9180688C930288F389E02D808186
:1026E0008F7D808308958F779EEF980F923008F446
:1026F000A4C095EB980F923008F49FC09EEE980FFF
:10270000943008F49AC0282F30E0F901863420F084
:10271000E355FC4F849116C0ED54FC4F8491F901B0
:10272000E359FC4F9491923059F440911704482B8F
:102730004093170440911404482B409314041AC08A
:102740009A3061F490911604982B9093160490910E
:102750001304982B909313049AE00CC09B3051F40F
:1027600040911504482B4093150440911204482BC6
:1027700040931204F901E05EFC4FA4919230C1F441
:10278000B0E0AA0FBB1FAE5FBB4F6D937C93EAE036
:10279000F3E0A591B4919C91909301042BE630E075
:1027A0003093E1052093E0059091680091603BC073
:1027B0009A3001F5B0E0AA0FBB1FAD50BC4F6D932E
:1027C0007C93EAE1F3E0A591B4919C919093F2039C
:1027D0002CE630E03093E1052093E005909168000D
:1027E0009260909368009091F103982B9093F1037D
:1027F000880F1BC09B30C9F4B0E0AA0FBB1FAF51BC
:10280000BC4F6D937C93ECE1F3E0A591B4919C9166
:102810009093E0032DE630E03093E1052093E0054E
:1028200090916800946090936800A091E005B09149
:10283000E105EC918E2B8C9308959FB7F89483312A
:1028400009F45BC0D8F4833009F47BC0823109F409
:1028500066C0823009F098C07093D9036093D803A2
:10286000EC9880916A008C7F80936A0080916A0066
:10287000816080936A00E49AEC9A86C08531C9F041
:1028800050F18B3409F46FC08C3409F07DC0709323
:10289000DF036093DE03EF9880916A008F7380936B
:1028A0006A0080916A00806480936A00E79AEF9AD8
:1028B0006BC07093D1036093D003E8988091690056
:1028C0008C7F8093690080916900816080936900AA
:1028D000E09AE89A59C07093D3036093D203E998C1
:1028E00080916900837F8093690080916900846092
:1028F00080936900E19AE99A47C07093D503609389
:10290000D403EA98809169008F7C8093690080915C
:102910006900806180936900E29AEA9A35C07093F9
:10292000D7036093D603EB98809169008F738093EF
:10293000690080916900806480936900E39AEB9A52
:1029400023C07093DB036093DA03ED9880916A00F3
:10295000837F80936A0080916A00846080936A001C
:10296000E59AED9A11C07093DD036093DC03EE9855
:1029700080916A008F7C80936A0080916A008061F8
:1029800080936A00E69AEE9A9FBF08950F931F9373
:10299000CF93DF9300D01F92CDB7DEB7AC01990F74
:1029A000660B770B77FF19C08DE249835A836B83DF
:1029B0007C8355DE8C0149815A816B817C817095C5
:1029C0006095509541955F4F6F4F7F4F2AE088E1AA
:1029D00094E052DC080F191F05C02AE088E194E05A
:1029E0004BDC8C0166E872E088E194E030DC800F1B
:1029F000911F0F900F900F900F90DF91CF911F912B
:102A00000F9108950F931F93CF93DF938C01C0E034
:102A1000D0E0F801EC0FFD1F6491662371F0E091A6
:102A20001804F09119040190F081E02D88E194E000
:102A30001995892B11F02196ECCFCE01DF91CF9122
:102A40001F910F9108950F931F93CF93DF9300D0A1
:102A50001F92CDB7DEB7AC01990F660B770B77FFEE
:102A600021C08DE249835A836B837C83F8DD8C011E
:102A700049815A816B817C81709560955095419513
:102A80005F4F6F4F7F4F2AE088E194E0F5DB800FC6
:102A9000911F0F900F900F900F90DF91CF911F918A
:102AA0000F9108952AE088E194E00F900F900F9025
:102AB0000F90DF91CF911F910F91DECB4F925F92DC
:102AC0006F927F928F929F92AF92BF92CF92DF923E
:102AD000EF92FF926B017C01B42E9B01AC010E942E
:102AE000FD20882319F065EA72E026C0260137012F
:102AF000E89477F82FEF3FEF4FE75FE7C301B201AC
:102B00000E94FD2081110CC02FEF3FEF4FE75FE7E0
:102B1000C301B201F2D718161CF469EA72E00CC0C6
:102B20002FEF3FEF4FE75FE4C701B6010E94A720F8
:102B300018168CF46DEA72E088E194E0FF90EF9053
:102B4000DF90CF90BF90AF909F908F907F906F90CD
:102B50005F904F907CCB2FEF3FEF4FE75FECC701CB
:102B6000B601CBD787FDE6CF20E030E0A901C70151
:102B7000B601C3D787FF08C08DE271DD4C01F7FABB
:102B8000F094F7F8F09402C0812C912CA12C60E015
:102B900070E080E09FE3AB1441F020E030E040E2E1
:102BA00051E40E94B01FA394F6CF9B01AC01C70172
:102BB000B6010E94E71E2B013C010E941D206B0103
:102BC0007C019FD79B01AC01C301B2010E94E61EAC
:102BD0002B013C012AE0B701A60188E194E04CDB1F
:102BE0007C01E80CF91CBB2021F08EE238DDE80EF8
:102BF000F91EDB2CDD2019F120E030E040E251E449
:102C0000C301B201DFD72B013C010E941D204B0103
:102C1000A12CB12C2AE0B501A40188E194E02CDBC1
:102C2000E80EF91EC501B4016CD79B01AC01C301CC
:102C3000B2010E94E61E2B013C01DA94DBCFC701F2
:102C4000FF90EF90DF90CF90BF90AF909F908F90CC
:102C50007F906F905F904F900895EF92FF920F9347
:102C60001F93CF93DF934091A6055091A7056091E4
:102C7000A8057091A9054F5F5F4F6F4F7F4F40933D
:102C8000A6055093A7056093A8057093A905843203
:102C900009F4A4C2E091A005853234F48A3071F0C1
:102CA0008D3009F0A9C20AC08A3241F08C3209F095
:102CB000A3C290918D05982790938D05082FEF3032
:102CC00008F074C1F0E0E157FA4F108280918E0550
:102CD000882309F46DC120918F053FEB320F822FBD
:102CE000022E000C990B363010F4C79707C02156FE
:102CF000263018F48755910901C0C097282F2295D6
:102D0000207F309190054FEB430F832F032E000C53
:102D1000990B463010F4C79707C03156363018F477
:102D20008755910901C0C097820F90918D05891335
:102D30002AC18091B2059091B305A091B405B091DC
:102D4000B5050196A11DB11D8093B2059093B30501
:102D5000A093B405B093B5058091A105882399F09F
:102D60008091AA059091AB05A091AC05B091AD05FD
:102D70000196A11DB11D8093AA059093AB05A09368
:102D8000AC05B093AD0510919E05112309F46BC0FD
:102D9000113009F0D2C08091310590913205A09197
:102DA0003305B091340580932D0590932E05A093A3
:102DB0002F05B09330050E94F7036093350570939B
:102DC0003605809337059093380510932C051093A2
:102DD0002B0580913F0590914005A0914105B09150
:102DE000420580933B0590933C05A0933D05B0932D
:102DF0003E050E94F703609343057093440580935A
:102E000045059093460510933A0510933905809136
:102E1000A105882309F491C087E0E9E1F5E0ABE082
:102E2000B5E001900D928A95E1F787E0E0E2F5E0E8
:102E3000A2E1B5E001900D928A95E1F70E94F703B7
:102E400060932705709328058093290590932A05A0
:102E500010930A051093090587E495E00E94070581
:102E600085E595E068C080913F0590914005A0916F
:102E70004105B091420580933B0590933C05A0939A
:102E80003D05B0933E050E94F703609343057093A0
:102E90004405809345059093460511E010933A054B
:102EA000109339058091A105882321F187E0E9E19C
:102EB000F5E0ABE0B5E001900D928A95E1F787E08F
:102EC000E0E2F5E0A2E1B5E001900D928A95E1F72C
:102ED0000E94F703609327057093280580932905C6
:102EE00090932A0510930A051093090583E695E04F
:102EF0000E94070580917B0590917C05A0917D053E
:102F0000B0917E058093770590937805A09379051D
:102F1000B0937A050E94F70360937305709374056C
:102F2000809375059093760581E080937205809378
:102F300071058FE795E00E940705C091A405D09127
:102F4000A50511E0209709F43AC1E091A405F0919C
:102F5000A50566A177A18EA19FA10E943321892B8F
:102F600009F02DC1BE01CE0140960E943C210E9475
:102F7000F70368A379A38AA39BA31DA31CA30AA498
:102F8000DBA5C02DDFCF8091AE059091AF05A0915C
:102F9000B005B091B1050196A11DB11D8093AE059C
:102FA0009093AF05A093B005B093B10590E008C130
:102FB00080919F05811142C061EB72E08FE895E03E
:102FC0000E943321892B41F067EB72E08FE895E096
:102FD0000E943321892B11F481E014C06DEB72E063
:102FE0008FE895E00E943321892B41F063EC72E079
:102FF0008FE895E00E943321892B19F410929E05E9
:1030000003C082E080939E058091A2059091A30564
:103010009093A5058093A405C091A405D091A50522
:10302000209721F2EEA0FFA06FE875E0C7010E9493
:10303000332197FFF7C08AA59BA5EACFE0919E05B3
:10304000E23009F491C090918F05992309F48CC066
:1030500020E2E29FF0011124E82B3197E932F105DB
:1030600008F082C08827EA56FF4F8F4F0C94272123
:103070008FE895E00E94A50560933F057093400599
:1030800080934105909342056FC081E0913409F02F
:1030900042C042C069E175E009C081E0933509F0A2
:1030A00080E080931F0560C060E275E08FE895E0E6
:1030B0000E941D0559C081E0973509F080E080939A
:1030C000260552C08FE895E00E94A5056093510542
:1030D00070935205809353059093540545C08FE833
:1030E00095E00E94A50560935F057093600580934D
:1030F00061059093620538C08FE895E0C3D4609372
:1031000031057093320580933305909334052CC0BC
:1031100081E091330CF480E08093A10525C08FE815
:1031200095E0B0D460937B0570937C0580937D051A
:1031300090937E0519C08FE895E00E94A5056093E5
:10314000890570938A0580938B0590938C050CC03C
:103150008FE895E00E94A50560936D0570936E055C
:1031600080936F0590937005C091A405D091A5053B
:10317000209709F41BCFE091A405F091A50566A165
:1031800077A18EA19FA10E943321892B09F00ECF38
:1031900028A539A580919F0590E0821793070CF42C
:1031A00005CF2817390739F440E150E06FE875E0A2
:1031B000CE010E9443210AA4DBA5C02DD9CF91E006
:1031C00080919F058F5F80939F051092A00581E0FD
:1031D0000A3209F080E080938E0532C01092A0057B
:1031E00010929F0510928D0582E080939E051092AB
:1031F0008E051092A10514C0EE3040F491E09E0FB0
:103200009093A005F0E0E157FA4F808390918E05EE
:10321000911106C020918D05822780938D0510C0E5
:1032200090E00EC06FE875E0C7010E9433211816C8
:1032300019060CF0BBCE1092A5051092A405B6CECF
:10324000892FDF91CF911F910F91FF90EF900895FB
:10325000CF92DF92EF92FF920F931F93E82FF92FF7
:1032600005C0015011092109310961F190819623AE
:103270009417B9F305C0015011092109310911F161
:10328000908196239413F7CFC12CD12CE12CF12CF3
:103290000AC08FEFC81AD80AE80AF80A0C151D05EB
:1032A0002E053F0579F080818623841791F36C2DDC
:1032B0007D2D8E2D9F2D1F910F91FF90EF90DF9010
:1032C000CF90089560E070E080E090E01F910F9152
:1032D000FF90EF90DF90CF9008958EE192E0909371
:1032E000FE048093FD04809173008B7F80937300B4
:1032F000809173008F7D809373008091B9038093D8
:10330000BA038091B8038111FCCF809173008D7F47
:10331000809373000895789484B5826084BD84B5E9
:10332000816084BD85B5826085BD85B5816085BDC0
:1033300080916E00816080936E0010928100809178
:103340008100826080938100809181008160809300
:103350008100809180008160809380008091B10025
:1033600084608093B1008091B00081608093B00050
:1033700080919100826080939100809191008160A2
:103380008093910080919000816080939000809163
:10339000A10082608093A1008091A1008160809350
:1033A000A1008091A00081608093A0008091210104
:1033B00082608093210180912101816080932101AD
:1033C0008091200181608093200180917A00846047
:1033D00080937A0080917A00826080937A00809155
:1033E0007A00816080937A0080917A00806880936F
:1033F0007A001092C1001092F9041092FA0410920F
:10340000FB041092FC041092B7041092B8041092BE
:10341000B9041092BA040E94F7036B017C014B01BE
:103420005C0188EB880E8BE0981EA11CB11C0E94E9
:10343000F7036C157D058E059F0528F08616970607
:10344000A806B906A0F788E194E09093F804809369
:10345000F70421D90E94F7036093B7047093B8046E
:103460008093B9049093BA0467E772E08091F704FF
:103470009091F8040E9427110E94F7036B017C01D0
:103480004B015C018AE0880E911CA11CB11C0E94BA
:10349000F7036C157D058E059F0528F086169706A7
:1034A000A806B906A0F781E08093CB0489E892E0F2
:1034B000E1D860E08BE30E94BC1060E08AE30E94E8
:1034C000BC1060E082E40E94BC1060E083E40E94D3
:1034D000BC1064EF73E082E406D961EF73E083E42B
:1034E00002D961E082E20E94BC1060E083E20E94A7
:1034F000BC1061E084E20E94BC1060E085E20E94A2
:10350000BC1060E089E30E94BC1061E085E00E948D
:10351000BC1062E08AE20E94BC1061E08AE20E9474
:10352000BC1061E08CE00E94BC1061E089E00E9468
:10353000BC10B1D8109273001092200181E88093E2
:10354000210183E896E09093BF038093BE038BE351
:103550009CE39093BD038093BC0362E080E30E94F0
:10356000BC1061E08EE20E94391261E08EE20E949E
:10357000BC101092BB031092BA031092B9031092C0
:10358000B8031092B7031092B60380E28ABB80930F
:10359000730083E4782ECFE5D0E007E310E09BE4EE
:1035A000E92EF12CCC24C394D12C32E0A32EB12CE3
:1035B00043E6842E912C80917B00877F80937B0053
:1035C00070927C0080917A00806480937A00809170
:1035D0007A0086FDFCCF8091780080917900F89484
:1035E0008091C0039091C103A091C203B091C30325
:1035F0008093CC039093CD03A093CE03B093CF03DD
:10360000789464E170E085E00E9468128DEF94E0A8
:103610000E9456021816190634F48DEF94E00E94A9
:1036200078021BDBF3CF0E9496070E94DA09109202
:10363000560560915B0570915C0580915D059091E8
:103640005E0561D220E030E048EC52E489D4F0D449
:103650007093CB036093CA030E94BA080E94F508D6
:103660002091C8033091C903263431053CF4809180
:10367000C6039091C70386349105CCF08091040273
:10368000909105028336910539F410930702009357
:10369000060287E390E006C0D0930702C0930602BB
:1036A0008FE590E00E94B6080E94C7079CC0A90160
:1036B000435351094331510530F0AC014353510993
:1036C00043315105B8F4809104029091050283368C
:1036D000910529F4F0920702E092060206C0D09309
:1036E0000702C09306020E94C707809106029091CC
:1036F000070277C0A9014F5151094331510530F0FC
:10370000AC014F51510943315105D8F48DE790E098
:103710000E94B6088091C5039091C403882339F0B4
:10372000911105C0B0920502A0920402BDCF992369
:1037300009F4BACF8111B8CFD0920502C092040229
:10374000B3CF2E3131051CF04E970CF04CC08FE7F3
:1037500090E00E94B60890920502809204020E94B6
:10376000C70782E992E00E943A138091C8039091C2
:10377000C903C29774F586E990E00E94B6080E94DA
:1037800096070E94DA091092560560915B057091C8
:103790005C0580915D0590915E05B5D120E030E03B
:1037A00048EC52E4DDD344D47093CB036093CA0356
:1037B0000E94BA080E94F5080E94A20B8BE992E0D1
:1037C0000E943A1366E470E080E090E00E9488086E
:1037D000CCCF8091C6039091C703C29764F28FE764
:1037E00090E00E94B6080E94A20B64E670E080E0C0
:1037F00090E00E9488080E948410DDCEE8E1F4E0A9
:103800001382128288EE93E0A0E0B0E08483958377
:10381000A683B7832CE032E03183208325EC30E0AF
:103820003587248724EC30E03787268720EC30E08A
:10383000318B208B21EC30E0338B228B22EC30E07B
:10384000358B248B26EC30E0378B268B118E128E35
:10385000138E148EE5EBF4E0168217821086118623
:10386000128613861486158616861786108A118A84
:10387000128A138A148A158A20910602309107024F
:103880003093DF052093DE05E6EBF5E041E051E102
:1038900064EF71E440835183628373834EE45AEA98
:1038A00063EC72EC44835583668377834FE850E181
:1038B00064EF71E440875187628773874DE35AEA6A
:1038C00063EC72EC44875587668777874DEC5FE041
:1038D00064EF71E4408B518B628B738B4BE25AEA3D
:1038E00063EC72EC448B558B668B778B40E451E133
:1038F00064EF71E4408F518F628F738F40E65AEA14
:1039000063EC72EC448F558F668F778F42E751E1FD
:1039100064EF71E440A351A362A373A343E55AEAA1
:1039200063EC72EC44A355A366A377A3E9E0F5E04A
:1039300010821182138212821482158216821782DB
:1039400010861286118613861486158616861786AB
:10395000118A108A128A138A148A158A168A108E7E
:10396000178A118E128E138E148E158E12A213A228
:1039700014A215A216A217A210AA11AA12AA13AA7B
:1039800014AA15AA109247051092480510924D05E9
:1039900010924E0510924F05109250051092550549
:1039A0001092560510925B0510925C0510925D0511
:1039B00010925E05109263051092640510926905DD
:1039C00010926A0510926B0510926C0510927105A9
:1039D0001092720510927705109278051092790571
:1039E00010927A0510927F0510928005109285053D
:1039F00010928605109287051092880510928D0509
:103A000010928E0522E020939E0510929F05109241
:103A1000A0051092A1051092A3051092A205109284
:103A2000A5051092A4051092A6051092A705109264
:103A3000A8051092A9051092AA051092AB05109244
:103A4000AC051092AD051092AE051092AF05109224
:103A5000B0051092B1051092B2051092B305109204
:103A6000B4051092B50510928F05EDEFF4E01382C6
:103A7000128284839583A683B7838EE192E091833B
:103A8000808308951F93FC0199278827BC01E8943F
:103A900011911032E9F3193010F01E30C8F31B32C7
:103AA00049F01D3241F4689405C012D0610F711DB8
:103AB000811D911D119110531A30B8F33EF4909569
:103AC0008095709561957F4F8F4F9F4F1F910895FF
:103AD000592F482F372F262F660F771F881F991FC2
:103AE000660F771F881F991F620F731F841F951F12
:103AF000660F771F881F991F089540D008F481E052
:103B00000895E89409C097FB3EF4909580957095D0
:103B100061957F4F8F4F9F4F9923A9F0F92F96E919
:103B2000BB279395F695879577956795B795F1118E
:103B3000F8CFFAF4BB0F11F460FF1BC06F5F7F4F2B
:103B40008F4F9F4F16C0882311F096E911C077233D
:103B500021F09EE8872F762F05C0662371F096E846
:103B6000862F70E060E02AF09A95660F771F881F15
:103B7000DAF7880F9695879597F90895990F0008B9
:103B8000550FAA0BE0E8FEEF16161706E807F9072F
:103B9000C0F012161306E407F50798F0621B730BCA
:103BA000840B950B39F40A2661F0232B242B252B4B
:103BB00021F408950A2609F4A140A6958FEF811DEE
:103BC000811D08950BD078C069D028F06ED018F010
:103BD000952309F05AC05FC01124A2C07ED0A0F383
:103BE000959FD1F3950F50E0551F629FF001729F92
:103BF000BB27F00DB11D639FAA27F00DB11DAA1FB1
:103C0000649F6627B00DA11D661F829F2227B00DFD
:103C1000A11D621F739FB00DA11D621F839FA00D88
:103C2000611D221F749F3327A00D611D231F849FD8
:103C3000600D211D822F762F6A2F11249F5750402F
:103C40008AF0E1F088234AF0EE0FFF1FBB1F661FCA
:103C5000771F881F91505040A9F79E3F510570F083
:103C600014C05EC05F3FECF3983EDCF38695779519
:103C70006795B795F795E7959F5FC1F7FE2B880F7E
:103C8000911D9695879597F9089597F99F6780E814
:103C900070E060E008959FEF80EC089500240A949E
:103CA0001616170618060906089500240A94121617
:103CB0001306140605060895092E0394000C11F44A
:103CC000882352F0BB0F40F4BF2B11F460FF04C0F7
:103CD0006F5F7F4F8F4F9F4F089557FD9058440F50
:103CE000551F59F05F3F71F04795880F97FB991F5B
:103CF00061F09F3F79F08795089512161306140618
:103D0000551FF2CF4695F1DF08C0161617061806A4
:103D1000991FF1CF86957105610508940895E8947F
:103D2000BB2766277727CB0197F90895DB018F938F
:103D30009F932DD0BF91AF91A29F800D911DA39F06
:103D4000900DB29F900D11240895A1E21A2EAA1B86
:103D5000BB1BFD010DC0AA1FBB1FEE1FFF1FA2173B
:103D6000B307E407F50720F0A21BB30BE40BF50B38
:103D7000661F771F881F991F1A9469F760957095C1
:103D8000809590959B01AC01BD01CF0108950FD0A6
:103D9000A59F900DB49F900DA49F800D911D11249F
:103DA0000895B7FFF4CFF3DF821B930B0895A29F12
:103DB000B001B39FC001A39F700D811D1124911DFF
:103DC000B29F700D811D1124911D08955058BB277D
:103DD000AA270ED071CF62DF30F067DF20F031F418
:103DE0009F3F11F41EF457CF0EF4E095E7FB4DCF43
:103DF000E92F73DF80F3BA1762077307840795070B
:103E000018F071F49EF58BCF0EF4E0950B2EBA2FBF
:103E1000A02D0B01B90190010C01CA01A0011124D0
:103E2000FF27591B99F0593F50F4503E68F11A167C
:103E3000F040A22F232F342F4427585FF3CF46950D
:103E400037952795A795F0405395C9F77EF41F162F
:103E5000BA0B620B730B840BBAF09150A1F0FF0FF9
:103E6000BB1F661F771F881FC2F70EC0BA0F621FE5
:103E7000731F841F48F4879577956795B795F795D5
:103E80009E3F08F0B3CF9395880F08F09927EE0F67
:103E900097958795089502DF58F080E891E009F43E
:103EA0009EEF03DF28F040E851E059F45EEF09C0CF
:103EB000F2CE35CFE92FE07810DF68F3092E052A1E
:103EC000C1F3261737074807590738F00E2E07F8B1
:103ED000E02569F0E025E0640AC0EF6307F800948C
:103EE00007FADB01B9019D01DC01CA01AD01EF93C5
:103EF00046D0E2DE0AD05F91552331F02BED3FE052
:103F000049E450FD49EC63CF0895DF93DD27B92FD5
:103F1000BF7740E85FE31616170648075B0710F403
:103F2000D92F19D19F938F937F936F9363D1EEE72E
:103F3000F1E0AFD0C1DE2F913F914F915F914EDE06
:103F4000DD2349F09058A2EA2AED3FE049EC5FE317
:103F5000D0785D274DDFDF91AFCEC1D0E395E6C0CD
:103F60000CD0AACEA2DE40F099DE30F021F45F3F03
:103F700019F08BCE5111D4CE8ECEAFDE98F39923AB
:103F8000C9F35523B1F3951B550BBB27AA2762171D
:103F90007307840738F09F5F5F4F220F331F441F62
:103FA000AA1FA9F333D00E2E3AF0E0E830D091509A
:103FB0005040E695001CCAF729D0FE2F27D0660F87
:103FC000771F881FBB1F261737074807AB07B0E8C6
:103FD00009F0BB0B802DBF01FF2793585F4F2AF0DC
:103FE0009E3F510568F051CE9BCE5F3FECF3983E6B
:103FF000DCF3869577956795B795F7959F5FC9F739
:10400000880F911D9695879597F90895E1E0660FC1
:10401000771F881FBB1F621773078407BA0720F03A
:10402000621B730B840BBA0BEE1F88F7E0950895A3
:1040300004D06894B11174CE089557DE88F09F576C
:1040400090F0B92F9927B751A0F0D1F0660F771FE4
:10405000881F991F1AF0BA95C9F712C0B13081F0C4
:104060005EDEB1E008955BCE672F782F8827B85FBA
:1040700039F0B93FCCF3869577956795B395D9F725
:104080003EF490958095709561957F4F8F4F9F4F2F
:104090000895DF93CF931F930F93FF92EF92DF92D8
:1040A0007B018C01689405C0DA2EEF0197DDFE01DB
:1040B000E894A5912591359145915591AEF3EF0185
:1040C00097DEFE019701A801DA9479F7DF90EF906F
:1040D000FF900F911F91CF91DF910895DCCD05DE08
:1040E000E8F3E894E0E0BB279F57F0F02AED3FE0CB
:1040F00049EC06C0EE0FBB0F661F771F881F28F024
:10410000B23A62077307840728F0B25A620B730B46
:10411000840BE3959A9572F7803830F49A95BB0F2B
:10412000661F771F881FD2F790486DC0EF93E0FF9E
:1041300006C0A2EA2AED3FE049EC5FEB59DEBCDDA8
:104140000F90039401FC9058EBEAF1E06FC016DD8C
:1041500008F48FEF08959B01AC0160E070E080E807
:104160009FE3FECE9F93BBDF0F9007FCEE5FDECF99
:1041700011F40EF490CD45C0B8DDD0F39923D9F3F6
:10418000CEF39F57550B87FF4AD00024A0E640EAA4
:10419000900180585695979528F4805C660F771F9C
:1041A000881F20F026173707480730F4621B730B6F
:1041B000840B202931294A2BA69517940794202592
:1041C00031254A2758F7660F771F881F20F02617DA
:1041D0003707480730F4620B730B840B200D311D39
:1041E000411DA09581F7B901842F9158880F9695AC
:1041F000879508959B01AC01E5CCC0DC880B990B39
:1042000008959F3F31F0915020F4879577956795F9
:10421000B795880F911D9695879597F908959150B8
:104220005040660F771F881FD2F708959F938F9392
:104230007F936F93FF93EF939B01AC01C3DCEF91EE
:10424000FF9127DF2F913F914F915F91BBCCEE0FF4
:10425000FF1F881F8BBF0790F691E02D199481E016
:1042600090E0F8941FC0FB01DC018D910190801952
:104270000110D9F3990B0895FB01DC0101900D9217
:104280000020E1F70895FB01DC014150504048F067
:1042900001900D920020C9F701C01D92415050407D
:1042A000E0F7089511E0CEEFD1E000E005C0802FE7
:1042B000FE01CDDF2196011DCF3FD10780E0080729
:0642C000B1F7F894FFCFF6
:1042C600FFFF630063004B00000000001D108B0F12
:1042D600B60F6310E70FC50FD90F00000000930259
:1042E6008B0FCD028E025602780265025475726EED
:1042F600696E67207269676874005475726E696EBC
:1043060067206C6566740020475053204669782004
:104316003D20002057617970696E74204C4154200D
:104326003D2000537472616967687400526967685A
:1043360074004C65667400564D4450565F317C31AE
:104346005F564D4450560D0A005374617274696E7F
:1043560067000A0A53544F500A0A0052657665727E
:1043660073696E67006E616E00696E66006F7666D1
:10437600004750524D4300474E524D430047504769
:0A438600474100474E474741000041
:00000001FF
