:10000000FEC100000C9449100C941E100C94F30FC8
:100010000C94C80F0C949D0F0C94720F0C94470F06
:100020000C941C0F0C94A70E0C94380E0C94C20D5B
:1000300017C2000015C2000013C2000011C2000068
:100040000FC200000DC200000BC2000009C2000078
:1000500007C2000005C2000003C2000098C50000EE
:10006000FFC100000C945A180C943118F9C100001B
:10007000F7C10000F5C10000F3C10000F1C10000AC
:10008000EFC10000EDC10000EBC10000E9C10000BC
:10009000E7C10000E5C10000E3C10000E1C10000CC
:1000A000DFC10000DDC10000DBC10000D9C10000DC
:1000B000D7C10000D5C10000F8C60000A4C70000E9
:1000C000A9C60000CDC10000CBC10000C9C100001D
:1000D000C7C10000C5C10000C3C10000C1C100000C
:1000E000BFC10000C403C703B603BA03C003FE03C5
:1000F000CB03CF03D503D903DD03E303E703EB030E
:10010000FE03F103F503F903B004B504BA04C40413
:10011000CE044705D804E004E804F204FC04060514
:1001200015051F054705290533053D052614381417
:100130003B144214491477147E148B149814A4149D
:10014000A414A414A414A414A414A414A414A414EF
:10015000A414A414A414A414A414A414A414A414DF
:10016000A414A414A414A414A414A41426143314BE
:1001700038143B144214491450145D146A14084A8C
:10018000D73B3BCE016E84BCBFFDC12F3D6C7431AB
:100190009ABD56833DDA3D00C77F11BED9E4BB4C02
:1001A0003E916BAAAABE000000803F05A84CCDB2CC
:1001B000D44EB93836A9020C50B9918688083CA6AD
:1001C000AAAA2ABE000000803F0020204F6C6420B5
:1001D000446972656374696F6E203D20002020447D
:1001E0006972656374696F6E203D200046726565B3
:1001F000204D656D6F72793A200020204572726F34
:1002000072203D2000202043757272656E74203D7F
:1002100020002020546172676574203D2000205327
:100220007064203D200020536F6E61722052696718
:100230006874203D2000536F6E6172204C656674B7
:10024000203D200020436F6D70617373204865610D
:1002500064696E67203D2000204F726967696E6196
:100260006C2044697374203D20002044697374201D
:100270003D2000204C6F6E67203D2000204C4F4EEB
:10028000203D2000204C4154203D20000000210052
:10029000240027002A002D00300033000101000057
:1002A000040107010A0100002000230026002900A4
:1002B0002C002F003200000100000301060109019B
:1002C00000010405050303040506040506070100F3
:1002D00001000302010000010203040506070706EE
:1002E00005040302010007020100070605040302DA
:1002F00001000302010000010203040506070001DA
:1003000002030405060702030405060607050505A2
:1003100005070508080808020202020A0A0808047C
:1003200004040401010101010101010303030303AA
:10033000030303040707070C0C0C0C0C0C0C0C0239
:1003400002020206060606060606060B0B0B0B0B40
:100350000B0B0B0102102020080810204010204039
:100360008002010201080402010102040810204079
:100370008080402010080402018004020180402097
:1003800010080402010804020101020408102040C0
:10039000800102040810204080000022002500286F
:1003A000002B002E0031003400020100000501087E
:1003B000010B0100000A0B02090C0D0E08070304D3
:1003C000010000000000000000000000000000002C
:1003D000000000000000000000000000000000120B
:1003E00011100000000000000000000000000000EC
:1003F000000000000000000000002319051911246E
:100400001FBECFEFD1E2DEBFCDBF00E00CBF12E0D8
:10041000A0E0B2E0E8EEF4E400E00BBF02C0079019
:100420000D92AC3BB107D9F725E0ACEBB2E001C0CF
:100430001D92AE3DB207E1F711E0CEEFD1E000E052
:1004400006C021970109802FFE010E943822CD3F6E
:10045000D10780E00807A9F70E94671A0C9463226D
:10046000CFCD3FB7F89480919F039091A003A091C6
:10047000A103B091A20326B5A89B05C02F3F19F098
:100480000196A11DB11D3FBFBA2FA92F982F882714
:10049000820F911DA11DB11DBC01CD0142E0660F6F
:1004A000771F881F991F4A95D1F708955091B90574
:1004B0004091B805852F90E0242F30E0541710F4B8
:1004C000805B9F4F821B930B08958091B905E0914B
:1004D000B8058E1751F0EF5FE03508F0E0E0F0E08E
:1004E000E65BFC4F808190E008958FEF9FEF0895C9
:1004F0008091B9059091B805891769F09F5F903593
:1005000008F090E0E92FF0E0E65BFC4F80819093EB
:10051000B80590E008958FEF9FEF08958091B7059B
:100520008111FCCF08958091B6058F5F843408F067
:1005300080E09091B5059817E1F32FB7F89490916A
:10054000B705992341F0E82FF0E0E050FD4F6083BC
:100550008093B6051DC081E08093B7056093450385
:100560001092440382E08ABB809173008260809382
:100570007300809120018F738068809320018091A7
:1005800024019091250140969093290180932801A0
:100590002FBF81E090E00895089580E090E00895F5
:1005A0004F925F926F927F928F929F92AF92BF9283
:1005B000CF92DF92EF92FF92CF93DF93CDB7DEB76A
:1005C0002C970FB6F894DEBF0FBECDBF2091D2029C
:1005D0003091D3024091D4025091D5026091CA0269
:1005E0007091CB028091CC029091CD020E94F71FB6
:1005F00025E33AEF4EE85CE30E94D71E2B013C0155
:1006000025E33AEF4EE85CE36091D6027091D702A1
:100610008091D8029091D9020E94D71E4B015C01B3
:1006200025E33AEF4EE85CE36091C6027091C702A1
:100630008091C8029091C9020E94D71E6B017C0173
:10064000C301B2010E94C3216D837E838F8398878B
:10065000C701B6010E94BE2069837A838B839C8385
:10066000C501B4010E94C32169877A878B879C8763
:10067000C301B2010E94BE202B013C0129813A81B5
:100680004B815C8169857A858B859C850E94D71E0C
:10069000A30192010E94D71E2B013C01C501B401A8
:1006A0000E94BE204B015C01C701B6010E94C3211C
:1006B0009B01AC01C501B4010E94D71EA3019201A8
:1006C0000E94F71F6B017C0129813A814B815C817B
:1006D0006D817E818F8198850E94D71EA70196012A
:1006E0000E946B206B017C0120E030E0A9010E9498
:1006F000721E87FF0AC02BED3FE049EC50E4C701B2
:10070000B6010E94F81F6B017C0121EE3EE245E636
:1007100052E4C701B6010E94D71E0E94292170939E
:10072000CF026093CE02CB012C960FB6F894DEBFB9
:100730000FBECDBFDF91CF91FF90EF90DF90CF90B4
:10074000BF90AF909F908F907F906F905F904F90F1
:10075000089590E0FC013197E231F10508F04EC0B8
:100760008827EE58FF4F8F4F0C94382280918000DD
:100770008F7703C0809180008F7D809380000895E3
:1007800080918000877FF9CF84B58F7702C084B5D0
:100790008F7D84BD08958091B0008F7703C08091D4
:1007A000B0008F7D8093B0000895809190008F7786
:1007B00007C0809190008F7D03C080919000877F5B
:1007C0008093900008958091A0008F7707C080915A
:1007D000A0008F7D03C08091A000877F8093A00040
:1007E0000895809120018F7707C0809120018F7D2F
:1007F00003C080912001877F8093200108950F938B
:100800001F93CF93DF93082F70E0FB01ED54FC4F53
:100810008491FB01ED5AFC4FD491FB01E35FFC4F47
:10082000C49110E0CC23D1F0811193DFEC2FF0E0E4
:10083000EE0FFF1FEA55FD4FA591B491EC91ED230A
:1008400069F00FDE000F111F000F111FF801E454B3
:10085000FD4F608371838283938313C002DEF801AE
:10086000EE0FFF1FEE0FFF1FE454FD4F208131817B
:10087000621B730B000F111FF801E154FA4F7183D3
:100880006083DF91CF911F910F91089563E481E020
:10089000B6CF62E480E0B3CFCF93DF9390E0FC016A
:1008A000ED5AFC4F2491FC01E35FFC4F84918823B7
:1008B00061F190E0880F991FFC01E457FD4FC5914D
:1008C000D491FC01E756FC4FA591B491611109C088
:1008D0009FB7F8948881209582238883EC912E23FA
:1008E0000BC0623061F49FB7F8943881822F8095F5
:1008F00083238883EC912E2B2C939FBF06C08FB748
:10090000F894E8812E2B28838FBFDF91CF91089533
:100910001F93CF93DF93182FEB0161E0BDDF20978A
:1009200011F460E004C0CF3FD10539F461E0812FBC
:10093000DF91CF911F910C949018E12FF0E0ED54CE
:10094000FC4FE4914E2F50E0FA013197E231F1056E
:1009500008F09DC08827EC57FF4F8F4F0C9438222A
:1009600084B5806884BDC7BD97C084B5806284BDEE
:10097000C8BD92C080918000806880938000D09331
:100980008900C093880088C0809180008062809335
:100990008000D0938B00C0938A007EC0809180003D
:1009A000886080938000D0938D00C0938C0074C0C9
:1009B0008091B00080688093B000C093B3006CC099
:1009C0008091B00080628093B000C093B40064C096
:1009D00080919000806880939000D0939900C0939C
:1009E00098005AC080919000806280939000D093CC
:1009F0009B00C0939A0050C08091900088608093C3
:100A00009000D0939D00C0939C0046C08091A000B0
:100A100080688093A0008091A0008F7B8093A000CD
:100A2000D093A900C093A80037C08091A000806235
:100A30008093A000D093AB00C093AA002DC08091FA
:100A4000A00088608093A000D093AD00C093AC005C
:100A500023C080912001806880932001D0932901D8
:100A6000C093280119C080912001806280932001E9
:100A7000D0932B01C0932A010FC080912001886080
:100A800080932001D0932D01C0932C0105C0C03864
:100A9000D1050CF04BCF45CFDF91CF911F91089539
:100AA0002FB7F89460919B0370919C0380919D03F4
:100AB00090919E032FBF0895CF92DF92EF92FF9205
:100AC00060E08AE20E949018EBDF6B017C0180916C
:100AD000FC029091FD02A091FE02B091FF02A701DD
:100AE0009601281B390B4A0B5B0BDA01C901883EC2
:100AF0009340A105B10560F061E08AE20E94901880
:100B0000C092FC02D092FD02E092FE02F092FF023F
:100B1000FF90EF90DF90CF900895CF92DF92EF9209
:100B2000FF92BEDF6B017C016FE370E089E0F0DED5
:100B30008091E6029091E702A091E802B091E9026B
:100B4000A7019601281B390B4A0B5B0BDA01C9017F
:100B5000883E9340A105B105A8F083E690E090930C
:100B60000702809306026FE770E089E0D1DE81E042
:100B70008093EA02C092E602D092E702E092E80295
:100B8000F092E902FF90EF90DF90CF9008951F92CE
:100B90000F920FB60F9211242F933F938F939F9331
:100BA000AF93BF9380919B0390919C03A0919D0371
:100BB000B0919E0330919A0323E0230F2D3720F448
:100BC0000196A11DB11D05C026E8230F0296A11DA7
:100BD000B11D20939A0380939B0390939C03A09351
:100BE0009D03B0939E0380919F039091A003A091D9
:100BF000A103B091A2030196A11DB11D80939F0393
:100C00009093A003A093A103B093A203BF91AF91CF
:100C10009F918F913F912F910F900FBE0F901F903A
:100C20001895CF93DF93EC018A859B85AC85BD85B4
:100C30008E839F83A887B98733DF6A837B838C8306
:100C40009D8381E089838883DF91CF9108952F92DE
:100C50003F924F925F926F927F928F929F92AF924C
:100C6000BF92CF92DF92EF92FF920F931F93CF9399
:100C7000DF93D82FC92F8B010E94371E24E630E066
:100C800040E050E00E949A1F49015A019B01AC01CB
:100C900060E876E988E990E00E948B1F6B017C0197
:100CA000F80191828082ED2FFC2F2191822F022E5C
:100CB000000C990BC0970A97C0F32E3239F51F012B
:100CC00080E8882E86E9982E88E9A82EB12C9AE033
:100CD000492E512C612C712CF101C1911F010C2E58
:100CE000000CDD0BE097CA30D10580F4C501B401DA
:100CF000A30192010E949A1F49015A01DE010E943C
:100D0000E21FC60ED71EE81EF91EE6CFA5E0B0E032
:100D1000A70196010E94D81F6F5F7F4F8F4F9F4F93
:100D200023E030E040E050E00E949A1FF801228367
:100D30003383448355831682DF91CF911F910F91A6
:100D4000FF90EF90DF90CF90BF90AF909F908F90EB
:100D50007F906F905F904F903F902F900895FF92FB
:100D60000F931F93CF93DF93EC01FF24F3948881BB
:100D70008D3211F0F12C01C02196CE010E94371E58
:100D80009B01AC01A4E6B0E00E94D81FFE0149918E
:100D9000242F042E000C330B205331092A30310547
:100DA000A8F34E3241F52181022E000C330B205363
:100DB00031092A303105F8F44AE0429F8001439F0F
:100DC000100D1124012E000C220B330B600F711F2C
:100DD000821F931F0281002E000C110B005311097A
:100DE0000A30110540F4012E000C220B330B600F6A
:100DF000711F821F931FFF2039F090958095709589
:100E000061957F4F8F4F9F4FDF91CF911F910F9132
:100E1000FF9008951F920F920FB60F9211240BB6F8
:100E20000F922F938F939F93EF93FF938091730073
:100E30008B7F80937300809121018F7B80932101B0
:100E40008091BA0520914903205890914803893038
:100E500020F49695922B8F5FFACF90934803809160
:100E6000B9058F5F803508F080E02091B8058217C2
:100E700039F0E82FF0E0E65BFC4F90838093B905F2
:100E80001092BA05809121018F7B809321011092ED
:100E90004903FF91EF919F918F912F910F900BBE7E
:100EA0000F900FBE0F901F9018951F920F920FB6C4
:100EB0000F9211240BB60F922F933F934F935F9392
:100EC0006F937F938F939F93AF93BF93EF93FF9312
:100ED00080912601909127014091490320912101A1
:100EE000442331F02F7B209321011092490306C047
:100EF00020642093210120E8209349033091BA0512
:100F0000311125C041116CC02091BB053091BC0549
:100F1000280F391F30932B0120932A0124E02ABB8C
:100F2000209173002460209373002091BD053091BF
:100F3000BE05820F931F36952795820F931F9093BE
:100F400047038093460381E08093BA0549C04091EE
:100F50004603509147036091BD057091BE05DB01CA
:100F6000A095B095E091490320914803841B950B0F
:100F7000A817B90768F126952E2B460F571F3F5F1C
:100F8000861B970B3930A0F32093480380917300A0
:100F90008B7F809373008091B9058F5F803508F057
:100FA00080E09091B805891749F0E82FF0E0909122
:100FB0004803E65BFC4F90838093B9058091210143
:100FC0008F7B80932101109249031092BA0508C0CB
:100FD0002093480350934703409346033093BA0548
:100FE000FF91EF91BF91AF919F918F917F916F9101
:100FF0005F914F913F912F910F900BBE0F900FBEBD
:101000000F901F9018951F920F920FB60F921124F8
:101010000BB60F922F933F934F935F936F937F93F2
:101020008F939F93EF93FF938091B7056091450352
:1010300020912801309129014091BD055091BE05B4
:10104000909144038A30F8F4240F351F893019F049
:10105000762F717001C071E066958F5F791791F3FB
:1010600090912001772311F0906C02C09F739068DB
:101070009093200130932901209328017093440319
:10108000609345034AC09091B605E091B5059E1363
:1010900019C08A3051F48BE08093B705240F351FB7
:1010A00030932901209328013AC01092B70580910E
:1010B00020018F7380932001809173008D7F809336
:1010C00073002DC0EF5FE43408F0E0E0E093B50575
:1010D000F0E0E050FD4F908190934503109244035F
:1010E000909120019F739068909320018A3059F469
:1010F0008091BD059091BE05280F391F30932901BD
:101100002093280109C080912401909125014096E7
:10111000909329018093280181E08093B705FF9186
:10112000EF919F918F917F916F915F914F913F913F
:101130002F910F900BBE0F900FBE0F901F90189520
:10114000CF92DF92EF92FF9260E08AE20E949018C5
:10115000A7DC6B017C018091F8029091F902A091CB
:10116000FA02B091FB02A7019601281B390B4A0B2A
:101170005B0BDA01C90180339547A105B10560F029
:1011800061E08AE20E949018C092F802D092F902BF
:10119000E092FA02F092FB02FF90EF90DF90CF9086
:1011A0000895CF92DF92EF92FF92CF93DF93C09199
:1011B0000602D0910702C336D10509F06DC08091B7
:1011C000020290910302019781F51092C70568DC35
:1011D0006B017C016FE370E089E09ADB8091EF02A4
:1011E0009091F002A091F102B091F202A701960154
:1011F000281B390B4A0B5B0BDA01C901883E93406F
:10120000A105B10590F06FE770E089E081DB1092F5
:10121000F302C092EF02D092F002E092F102F0925B
:10122000F202D0930302C0930202809102029091D5
:1012300003021092C705029761F532DC6B017C0155
:1012400060EC70E089E064DB8091EB029091EC024D
:10125000A091ED02B091EE02A7019601281B390B77
:101260004A0B5B0BDA01C901883E9340A105B10529
:1012700080F06FE770E089E04BDB1092C7051092B9
:10128000EA02C092EB02D092EC02E092ED02F09200
:10129000EE0283E690E04AC0C130D10509F04BC0B0
:1012A0008091020290910302029769F483E690E034
:1012B000909307028093060274DFD0930702C093D5
:1012C00006026FDF4DC0ECDB6B017C0160EC70E06F
:1012D00089E01EDB8091F4029091F502A091F60264
:1012E000B091F702A7019601281B390B4A0B5B0B43
:1012F000DA01C901883E9340A105B105A8F083E653
:1013000090E090930702809306026FE770E089E017
:10131000FFDA81E08093F302C092F402D092F502EA
:10132000E092F602F092F70281E090E090930302DF
:101330008093020219C0C230D105B1F4809102023B
:1013400090910302019759F483E690E0909307028D
:101350008093060226DFD0930702C0930602DDDBEE
:10136000D0930302C0930202DF91CF91FF90EF90E0
:10137000DF90CF9008958F929F92AF92BF92CF92BD
:10138000DF92EF92FF926B017C018ADB4B015C01E3
:1013900080ED94E08BD8892B31F080ED94E0A8D8D3
:1013A0000E941B12F5CFFDDE7BDBDC01CB0188192F
:1013B0009909AA09BB098C159D05AE05BF0540F327
:1013C000FF90EF90DF90CF90BF90AF909F908F9065
:1013D0000895BC018CE09CCA8091CE029091CF020E
:1013E0002091CC053091CD05821B930B8C342FEFCF
:1013F000920714F488599E4F9093C4058093C305B7
:101400008091C3059091C405853B910534F08856C1
:1014100091409093C4058093C3058091C30590913A
:10142000C4059C012B5F3F4F2B30310518F483E638
:1014300090E008C08F3F9F4F1CF481E090E002C015
:1014400082E090E0909307028093060208950F9344
:101450001F93CF93DF9360E082E20E94901883E0B5
:1014600090E00197F1F761E082E20E9490188BE230
:1014700090E00197F1F760E082E20E94901883E229
:101480000E94181524E930E040E050E00E94BC1FA3
:1014900089012D3331053CF481E08093C605283065
:1014A00031051CF409C01092C605285031092533B6
:1014B000310548F401DB07C062E370E080E090E0B2
:1014C0005ADF00E010E060E084E20E94901883E0C0
:1014D00090E00197F1F761E084E20E9490188BE2BE
:1014E00090E00197F1F760E084E20E94901885E2B5
:1014F0000E94181524E930E040E050E00E94BC1F33
:10150000E9012D3331053CF481E08093C505283095
:1015100031051CF409C01092C50528503109253346
:10152000310548F4C9DA07C062E370E080E090E07A
:1015300022DFC0E0D0E00C3E110514F000EF10E017
:10154000CC3ED10514F0C0EFD0E02091CA05309117
:10155000CB05200F311F37FF02C02F5F3F4F35955E
:1015600027953093CB052093CA058091C8059091AB
:10157000C9058C0F9D1F97FD0196959587959093B2
:10158000C9058093C805DF91CF911F910F910895F0
:10159000CF92DF92EF92FF921092DD046091DE0411
:1015A0007091DF0480E090E00E94761E6B017C0168
:1015B0006091E0047091E1048091E2049091E30471
:1015C0000E94761E28E23BE64EE65EE40E94C120C1
:1015D0009B01AC01C701B6010E94F81F2091E404F1
:1015E000DC01CB012111B0588093D6029093D70231
:1015F000A093D802B093D9026091E5047091E604FB
:1016000080E090E00E94761E6B017C016091E7040F
:101610007091E8048091E9049091EA040E94761E9A
:1016200028E23BE64EE65EE40E94C1209B01AC014D
:10163000C701B6010E94F81F2091EB04DC01CB0129
:101640002111B0588093D2029093D302A093D40278
:10165000B093D50206D0FF90EF90DF90CF900C941E
:10166000D0024F925F926F927F928F929F92AF9231
:10167000BF92CF92DF92EF92FF92CF93DF93CDB7DD
:10168000DEB760970FB6F894DEBF0FBECDBF2091D6
:10169000CA023091CB024091CC025091CD026091B0
:1016A000D2027091D3028091D4029091D5020E940F
:1016B000F71F25E33AEF4EE85CE30E94D71E6B016B
:1016C0007C010E94C3216D877E878F87988BC7011D
:1016D000B6010E94BE2069837A838B839C8325E3B5
:1016E0003AEF4EE85CE36091D6027091D7028091A8
:1016F000D8029091D9020E94D71E6B017C0125E38C
:101700003AEF4EE85CE36091C6027091C7028091A7
:10171000C8029091C9020E94D71E2B013C01C7014B
:10172000B6010E94C3214B015C01C701B6010E94B2
:10173000BE206D837E838F839887C301B2010E9490
:10174000C32169877A878B879C87C301B2010E9476
:10175000BE206B017C0129853A854B855C856D81B6
:101760007E818F8198850E94D71E2B013C01A701A5
:101770009601C501B4010E94D71E29813A814B818F
:101780005C810E94D71E9B01AC01C301B2010E9483
:10179000F71F9B01AC010E94D71E2B013C012D8538
:1017A0003E854F855889C701B6010E94D71E9B010F
:1017B000AC010E94D71E9B01AC01C301B2010E9483
:1017C000F81F0E94CD212B013C0129853A854B85CC
:1017D0005C85C501B4010E94D71E4B015C01A701C5
:1017E00096016D817E818F8198850E94D71E298107
:1017F0003A814B815C810E94D71E9B01AC01C501DF
:10180000B4010E94F81F9B01AC01C301B2010E9408
:101810006B2026E73BE742EC5AE40E94D71E0E9469
:101820002E2128EE33E040E050E00E949A1F49014B
:101830005A01263031054105510508F059C0E090A4
:101840000002F0900102EFEFEE1AFE0AF0920102A0
:10185000E0920002F70183E0EE0FFF1F8A95E1F7A7
:10186000E757FA4F64817581868197816093C6023C
:101870007093C7028093C8029093C9024080518040
:10188000628073804092CA025092CB026092CC0276
:101890007092CD0220E030E0A9010E94721E8111F9
:1018A00009C020E030E0A901C301B2010E94721E0C
:1018B000882321F0F5E0EF16F10474F06FE770E093
:1018C00089E026D883E690E0909307028093060291
:1018D0008FE790E07EDDFFCF5BDEC3DE9093D10229
:1018E0008093D0029093C5028093C4020E94D002DC
:1018F000C40160960FB6F894DEBF0FBECDBFDF9176
:10190000CF91FF90EF90DF90CF90BF90AF909F90DE
:101910008F907F906F905F904F9008950F931F93DB
:10192000CF93DF931F921F92CDB7DEB78091DE0277
:1019300081110CC0B5D86093DA027093DB028093FA
:10194000DC029093DD0281E08093DE02A9D8009151
:10195000DA021091DB022091DC023091DD02601787
:1019600071078207930740F46093DA027093DB02F9
:101970008093DC029093DD026CE272E08BEE93E0E8
:101980000E94E8161092450580914A0590914B05FA
:101990000E94C81584E892E02DD56091D60270911E
:1019A000D7028091D8029091D90242E00E9403169A
:1019B0008CE792E01FD56091D2027091D3028091A2
:1019C000D4029091D50242E00E9403166FE872E0C3
:1019D0008BEE93E00E941C1868E372E08BEE93E0BC
:1019E0000E94E816E0910002F091010283E0EE0F00
:1019F000FF1F8A95E1F7E757FA4F64817581868169
:101A0000978142E00E94031683E792E0F3D4E091CD
:101A10000002F091010293E0EE0FFF1F9A95E1F7AB
:101A2000E757FA4F608171818281938142E00E9481
:101A300003166FE872E08BEE93E00E941C188AE6B2
:101A400092E0D8D40EDE0E94C81588E592E0D2D488
:101A50008091D0029091D1020E94C81584E492E056
:101A6000C9D46FE872E08BEE93E00E941C1880915D
:101A7000CC059091CD050E94C81586E392E0BAD4BA
:101A80008091CA059091CB050E948C1586E292E068
:101A9000B1D48091C8059091C9050E948C158EE142
:101AA00092E0A8D480910402909105020E94C8158A
:101AB00082E192E09FD48091CE029091CF020E9469
:101AC000C81585E092E096D48091CC059091CD0523
:101AD0000E94C8158AEF91E08DD48091C305909142
:101AE000C4050E948C158CEE91E084D42091DA0517
:101AF0003091DB052115310511F42EED35E0CE01D5
:101B00000196821B930B0E948C158DED91E072D48F
:101B100080910602909107028336910519F468E4DA
:101B200072E00AC08230910519F461E572E004C0E8
:101B3000019731F467E572E08BEE93E00E94D616D0
:101B40008AEC91E057D4809102029091030283368F
:101B5000910519F468E472E00AC08230910519F425
:101B600061E572E004C0019731F467E572E08BEE45
:101B700093E00E94D6160F900F90DF91CF911F91A6
:101B80000F9108951F920F920FB60F9211240BB66A
:101B90000F922F933F934F935F936F937F938F9306
:101BA0009F93AF93BF93CF93EF93FF932091060141
:101BB000C091B3039091E8038091E503322F3095F3
:101BC00083239223892B90916D00C227C923C823B8
:101BD0002093B303CC23C1F1C0FF05C0E091B4034F
:101BE000F091B5031995C1FF05C0E091B603F091DE
:101BF000B7031995C2FF05C0E091B803F091B9038E
:101C00001995C3FF05C0E091BA03F091BB03199584
:101C1000C4FF05C0E091BC03F091BD031995C5FF59
:101C200005C0E091BE03F091BF031995C6FF05C042
:101C3000E091C003F091C1031995C7FF05C0E09181
:101C4000C203F091C3031995FF91EF91CF91BF911A
:101C5000AF919F918F917F916F915F914F913F9144
:101C60002F910F900BBE0F900FBE0F901F901895E5
:101C70001F920F920FB60F9211240BB60F922F9353
:101C80003F934F935F936F937F938F939F93AF9304
:101C9000BF93CF93EF93FF9320910301C091C503AE
:101CA0009091E9038091E603322F309583239223AC
:101CB000892B9091C403C227C923C8232093C5034D
:101CC000CC2389F1C0FF05C0E091C603F091C703A2
:101CD0001995C1FF05C0E091C803F091C90319959A
:101CE000C2FF05C0E091CA03F091CB031995C3FF71
:101CF00005C0E091CC03F091CD031995C4FF05C058
:101D0000E091CE03F091CF031995C5FF05C0E09196
:101D1000D003F091D1031995C6FF05C0E091D2031D
:101D2000F091D3031995FF91EF91CF91BF91AF91AE
:101D30009F918F917F916F915F914F913F912F91E3
:101D40000F900BBE0F900FBE0F901F9018951F9213
:101D50000F920FB60F9211240BB60F922F933F9351
:101D60004F935F936F937F938F939F93AF93BF93A3
:101D7000CF93EF93FF9323B1C091D4039091EA03E3
:101D80008091E703322F309583239223892B909102
:101D90006B00C227C923C8232093D403CC23C1F1ED
:101DA000C0FF05C0E091D503F091D6031995C1FF9E
:101DB00005C0E091D703F091D8031995C2FF05C083
:101DC000E091D903F091DA031995C3FF05C0E091C2
:101DD000DB03F091DC031995C4FF05C0E091DD033E
:101DE000F091DE031995C5FF05C0E091DF03F09186
:101DF000E0031995C6FF05C0E091E103F091E2030D
:101E00001995C7FF05C0E091E303F091E40319952C
:101E1000FF91EF91CF91BF91AF919F918F917F9162
:101E20006F915F914F913F912F910F900BBE0F904B
:101E30000FBE0F901F9018951F920F920FB60F9222
:101E400011240BB60F922F933F934F935F936F9391
:101E50007F938F939F93AF93BF93EF93FF93E09103
:101E6000B103F091B2031995FF91EF91BF91AF913A
:101E70009F918F917F916F915F914F913F912F91A2
:101E80000F900BBE0F900FBE0F901F9018951F92D2
:101E90000F920FB60F9211240BB60F922F933F9310
:101EA0004F935F936F937F938F939F93AF93BF9362
:101EB000EF93FF93E091AF03F091B0031995FF9179
:101EC000EF91BF91AF919F918F917F916F915F91B2
:101ED0004F913F912F910F900BBE0F900FBE0F901F
:101EE0001F9018951F920F920FB60F9211240BB6E8
:101EF0000F922F933F934F935F936F937F938F93A3
:101F00009F93AF93BF93EF93FF93E091AD03F09155
:101F1000AE031995FF91EF91BF91AF919F918F9172
:101F20007F916F915F914F913F912F910F900BBED9
:101F30000F900FBE0F901F9018951F920F920FB623
:101F40000F9211240BB60F922F933F934F935F93F1
:101F50006F937F938F939F93AF93BF93EF93FF9371
:101F6000E091AB03F091AC031995FF91EF91BF9114
:101F7000AF919F918F917F916F915F914F913F9121
:101F80002F910F900BBE0F900FBE0F901F901895C2
:101F90001F920F920FB60F9211240BB60F922F9330
:101FA0003F934F935F936F937F938F939F93AF93E1
:101FB000BF93EF93FF93E091A903F091AA031995C2
:101FC000FF91EF91BF91AF919F918F917F916F9111
:101FD0005F914F913F912F910F900BBE0F900FBECD
:101FE0000F901F9018951F920F920FB60F92112409
:101FF0000BB60F922F933F934F935F936F937F9303
:102000008F939F93AF93BF93EF93FF93E091A703B9
:10201000F091A8031995FF91EF91BF91AF919F9116
:102020008F917F916F915F914F913F912F910F9081
:102030000BBE0F900FBE0F901F9018951F920F921E
:102040000FB60F9211240BB60F922F933F934F931D
:102050005F936F937F938F939F93AF93BF93EF9310
:10206000FF93E091A503F091A6031995FF91EF91DD
:10207000BF91AF919F918F917F916F915F914F91A0
:102080003F912F910F900BBE0F900FBE0F901F909E
:1020900018951F920F920FB60F9211240BB60F9244
:1020A0002F933F934F935F936F937F938F939F9360
:1020B000AF93BF93EF93FF93E091A303F091A40339
:1020C0001995FF91EF91BF91AF919F918F917F9162
:1020D0006F915F914F913F912F910F900BBE0F9099
:1020E0000FBE0F901F901895E091EB03F091EC0359
:1020F0000190F081E02D682F8BEE93E01994EBEEC8
:10210000F3E0A089B18982E08C93A485B5851C9207
:10211000A685B78580E18C93108EA489B58986E069
:102120008C93A289B3898C9180618C93A289B389A5
:102130008C9188608C93A289B3898C9180688C93F0
:102140000288F389E02D80818F7D808308958F77C9
:102150009EEF980F923008F4A4C095EB980F923040
:1021600008F49FC09EEE980F943008F49AC0282F70
:1021700030E0F901863420F0E35BFC4F849116C017
:10218000ED5AFC4F8491F901E35FFC4F949192303A
:1021900059F44091EA03482B4093EA034091E70346
:1021A000482B4093E7031AC09A3061F49091E903F9
:1021B000982B9093E9039091E603982B9093E60374
:1021C0009AE00CC09B3051F44091E803482B4093B7
:1021D000E8034091E503482B4093E503F901E054FF
:1021E000FD4FA4919230C1F4B0E0AA0FBB1FAB52D7
:1021F000BC4F6D937C93EAEAF2E0A591B4919C9177
:102200009093D4032BE630E03093B4052093B305CC
:102210009091680091603BC09A3001F5B0E0AA0F40
:10222000BB1FAA53BC4F6D937C93EAEBF2E0A591E0
:10223000B4919C919093C5032CE630E03093B405A3
:102240002093B305909168009260909368009091FC
:10225000C403982B9093C403880F1BC09B30C9F410
:10226000B0E0AA0FBB1FAC54BC4F6D937C93ECEB5A
:10227000F2E0A591B4919C919093B3032DE630E0E8
:102280003093B4052093B3059091680094609093C7
:102290006800A091B305B091B405EC918E2B8C939E
:1022A00008959FB7F894833109F45BC0D8F4833064
:1022B00009F47BC0823109F466C0823009F098C00D
:1022C0007093AC036093AB03EC9880916A008C7FB1
:1022D00080936A0080916A00816080936A00E49A2A
:1022E000EC9A86C08531C9F050F18B3409F46FC087
:1022F0008C3409F07DC07093B2036093B103EF9802
:1023000080916A008F7380936A0080916A00806474
:1023100080936A00E79AEF9A6BC07093A40360936E
:10232000A303E898809169008C7F80936900809175
:102330006900816080936900E09AE89A59C07093BF
:10234000A6036093A503E99880916900837F809339
:10235000690080916900846080936900E19AE99A3C
:1023600047C07093A8036093A703EA98809169001F
:102370008F7C8093690080916900806180936900FF
:10238000E29AEA9A35C07093AA036093A903EB9886
:10239000809169008F7380936900809169008064E7
:1023A00080936900E39AEB9A23C07093AE03609325
:1023B000AD03ED9880916A00837F80936A008091DD
:1023C0006A00846080936A00E59AED9A11C0709368
:1023D000B0036093AF03EE9880916A008F7C809386
:1023E0006A0080916A00806180936A00E69AEE9AA2
:1023F0009FBF08950F931F93CF93DF938C01C0E08D
:10240000D0E0F801EC0FFD1F6491662371F0E091BC
:10241000EB03F091EC030190F081E02D8BEE93E063
:102420001995892B11F02196ECCFCE01DF91CF9138
:102430001F910F910895EF92FF920F931F93CF93E7
:10244000DF934091790550917A0560917B057091F9
:102450007C054F5F5F4F6F4F7F4F409379055093DF
:102460007A0560937B0570937C05843209F4A6C2DB
:10247000E0917305853234F48A3071F08D3009F0C3
:10248000ABC20AC08A3241F08C3209F0A5C29091E9
:102490006005982790936005082FEF3008F074C10D
:1024A000F0E0EE59FA4F108280916105882309F41B
:1024B0006DC1209162053FEB320F822F022E000C7E
:1024C000990B363010F4C79707C02156263018F400
:1024D0008755910901C0C097282F2295207F309100
:1024E00063054FEB430F832F032E000C990B4630EF
:1024F00010F4C79707C03156363018F48755910944
:1025000001C0C097820F9091600589132AC1809104
:10251000850590918605A0918705B0918805019663
:10252000A11DB11D8093850590938605A093870515
:10253000B093880580917405882399F080917D057A
:1025400090917E05A0917F05B09180050196A11D17
:10255000B11D80937D0590937E05A0937F05B09378
:10256000800510917105112309F46BC0113009F039
:10257000D2C08091040590910505A0910605B09107
:1025800007058093000590930105A0930205B09381
:1025900003050E9450056093080570930905809318
:1025A0000A0590930B051093FF041093FE0480918D
:1025B000120590911305A0911405B0911505809313
:1025C0000E0590930F05A0931005B09311050E947E
:1025D0005005609316057093170580931805909326
:1025E000190510930D0510930C058091740588232F
:1025F00009F491C087E0ECEEF4E0AEEDB4E00190B8
:102600000D928A95E1F787E0E3EFF4E0A5EEB4E000
:1026100001900D928A95E1F70E9450056093FA04AB
:102620007093FB048093FC049093FD041093DD04ED
:102630001093DC048AE195E00E94110688E295E09F
:1026400068C08091120590911305A0911405B09176
:10265000150580930E0590930F05A0931005B09378
:1026600011050E945005609316057093170580931D
:1026700018059093190511E010930D0510930C05A2
:1026800080917405882321F187E0ECEEF4E0AEED53
:10269000B4E001900D928A95E1F787E0E3EFF4E072
:1026A000A5EEB4E001900D928A95E1F70E945005E5
:1026B0006093FA047093FB048093FC049093FD04F0
:1026C0001093DD041093DC0486E395E00E9411066C
:1026D00080914E0590914F05A0915005B091510504
:1026E00080934A0590934B05A0934C05B0934D05FC
:1026F0000E945005609346057093470580934805F6
:102700009093490581E0809345058093440582E5D7
:1027100095E00E941106C0917705D091780511E0EF
:10272000209709F43CC1E0917705F091780566A106
:1027300077A18EA19FA10E944422892B09F02FC16D
:10274000BE01CE0140960E944D220E94500568A312
:1027500079A38AA39BA31DA31CA30AA4DBA5C02D58
:10276000DFCF8091810590918205A0918305B09182
:1027700084050196A11DB11D80938105909382056A
:10278000A0938305B093840590E00AC180917205FF
:10279000811142C06CE572E082E695E00E9444221D
:1027A000892B41F062E672E082E695E00E944422C5
:1027B000892B11F481E014C068E672E082E695E0AE
:1027C0000E944422892B41F06EE672E082E695E099
:1027D0000E944422892B19F41092710503C082E0F3
:1027E0008093710580917505909176059093780599
:1027F00080937705C0917705D0917805209721F2D5
:10280000EEA0FFA062E675E0C7010E94442297FF98
:10281000F9C08AA59BA5EACFE0917105E23009F4E1
:1028200093C090916205992309F48EC020E2E29F43
:10283000F0011124E82B3197E932F10508F084C04A
:102840008827EA56FF4F8F4F0C94382282E695E096
:102850000E94AF06609312057093130580931405D0
:102860009093150571C081E0913409F043C043C0D5
:102870006CEE74E009C081E0933509F080E080934C
:10288000F20462C063EF74E082E695E00E942706DE
:102890005BC081E0973509F080E08093F90454C073
:1028A00082E695E00E94AF066093240570932505AB
:1028B000809326059093270547C082E695E00E9405
:1028C000AF0660933205709333058093340590937F
:1028D00035053AC082E695E00E94371E60930405F4
:1028E0007093050580930605909307052DC081E040
:1028F00091330CF480E08093740526C082E695E065
:102900000E94371E60934E0570934F0580935005CB
:102910009093510519C082E695E00E94AF0660933E
:102920005C0570935D0580935E0590935F050CC018
:1029300082E695E00E94AF066093400570934105E2
:102940008093420590934305C0917705D091780517
:10295000209709F419CFE0917705F091780566A1E9
:1029600077A18EA19FA10E944422892B09F00CCF50
:1029700028A539A58091720590E0821793070CF481
:1029800003CF2817390739F440E150E062E675E0DB
:10299000CE010E9454220AA4DBA5C02DD9CF91E01C
:1029A000809172058F5F809372051092730581E0AC
:1029B0000A3209F080E08093610532C010927305FD
:1029C000109272051092600582E08093710510925A
:1029D00061051092740514C0EE3040F491E09E0F32
:1029E00090937305F0E0EE59FA4F80839091610562
:1029F000911106C02091600582278093600510C068
:102A000090E00EC062E675E0C7010E9444221816ED
:102A100019060CF0B9CE1092780510927705B4CE55
:102A2000892FDF91CF911F910F91FF90EF90089523
:102A30000F931F9390E0FC01ED5AFC4F6491FC0151
:102A4000E35FFC4FE491F0E0EE0FFF1FEA55FD4F0E
:102A50008591949100E412E42FE030E0462F90D36A
:102A6000611571058105910549F0DC01CB010196E5
:102A7000A11DB11DBC01CD019F7003C060E070E0DD
:102A8000CB011F910F9108954F925F926F927F92A9
:102A9000EF92FF920F931F93CF93DF93CDB7DEB7E3
:102AA000A1970FB6F894DEBF0FBECDBF7C01FA012F
:102AB000CB0119A2223008F42AE08E010F5D1F4FCE
:102AC000422E512C612C712CBF01A30192010E9456
:102AD0009A1FF901CA01015011096A3014F4605DAE
:102AE00001C0695CD8016C93232B242B252B61F743
:102AF000B801C701A1D2A1960FB6F894DEBF0FBEF0
:102B0000CDBFDF91CF911F910F91FF90EF907F90FC
:102B10006F905F904F9008950F931F93CF93DF9323
:102B200000D01F92CDB7DEB7AC01990F660B770BC3
:102B300077FF19C08DE249835A836B837C83D4DA93
:102B40008C0149815A816B817C817095609550958B
:102B500041955F4F6F4F7F4F2AE08BEE93E094DFFC
:102B6000080F191F05C02AE08BEE93E08DDF8C0162
:102B70006FE872E08BEE93E05FD2800F911F0F90B1
:102B80000F900F900F90DF91CF911F910F910895AB
:102B90000F931F93CF93DF9300D01F92CDB7DEB773
:102BA000AC01990F660B770B77FF21C08DE249834B
:102BB0005A836B837C8398DA8C0149815A816B81BB
:102BC0007C8170956095509541955F4F6F4F7F4F19
:102BD0002AE08BEE93E058DF800F911F0F900F904B
:102BE0000F900F90DF91CF911F910F9108952AE0E0
:102BF0008BEE93E00F900F900F900F90DF91CF919D
:102C00001F910F9141CF4F925F926F927F928F925F
:102C10009F92AF92BF92CF92DF92EF92FF926B01A1
:102C20007C01B42E9B01AC010E940E22882319F076
:102C300064E772E027C026013701E89477F82FEFA8
:102C40003FEF4FE75FE7C301B2010E940E228111FF
:102C50000DC02FEF3FEF4FE75FE7C301B2010E94C6
:102C6000721E18161CF468E772E00CC02FEF3FEFDD
:102C70004FE75FE4C701B6010E94B82118168CF433
:102C80006CE772E08BEE93E0FF90EF90DF90CF90D7
:102C9000BF90AF909F908F907F906F905F904F907C
:102CA000CBC12FEF3FEF4FE75FECC701B6010E94AA
:102CB000721E87FDE5CF20E030E0A901C701B60113
:102CC0000E94721E87FF08C08DE20EDA4C01F7FAEF
:102CD000F094F7F8F09402C0812C912CA12C60E0C4
:102CE00070E080E09FE3AB1441F020E030E040E290
:102CF00051E40E94C120A394F6CF9B01AC01C7010F
:102D0000B6010E94F81F2B013C010E942E216B018D
:102D10007C01ECD79B01AC01C301B2010E94F71FFB
:102D20002B013C012AE0B701A6018BEE93E0ACDE5B
:102D30007C01E80CF91CBB2021F08EE2D5D9E80E0D
:102D4000F91EDB2CDD2021F120E030E040E251E4EF
:102D5000C301B2010E94D71E2B013C010E942E210B
:102D60004B01A12CB12C2AE0B501A4018BEE93E01C
:102D70008BDEE80EF91EC501B401B8D79B01AC018A
:102D8000C301B2010E94F71F2B013C01DA94DACF94
:102D9000C701FF90EF90DF90CF90BF90AF909F90D2
:102DA0008F907F906F905F904F9008950F931F9337
:102DB000CF93DF93EC0140D18C016FE872E0CE013C
:102DC0003BD1800F911FDF91CF911F910F910895FB
:102DD00033C1CF92DF92EF92FF920F931F93CF9365
:102DE000DF936C017A018B01C0E0D0E0CE15DF05E6
:102DF00089F0D8016D918D01D601ED91FC91019082
:102E0000F081E02DC6011995892B11F47E0102C0D5
:102E10002196ECCFC701DF91CF911F910F91FF90C9
:102E2000EF90DF90CF900895FC01538D448D252FB6
:102E300030E0842F90E0821B930B541710F0CF9654
:102E4000089501970895FC01918D828D981761F086
:102E5000828DDF01A80FB11D5D968C91928D9F5FD1
:102E60009F73928F90E008958FEF9FEF0895FC017C
:102E7000918D828D981731F0828DE80FF11D858D2F
:102E800090E008958FEF9FEF0895FC01918D228DC2
:102E9000892F90E0805C9F4F821B91098F73992747
:102EA00008958BEE93E0F1DF21E0892B09F420E017
:102EB000822F0895FC01848DDF01A80FB11DA35A54
:102EC000BF4F2C91848D90E001968F739927848F4A
:102ED000A689B7892C93A089B1898C9180648C9341
:102EE000938D848D981306C00288F389E02D80812C
:102EF0008F7D80830895EF92FF920F931F93CF935E
:102F0000DF93EC0181E0888F9B8D8C8D981305C039
:102F1000E889F989808185FD23C0F62E0B8D10E0AC
:102F20000F5F1F4F0F731127E02E8C8DE8120BC01F
:102F30000FB607FCFACFE889F989808185FFF5CFC4
:102F4000CE01B8DFF2CF8B8DFE01E80FF11DE35A01
:102F5000FF4FF0820B8FEA89FB898081806207C076
:102F6000EE89FF896083E889F989808180648083A4
:102F700081E090E0DF91CF911F910F91FF90EF9052
:102F80000895CF93DF93EC01888D8823C1F0EA89FF
:102F9000FB89808185FD05C0A889B9898C9186FD52
:102FA0000EC00FB607FCF5CF808185FFF2CFA88950
:102FB000B9898C9185FFEDCFCE017CDFE8CFDF9121
:102FC000CF91089580E090E0892B19F06ADF81119C
:102FD00025C080E090E0892B41F080E090E0892BD3
:102FE00021F00E94000081111CC080E090E0892B3C
:102FF00041F080E090E0892B21F00E9400008111D7
:1030000013C080E090E0892BA1F080E090E0892B54
:1030100081F00E94000081110AC008950E94000002
:10302000D8CF0E940000E1CF0E940000EACF0C94AC
:10303000000008950E9440226115710579F0FB019E
:1030400001900020E9F73197AF01461B570BDC01D7
:10305000ED91FC910280F381E02D199480E090E0E5
:1030600008951F920F920FB60F9211240BB60F9274
:103070002F933F934F935F936F937F938F939F9380
:10308000AF93BF93EF93FF938BEE93E013DFFF912A
:10309000EF91BF91AF919F918F917F916F915F91D0
:1030A0004F913F912F910F900BBE0F900FBE0F903D
:1030B0001F9018951F920F920FB60F9211240BB606
:1030C0000F922F938F939F93EF93FF93E091FB03C6
:1030D000F091FC038081E0910104F091020482FDF3
:1030E00012C09081809104048F5F8F73209105043A
:1030F000821751F0E0910404F0E0E551FC4F958F08
:103100008093040401C08081FF91EF919F918F9182
:103110002F910F900BBE0F900FBE0F901F90189520
:103120001F93CF93DF93282F30E0F901ED54FC4F2C
:103130008491F901ED5AFC4FD491F901E35FFC4F02
:10314000C491CC23C9F0162F81110E94A903EC2F42
:10315000F0E0EE0FFF1FE756FC4FA591B4918FB73B
:10316000F894111105C09C91ED2FE095E92302C060
:10317000EC91ED2BEC938FBFDF91CF911F910895D0
:10318000CF92DF92EF92FF920F931F93E82FF92FC8
:1031900005C0015011092109310961F1908196237F
:1031A0009417B9F305C0015011092109310911F132
:1031B000908196239413F7CFC12CD12CE12CF12CC4
:1031C0000AC08FEFC81AD80AE80AF80A0C151D05BC
:1031D0002E053F0579F080818623841791F36C2DAD
:1031E0007D2D8E2D9F2D1F910F91FF90EF90DF90E1
:1031F000CF90089560E070E080E090E01F910F9123
:10320000FF90EF90DF90CF9008958EE192E0909341
:10321000D1048093D004809173008B7F80937300DE
:10322000809173008F7D809373008091B8058093A7
:10323000B9058091B7058111FCCF809173008D7F16
:10324000809373000895EBEEF3E01382128288EE10
:1032500093E0A0E0B0E084839583A683B7832CE05D
:1032600032E03183208325EC30E03587248724EC5D
:1032700030E03787268720EC30E0318B208B21EC43
:1032800030E0338B228B22EC30E0358B248B26EC24
:1032900030E0378B268B118E128E138E148EE8E859
:1032A000F4E0168217821086118612861386148621
:1032B000158616861786108A118A128A138A148A2E
:1032C000158A20910402309105023093B2052093B3
:1032D000B105E9E8F5E041E051E164EF71E44083D4
:1032E0005183628373834EE45AEA63EC72EC448345
:1032F0005583668377834FE850E164EF71E440873C
:103300005187628773874DE35AEA63EC72EC448716
:103310005587668777874DEC5FE064EF71E4408BFB
:10332000518B628B738B4BE25AEA63EC72EC448BE9
:10333000558B668B778B40E451E164EF71E4408FED
:10334000518F628F738F40E65AEA63EC72EC448FC0
:10335000558F668F778F42E751E164EF71E440A3A8
:1033600051A362A373A343E55AEA63EC72EC44A34E
:1033700055A366A377A3ECEDF4E0108211821382CB
:103380001282148215821682178210861286118686
:1033900013861486158616861786118A108A128A55
:1033A000138A148A158A168A108E178A118E128E25
:1033B000138E148E158E12A213A214A215A216A299
:1033C00017A210AA11AA12AA13AA14AA15AA109237
:1033D0001A0510921B0510922005109221051092DB
:1033E00022051092230510922805109229051092AB
:1033F0002E0510922F051092300510923105109273
:1034000036051092370510923C0510923D0510923A
:103410003E0510923F05109244051092450510920A
:103420004A0510924B0510924C0510924D051092D2
:10343000520510925305109258051092590510929A
:103440005A0510925B05109260051092610522E00A
:1034500020937105109272051092730510927405F5
:1034600010927605109275051092780510927705E6
:103470001092790510927A0510927B0510927C05C6
:1034800010927D0510927E0510927F0510928005A6
:103490001092810510928205109283051092840586
:1034A0001092850510928605109287051092880566
:1034B00010926205E0EDF4E013821282848395831A
:1034C000A683B7838EE192E09183808308957894F8
:1034D00084B5826084BD84B5816084BD85B5826019
:1034E00085BD85B5816085BD80916E0081608093CA
:1034F0006E00109281008091810082608093810033
:103500008091810081608093810080918000816042
:10351000809380008091B10084608093B10080919D
:10352000B00081608093B0008091910082608093B0
:103530009100809191008160809391008091900032
:103540008160809390008091A10082608093A100AF
:103550008091A10081608093A1008091A000816092
:103560008093A0008091210182608093210180914D
:1035700021018160809321018091200181608093ED
:10358000200180917A00846080937A0080917A0093
:10359000826080937A0080917A00816080937A00C3
:1035A00080917A00806880937A001092C100109216
:1035B000CC041092CD041092CE041092CF0410923D
:1035C0008A0410928B0410928C0410928D040E9435
:1035D00050056B017C014B015C0128EB820E2BE056
:1035E000921EA11CB11C0E9450056C157D058E0514
:1035F0009F0528F086169706A806B906A0F78BEE59
:1036000093E09093CB048093CA040E947F100E94A1
:10361000500560938A0470938B0480938C0490937C
:103620008D0460E872E08091CA049091CB04D0DBF5
:103630000E9450056B017C014B015C013AE0830E56
:10364000911CA11CB11C0E9450056C157D058E05B6
:103650009F0528F086169706A806B906A0F781E010
:1036600080939E0462E972E08BEE93E09FDB60E062
:103670008BE30E944C0460E08AE30E944C0460E00B
:1036800082E40E944C0460E083E40E944C0469E4FC
:1036900074E082E40E94A71066E474E083E40E9470
:1036A000A71061E082E20E944C0462E083E20E9483
:1036B0004C0461E084E20E944C0462E085E20E94D6
:1036C0004C0460E089E30E944C0461E085E00E94C4
:1036D0004C0462E08AE20E944C0461E08AE20E94AB
:1036E0004C0461E08CE00E944C0461E089E00E949F
:1036F0004C040E947F10109273001092200181E808
:103700008093210183E896E09093BE058093BD05E8
:103710008BE39CE39093BC058093BB0562E080E360
:103720000E944C0461E08EE2FBDC61E08EE20E94CC
:103730004C041092BA051092B9051092B805109277
:10374000B7051092B6051092B50580E28ABB80934A
:1037500073000E9450056B017C01C3E6D0E08CE849
:1037600090E00E94E909D0930702C09306020E94EC
:10377000D1080E945005DC01CB018C199D09AE09CE
:10378000BF09843F9140A105B10548F384EF882E1D
:1037900099249394A12CB12C07E810E093E6292EEC
:1037A000312C0E945005672B682B692B41F40E9435
:1037B0005005623071058105910508F407C10E942A
:1037C00050056093D6057093D7058093D8059093E4
:1037D000D9054090D2055090D3056090D4057090E3
:1037E000D505641575058605970540F46093D205E7
:1037F0007093D3058093D4059093D5054090D2055E
:103800005090D3056090D4057090D5059B01AC0114
:10381000241935094609570929013A013AEF431697
:1038200051046104710408F4D1C06093D20570930F
:10383000D3058093D4059093D505809296049092F9
:103840009704A0929804B092990410929A0410924E
:103850009B0410929C0410929D0480918E04909180
:103860008F04A0919004B09191048093920490935E
:103870009304A0939404B09395040E945005609320
:103880008E0470938F0480939004909391040E940F
:10389000500560938A0470938B0480938C049093FA
:1038A0008D040E9450052B013C016BE972E0809170
:1038B000CA049091CB048CDA2AE041E050E060E049
:1038C00070E08091CA049091CB04DED862EA72E085
:1038D0008091CA049091CB047BDA2AE0B301A20163
:1038E0008091CA049091CB04CFD864EA72E08091B1
:1038F000CA049091CB046CDA80918E0490918F046D
:10390000A0919004B0919104B301A201481B590BFE
:103910006A0B7B0B2AE08091CA049091CB04B4D847
:1039200064EA72E08091CA049091CB0451DA40912C
:103930008E0450918F046091900470919104809155
:10394000920490919304A0919404B0919504481B23
:10395000590B6A0B7B0B2AE08091CA049091CB042F
:1039600093D866EA72E08091CA049091CB0430DA71
:103970000E945005AB01BC012AE08091CA049091DD
:10398000CB0482D868EA72E08091CA049091CB049B
:103990000DDA0E9450056B017C012B013C0145E0D2
:1039A000440E511C611C711C0E9450056C157D0554
:1039B0008E059F0508F054C10E94500560938E0447
:1039C00070938F04809390049093910480917B0076
:1039D000877F80937B0053E450937C0080917A0032
:1039E000806480937A0080917A0086FDFCCF80917C
:1039F000780080917900F8948091BF059091C0057E
:103A0000A091C105B091C2058093CE059093CF05DA
:103A1000A093D005B093D105789464E170E085E07F
:103A20000E94880480ED94E00E9456021816190640
:103A30003CF480ED94E00E9478020E941B12F2CFC9
:103A40000E94A0080E94C80A1092290560912E05C4
:103A500070912F05809130059091310549D120E07A
:103A600030E048EC52E48DD3F4D37093CD056093ED
:103A7000CC050E94EC090E94270AC091CA05D0918A
:103A8000CB05CA35D1052CF18091C8059091C905A7
:103A90008A359105F4F080910602909107022091F9
:103AA000C7058336910549F421110DC081E990E0E5
:103AB000909305028093040206C0211104C0109364
:103AC00005020093040280910402909105020E9475
:103AD000E909CE0187549109439740F08091C805C8
:103AE0009091C905875491094397E0F48091C705E7
:103AF000811112C0809106029091070283369105D0
:103B000039F42CE830E0309305022093040204C01D
:103B10001093050200930402809104029091050223
:103B20000E94E909C634D10544F08091C8059091FE
:103B3000C905863491050CF089C082E890E00E94A6
:103B4000E9098091C6052091C7059091C505882394
:103B500059F0911109C021111CC042E050E050936E
:103B600007024093060215C0992359F0811109C03C
:103B700021110FC081E090E090930702809306022C
:103B800008C08091C3059091C405181619061CF34E
:103B9000EFCF0E94D108A8970CF058C08091C805BB
:103BA0009091C90588970CF051C08FE790E00E9472
:103BB000E90930920702209206020E94D10860EDC6
:103BC00077E080E090E00E94BB096FEA72E08BEE44
:103BD00093E0ECD88091CA059091CB05863491058D
:103BE00054F588E790E00E94E9090E94A0080E942D
:103BF000C80A1092290560912E0570912F058091B9
:103C000030059091310574D020E030E048EC52E46A
:103C1000B8D21FD37093CD056093CC050E94EC09F8
:103C20000E94270A0E948E0C66E470E080E090E01B
:103C30000E94BB09CFCF8091C8059091C9058634F9
:103C400091057CF28FE790E00E94E9090E948E0CBA
:103C500068EC70E080E090E00E94BB09B3D9A1CD90
:103C6000461657066806790608F09ECEA5CE1F9325
:103C7000FC0199278827BC01E89411911032E9F3DF
:103C8000193010F01E30C8F31B3249F01D3241F4D8
:103C9000689405C012D0610F711D811D911D119195
:103CA00010531A30B8F33EF4909580957095619555
:103CB0007F4F8F4F9F4F1F910895592F482F372FB8
:103CC000262F660F771F881F991F660F771F881F83
:103CD000991F620F731F841F951F660F771F881F20
:103CE000991F089540D008F481E00895E89409C030
:103CF00097FB3EF490958095709561957F4F8F4F1F
:103D00009F4F9923A9F0F92F96E9BB279395F69534
:103D1000879577956795B795F111F8CFFAF4BB0FB2
:103D200011F460FF1BC06F5F7F4F8F4F9F4F16C016
:103D3000882311F096E911C0772321F09EE8872FA0
:103D4000762F05C0662371F096E8862F70E060E05C
:103D50002AF09A95660F771F881FDAF7880F9695D5
:103D6000879597F90895990F0008550FAA0BE0E879
:103D7000FEEF16161706E807F907C0F0121613062D
:103D8000E407F50798F0621B730B840B950B39F46D
:103D90000A2661F0232B242B252B21F408950A26D3
:103DA00009F4A140A6958FEF811D811D08950BD0C8
:103DB00078C069D028F06ED018F0952309F05AC069
:103DC0005FC01124A2C07ED0A0F3959FD1F3950FC0
:103DD00050E0551F629FF001729FBB27F00DB11D8F
:103DE000639FAA27F00DB11DAA1F649F6627B00D1F
:103DF000A11D661F829F2227B00DA11D621F739F08
:103E0000B00DA11D621F839FA00D611D221F749F15
:103E10003327A00D611D231F849F600D211D822F5C
:103E2000762F6A2F11249F5750408AF0E1F08823A3
:103E30004AF0EE0FFF1FBB1F661F771F881F9150B0
:103E40005040A9F79E3F510570F014C05EC05F3F1F
:103E5000ECF3983EDCF3869577956795B795F795E3
:103E6000E7959F5FC1F7FE2B880F911D969587956B
:103E700097F9089597F99F6780E870E060E00895EA
:103E80009FEF80EC089500240A9416161706180672
:103E90000906089500240A9412161306140605064E
:103EA0000895092E0394000C11F4882352F0BB0FDF
:103EB00040F4BF2B11F460FF04C06F5F7F4F8F4F42
:103EC0009F4F089557FD9058440F551F59F05F3F7D
:103ED00071F04795880F97FB991F61F09F3F79F02C
:103EE00087950895121613061406551FF2CF4695AE
:103EF000F1DF08C0161617061806991FF1CF869530
:103F00007105610508940895E894BB276627772713
:103F1000CB0197F90895DB018F939F9349D0BF910F
:103F2000AF91A29F800D911DA39F900DB29F900D08
:103F300011240895A1E21A2EAA1BBB1BFD010DC07E
:103F4000AA1FBB1FEE1FFF1FA217B307E407F50749
:103F500020F0A21BB30BE40BF50B661F771F881F25
:103F6000991F1A9469F760957095809590959B01BB
:103F7000AC01BD01CF010895052E97FB16F4009406
:103F80000FD057FD05D0D6DF07FC02D046F408C09D
:103F900050954095309521953F4F4F4F5F4F089575
:103FA00090958095709561957F4F8F4F9F4F0895A5
:103FB0000FD0A59F900DB49F900DA49F800D911DD3
:103FC00011240895B7FFF4CFF3DF821B930B0895FC
:103FD000A29FB001B39FC001A39F700D811D11244A
:103FE000911DB29F700D811D1124911D089550588F
:103FF000BB27AA270ED055CF46DF30F04BDF20F08D
:1040000031F49F3F11F41EF43BCF0EF4E095E7FB33
:1040100031CFE92F57DF80F3BA17620773078407A0
:10402000950718F071F49EF56FCF0EF4E0950B2E06
:10403000BA2FA02D0B01B90190010C01CA01A001FA
:104040001124FF27591B99F0593F50F4503E68F155
:104050001A16F040A22F232F342F4427585FF3CF96
:10406000469537952795A795F0405395C9F77EF467
:104070001F16BA0B620B730B840BBAF09150A1F0B0
:10408000FF0FBB1F661F771F881FC2F70EC0BA0F36
:10409000621F731F841F48F4879577956795B795BE
:1040A000F7959E3F08F0B3CF9395880F08F09927B6
:1040B000EE0F979587950895E6DE58F080E891E039
:1040C00009F49EEFE7DE28F040E851E059F45EEF96
:1040D00009C0D6CE19CFE92FE078F4DE68F3092EB7
:1040E000052AC1F3261737074807590738F00E2E5F
:1040F00007F8E02569F0E025E0640AC0EF6307F8FF
:10410000009407FADB01B9019D01DC01CA01AD0190
:10411000EF9346D0C6DE0AD05F91552331F02BEDE8
:104120003FE049E450FD49EC63CF0895DF93DD277C
:10413000B92FBF7740E85FE31616170648075B07FD
:1041400010F4D92F19D19F938F937F936F9363D1DD
:10415000EEE7F1E0AFD0A5DE2F913F914F915F9157
:1041600032DEDD2349F09058A2EA2AED3FE049EC27
:104170005FE3D0785D274DDFDF9193CEC1D0E3952B
:10418000E6C00CD08ECE86DE40F07DDE30F021F42D
:104190005F3F19F06FCE5111B8CE72CE93DE98F317
:1041A0009923C9F35523B1F3951B550BBB27AA27B8
:1041B00062177307840738F09F5F5F4F220F331F2A
:1041C000441FAA1FA9F333D00E2E3AF0E0E830D0F6
:1041D00091505040E695001CCAF729D0FE2F27D0F9
:1041E000660F771F881FBB1F261737074807AB07C7
:1041F000B0E809F0BB0B802DBF01FF2793585F4F3C
:104200002AF09E3F510568F035CE7FCE5F3FECF33C
:10421000983EDCF3869577956795B795F7959F5F00
:10422000C9F7880F911D9695879597F90895E1E054
:10423000660F771F881FBB1F621773078407BA07B3
:1042400020F0621B730B840BBA0BEE1F88F7E0950E
:10425000089504D06894B11158CE08953BDE88F0DB
:104260009F5790F0B92F9927B751A0F0D1F0660F62
:10427000771F881F991F1AF0BA95C9F712C0B1307D
:1042800081F042DEB1E008953FCE672F782F882776
:10429000B85F39F0B93FCCF3869577956795B395BC
:1042A000D9F73EF490958095709561957F4F8F4F2B
:1042B0009F4F0895DF93CF931F930F93FF92EF9239
:1042C000DF927B018C01689405C0DA2EEF017BDD63
:1042D000FE01E894A5912591359145915591AEF354
:1042E000EF0197DEFE019701A801DA9479F7DF90DC
:1042F000EF90FF900F911F91CF91DF910895C0CD66
:10430000E9DDE8F3E894E0E0BB279F57F0F02AED01
:104310003FE049EC06C0EE0FBB0F661F771F881FFA
:1043200028F0B23A62077307840728F0B25A620B8A
:10433000730B840BE3959A9572F7803830F49A9555
:10434000BB0F661F771F881FD2F790486DC0EF9391
:10435000E0FF06C0A2EA2AED3FE049EC5FEB59DE40
:10436000A0DD0F90039401FC9058EBEAF1E06FC0E0
:10437000FADC08F48FEF08959B01AC0160E070E077
:1043800080E89FE3FECE9F93BBDF0F9007FCEE5FBC
:10439000DECF11F40EF474CD45C09CDDD0F399232B
:1043A000D9F3CEF39F57550B87FF4AD00024A0E6E0
:1043B00040EA900180585695979528F4805C660FE6
:1043C000771F881F20F026173707480730F4621B35
:1043D000730B840B202931294A2BA6951794079437
:1043E000202531254A2758F7660F771F881F20F0B0
:1043F00026173707480730F4620B730B840B200D28
:10440000311D411DA09581F7B901842F9158880F66
:104410009695879508959B01AC01C9CCA4DC880BC7
:10442000990B08959F3F31F0915020F4879577952F
:104430006795B795880F911D9695879597F908957B
:1044400091505040660F771F881FD2F708959F93B1
:104450008F937F936F93FF93EF939B01AC01A7DC46
:10446000EF91FF9127DF2F913F914F915F919FCC6B
:10447000EE0FFF1F881F8BBF0790F691E02D199458
:1044800081E090E0F8941FC0FB01DC018D91019068
:1044900080190110D9F3990B0895FB01DC010190FB
:1044A0000D920020E1F70895FB01DC0141505040DE
:1044B00048F001900D920020C9F701C01D924150B3
:1044C0005040E0F7089511E0CEEFD1E000E005C0E4
:1044D000802FFE01CDDF2196011DCF3FD10780E067
:0844E0000807B1F7F894FFCFC3
:1044E800FFFF63008C006300000000007B17E916E3
:1044F8001417C11745172317371700000000930238
:10450800E916CD028E025602780265022047505302
:1045180020466978203D20002057617970696E74C3
:10452800204C4154203D20005374726169676874BF
:10453800005269676874004C656674004750524DB4
:104548004300474E524D4300475047474100474EAE
:10455800474741006E616E00696E66006F766600BF
:10456800564D4450565F317C315F564D4450560D80
:104578000A005374617274696E6700564D44504561
:104588005F003A323A007C005F564D445045000ABD
:0C4598000A53544F5050494E470A0A0085
:020000023000CC
:10E000000D9489F10D94B2F10D94B2F10D94B2F129
:10E010000D94B2F10D94B2F10D94B2F10D94B2F1F0
:10E020000D94B2F10D94B2F10D94B2F10D94B2F1E0
:10E030000D94B2F10D94B2F10D94B2F10D94B2F1D0
:10E040000D94B2F10D94B2F10D94B2F10D94B2F1C0
:10E050000D94B2F10D94B2F10D94B2F10D94B2F1B0
:10E060000D94B2F10D94B2F10D94B2F10D94B2F1A0
:10E070000D94B2F10D94B2F10D94B2F10D94B2F190
:10E080000D94B2F10D94B2F10D94B2F10D94B2F180
:10E090000D94B2F10D94B2F10D94B2F10D94B2F170
:10E0A0000D94B2F10D94B2F10D94B2F10D94B2F160
:10E0B0000D94B2F10D94B2F10D94B2F10D94B2F150
:10E0C0000D94B2F10D94B2F10D94B2F10D94B2F140
:10E0D0000D94B2F10D94B2F10D94B2F10D94B2F130
:10E0E0000D94B2F141546D656761323536300041AF
:10E0F000726475696E6F206578706C6F72657220DE
:10E1000073746B3530305632206279204D4C530099
:10E11000426F6F746C6F616465723E004875683F52
:10E1200000436F6D70696C6564206F6E203D200048
:10E130004350552054797065202020203D20005FF9
:10E140005F4156525F415243485F5F3D2000415658
:10E1500052204C696243205665723D20004743437C
:10E160002056657273696F6E203D20004350552024
:10E1700049442020202020203D20004C6F7720663D
:10E18000757365202020203D20004869676820665F
:10E190007573652020203D200045787420667573D6
:10E1A00065202020203D20004C6F636B2066757336
:10E1B000652020203D20004D617220203720323024
:10E1C000313300312E362E3800342E332E350056A2
:10E1D00023202020414444522020206F7020636F70
:10E1E00064652020202020696E73747275637469E1
:10E1F0006F6E2061646472202020496E74657272B3
:10E20000757074006E6F20766563746F7200726A49
:10E210006D702020006A6D70200057686174207056
:10E220006F72743A00506F7274206E6F7420737541
:10E2300070706F72746564004D7573742062652030
:10E2400061206C6574746572002000577269747483
:10E25000696E672045450052656164696E672045B7
:10E26000450045452065727220636E743D00504F35
:10E27000525400303D5A65726F2061646472003FF1
:10E280003D43505520737461747300403D454550C3
:10E29000524F4D207465737400423D426C696E6B41
:10E2A000204C454400453D44756D70204545505215
:10E2B0004F4D00463D44756D7020464C415348001B
:10E2C000483D48656C70004C3D4C69737420492F83
:10E2D0004F20506F72747300513D51756974005234
:10E2E0003D44756D702052414D00563D73686F7707
:10E2F00020696E7465727275707420566563746FF0
:10E30000727300593D506F727420626C696E6B00BD
:10E310002A0011241FBECFEFD1E2DEBFCDBF01E046
:10E320000CBF12E0A0E0B2E0EEE1FDEF03E00BBFB6
:10E3300002C007900D92A030B107D9F712E0A0E01B
:10E34000B2E001C01D92AE30B107E1F70F9460F367
:10E350000D948DFE01E20EBF0FEF0DBF11241FBE05
:10E360000D9460F30D9400F020E030E040ED57E0B4
:10E3700005C0FA013197F1F72F5F3F4F2817390792
:10E38000C0F308959C01260F311DC901A0E0B0E043
:10E390002F5F3F4FABBFFC018791882361F08093D3
:10E3A000C6008091C00086FFFCCF8091C0008064D1
:10E3B0008093C000EACF08958DE08093C6008091DD
:10E3C000C00086FFFCCF8091C00080648093C000B5
:10E3D0008AE08093C6008091C00086FFFCCF8091C8
:10E3E000C00080648093C00008950F94C2F10F9420
:10E3F000DCF10895FC019081992359F09093C600B7
:10E400008091C00086FFFCCF8091C0008064809323
:10E41000C0003196992379F70895282F982F929567
:10E420009F70892F805D8A3308F0895F8093C600D2
:10E430008091C00086FFFCCF8091C00080648093F3
:10E44000C000822F8F70982F905D9A3308F0995FEB
:10E450009093C6008091C00086FFFCCF8091C000E1
:10E4600080648093C00008959C01FB01853691056E
:10E470001CF46330710594F0C90164E670E00F94F8
:10E480002EFE605D7F4F6093C6008091C00086FFC6
:10E49000FCCF8091C00080648093C0002B30310598
:10E4A00014F43297B4F0C90164E670E00F942EFEC4
:10E4B0006AE070E00F942EFE605D7F4F6093C600AF
:10E4C0008091C00086FFFCCF8091C0008064809363
:10E4D000C000C9016AE070E00F942EFEC0968093E0
:10E4E000C6008091C00086FFFCCF8091C000806490
:10E4F0008093C00008951F93182F8EE692EE60E07F
:10E500000F94C2F11093C6008091C00086FFFCCF2B
:10E510008091C00080648093C0000F94DCF11F9153
:10E5200008952F923F924F925F926F927F928F92B7
:10E530009F92AF92BF92CF92DF92EF92FF920F9392
:10E540001F93DF93CF93CDB7DEB762970FB6F894E2
:10E55000DEBF0FBECDBF382E622ECA01DB015C01CB
:10E560006D01772420E2222E2E010894411C511CBB
:10E570008BC081E0A81680E0B80681E0C80680E084
:10E58000D80628F0C601AA27BB270F940DF2BB2797
:10E59000AD2D9C2D8B2D0F940DF28A2D0F940DF225
:10E5A0002092C6008091C00086FFFCCF8091C00001
:10E5B00080648093C0009DE29093C6008091C0006B
:10E5C00086FFFCCF8091C00080648093C0002092C1
:10E5D000C6008091C00086FFFCCF8091C00080649F
:10E5E0008093C00019828601750188249924A1E0D6
:10E5F0003A1651F03A1620F0B2E03B1661F409C029
:10E600000BBFF701779007C0C7010F9477FE782EF4
:10E6100002C0F7017080872D0F940DF22092C60082
:10E620008091C00086FFFCCF8091C0008064809301
:10E63000C000872D8052F401EF70F0708F3520F408
:10E64000E40DF51D708204C0E40DF51D8EE280839B
:10E650000894E11CF11C011D111D0894811C911CE2
:10E6600090E18916910409F0C2CF80E190E0A0E02A
:10E67000B0E0A80EB91ECA1EDB1E198AC2010F9493
:10E68000FAF10F94DCF16A94662009F072CF629679
:10E690000FB6F894DEBF0FBECDBFCF91DF911F91B3
:10E6A0000F91FF90EF90DF90CF90BF90AF909F9031
:10E6B0008F907F906F905F904F903F902F90089534
:10E6C0002F923F924F925F926F927F928F929F9282
:10E6D000AF92BF92CF92DF92EF92FF920F931F9370
:10E6E000DF93CF93CDB7DEB7CD53D1400FB6F894BB
:10E6F000DEBF0FBECDBF01E20EBF0FEF0DBF94B75F
:10E70000F894A89514BE80916000886180936000A1
:10E7100010926000789493FF05C0E0910002F091A0
:10E7200001021995279A2F9A8091C00082608093E8
:10E73000C00080E18093C40088E18093C1000000A4
:10E74000EE24FF24870144E0A42EB12CCC24DD2448
:10E7500024C0C5010197F1F70894E11CF11C011DCB
:10E76000111D21E2E2162EE4F20620E0020720E06D
:10E77000120718F031E0C32ED12CC801B70127ECE5
:10E780003BE140E050E00F9441FE611571058105C9
:10E79000910519F485B1805885B98091C00087FD35
:10E7A00003C0C114D104A9F2A6014F5F5F4FC25E3E
:10E7B000DE4F59834883CE51D140C25EDE4F8881FF
:10E7C0009981CE51D140019711F00D9410FEC05D9A
:10E7D000DE4F19821882C053D14060E0C15DDE4F28
:10E7E0001882CF52D14088249924C35DDE4F19820C
:10E7F0001882CD52D140C05EDE4F188219821A8233
:10E800001B82C052D140CE5CDE4F188219821A8220
:10E810001B82C253D140EE24FF2487010BBFF701B6
:10E8200007911691C45CDE4F19830883CC53D14005
:10E830000D940BFEC25EDE4F28813981CE51D1404E
:10E840002130310509F52091C600C25EDE4F1982E4
:10E850001882CE51D14022C02F5F3F4F4F4F5F4FA4
:10E86000213082E138078AE7480780E0580780F0C6
:10E87000C45CDE4FE881F981CC53D140EF5FFF4F9C
:10E8800019F0EE27FF27099420E030E040E050E047
:10E890008091C00087FFE0CF2091C600C35DDE4FAE
:10E8A00048815981CD52D1404F5F5F4FC35DDE4FEC
:10E8B00059834883CD52D140213209F063C64A3092
:10E8C000510508F05FC60894811C911C53E0851621
:10E8D000910409F059C600E010E018C081E280936D
:10E8E000C6008091C00086FFFCCF8091C00080648C
:10E8F0008093C0002F5F3F4F2931310579F70F9486
:10E90000DCF10F5F1F4F0530110519F020E030E0FA
:10E91000E5CF10920A0210920B0210920C02109294
:10E920000D02109206021092070210920802109235
:10E930000902109202021092030210920402109235
:10E9400005028FEE90EE60E00F94F5F180E191EE1C
:10E9500060E00F94C2F18091C00087FFFCCF9091DE
:10E96000C600903608F09F759032B8F09093C600BC
:10E970008091C00086FFFCCF8091C00080648093AE
:10E98000C000A0E2A093C6008091C00086FFFCCF2B
:10E990008091C00080648093C000983409F4D7C18E
:10E9A0009934B8F4923409F459C1933458F490333B
:10E9B00019F1903308F4E3C59F33A1F1903409F0C5
:10E9C000DEC5BDC0953409F470C1963409F0D7C5D1
:10E9D00098C1923509F42BC2933538F49C3409F46C
:10E9E000F5C1913509F0CBC518C2963509F445C279
:10E9F000993509F0C4C567C483E792EE62E00F94CD
:10EA0000F5F110920602109207021092080210927D
:10EA1000090210920A0210920B0210920C0210923C
:10EA20000D0213C18FE792EE62E00F94F5F18FEEC5
:10EA300090EE60E00F94F5F181E291EE60E00F94CA
:10EA4000C2F187EB91EE60E00F94F5F180E391EE77
:10EA500060E00F94C2F184EE90EE60E00F94F5F167
:10EA60008FE391EE60E00F94C2F186E090E061E008
:10EA700070E00F9434F20F94DCF18DE591EE60E0DC
:10EA80000F94C2F189EC91EE60E00F94F5F18EE401
:10EA900091EE60E00F94C2F183EC91EE60E00F9490
:10EAA000F5F18CE691EE60E00F94C2F18EE10F94E7
:10EAB0000DF288E90F940DF281E00F940DF20F949E
:10EAC000DCF18BE791EE60E00F94C2F119E0E0E039
:10EAD000F0E010935700E4918E2F0F940DF20F94F5
:10EAE000DCF18AE891EE60E00F94C2F1E3E0F0E03F
:10EAF00010935700E4918E2F0F940DF20F94DCF1D8
:10EB000089E991EE60E00F94C2F1E2E0F0E0109349
:10EB10005700E4918E2F0F940DF20F94DCF188EAE8
:10EB200091EE60E00F94C2F1E1E0F0E01093570045
:10EB30001491812F0F940DF20F94DCF107CF8BE825
:10EB400092EE62E00F94F5F18BE492EE60E00F94A8
:10EB5000F5F10F94DCF100E010E019C0C8016F2D51
:10EB60000F947FFEFF2031F489E492EE60E00F9471
:10EB7000C2F10BC0F092C6008091C00086FFFCCFAE
:10EB80008091C00080648093C0000F5F1F4FC80158
:10EB900081519F41A0E0B0E0ABBFFC01F790BAE229
:10EBA000FB1621F0E2E000301E07C1F60F94DCF105
:10EBB0000F94DCF187E592EE60E00F94F5F10F948D
:10EBC000DCF1CC24DD2400E010E01EC0C8010F946D
:10EBD00077FEF82E882331F489E492EE60E00F94FA
:10EBE000C2F10BC08093C6008091C00086FFFCCFAD
:10EBF0008091C00080648093C000FE1419F00894D6
:10EC0000C11CD11C0F5F1F4FC80181519F41A0E063
:10EC1000B0E0ABBFFC01E790FAE2EF1621F022E092
:10EC20000030120799F60F94DCF10F94DCF182E6C4
:10EC300092EE60E00F94C2F1C60161E070E00F94C3
:10EC400034F20F94DCF10F94DCF110920202109276
:10EC50000302109204021092050278CE89E992EE26
:10EC600062E00F94F5F1279A2F9A16C02F9880E052
:10EC700090E0E0EDF7E03197F1F7019684369105E9
:10EC8000C1F72F9A80E090E0E0EDF7E03197F1F7DF
:10EC9000019684369105C1F78091C00087FFE6CFC9
:10ECA0008091C00087FFFCCF64C485EA92EE62E0E9
:10ECB0000F94F5F140910202509103026091040219
:10ECC0007091050281E020E10F9491F2809102029F
:10ECD00090910302A0910402B091050280509F4FD1
:10ECE000AF4FBF4F8093020290930302A0930402A0
:10ECF000B093050280509041A040B04008F426CE69
:10ED0000A4CF83EB92EE62E00F94F5F140910602FE
:10ED100050910702609108027091090280E020E1A1
:10ED20000F9491F28091060290910702A09108023F
:10ED3000B091090280509F4FAF4FBF4F80930602A2
:10ED400090930702A0930802B0930902FFCD80ECD4
:10ED500092EE62E00F94F5F183E792EE60E00F949B
:10ED6000F5F18FE792EE60E00F94F5F18BE892EE0B
:10ED700060E00F94F5F189E992EE60E00F94F5F10F
:10ED800085EA92EE60E00F94F5F183EB92EE60E09D
:10ED90000F94F5F180EC92EE60E00F94F5F187ECC2
:10EDA00092EE60E00F94F5F188ED92EE60E00F9442
:10EDB000F5F18FED92EE60E00F94F5F18AEE92EEB0
:10EDC00060E00F94F5F183E093EEBDCD87EC92EE19
:10EDD00062E00F94F5F181E40F947BF282E40F94EA
:10EDE0007BF283E40F947BF284E40F947BF285E45E
:10EDF0000F947BF286E40F947BF287E40F947BF20E
:10EE000088E40F947BF28AE40F947BF28BE40F94F6
:10EE10007BF28CE40F947BF299CD88ED92EE62E068
:10EE20000F94F5F1772473948824992409C48FED05
:10EE300092EE62E00F94F5F140910A0250910B02BC
:10EE400060910C0270910D0282E020E10F9491F22A
:10EE500080910A0290910B02A0910C02B0910D02D8
:10EE600080509F4FAF4FBF4F80930A0290930B0289
:10EE7000A0930C02B0930D0269CD8AEE92EE62E08F
:10EE80000F94F5F184EE90EE60E00F94F5F18FECC5
:10EE900091EE60E00F94F5F1662477244301CC5D98
:10EEA000DE4F19821882C452D140D401C301B695F5
:10EEB000A79597958795CA5DDE4F88839983AA8326
:10EEC000BB83C652D140CC5DDE4FA881B981C4520C
:10EED000D1401196CC5DDE4FB983A883C452D14096
:10EEE000CD0162E070E00F9434F2B0E2B093C6005E
:10EEF0008091C00086FFFCCF8091C0008064809329
:10EF0000C000EDE2E093C6008091C00086FFFCCF18
:10EF10008091C00080648093C000F0E2F093C6004E
:10EF20008091C00086FFFCCF8091C00080648093F8
:10EF3000C000CA5DDE4FE880F9800A811B81C6529D
:10EF4000D140BB27A12F902F8F2D0F940DF2CA5DBA
:10EF5000DE4F8881C652D1400F940DF2B0E2FB2EF5
:10EF6000F092C6008091C00086FFFCCF8091C00067
:10EF700080648093C0000DE30093C6008091C000C0
:10EF800086FFFCCF8091C00080648093C00010E2B7
:10EF90001093C6008091C00086FFFCCF8091C00016
:10EFA00080648093C0008BBEF3012791C65DDE4F65
:10EFB0002883CA52D140A22EBB24CC24DD2408943D
:10EFC000611C711C811C911C8BBEF3018791282E42
:10EFD0003324442455240894611C711C811C911C09
:10EFE0008BBEF3013791C55DDE4F3883CB52D140E4
:10EFF0000894611C711C811C911C8BBEF30147910C
:10F00000C45DDE4F4883CC52D140ADEFEA2EAFEF66
:10F01000FA2EAFEF0A2FAFEF1A2F6E0C7F1C801E57
:10F02000911E142D032DF22CEE24EA0CFB1C0C1D5A
:10F030001D1D0F940DF220E22093C6008091C000A8
:10F0400086FFFCCF8091C00080648093C000C65DC5
:10F05000DE4F8881CA52D1400F940DF230E23093D6
:10F06000C6008091C00086FFFCCF8091C000806404
:10F070008093C000C45DDE4F8881CC52D1400F9494
:10F080000DF240E24093C6008091C00086FFFCCFA5
:10F090008091C00080648093C000C55DDE4F888190
:10F0A000CB52D1400F940DF250E25093C6008091A4
:10F0B000C00086FFFCCF8091C00080648093C000B8
:10F0C0008FEFE8168FEFF80680E0080780E018075A
:10F0D00031F484E092EE60E00F94C2F1DFC0D80119
:10F0E000C7018070907CA070B0708050904CA040A0
:10F0F000B040D1F52FEF3FE340E050E0E222F322B1
:10F1000004231523CA5DDE4FA880B980CA80DB8046
:10F11000C652D140AE0CBF1CC01ED11EAA0CBB1CD7
:10F12000CC1CDD1C8EE092EE60E00F94C2F1BB2798
:10F13000A12F902F8F2D0F940DF28E2D0F940DF285
:10F1400030E23093C6008091C00086FFFCCF8091F2
:10F15000C00080648093C0004EE34093C60080915D
:10F16000C00086FFFCCF87C08EE09EEFA0E0B0E03D
:10F17000E822F9220A231B239CE0E91694E9F90608
:10F1800090E0090790E0190709F088C0C45DDE4FE0
:10F19000A881CC52D140EA2EFF2400E010E0102FCD
:10F1A0000F2DFE2CEE24C55DDE4FB881CB52D14031
:10F1B000EB0EF11C011D111DD601C501817090706F
:10F1C000A070B070DC0199278827E80EF91E0A1F8D
:10F1D0001B1F20EF30E040E050E0A222B322C42207
:10F1E000D52241E1AA0CBB1CCC1CDD1C4A95D1F7F1
:10F1F000EA0CFB1C0C1D1D1D81E090E0A0E0B0E0BE
:10F20000282239224A225B2235E1220C331C441C7D
:10F21000551C3A95D1F7E20CF31C041D151D57013E
:10F220006801AA0CBB1CCC1CDD1C85E192EE60E0E1
:10F230000F94C2F1C801AA27BB270F940DF2BB2778
:10F24000A12F902F8F2D0F940DF28E2D0F940DF274
:10F2500090E29093C6008091C00086FFFCCF809121
:10F26000C00080648093C000AEE3A093C60080918C
:10F27000C00086FFFCCF8091C00080648093C000F6
:10F28000C601AA27BB270F940DF2BB27AD2D9C2DDD
:10F290008B2D0F940DF28A2D0F940DF20F94DCF14B
:10F2A000CC5DDE4FE881F981C452D140F99709F471
:10F2B0004DCBF4E0EF2EF12C012D112D6E0C7F1CA7
:10F2C000801E911EF2CD83E093EE62E00F94F5F183
:10F2D0008AE192EE60E00F94C2F18091C00087FF56
:10F2E000FCCF1091C6001F751093C6008091C0001E
:10F2F00086FFFCCF8091C00080648093C0000F9493
:10F30000DCF1812F81548A3108F036C1163409F4BA
:10F3100095C0173490F4133409F44EC0143430F40B
:10F320001134F1F0123409F01DC130C0143409F465
:10F3300059C0153409F016C16BC01A3409F4C4C0A1
:10F340001B3438F4173409F48FC0183409F00AC19B
:10F35000A1C01B3409F4D2C01C3409F003C1E8C0B9
:10F360008FEF81B90DC082B1809582B980E090E0C5
:10F37000E0EDF7E03197F1F70196883C9105C1F790
:10F380008091C00087FFEFCF12B8EFC08FEF84B934
:10F390000DC085B1809585B980E090E0E0EDF7E0A3
:10F3A0003197F1F70196883C9105C1F78091C00033
:10F3B00087FFEFCF15B8D9C08FEF87B90DC088B1DF
:10F3C000809588B980E090E0E0EDF7E03197F1F7C3
:10F3D0000196883C9105C1F78091C00087FFEFCF6F
:10F3E00018B8C3C08FEF8AB90DC08BB180958BB9A7
:10F3F00080E090E0E0EDF7E03197F1F70196883C8E
:10F400009105C1F78091C00087FFEFCF1BB8ADC059
:10F410008FEF8DB90DC08EB180958EB980E090E0F0
:10F42000E0EDF7E03197F1F70196883C9105C1F7DF
:10F430008091C00087FFEFCF1EB897C08FEF80BBD1
:10F440000DC081B3809581BB80E090E0E0EDF7E0F6
:10F450003197F1F70196883C9105C1F78091C00082
:10F4600087FFEFCF11BA81C08FEF83BB0DC084B38C
:10F47000809584BB80E090E0E0EDF7E03197F1F714
:10F480000196883C9105C1F78091C00087FFEFCFBE
:10F4900014BA6BC08FEF809301010FC080910201FD
:10F4A00080958093020180E090E0E0EDF7E03197F5
:10F4B000F1F70196883C9105C1F78091C00087FF64
:10F4C000EDCF1092020151C08FEF809304010FC065
:10F4D0008091050180958093050180E090E0E0ED4A
:10F4E000F7E03197F1F70196883C9105C1F78091DB
:10F4F000C00087FFEDCF1092050137C08FEF8093DA
:10F5000007010FC08091080180958093080180E079
:10F5100090E0E0EDF7E03197F1F70196883C910536
:10F52000C1F78091C00087FFEDCF109208011DC088
