:1000000077C100000C945C0A0C94310A0C94060A27
:100010000C94DB090C94B0090C9485090C945A09D2
:100020000C942F090C94BA080C944B08BEC700001E
:1000300090C100008EC100008CC100008AC1000088
:1000400088C1000086C1000084C1000082C1000098
:1000500080C100007EC100007CC100002AC40000F5
:1000600078C100000C941C110C94F31072C10000B4
:1000700070C100006EC100006CC100006AC10000C8
:1000800068C1000066C1000064C1000062C10000D8
:1000900060C100005EC100005CC100005AC10000E8
:1000A00058C1000056C1000054C1000052C10000F8
:1000B00050C100004EC100008AC5000036C60000D5
:1000C0003BC5000046C1000044C1000042C1000021
:1000D00040C100003EC100003CC100003AC1000028
:1000E00038C10000C501C801B701BB01C101FF0152
:1000F000CC01D001D601DA01DE01E401E801EC0116
:10010000FF01F201F601FA017E03830388039203E3
:100110009C031504A603AE03B603C003CA03D403AD
:10012000E303ED031504F70301040B04B40CC50C41
:10013000C80CCF0CD60C020D090D160D220D2D0D7D
:100140002D0D2D0D2D0D2D0D2D0D2D0D2D0D2D0DDF
:100150002D0D2D0D2D0D2D0D2D0D2D0D2D0D2D0DCF
:100160002D0D2D0D2D0D2D0D2D0D2D0DB40CC00CA7
:10017000C50CC80CCF0CD60CDD0CE90CF50C00003E
:100180002100240027002A002D0030003300010147
:100190000000040107010A010000220025002800D8
:1001A0002B002E003100340002010000050108017F
:1001B0000B0100000A0B02090C0D0E0807030401D5
:1001C000000000000000000000000000000000002F
:1001D00000000000000000000000000000001211FC
:1001E00010000000000000000000000000000000FF
:1001F0000000000000000000000020002300260096
:1002000029002C002F00320000010000030106012C
:10021000090100010405050303040506040506079A
:1002200001000100030201000001020304050607AA
:100230000706050403020100070201000706050482
:100240000302010003020100000102030405060786
:10025000000102030405060702030405060607055C
:10026000050505070508080808020202020A0A082F
:100270000804040404010101010101010103030355
:100280000303030303040707070C0C0C0C0C0C0CF2
:100290000C0202020206060606060606060B0B0BF9
:1002A0000B0B0B0B0B010210202008081020401034
:1002B000204080020102010804020101020408102A
:1002C0002040808040201008040201800402018048
:1002D0004020100804020108040201010204081071
:1002E000204080010204081020408000B5119711C1
:1002F00011241FBECFEFD1E2DEBFCDBF00E00CBFA7
:1003000012E0A0E0B2E0E6E3FEE200E00BBF02C0D4
:1003100007900D92A838B107D9F725E0A8E8B2E018
:1003200001C01D92A137B207E1F711E0C7E7D1E0A4
:1003300000E006C021970109802FFE010E94CB1624
:10034000C637D10780E00807A9F70E94EF120C9486
:100350000A1756CE90E0FC013197E231F10508F022
:100360004EC08827EE58FF4F8F4F0C94CB168091CC
:1003700080008F7703C0809180008F7D8093800004
:10038000089580918000877FF9CF84B58F7702C070
:1003900084B58F7D84BD08958091B0008F7703C0B0
:1003A0008091B0008F7D8093B0000895809190007F
:1003B0008F7707C0809190008F7D03C0809190005F
:1003C000877F8093900008958091A0008F7707C069
:1003D0008091A0008F7D03C08091A000877F8093D3
:1003E000A0000895809120018F7707C0809120019F
:1003F0008F7D03C080912001877F80932001089525
:100400003FB7F89480913D0390913E03A0913F0344
:10041000B091400326B5A89B05C02F3F19F0019667
:10042000A11DB11D3FBFBA2FA92F982F8827820F7A
:10043000911DA11DB11DBC01CD0142E0660F771FCA
:10044000881F991F4A95D1F70895509157054091FB
:100450005605852F90E0242F30E0541710F4805B70
:100460009F4F821B930B089580915705E09156058D
:100470008E1751F0EF5FE03508F0E0E0F0E0E85172
:10048000FD4F808190E008958FEF9FEF0895809158
:10049000570590915605891769F09F5F903508F0D0
:1004A00090E0E92FF0E0E851FD4F808190935605F0
:1004B00090E008958FEF9FEF089580915505811189
:1004C000FCCF0895809154058F5F843408F080E05C
:1004D000909153059817E1F32FB7F8949091550533
:1004E000992341F0E82FF0E0E256FD4F60838093BE
:1004F00054051DC081E0809355056093E30210927E
:10050000E20282E08ABB8091730082608093730074
:10051000809120018F738068809320018091240155
:1005200090912501409690932901809328012FBF37
:1005300081E090E008950F931F93CF93DF93082FEE
:1005400070E0FB01EE54FE4F8491FB01EB55FD4F33
:10055000D491FB01E15AFD4FC49110E0CC23D1F0BE
:100560008111F8DEEC2FF0E0EE0FFF1FE850FE4F98
:10057000A591B491EC91ED2369F042DF000F111FBA
:10058000000F111FF801E857FD4F608371838283CC
:10059000938313C035DFF801EE0FFF1FEE0FFF1F2F
:1005A000E857FD4F20813181621B730B000F111F33
:1005B000F801E35AFA4F71836083DF91CF911F9165
:1005C0000F91089563E481E0B6CF62E480E0B3CF99
:1005D000089580E090E008951F93CF93DF93282F34
:1005E00030E0F901EE54FE4F8491F901EB55FD4FD7
:1005F000D491F901E15AFD4FC491CC23C1F0162FDB
:100600008111A8DEEC2FF0E0EE0FFF1FE856FE4F41
:10061000A591B4918FB7F894111105C09C91ED2F5D
:10062000E095E92302C0EC91ED2BEC938FBFDF91B5
:10063000CF911F910895CF93DF9390E0FC01EB558C
:10064000FD4F2491FC01E15AFD4F8491882361F113
:1006500090E0880F991FFC01E258FE4FC591D4919C
:10066000FC01E856FE4FA591B491611109C09FB7F6
:10067000F8948881209582238883EC912E230BC0E7
:10068000623061F49FB7F8943881822F809583237C
:100690008883EC912E2B2C939FBF06C08FB7F894C4
:1006A000E8812E2B28838FBFDF91CF9108951F9370
:1006B000CF93DF93182FEB0161E0BDDF209711F49A
:1006C00060E004C0CF3FD10531F461E0812FDF91BC
:1006D000CF911F9181CFE12FF0E0EE54FE4FE491D6
:1006E0004E2F50E0FA013197E231F10508F09DC03C
:1006F0008827EC57FF4F8F4F0C94CB1684B580683A
:1007000084BDC7BD97C084B5806284BDC8BD92C09A
:1007100080918000806880938000D0938900C0938E
:10072000880088C080918000806280938000D09390
:100730008B00C0938A007EC0809180008860809387
:100740008000D0938D00C0938C0074C08091B00065
:1007500080688093B000C093B3006CC08091B000FB
:1007600080628093B000C093B40064C08091900018
:10077000806880939000D0939900C09398005AC0ED
:1007800080919000806280939000D0939B00C093F2
:100790009A0050C080919000886080939000D09320
:1007A0009D00C0939C0046C08091A000806880930B
:1007B000A0008091A0008F7B8093A000D093A9001F
:1007C000C093A80037C08091A00080628093A000F1
:1007D000D093AB00C093AA002DC08091A000886088
:1007E0008093A000D093AD00C093AC0023C0809153
:1007F0002001806880932001D0932901C0932801B3
:1008000019C080912001806280932001D0932B0138
:10081000C0932A010FC0809120018860809320013D
:10082000D0932D01C0932C0105C0C038D1050CF028
:100830004CCF46CFDF91CF911F9108952FB7F894F9
:100840006091390370913A0380913B0390913C038E
:100850002FBF0895CF92DF92EF92FF9260E08AE27D
:10086000BBDEECDF6B017C0180919A0290919B02D0
:10087000A0919C02B0919D02A7019601281B390B03
:100880004A0B5B0BDA01C901883B9B40A105B1050E
:1008900058F061E08AE2A0DEC0929A02D0929B02F8
:1008A000E0929C02F0929D02FF90EF90DF90CF903B
:1008B00008951F920F920FB60F9211242F933F931A
:1008C0008F939F93AF93BF938091390390913A0395
:1008D000A0913B03B0913C033091380323E0230FF8
:1008E0002D3720F40196A11DB11D05C026E8230F68
:1008F0000296A11DB11D2093380380933903909374
:100900003A03A0933B03B0933C0380913D03909145
:100910003E03A0913F03B09140030196A11DB11D7C
:1009200080933D0390933E03A0933F03B093400315
:10093000BF91AF919F918F913F912F910F900FBEDB
:100940000F901F901895CF93DF93EC018A859B85BC
:10095000AC85BD858E839F83A887B9876FDF6A8347
:100960007B838C839D8381E089838883DF91CF9112
:1009700008952F923F924F925F926F927F928F9243
:100980009F92AF92BF92CF92DF92EF92FF920F931E
:100990001F93CF93DF93D82FC92F8B010E942D1661
:1009A00024E630E040E050E00E94771649015A0109
:1009B0009B01AC0160E876E988E990E00E94681646
:1009C0006B017C01F80191828082ED2FFC2F219137
:1009D000822F022E000C990BC0970A97C0F32E327B
:1009E00039F51F0180E8882E86E9982E88E9A82E1F
:1009F000B12C9AE0492E512C612C712CF101C1913E
:100A00001F010C2E000CDD0BE097CA30D10580F4DD
:100A1000C501B401A30192010E94771649015A0150
:100A2000DE010E94A316C60ED71EE81EF91EE6CFF1
:100A3000A5E0B0E0A70196010E9499166F5F7F4F75
:100A40008F4F9F4F23E030E040E050E00E94771648
:100A5000F80122833383448355831682DF91CF913B
:100A60001F910F91FF90EF90DF90CF90BF90AF90CC
:100A70009F908F907F906F905F904F903F902F90BE
:100A80000895FF920F931F93CF93DF93EC01FF2400
:100A9000F39488818D3211F0F12C01C02196CE01A2
:100AA0000E942D169B01AC01A4E6B0E00E949916AD
:100AB000FE014991242F042E000C330B20533109E1
:100AC0002A303105A8F34E3241F52181022E000C67
:100AD000330B205331092A303105F8F44AE0429FA4
:100AE0008001439F100D1124012E000C220B330BAB
:100AF000600F711F821F931F0281002E000C110BCB
:100B0000005311090A30110540F4012E000C220B8C
:100B1000330B600F711F821F931FFF2039F09095D8
:100B20008095709561957F4F8F4F9F4FDF91CF914B
:100B30001F910F91FF9008951F920F920FB60F9281
:100B400011240BB60F922F938F939F93EF93FF93E4
:100B5000809173008B7F80937300809121018F7B44
:100B600080932101809158052091E70220589091AF
:100B7000E602893020F49695922B8F5FFACF9093FE
:100B8000E602809157058F5F803508F080E0209164
:100B90005605821739F0E82FF0E0E851FD4F9083B9
:100BA0008093570510925805809121018F7B809387
:100BB00021011092E702FF91EF919F918F912F9168
:100BC0000F900BBE0F900FBE0F901F9018951F92A5
:100BD0000F920FB60F9211240BB60F922F933F93E3
:100BE0004F935F936F937F938F939F93AF93BF9335
:100BF000EF93FF9380912601909127014091E702A6
:100C000020912101442331F02F7B20932101109268
:100C1000E70206C020642093210120E82093E70228
:100C200030915805311125C041116CC020915905F2
:100C300030915A05280F391F30932B0120932A0138
:100C400024E02ABB2091730024602093730020913C
:100C50005B0530915C05820F931F36952795820FB7
:100C6000931F9093E5028093E40281E080935805FE
:100C700049C04091E4025091E50260915B0570919A
:100C80005C05DB01A095B095E091E7022091E602BA
:100C9000841B950BA817B90768F126952E2B460FD4
:100CA000571F3F5F861B970B3930A0F32093E60256
:100CB000809173008B7F80937300809157058F5FC5
:100CC000803508F080E090915605891749F0E82FAB
:100CD000F0E09091E602E851FD4F90838093570534
:100CE000809121018F7B809321011092E702109265
:100CF000580508C02093E6025093E5024093E402B1
:100D000030935805FF91EF91BF91AF919F918F91D3
:100D10007F916F915F914F913F912F910F900BBEFB
:100D20000F900FBE0F901F9018951F920F920FB645
:100D30000F9211240BB60F922F933F934F935F9313
:100D40006F937F938F939F93EF93FF9380915505BC
:100D50006091E302209128013091290140915B05C7
:100D600050915C059091E2028A30F8F4240F351F0F
:100D7000893019F0762F717001C071E066958F5F30
:100D8000791791F390912001772311F0906C02C0B4
:100D90009F7390689093200130932901209328013C
:100DA0007093E2026093E3024AC090915405E0918F
:100DB00053059E1319C08A3051F48BE0809355057A
:100DC000240F351F30932901209328013AC0109237
:100DD0005505809120018F738093200180917300CD
:100DE0008D7F809373002DC0EF5FE43408F0E0E066
:100DF000E0935305F0E0E256FD4F90819093E302BB
:100E00001092E202909120019F73906890932001CC
:100E10008A3059F480915B0590915C05280F391F49
:100E2000309329012093280109C0809124019091D9
:100E300025014096909329018093280181E08093B9
:100E40005505FF91EF919F918F917F916F915F91E8
:100E50004F913F912F910F900BBE0F900FBE0F90AF
:100E60001F901895CF92DF92EF92FF9260E08AE296
:100E7000B3DBE4DC6B017C018091960290919702D8
:100E8000A0919802B0919902A7019601281B390BF5
:100E90004A0B5B0BDA01C90180339547A105B10507
:100EA00058F061E08AE298DBC0929602D0929702F5
:100EB000E0929802F0929902FF90EF90DF90CF902D
:100EC0000895CF93DF9360E082E286DB83E090E0D9
:100ED0000197F1F761E082E27FDB8BE290E001971E
:100EE000F1F760E082E278DB83E2A6D7CB0164E928
:100EF00070E00E94B816EB016F3171054CF481E08F
:100F0000809390026331710544F4C0E0D0E006C0E4
:100F1000109290026D3371050CF49CDC60E084E269
:100F20005BDB83E090E00197F1F761E084E254DB62
:100F30008BE290E00197F1F760E084E24DDB85E21F
:100F40007BD781E0809391028091940290919502E9
:100F5000BE01680F791F77FF02C06F5F7F4F7595E5
:100F6000679570939502609394028091920290919C
:100F7000930280519F4F97FD019695958795909389
:100F8000930280939202DF91CF9108958091900215
:100F9000811104C080919102882331F066E272E0F1
:100FA00089E893E00C94D90F08951F920F920FB621
:100FB0000F9211240BB60F922F933F934F935F9391
:100FC0006F937F938F939F93AF93BF93CF93EF9341
:100FD000FF9320910601C091510390918603809167
:100FE0008303322F309583239223892B90916D00B8
:100FF000C227C923C82320935103CC23C1F1C0FFCA
:1010000005C0E0915203F09153031995C1FF05C04B
:10101000E0915403F09155031995C2FF05C0E0918A
:101020005603F09157031995C3FF05C0E09158038B
:10103000F09159031995C4FF05C0E0915A03F0914E
:101040005B031995C5FF05C0E0915C03F0915D035A
:101050001995C6FF05C0E0915E03F0915F031995F5
:10106000C7FF05C0E0916003F09161031995FF91FE
:10107000EF91CF91BF91AF919F918F917F916F91A0
:101080005F914F913F912F910F900BBE0F900FBE2C
:101090000F901F9018951F920F920FB60F92112468
:1010A0000BB60F922F933F934F935F936F937F9362
:1010B0008F939F93AF93BF93CF93EF93FF93209121
:1010C0000301C09163039091870380918403322FC1
:1010D000309583239223892B90916203C227C923E1
:1010E000C82320936303CC2389F1C0FF05C0E0919E
:1010F0006403F09165031995C1FF05C0E091660393
:10110000F09167031995C2FF05C0E0916803F09163
:1011100069031995C3FF05C0E0916A03F0916B0361
:101120001995C4FF05C0E0916C03F0916D0319950A
:10113000C5FF05C0E0916E03F0916F031995C6FFDE
:1011400005C0E0917003F09171031995FF91EF9143
:10115000CF91BF91AF919F918F917F916F915F914F
:101160004F913F912F910F900BBE0F900FBE0F909C
:101170001F9018951F920F920FB60F9211240BB665
:101180000F922F933F934F935F936F937F938F9320
:101190009F93AF93BF93CF93EF93FF9323B1C091EE
:1011A00072039091880380918503322F30958323B9
:1011B0009223892B90916B00C227C923C8232093C7
:1011C0007203CC23C1F1C0FF05C0E0917303F0911D
:1011D00074031995C1FF05C0E0917503F091760382
:1011E0001995C2FF05C0E0917703F0917803199536
:1011F000C3FF05C0E0917903F0917A031995C4FF0C
:1012000005C0E0917B03F0917C031995C5FF05C0F3
:10121000E0917D03F0917E031995C6FF05C0E09132
:101220007F03F09180031995C7FF05C0E09181030A
:10123000F09182031995FF91EF91CF91BF91AF91FA
:101240009F918F917F916F915F914F913F912F91DE
:101250000F900BBE0F900FBE0F901F9018951F920E
:101260000F920FB60F9211240BB60F922F933F934C
:101270004F935F936F937F938F939F93AF93BF939E
:10128000EF93FF93E0914F03F09150031995FF9175
:10129000EF91BF91AF919F918F917F916F915F91EE
:1012A0004F913F912F910F900BBE0F900FBE0F905B
:1012B0001F9018951F920F920FB60F9211240BB624
:1012C0000F922F933F934F935F936F937F938F93DF
:1012D0009F93AF93BF93EF93FF93E0914D03F091F2
:1012E0004E031995FF91EF91BF91AF919F918F910F
:1012F0007F916F915F914F913F912F910F900BBE16
:101300000F900FBE0F901F9018951F920F920FB65F
:101310000F9211240BB60F922F933F934F935F932D
:101320006F937F938F939F93AF93BF93EF93FF93AD
:10133000E0914B03F0914C031995FF91EF91BF9110
:10134000AF919F918F917F916F915F914F913F915D
:101350002F910F900BBE0F900FBE0F901F901895FE
:101360001F920F920FB60F9211240BB60F922F936C
:101370003F934F935F936F937F938F939F93AF931D
:10138000BF93EF93FF93E0914903F0914A031995BE
:10139000FF91EF91BF91AF919F918F917F916F914D
:1013A0005F914F913F912F910F900BBE0F900FBE09
:1013B0000F901F9018951F920F920FB60F92112445
:1013C0000BB60F922F933F934F935F936F937F933F
:1013D0008F939F93AF93BF93EF93FF93E091470356
:1013E000F09148031995FF91EF91BF91AF919F91B3
:1013F0008F917F916F915F914F913F912F910F90BE
:101400000BBE0F900FBE0F901F9018951F920F925A
:101410000FB60F9211240BB60F922F933F934F9359
:101420005F936F937F938F939F93AF93BF93EF934C
:10143000FF93E0914503F09146031995FF91EF91D9
:10144000BF91AF919F918F917F916F915F914F91DC
:101450003F912F910F900BBE0F900FBE0F901F90DA
:1014600018951F920F920FB60F9211240BB60F9280
:101470002F933F934F935F936F937F938F939F939C
:10148000AF93BF93EF93FF93E0914303F091440335
:101490001995FF91EF91BF91AF919F918F917F919E
:1014A0006F915F914F913F912F910F900BBE0F90D5
:1014B0000FBE0F901F9018951F920F920FB60F92AC
:1014C00011240BB60F922F933F934F935F936F931B
:1014D0007F938F939F93AF93BF93EF93FF93E0918D
:1014E0004103F09142031995FF91EF91BF91AF91A4
:1014F0009F918F917F916F915F914F913F912F912C
:101500000F900BBE0F900FBE0F901F901895CF92AB
:10151000DF92EF92FF920F931F93CF93DF936C01B3
:101520007A018B01C0E0D0E0CE15DF0589F0D8014B
:101530006D918D01D601ED91FC910190F081E02D2E
:10154000C6011995892B11F47E0102C02196ECCFBA
:10155000C701DF91CF911F910F91FF90EF90DF9026
:10156000CF900895EF92FF920F931F93CF93DF9345
:1015700040911705509118056091190570911A0551
:101580004F5F5F4F6F4F7F4F409317055093180584
:101590006093190570931A05843209F498C2E0919A
:1015A0001105853234F48A3071F08D3009F09DC216
:1015B0000AC08A3241F08C3209F097C29091FE0441
:1015C00098279093FE04082FEF3008F06BC1F0E0ED
:1015D000E050FB4F10828091FF04882309F464C11E
:1015E000209100053FEB320F822F022E000C990B49
:1015F000363010F4C79707C02156263018F48755A7
:10160000910901C0C097282F2295207F30910105B4
:101610004FEB430F832F032E000C990B463010F431
:10162000C79707C03156363018F48755910901C065
:10163000C097820F9091FE04891321C180912305E8
:1016400090912405A0912505B09126050196A11D34
:10165000B11D8093230590932405A0932505B09395
:10166000260580911205882399F080911B059091A1
:101670001C05A0911D05B0911E050196A11DB11D6F
:1016800080931B0590931C05A0931D05B0931E0528
:1016900010910F05112309F467C0113009F0C9C07A
:1016A0008091A2049091A304A091A404B091A504F8
:1016B00080939E0490939F04A093A004B093A104F0
:1016C000BDD86093A6047093A7048093A804909358
:1016D000A90410939D0410939C048091B0049091F0
:1016E000B104A091B204B091B3048093AC04909380
:1016F000AD04A093AE04B093AF04A0D86093B4043B
:101700007093B5048093B6049093B7041093AB0420
:101710001093AA0480911205882309F48AC087E0F7
:10172000EAE8F4E0ACE7B4E001900D928A95E1F7C5
:1017300087E0E1E9F4E0A3E8B4E001900D928A9536
:10174000E1F77CD8609398047093990480939A048D
:1017500090939B0410937B0410937A0488EB94E09D
:10176000F2D886EC94E064C08091B0049091B1040A
:10177000A091B204B091B3048093AC049093AD04F3
:10178000A093AE04B093AF0459D86093B40470939F
:10179000B5048093B6049093B70411E01093AB04A2
:1017A0001093AA0480911205882311F187E0EAE8DA
:1017B000F4E0ACE7B4E001900D928A95E1F787E0A0
:1017C000E1E9F4E0A3E8B4E001900D928A95E1F735
:1017D00035D8609398047093990480939A049093F9
:1017E0009B0410937B0410937A0484ED94E0ABD8AF
:1017F0008091EC049091ED04A091EE04B091EF047F
:101800008093E8049093E904A093EA04B093EB0476
:1018100015D86093E4047093E5048093E6049093F4
:10182000E70481E08093E3048093E20480EF94E096
:101830008AD8C0911505D091160511E0209709F4BA
:1018400037C1E0911505F091160566A177A18EA12B
:101850009FA10E94EB16892B09F02AC1BE01CE017F
:1018600040960E94F4160E941E0468A379A38AA3DE
:101870009BA31DA31CA30AA4DBA5C02DDFCF8091D1
:101880001F0590912005A0912105B0912205019698
:10189000A11DB11D80931F0590932005A0932105E4
:1018A000B093220590E005C180911005811142C0DE
:1018B0006BE272E080E095E00E94EB16892B41F02C
:1018C00061E372E080E095E00E94EB16892B11F451
:1018D00081E014C067E372E080E095E00E94EB16BF
:1018E000892B41F06DE372E080E095E00E94EB16F9
:1018F000892B19F410920F0503C082E080930F0525
:101900008091130590911405909316058093150509
:10191000C0911505D0911605209721F2EEA0FFA0E9
:1019200060E075E0C7010E94EB1697FFF4C08AA53E
:101930009BA5EACFE0910F05E23009F48EC09091AB
:101940000005992309F489C020E2E29FF0011124E7
:10195000E82B3197E932F10508F07FC08827EA5675
:10196000FF4F8F4F0C94CB1680E095E08AD86093A0
:10197000B0047093B1048093B2049093B3046DC02B
:1019800081E0913409F041C041C06AE874E009C0C7
:1019900081E0933509F080E0809390045EC061E9B6
:1019A00074E080E095E00E94B90457C081E097356B
:1019B00009F080E08093970450C080E095E061D802
:1019C0006093C2047093C3048093C4049093C504CD
:1019D00044C080E095E055D86093D0047093D10462
:1019E0008093D2049093D30438C080E095E00E94A5
:1019F0002D166093A2047093A3048093A404909383
:101A0000A5042BC081E091330CF480E08093120593
:101A100024C080E095E00E942D166093EC04709342
:101A2000ED048093EE049093EF0417C080E095E0FE
:101A300028D86093FA047093FB048093FC0490937D
:101A4000FD040BC080E095E01CD86093DE04709329
:101A5000DF048093E0049093E104C0911505D091D8
:101A60001605209709F41ECFE0911505F091160593
:101A700066A177A18EA19FA10E94EB16892B09F088
:101A800011CF28A539A58091100590E08217930702
:101A90000CF408CF2817390739F440E150E060E032
:101AA00075E0CE010E94FB160AA4DBA5C02DD9CF9C
:101AB00091E0809110058F5F8093100510921105C1
:101AC00081E00A3209F080E08093FF0432C0109276
:101AD0001105109210051092FE0482E080930F050C
:101AE0001092FF041092120514C0EE3040F491E001
:101AF0009E0F90931105F0E0E050FB4F8083909192
:101B0000FF04911106C02091FE0482278093FE04F9
:101B100010C090E00EC060E075E0C7010E94EB16B7
:101B2000181619060CF0BECE109216051092150567
:101B3000B9CE892FDF91CF911F910F91FF90EF9038
:101B40000895E9E8F3E0A089B18982E08C93A48547
:101B5000B5851C92A685B78580E18C93108EA489EB
:101B6000B58986E08C93A289B3898C9180618C932E
:101B7000A289B3898C9188608C93A289B3898C9156
:101B800080688C930288F389E02D80818F7D80832B
:101B900008958F779EEF980F923008F4A4C095EBCC
:101BA000980F923008F49FC09EEE980F943008F47E
:101BB0009AC0282F30E0F901863420F0E156FD4F1D
:101BC000849116C0EB55FD4F8491F901E15AFD4F08
:101BD0009491923059F440918803482B40938803A4
:101BE00040918503482B409385031AC09A3061F4D5
:101BF00090918703982B9093870390918403982B5F
:101C0000909384039AE00CC09B3051F4409186037A
:101C1000482B4093860340918303482B40938303D2
:101C2000F901EE5EFD4FA4919230C1F4B0E0AA0F2D
:101C3000BB1FAD58BC4F6D937C93ECEFF1E0A591C9
:101C4000B4919C91909372032BE630E0309352054F
:101C5000209351059091680091603BC09A3001F546
:101C6000B0E0AA0FBB1FAC59BC4F6D937C93ECE066
:101C7000F2E0A591B4919C91909363032CE630E03F
:101C80003093520520935105909168009260909393
:101C9000680090916203982B90936203880F1BC099
:101CA0009B30C9F4B0E0AA0FBB1FAE5ABC4F6D9376
:101CB0007C93EEE0F2E0A591B4919C919093510356
:101CC0002DE630E030935205209351059091680045
:101CD000946090936800A0915105B0915205EC91E9
:101CE0008E2B8C9308959FB7F894833109F45BC0D1
:101CF000D8F4833009F47BC0823109F466C08230A5
:101D000009F098C070934A0360934903EC9880915E
:101D10006A008C7F80936A0080916A008160809362
:101D20006A00E49AEC9A86C08531C9F050F18B3490
:101D300009F46FC08C3409F07DC070935003609338
:101D40004F03EF9880916A008F7380936A008091AF
:101D50006A00806480936A00E79AEF9A6BC0709380
:101D6000420360934103E898809169008C7F8093DF
:101D7000690080916900816080936900E09AE89A27
:101D800059C07093440360934303E99880916900BC
:101D9000837F8093690080916900846080936900EB
:101DA000E19AE99A47C07093460360934503EA9825
:101DB000809169008F7C80936900809169008061C7
:101DC00080936900E29AEA9A35C070934803609361
:101DD0004703EB98809169008F738093690080912D
:101DE0006900806480936900E39AEB9A23C0709342
:101DF0004C0360934B03ED9880916A00837F80933E
:101E00006A0080916A00846080936A00E59AED9A86
:101E100011C070934E0360934D03EE9880916A0059
:101E20008F7C80936A0080916A00806180936A0051
:101E3000E69AEE9A9FBF08950F931F9390E0FC01DE
:101E4000EB55FD4F6491FC01E15AFD4FE491F0E048
:101E5000EE0FFF1FE850FE4F8591949100E412E4CD
:101E60002FE030E0462F1ED26115710581059105E6
:101E700049F0DC01CB010196A11DB11DBC01CD01D2
:101E80009F7003C060E070E0CB011F910F91089537
:101E90006115710579F0FB0101900020E9F7319798
:101EA000AF01461B570BDC01ED91FC910280F381E1
:101EB000E02D199480E090E008954F925F926F9228
:101EC0007F92EF92FF920F931F93CF93DF93CDB743
:101ED000DEB7A1970FB6F894DEBF0FBECDBF7C0171
:101EE000FA01CB0119A2223008F42AE08E010F5D1D
:101EF0001F4F422E512C612C712CBF01A301920166
:101F0000F6D6F901CA01015011096A3014F4605D76
:101F100001C0695CD8016C93232B242B252B69F716
:101F2000B801C701B5DFA1960FB6F894DEBF0FBEAA
:101F3000CDBFDF91CF911F910F91FF90EF907F90D8
:101F40006F905F904F900895CF92DF92EF92FF9243
:101F5000CF93DF936B017C01E0918903F0918A03B9
:101F60000190F081E02D6DE289E893E01995EC0194
:101F700044275527BA014C195D096E097F092AE0EB
:101F800089E893E09ADF8C0F9D1FDF91CF91FF903E
:101F9000EF90DF90CF900895AC01990F660B770B0F
:101FA00077FF03C0CB01BA01CFCF2AE089E893E0E5
:101FB00084CF0F931F93CF93DF93EC0169DF8C01E4
:101FC00062E572E0CE0164DF800F911FDF91CF9157
:101FD0001F910F9108955CCFFC01538D448D252FE7
:101FE00030E0842F90E0821B930B541710F0CF96B3
:101FF000089501970895FC01918D828D981761F0E5
:10200000828DDF01A80FB11D5D968C91928D9F5F2F
:102010009F73928F90E008958FEF9FEF0895FC01DA
:10202000918D828D981731F0828DE80FF11D858D8D
:1020300090E008958FEF9FEF0895FC01918D228D20
:10204000892F90E0805C9F4F821B91098F739927A5
:10205000089589E893E0F1DF21E0892B09F420E07D
:10206000822F0895FC01848DDF01A80FB11DA35AB2
:10207000BF4F2C91848D90E001968F739927848FA8
:10208000A689B7892C93A089B1898C9180648C939F
:10209000938D848D981306C00288F389E02D80818A
:1020A0008F7D80830895EF92FF920F931F93CF93BC
:1020B000DF93EC0181E0888F9B8D8C8D981305C098
:1020C000E889F989808185FD23C0F62E0B8D10E00B
:1020D0000F5F1F4F0F731127E02E8C8DE8120BC07E
:1020E0000FB607FCFACFE889F989808185FFF5CF23
:1020F000CE01B8DFF2CF8B8DFE01E80FF11DE35A60
:10210000FF4FF0820B8FEA89FB898081806207C0D4
:10211000EE89FF896083E889F98980818064808302
:1021200081E090E0DF91CF911F910F91FF90EF90B0
:102130000895CF93DF93EC01888D8823C1F0EA895D
:10214000FB89808185FD05C0A889B9898C9186FDB0
:102150000EC00FB607FCF5CF808185FFF2CFA889AE
:10216000B9898C9185FFEDCFCE017CDFE8CFDF917F
:10217000CF91089580E090E0892B19F06ADF8111FA
:1021800025C080E090E0892B41F080E090E0892B31
:1021900021F00E94000081111CC080E090E0892B9A
:1021A00041F080E090E0892B21F00E940000811135
:1021B00013C080E090E0892BA1F080E090E0892BB3
:1021C00081F00E94000081110AC008950E94000061
:1021D000D8CF0E940000E1CF0E940000EACF0C940B
:1021E00000000895F4D51F920F920FB60F9211249C
:1021F0000BB60F922F933F934F935F936F937F9301
:102200008F939F93AF93BF93EF93FF9389E893E0EE
:1022100029DFFF91EF91BF91AF919F918F917F91B6
:102220006F915F914F913F912F910F900BBE0F9047
:102230000FBE0F901F9018951F920F920FB60F921E
:1022400011240BB60F922F938F939F93EF93FF93CD
:10225000E0919903F0919A038081E0919F03F091BE
:10226000A00382FD12C090818091A2038F5F8F73C3
:102270002091A303821751F0E091A203F0E0E75709
:10228000FC4F958F8093A20301C08081FF91EF9155
:102290009F918F912F910F900BBE0F900FBE0F90BB
:1022A0001F901895CF92DF92EF92FF920F931F939A
:1022B000E82FF92F05C0015011092109310961F1F9
:1022C000908196239417B9F305C001501109210993
:1022D000310911F1908196239413F7CFC12CD12CA1
:1022E000E12CF12C0AC08FEFC81AD80AE80AF80AC4
:1022F0000C151D052E053F0579F080818623841776
:1023000091F36C2D7D2D8E2D9F2D1F910F91FF90A0
:10231000EF90DF90CF90089560E070E080E090E073
:102320001F910F91FF90EF90DF90CF90089586E17D
:1023300092E090936F0480936E04809173008B7F82
:1023400080937300809173008F7D809373008091E0
:10235000560580935705809155058111FCCF8091DA
:1023600073008D7F809373000895E9E8F3E0138292
:10237000128288EE93E0A0E0B0E084839583A68388
:10238000B78324E032E03183208325EC30E03587C9
:10239000248724EC30E03787268720EC30E0318B2F
:1023A000208B21EC30E0338B228B22EC30E0358B1C
:1023B000248B26EC30E0378B268B118E128E138EF9
:1023C000148EE6E2F4E016821782108611861286D9
:1023D00013861486158616861786108A118A128A25
:1023E000138A148A158A2AEF30E03093500520931F
:1023F0004F05E7E2F5E049EF56E861EB72EC408308
:1024000051836283738340E75CEB67E272E4448349
:1024100055836683778341EC56E861EB72EC408725
:1024200051876287738742EF5BEB67E272E4448710
:102430005587668777874DEE56E861EB72EC408BE7
:10244000518B628B738B4AEE5BEB67E272E4448BD9
:10245000558B668B778B47EF56E861EB72EC408FBC
:10246000518F628F738F4BEC5BEB67E272E4448FAA
:10247000558F668F778F10A211A212A213A214A2F9
:1024800015A216A217A2EAE7F4E0108211821382C5
:102490001282148215821682178210861286118685
:1024A00013861486158616861786118A108A128A54
:1024B000138A148A158A168A108E178A118E128E24
:1024C000138E148E158E12A213A214A215A216A298
:1024D00017A210AA11AA12AA13AA14AA15AA109236
:1024E000B8041092B9041092BE041092BF04109266
:1024F000C0041092C1041092C6041092C704109236
:10250000CC041092CD041092CE041092CF041092FD
:10251000D4041092D5041092DA041092DB041092C5
:10252000DC041092DD041092E2041092E304109295
:10253000E8041092E9041092EA041092EB0410925D
:10254000F0041092F1041092F6041092F704109225
:10255000F8041092F9041092FE041092FF0422E095
:1025600020930F051092100510921105109212057C
:10257000109214051092130510921605109215056D
:1025800010921705109218051092190510921A054D
:1025900010921B0510921C0510921D0510921E052D
:1025A00010921F051092200510922105109222050D
:1025B00010922305109224051092250510922605ED
:1025C00010920005EEE6F4E0138212828483958374
:1025D000A683B78386E192E09183808308957894FF
:1025E00084B5826084BD84B5816084BD85B5826018
:1025F00085BD85B5816085BD80916E0081608093C9
:102600006E00109281008091810082608093810031
:102610008091810081608093810080918000816041
:10262000809380008091B10084608093B10080919C
:10263000B00081608093B0008091910082608093AF
:102640009100809191008160809391008091900031
:102650008160809390008091A10082608093A100AE
:102660008091A10081608093A1008091A000816091
:102670008093A0008091210182608093210180914C
:1026800021018160809321018091200181608093EC
:10269000200180917A00846080937A0080917A0092
:1026A000826080937A0080917A00816080937A00C2
:1026B00080917A00806880937A001092C100109215
:1026C0006A0410926B0410926C0410926D041092C4
:1026D00028041092290410922A0410922B040E94BC
:1026E0001E046B017C014B015C0128EB820E2BE088
:1026F000921EA11CB11C0E941E046C157D058E0546
:102700009F0528F086169706A806B906A0F789E85F
:1027100093E0909369048093680413DA0E941E0486
:10272000609328047093290480932A0490932B04C7
:1027300063E472E080916804909169044CDC0E942B
:102740001E046B017C014B015C013AE0830E911C7D
:10275000A11CB11C0E941E046C157D058E059F05F1
:1027600028F086169706A806B906A0F781E08093A0
:102770003C0465E572E089E893E01BDC60E08BE3F4
:102780000E941B0360E08AE30E941B0360E082E476
:102790000E941B0360E083E40E941B0365EE72E06D
:1027A00082E4F7D962EE72E083E4F3D961E082E279
:1027B0000E941B0362E083E20E941B0361E084E24B
:1027C0000E941B0362E085E20E941B0360E089E334
:1027D0000E941B0361E085E00E941B0362E08AE225
:1027E0000E941B0361E08AE20E941B0361E08CE00F
:1027F0000E941B0361E089E00E941B03A2D9109292
:1028000073001092200181E88093210183E896E013
:1028100090935C0580935B058BE39CE390935A0552
:102820008093590562E080E30E941B0361E08EE221
:102830000E94EC0261E08EE20E941B031092580598
:102840001092570510925605109255051092540596
:102850001092530580E28ABB8093730084EF882E28
:1028600099249394A12CB12CC3E40E941E04672BDD
:10287000682B692B41F40E941E04623071058105AA
:10288000910508F407C10E941E0460936D057093C2
:102890006E0580936F0590937005C0906905D09088
:1028A0006A05E0906B05F0906C056C157D058E0552
:1028B0009F0540F46093690570936A0580936B05EA
:1028C00090936C05C0906905D0906A05E0906B0507
:1028D000F0906C059B01AC012C193D094E095F0974
:1028E00069017A013AEFC316D104E104F10408F456
:1028F000D1C06093690570936A0580936B059093CE
:102900006C058092340490923504A0923604B09203
:102910003704109238041092390410923A0410923D
:102920003B0480912C0490912D04A0912E04B09131
:102930002F048093300490933104A0933204B09319
:1029400033040E941E0460932C0470932D04809322
:102950002E0490932F040E941E0460932804709309
:10296000290480932A0490932B040E941E046B0177
:102970007C016EE572E080916804909169042BDB24
:102980002AE041E050E060E070E0809168049091BE
:10299000690493DA65E672E08091680490916904B5
:1029A0001ADB2AE0B701A6018091680490916904BE
:1029B00084DA67E672E080916804909169040BDB29
:1029C00080912C0490912D04A0912E04B0912F049D
:1029D000B701A601481B590B6A0B7B0B2AE08091BB
:1029E00068049091690469DA67E672E0809168048E
:1029F00090916904F0DA40912C0450912D0460917B
:102A00002E0470912F048091300490913104A09194
:102A10003204B0913304481B590B6A0B7B0B2AE03C
:102A2000809168049091690448DA69E672E08091C7
:102A3000680490916904CFDA0E941E04AB01BC01C6
:102A40002AE0809168049091690437DA6BE672E0BD
:102A50008091680490916904ACDA0E941E042B01F5
:102A60003C016B017C0145E0C40ED11CE11CF11C52
:102A70000E941E04641575058605970508F0E6C0DA
:102A80000E941E0460932C0470932D0480932E04E6
:102A900090932F0480917B00877F80937B00C0936D
:102AA0007C0080917A00806480937A0080917A0023
:102AB00086FDFCCF8091780080917900F894809118
:102AC0005D0590915E05A0915F05B09160058093D2
:102AD000650590936605A0936705B09368057894A3
:102AE00064E170E085E00E9457038EE694E00E9466
:102AF0002502181619063CF48EE694E00E9447025F
:102B00000E94B20AF2CF0E94320762E772E089E8BF
:102B100093E04FDA0E9432070E9461070E94C607C5
:102B20000E941E046B017C016AEF70E08CE00E9441
:102B300057036FE770E089E00E94570367E772E090
:102B400089E893E036DA8091610590916205A09161
:102B50006305B0916405A7019601281B390B4A0B48
:102B60005B0BDA01C901803E9E42A105B10528F444
:102B70000E941E046B017C014DC0C0926105D09281
:102B80006205E0926305F09264050E941E046B01E9
:102B90007C010E941E04DC01CB018C199D09AE0949
:102BA000BF0988309740A105B10588F460EF70E057
:102BB00089E00E9457036BE772E089E893E0F9D956
:102BC0000E9432070E9461070E94C607E2CF0E945E
:102BD0001E046B017C010E941E04DC01CB018C19D8
:102BE0009D09AE09BF0980349640A105B10508F0E2
:102BF000BFCF0E9432070E9461070E94C60766E4A9
:102C000070E089E00E9457036EE772E089E893E084
:102C1000D0D9E1CF8EE694E00E942502892B39F0CD
:102C20008EE694E00E9447020E94B20AF3CF0E940F
:102C30001E04DC01CB018C199D09AE09BF09883C3B
:102C40009105A105B10530F395DA0FCEC616D7066A
:102C5000E806F90608F00CCF13CF1F93FC01992763
:102C60008827BC01E89411911032E9F3193010F073
:102C70001E30C8F31B3249F01D3241F4689405C080
:102C800012D0610F711D811D911D119110531A30C9
:102C9000B8F33EF490958095709561957F4F8F4F76
:102CA0009F4F1F910895592F482F372F262F660FBA
:102CB000771F881F991F660F771F881F991F620F44
:102CC000731F841F951F660F771F881F991F089514
:102CD000DB018F939F932DD0BF91AF91A29F800D69
:102CE000911DA39F900DB29F900D11240895A1E214
:102CF0001A2EAA1BBB1BFD010DC0AA1FBB1FEE1F76
:102D0000FF1FA217B307E407F50720F0A21BB30BC0
:102D1000E40BF50B661F771F881F991F1A9469F73C
:102D200060957095809590959B01AC01BD01CF0198
:102D300008950FD0A59F900DB49F900DA49F800D76
:102D4000911D11240895B7FFF4CFF3DF821B930B7D
:102D50000895A29FB001B39FC001A39F700D811D74
:102D60001124911DB29F700D811D1124911D089594
:102D700097FB072E16F4009406D077FD08D013D0E9
:102D800007FC05D03EF4909581959F4F089570956E
:102D900061957F4F0895EE0FFF1F881F8BBF07902F
:102DA000F691E02D1994AA1BBB1B51E107C0AA1F85
:102DB000BB1FA617B70710F0A61BB70B881F991FDC
:102DC0005A95A9F780959095BC01CD01089581E0B1
:102DD00090E0F8941FC0FB01DC018D9101908019F7
:102DE0000110D9F3990B0895FB01DC0101900D92BC
:102DF0000020E1F70895FB01DC014150504048F00C
:102E000001900D920020C9F701C01D924150504021
:102E1000E0F7089511E0C7E7D1E000E005C0802F9A
:102E2000FE01B9DF2196011DC837D10780E00807F0
:062E3000B1F7F894FFCF9A
:102E3600000000005310870AEC0F99101D10FB0FBD
:102E46000F10000000006202870AE9025D022502F7
:102E560047023402FA0057616C6C004750524D43EA
:102E660000474E524D4300475047474100474E47A3
:102E7600474100564D4450565F317C315F564D44B4
:102E860050560D0A005374617274696E6700564D90
:102E96004450455F003A323A007C005F564D44503C
:102EA6004500486F6E6B006F757400696E00737431
:082EB600726169676874000095
:00000001FF
