:10000000FEC100000C94530F0C94280F0C94FD0EAD
:100010000C94D20E0C94A70E0C947C0E0C94510EE2
:100020000C94260E0C94B10D0C94420D0C94CC0C37
:1000300017C2000015C2000013C2000011C2000068
:100040000FC200000DC200000BC2000009C2000078
:1000500007C2000005C2000003C200008EC40000F9
:10006000FFC100000C94A0110C947711F9C100009D
:10007000F7C10000F5C10000F3C10000F1C10000AC
:10008000EFC10000EDC10000EBC10000E9C10000BC
:10009000E7C10000E5C10000E3C10000E1C10000CC
:1000A000DFC10000DDC10000DBC10000D9C10000DC
:1000B000D7C10000D5C10000EEC500009AC60000FF
:1000C0009FC50000CDC10000CBC10000C9C1000028
:1000D000C7C10000C5C10000C3C10000C1C100000C
:1000E000BFC10000F111F411E311E711ED112B1262
:1000F000F811FC11021206120A1210121412181230
:100100002B121E1222122612821287128C129612A3
:10011000A0121913AA12B212BA12C412CE12D81215
:10012000E712F1121913FB1205130F132B183D18C8
:10013000401847184E187B1882188E189B18A7185D
:10014000A718A718A718A718A718A718A718A718B7
:10015000A718A718A718A718A718A718A718A718A7
:10016000A718A718A718A718A718A7182B18381882
:100170003D18401847184E18551862186F18084A4D
:10018000D73B3BCE016E84BCBFFDC12F3D6C7431AB
:100190009ABD56833DDA3D00C77F11BED9E4BB4C02
:1001A0003E916BAAAABE000000803F05A84CCDB2CC
:1001B000D44EB93836A9020C50B9918688083CA6AD
:1001C000AAAA2ABE000000803F0046726565204D45
:1001D000656D6F72793A200020204F6C642044696D
:1001E00072656374696F6E203D200020204469723F
:1001F000656374696F6E203D200020204572726F28
:1002000072203D2000202043757272656E74203D7F
:1002100020002020546172676574203D2000205327
:100220007064203D200020536F6E61722052696718
:100230006874203D2000536F6E6172204C656674B7
:10024000203D200020436F6D70617373204865610D
:1002500064696E67203D2000204F726967696E6196
:100260006C2044697374203D20002044697374201D
:100270003D2000204C6F6E67203D2000204C4F4EEB
:10028000203D2000204C4154203D20000000210052
:10029000240027002A002D00300033000101000057
:1002A000040107010A0100002200250028002B009C
:1002B0002E003100340002010000050108010B018D
:1002C00000000A0B02090C0D0E08070304010000D0
:1002D000000000000000000000000000000000001E
:1002E00000000000000000000000000012111000DB
:1002F00000000000000000000000000000000000FE
:10030000000000000000000020002300260029005B
:100310002C002F003200000100000301060109013A
:100320000001040505030304050604050607010092
:10033000010003020100000102030405060707068D
:100340000504030201000702010007060504030279
:100350000100030201000001020304050607000179
:100360000203040506070203040506060705050542
:1003700005070508080808020202020A0A0808041C
:10038000040404010101010101010103030303034A
:10039000030303040707070C0C0C0C0C0C0C0C02D9
:1003A00002020206060606060606060B0B0B0B0BE0
:1003B0000B0B0B01021020200808102040102040D9
:1003C0008002010201080402010102040810204019
:1003D0008080402010080402018004020180402037
:1003E0001008040201080402010102040810204060
:1003F00080010204081020408000F81B60191124BD
:100400001FBECFEFD1E2DEBFCDBF00E00CBF12E0D8
:10041000A0E0B2E0EAEBF2E400E00BBF02C007901C
:100420000D92AE3CB107D9F725E0AEECB2E001C0C9
:100430001D92AA3EB207E1F711E0CEEFD1E000E055
:1004400006C021970109802FFE010E942121CD3F86
:10045000D10780E00807A9F70E947E190C944C216F
:10046000CFCD3FB7F8948091B4039091B503A0919C
:10047000B603B091B70326B5A89B05C02F3F19F06E
:100480000196A11DB11D3FBFBA2FA92F982F882714
:10049000820F911DA11DB11DBC01CD0142E0660F6F
:1004A000771F881F991F4A95D1F708955091BC0373
:1004B0004091BB03852F90E0242F30E0541710F4B7
:1004C000805B9F4F821B930B08958091BC03E0914A
:1004D000BB038E1751F0EF5FE03508F0E0E0F0E08D
:1004E000E15AFC4F808190E008958FEF9FEF0895CF
:1004F0008091BC039091BB03891769F09F5F903591
:1005000008F090E0E92FF0E0E15AFC4F80819093F1
:10051000BB0390E008958FEF9FEF08958091BA0399
:100520008111FCCF08958091B9038F5F843408F066
:1005300080E09091B8039817E1F32FB7F894909169
:10054000BA03992341F0E82FF0E0EB5EFC4F6083A3
:100550008093B9031DC081E08093BA0360935A036E
:100560001092590382E08ABB80917300826080936D
:100570007300809120018F738068809320018091A7
:1005800024019091250140969093290180932801A0
:100590002FBF81E090E00895089580E090E00895F5
:1005A0004F925F926F927F928F929F92AF92BF9283
:1005B000CF92DF92EF92FF92CF93DF93CDB7DEB76A
:1005C0002C970FB6F894DEBF0FBECDBF2091E80286
:1005D0003091E9024091EA025091EB026091E00211
:1005E0007091E1028091E2029091E3020E94E01E8C
:1005F00025E33AEF4EE85CE30E94DC1D2B013C0151
:1006000025E33AEF4EE85CE36091EC027091ED0275
:100610008091EE029091EF020E94DC1D4B015C0183
:1006200025E33AEF4EE85CE36091DC027091DD0275
:100630008091DE029091DF020E94DC1D6B017C0143
:10064000C301B2010E94AC206D837E838F839887A3
:10065000C701B6010E94A71F69837A838B839C839D
:10066000C501B4010E94AC2069877A878B879C877B
:10067000C301B2010E94A71F2B013C0129813A81CD
:100680004B815C8169857A858B859C850E94DC1D08
:10069000A30192010E94DC1D2B013C01C501B401A4
:1006A0000E94A71F4B015C01C701B6010E94AC204C
:1006B0009B01AC01C501B4010E94DC1DA3019201A4
:1006C0000E94E01E6B017C0129813A814B815C8193
:1006D0006D817E818F8198850E94DC1DA701960126
:1006E0000E94541F6B017C0120E030E0A9010E94B0
:1006F000771D87FF0AC02BED3FE049EC50E4C701AE
:10070000B6010E94E11E6B017C0121EE3EE245E64E
:1007100052E4C701B6010E94DC1D0E9412207093B2
:10072000E5026093E402CB012C960FB6F894DEBF8D
:100730000FBECDBFDF91CF91FF90EF90DF90CF90B4
:10074000BF90AF909F908F907F906F905F904F90F1
:1007500008950F931F93CF93DF93082F70E0FB0151
:10076000E054FD4F8491FB01ED54FC4FD491FB010B
:10077000E359FC4FC49110E0CC23D9F081110E94C1
:10078000D611EC2FF0E0EE0FFF1FEA5FFC4FA591B2
:10079000B491EC91ED2369F064DE000F111F000F9E
:1007A000111FF801E253FD4F6083718382839383AD
:1007B00013C057DEF801EE0FFF1FEE0FFF1FE253CD
:1007C000FD4F20813181621B730B000F111FF80157
:1007D000EE53FC4F71836083DF91CF911F910F9196
:1007E000089563E481E0B5CF62E480E0B2CF2FB733
:1007F000F8946091B0037091B1038091B20390912D
:10080000B3032FBF0895CF92DF92EF92FF92EFDFF5
:100810006B017C016FEF70E089E00E945B128091B8
:10082000110390911203A0911303B0911403A70137
:100830009601281B390B4A0B5B0BCA01B9010E94B8
:100840007B1D2CEF32EF48ED5EE30E94A12087FD77
:100850001AC08CE292E00E94A41383E690E0909389
:100860000502809304026FE770E089E00E945B124A
:1008700081E080931003C0921103D0921203E092A2
:100880001303F0921403FF90EF90DF90CF90089540
:10089000CF92DF92EF92FF9260E08AE20E942C12E8
:1008A000A6DF6B017C0180910C0390910D03A09158
:1008B0000E03B0910F03A7019601281B390B4A0BB9
:1008C0005B0BDA01C90180379741A105B10560F0E2
:1008D00061E08AE20E942C12C0920C03D0920D03B8
:1008E000E0920E03F0920F03FF90EF90DF90CF9015
:1008F0000895CF92DF92EF92FF9279DF6B017C0136
:1009000060E070E089E00E945B128091FC029091AF
:10091000FD02A091FE02B091FF02A7019601281BE3
:10092000390B4A0B5B0BCA01B9010E947B1D2CEFEE
:1009300032EF48ED5EE30E94A12087FD19C08AE3F3
:1009400092E00E94A41383E690E0909305028093C6
:1009500004026FE770E089E00E945B1210921003BE
:10096000C092FC02D092FD02E092FE02F092FF02E1
:10097000FF90EF90DF90CF9008951F920F920FB6E7
:100980000F9211242F933F938F939F93AF93BF9315
:100990008091B0039091B103A091B203B091B303E1
:1009A0003091AF0323E0230F2D3720F40196A11DD2
:1009B000B11D05C026E8230F0296A11DB11D20938D
:1009C000AF038093B0039093B103A093B203B093AD
:1009D000B3038091B4039091B503A091B603B09195
:1009E000B7030196A11DB11D8093B4039093B50385
:1009F000A093B603B093B703BF91AF919F918F912E
:100A00003F912F910F900FBE0F901F901895CF938D
:100A1000DF93EC018A859B85AC85BD858E839F83A2
:100A2000A887B987E4DE6A837B838C839D8381E01A
:100A300089838883DF91CF9108952F923F924F92BF
:100A40005F926F927F928F929F92AF92BF92CF925E
:100A5000DF92EF92FF920F931F93CF93DF93D82FE4
:100A6000C92F8B010E943C1D24E630E040E050E09D
:100A70000E949F1E49015A019B01AC0160E876E982
:100A800088E990E00E94901E6B017C01F801918240
:100A90008082ED2FFC2F2191822F022E000C990BCA
:100AA000C0970A97C0F32E3239F51F0180E8882ECF
:100AB00086E9982E88E9A82EB12C9AE0492E512C6F
:100AC000612C712CF101C1911F010C2E000CDD0B6A
:100AD000E097CA30D10580F4C501B401A3019201A9
:100AE0000E949F1E49015A01DE010E94CB1EC60EC4
:100AF000D71EE81EF91EE6CFA5E0B0E0A7019601DB
:100B00000E94C11E6F5F7F4F8F4F9F4F23E030E0E9
:100B100040E050E00E949F1EF8012283338344830B
:100B200055831682DF91CF911F910F91FF90EF9027
:100B3000DF90CF90BF90AF909F908F907F906F90FD
:100B40005F904F903F902F900895FF920F931F93C7
:100B5000CF93DF93EC01FF24F39488818D3211F061
:100B6000F12C01C02196CE010E943C1D9B01AC01DD
:100B7000A4E6B0E00E94C11EFE014991242F042E7C
:100B8000000C330B205331092A303105A8F34E32C3
:100B900041F52181022E000C330B205331092A30FC
:100BA0003105F8F44AE0429F8001439F100D112463
:100BB000012E000C220B330B600F711F821F931F3D
:100BC0000281002E000C110B005311090A3011058F
:100BD00040F4012E000C220B330B600F711F821F9B
:100BE000931FFF2039F090958095709561957F4F08
:100BF0008F4F9F4FDF91CF911F910F91FF900895DD
:100C00001F920F920FB60F9211240BB60F922F93D3
:100C10008F939F93EF93FF93809173008B7F8093CB
:100C20007300809121018F7B809321018091BD030E
:100C300020915E03205890915D03893020F49695B1
:100C4000922B8F5FFACF90935D038091BC038F5FEF
:100C5000803508F080E02091BB03821739F0E82F3F
:100C6000F0E0E15AFC4F90838093BC031092BD03E7
:100C7000809121018F7B8093210110925E03FF916F
:100C8000EF919F918F912F910F900BBE0F900FBE00
:100C90000F901F9018951F920F920FB60F9211246C
:100CA0000BB60F922F933F934F935F936F937F9366
:100CB0008F939F93AF93BF93EF93FF938091260100
:100CC0009091270140915E0320912101442331F04E
:100CD0002F7B2093210110925E0306C02064209395
:100CE000210120E820935E033091BD03311125C01E
:100CF00041116CC02091BE033091BF03280F391FF2
:100D000030932B0120932A0124E02ABB2091730009
:100D10002460209373002091C0033091C103820F9F
:100D2000931F36952795820F931F90935C038093B2
:100D30005B0381E08093BD0349C040915B03509108
:100D40005C036091C0037091C103DB01A095B09575
:100D5000E0915E0320915D03841B950BA817B907F2
:100D600068F126952E2B460F571F3F5F861B970B6A
:100D70003930A0F320935D03809173008B7F8093C3
:100D800073008091BC038F5F803508F080E0909104
:100D9000BB03891749F0E82FF0E090915D03E15A19
:100DA000FC4F90838093BC03809121018F7B8093C3
:100DB000210110925E031092BD0308C020935D03D1
:100DC00050935C0340935B033093BD03FF91EF911D
:100DD000BF91AF919F918F917F916F915F914F9153
:100DE0003F912F910F900BBE0F900FBE0F901F9051
:100DF00018951F920F920FB60F9211240BB60F92F7
:100E00002F933F934F935F936F937F938F939F9312
:100E1000EF93FF938091BA0360915A0320912801C8
:100E2000309129014091C0035091C1039091590321
:100E30008A30F8F4240F351F893019F0762F71703D
:100E400001C071E066958F5F791791F39091200151
:100E5000772311F0906C02C09F73906890932001EB
:100E600030932901209328017093590360935A030A
:100E70004AC09091B903E091B8039E1319C08A301B
:100E800051F48BE08093BA03240F351F309329016E
:100E9000209328013AC01092BA03809120018F73E9
:100EA00080932001809173008D7F809373002DC00B
:100EB000EF5FE43408F0E0E0E093B803F0E0EB5ECD
:100EC000FC4F908190935A03109259039091200106
:100ED0009F739068909320018A3059F48091C003E9
:100EE0009091C103280F391F3093290120932801C5
:100EF00009C0809124019091250140969093290189
:100F00008093280181E08093BA03FF91EF919F9134
:100F10008F917F916F915F914F913F912F910F90A2
:100F20000BBE0F900FBE0F901F901895CF92DF92BF
:100F3000EF92FF9260E08AE20E942C1258DC6B0173
:100F40007C018091080390910903A0910A03B0915C
:100F50000B03A7019601281B390B4A0B5B0BDA0127
:100F6000C90180339547A105B10560F061E08AE2CF
:100F70000E942C12C0920803D0920903E0920A0347
:100F8000F0920B03FF90EF90DF90CF900895CF92F7
:100F9000DF92EF92FF92CF93DF93C0910402D09142
:100FA0000502C336D10509F073C080910202909109
:100FB0000302019799F51BDC6B017C016FEF70E078
:100FC00089E00E945B128091040390910503A09137
:100FD0000603B0910703A7019601281B390B4A0BA2
:100FE0005B0BCA01B9010E947B1D2CEF32EF48ED6B
:100FF0005EE30E94A12087FD11C06FE770E089E0E9
:101000000E945B12C0920403D0920503E092060393
:10101000F0920703D0930302C09302028091020270
:1010200090910302029789F5E2DB6B017C0160E09D
:1010300070E089E00E945B128091000390910103AF
:10104000A0910203B0910303A7019601281B390B5D
:101050004A0B5B0BCA01B9010E947B1D2CEF32EFDA
:1010600048ED5EE30E94A12087FD4BC06FE770E072
:1010700089E00E945B1210921003C0920003D0928C
:101080000103E0920203F092030383E690E035C08F
:10109000C130D105B9F48091020290910302029708
:1010A00059F483E690E090930502809304026FDF89
:1010B000D0930502C09304021CDCD0930302C093BA
:1010C00002021FC0C230D105E1F48091020290916A
:1010D0000302019759F483E690E090930502809310
:1010E000040255DFD0930502C093040280911003DF
:1010F000811101C088DB82E090E09093030280932D
:101100000202DF91CF91FF90EF90DF90CF90089592
:101110008F929F92AF92BF92CF92DF92EF92FF9207
:101120006B017C0164DB4B015C0181E095E0BED981
:10113000892B31F081E095E0DBD90E942016F5CFB4
:1011400026DF55DBDC01CB0188199909AA09BB0907
:101150008C159D05AE05BF0540F3FF90EF90DF9025
:10116000CF90BF90AF909F908F900895BC018CE07E
:101170000C945B128091E4029091E5022091CE03E1
:101180003091CF03821B930B8C342FEF920714F412
:1011900088599E4F9093C7038093C6038091C603DE
:1011A0009091C703853B910534F088569140909308
:1011B000C7038093C6038091C6039091C7039C0127
:1011C0002B5F3F4F2B30310518F483E690E008C0C9
:1011D0008F3F9F4F1CF481E090E002C082E090E0DE
:1011E00090930502809304020895CF92DF92EF92CC
:1011F000FF920F931F93CF93DF938091D80290912A
:10120000D9028C3E910534F080EF90E09093D902A2
:101210008093D8028091D6029091D7028C3E91059E
:1012200034F080EF90E09093D7028093D60260E094
:1012300082E20E942C1283E090E00197F1F761E0D6
:1012400082E20E942C1283E290E00197F1F760E0C5
:1012500082E20E942C1283E2C0D76C3C26E0720727
:101260008105910524F46CEC76E080E090E00E942A
:101270007D1D2EE835E741E95FE30E94DC1D20E09B
:1012800030E044E952E40E94AA1F20E030E040E050
:101290005FE30E94DC1D0E9412206B017C010E9412
:1012A0007D1D2DEC3CEC41E353E40E94771D87FF4C
:1012B00004C081E08093C90302C01092C903D70122
:1012C000C6014497A109B109853422E09207A1051E
:1012D000B10530F48997A105B10508F4D9DA860182
:1012E0001093CD030093CC0360E084E20E942C12A3
:1012F00083E090E00197F1F761E084E20E942C1214
:1013000083E290E00197F1F760E084E20E942C1202
:1013100085E263D76C3C26E072078105910524F4D1
:101320006CEC76E080E090E00E947D1D2EE835E7D1
:1013300041E95FE30E94DC1D20E030E044E952E433
:101340000E94AA1F20E030E040E05FE30E94DC1D25
:101350000E9412206B017C010E947D1D2DEC3CEC53
:1013600041E353E40E94771D87FF03C01092C80336
:1013700003C081E08093C803D701C6014497A10947
:10138000B109853422E09207A105B10530F48997AF
:10139000A105B10508F47CDAE601D093CB03C09334
:1013A000CA03DF91CF911F910F91FF90EF90DF90D3
:1013B000CF900895CF92DF92EF92FF9210920E0598
:1013C00060910F057091100580E090E00E947B1DF8
:1013D0006B017C01609111057091120580911305DC
:1013E000909114050E947B1D28E23BE64EE65EE4E8
:1013F0000E94AA1F9B01AC01C701B6010E94E11E19
:1014000020911505DC01CB012111B0588093EC022D
:101410009093ED02A093EE02B093EF026091160557
:101420007091170580E090E00E947B1D6B017C01AC
:10143000609118057091190580911A0590911B050E
:101440000E947B1D28E23BE64EE65EE40E94AA1F56
:101450009B01AC01C701B6010E94E11E20911C0551
:10146000DC01CB012111B0588093E8029093E9028E
:10147000A093EA02B093EB0205D0FF90EF90DF90CB
:10148000CF908EC84F925F926F927F928F929F9271
:10149000AF92BF92CF92DF92EF92FF92CF93DF9302
:1014A000CDB7DEB760970FB6F894DEBF0FBECDBFE5
:1014B0002091E0023091E1024091E2025091E3027A
:1014C0006091E8027091E9028091EA029091EB024A
:1014D0000E94E01E25E33AEF4EE85CE30E94DC1D2B
:1014E0006B017C010E94AC206D877E878F87988B73
:1014F000C701B6010E94A71F69837A838B839C83EF
:1015000025E33AEF4EE85CE36091EC027091ED0266
:101510008091EE029091EF020E94DC1D6B017C0134
:1015200025E33AEF4EE85CE36091DC027091DD0266
:101530008091DE029091DF020E94DC1D2B013C01B4
:10154000C701B6010E94AC204B015C01C701B60186
:101550000E94A71F6D837E838F839887C301B2018A
:101560000E94AC2069877A878B879C87C301B20170
:101570000E94A71F6B017C0129853A854B855C85FC
:101580006D817E818F8198850E94DC1D2B013C013D
:10159000A7019601C501B4010E94DC1D29813A8191
:1015A0004B815C810E94DC1D9B01AC01C301B20137
:1015B0000E94E01E9B01AC010E94DC1D2B013C013E
:1015C0002D853E854F855889C701B6010E94DC1DD7
:1015D0009B01AC010E94DC1D9B01AC01C301B20167
:1015E0000E94E11E0E94B6202B013C0129853A850C
:1015F0004B855C85C501B4010E94DC1D4B015C017B
:10160000A70196016D817E818F8198850E94DC1DE6
:1016100029813A814B815C810E94DC1D9B01AC01D8
:10162000C501B4010E94E11E9B01AC01C301B201DE
:101630000E94541F26E73BE742EC5AE40E94DC1D5F
:101640000E94172028EE33E040E050E00E949F1EE9
:1016500049015A01263031054105510508F059C0AC
:10166000E0900002F0900102EFEFEE1AFE0AF09215
:101670000102E0920002F70183E0EE0FFF1F8A955E
:10168000E1F7E654FA4F6481758186819781609312
:10169000DC027093DD028093DE029093DF024080D3
:1016A0005180628073804092E0025092E102609229
:1016B000E2027092E30220E030E0A9010E94771D6F
:1016C000811109C020E030E0A901C301B2010E94EC
:1016D000771D882321F0F5E0EF16F10474F06FE731
:1016E00070E089E0E8D683E690E09093050280936D
:1016F00004028FE790E03ADDFFCF5CDEC3DE90931B
:10170000E7028093E6029093DB028093DA020E9464
:10171000D002C40160960FB6F894DEBF0FBECDBFF5
:10172000DF91CF91FF90EF90DF90CF90BF90AF907F
:101730009F908F907F906F905F904F9008950F9340
:101740001F93CF93DF931F921F92CDB7DEB7809187
:10175000F40281110CC04BD86093F0027093F10237
:101760008093F2029093F30281E08093F4023FD8D9
:101770000091F0021091F1022091F2023091F302F7
:10178000601771078207930740F46093F00270932B
:10179000F1028093F2029093F30267E472E08CE12D
:1017A00094E048D51092760580917B0590917C0558
:1017B00090D784E892E00E9430156091EC0270911D
:1017C000ED028091EE029091EF0242E00E945115ED
:1017D0008CE792E00E9430156091E8027091E90276
:1017E0008091EA029091EB0242E00E94511566E876
:1017F00072E08CE194E01ED563E572E08CE194E048
:1018000019D5E0910002F091010283E0EE0FFF1F75
:101810008A95E1F7E654FA4F648175818681978154
:1018200042E00E94511583E792E00E943015E0915A
:101830000002F091010293E0EE0FFF1F9A95E1F78D
:10184000E654FA4F608171818281938142E00E9467
:10185000511566E872E08CE194E0ECD48AE692E0FF
:101860000E9430150FDE35D788E592E00E943015D2
:101870008091E6029091E7022CD784E492E00E94E6
:10188000301566E872E08CE194E0D4D48091CE0308
:101890009091CF031ED786E392E00E94301580918D
:1018A000CC039091CD03D9D686E292E00E94301508
:1018B0008091CA039091CB03D0D68EE192E00E9432
:1018C0003015809106029091070203D782E192E0E1
:1018D0000E9430158091E4029091E502FAD685E0ED
:1018E00092E00E9430158091CE039091CF03F1D603
:1018F0008AEF91E00E9430158091C6039091C70352
:10190000ACD68BEE91E00E9430158091040290914C
:1019100005028336910519F483E692E00AC082300D
:10192000910519F48CE692E004C0019719F482E75E
:1019300092E00AD788ED91E00E9430158091020272
:10194000909103028336910519F483E692E00AC070
:101950008230910519F48CE692E004C0019719F4E5
:1019600082E792E0F1D68AEC91E00E943015209156
:10197000E6053091E7052115310511F42AEE35E031
:10198000CE010196821B930B68D60F900F90DF91CA
:10199000CF911F910F9108951F920F920FB60F9242
:1019A00011240BB60F922F933F934F935F936F9336
:1019B0007F938F939F93AF93BF93CF93EF93FF93B7
:1019C00020910601C091E4039091190480911604BE
:1019D000322F309583239223892B90916D00C2275B
:1019E000C923C8232093E403CC23C1F1C0FF05C061
:1019F000E091E503F091E6031995C1FF05C0E09180
:101A0000E703F091E8031995C2FF05C0E091E903EF
:101A1000F091EA031995C3FF05C0E091EB03F09143
:101A2000EC031995C4FF05C0E091ED03F091EE03BE
:101A30001995C5FF05C0E091EF03F091F0031995EA
:101A4000C6FF05C0E091F103F091F2031995C7FFBD
:101A500005C0E091F303F091F4031995FF91EF9124
:101A6000CF91BF91AF919F918F917F916F915F9136
:101A70004F913F912F910F900BBE0F900FBE0F9083
:101A80001F9018951F920F920FB60F9211240BB64C
:101A90000F922F933F934F935F936F937F938F9307
:101AA0009F93AF93BF93CF93EF93FF932091030145
:101AB000C091F60390911A0480911704322F30954B
:101AC00083239223892B9091F503C227C923C8232E
:101AD0002093F603CC2389F1C0FF05C0E091F70302
:101AE000F091F8031995C1FF05C0E091F903F09159
:101AF000FA031995C2FF05C0E091FB03F091FC03C6
:101B00001995C3FF05C0E091FD03F091FE031995FF
:101B1000C4FF05C0E091FF03F09100041995C5FFD3
:101B200005C0E0910104F09102041995C6FF05C0BB
:101B3000E0910304F09104041995FF91EF91CF9186
:101B4000BF91AF919F918F917F916F915F914F91D5
:101B50003F912F910F900BBE0F900FBE0F901F90D3
:101B600018951F920F920FB60F9211240BB60F9279
:101B70002F933F934F935F936F937F938F939F9395
:101B8000AF93BF93CF93EF93FF9323B1C09105041D
:101B900090911B0480911804322F30958323922357
:101BA000892B90916B00C227C923C8232093050479
:101BB000CC23C1F1C0FF05C0E0910604F0910704F9
:101BC0001995C1FF05C0E0910804F0910904199529
:101BD000C2FF05C0E0910A04F0910B041995C3FF00
:101BE00005C0E0910C04F0910D041995C4FF05C0E7
:101BF000E0910E04F0910F041995C5FF05C0E09126
:101C00001004F09111041995C6FF05C0E09112046B
:101C1000F09113041995C7FF05C0E0911404F091E9
:101C200015041995FF91EF91CF91BF91AF919F91BD
:101C30008F917F916F915F914F913F912F910F9075
:101C40000BBE0F900FBE0F901F9018951F920F9212
:101C50000FB60F9211240BB60F922F933F934F9311
:101C60005F936F937F938F939F93AF93BF93EF9304
:101C7000FF93E091E203F091E3031995FF91EF9157
:101C8000BF91AF919F918F917F916F915F914F9194
:101C90003F912F910F900BBE0F900FBE0F901F9092
:101CA00018951F920F920FB60F9211240BB60F9238
:101CB0002F933F934F935F936F937F938F939F9354
:101CC000AF93BF93EF93FF93E091E003F091E103B3
:101CD0001995FF91EF91BF91AF919F918F917F9156
:101CE0006F915F914F913F912F910F900BBE0F908D
:101CF0000FBE0F901F9018951F920F920FB60F9264
:101D000011240BB60F922F933F934F935F936F93D2
:101D10007F938F939F93AF93BF93EF93FF93E09144
:101D2000DE03F091DF031995FF91EF91BF91AF9121
:101D30009F918F917F916F915F914F913F912F91E3
:101D40000F900BBE0F900FBE0F901F9018951F9213
:101D50000F920FB60F9211240BB60F922F933F9351
:101D60004F935F936F937F938F939F93AF93BF93A3
:101D7000EF93FF93E091DC03F091DD031995FF9160
:101D8000EF91BF91AF919F918F917F916F915F91F3
:101D90004F913F912F910F900BBE0F900FBE0F9060
:101DA0001F9018951F920F920FB60F9211240BB629
:101DB0000F922F933F934F935F936F937F938F93E4
:101DC0009F93AF93BF93EF93FF93E091DA03F0916A
:101DD000DB031995FF91EF91BF91AF919F918F9187
:101DE0007F916F915F914F913F912F910F900BBE1B
:101DF0000F900FBE0F901F9018951F920F920FB665
:101E00000F9211240BB60F922F933F934F935F9332
:101E10006F937F938F939F93AF93BF93EF93FF93B2
:101E2000E091D803F091D9031995FF91EF91BF91FB
:101E3000AF919F918F917F916F915F914F913F9162
:101E40002F910F900BBE0F900FBE0F901F90189503
:101E50001F920F920FB60F9211240BB60F922F9371
:101E60003F934F935F936F937F938F939F93AF9322
:101E7000BF93EF93FF93E091D603F091D7031995A9
:101E8000FF91EF91BF91AF919F918F917F916F9152
:101E90005F914F913F912F910F900BBE0F900FBE0E
:101EA0000F901F9018951F920F920FB60F9211244A
:101EB0000BB60F922F933F934F935F936F937F9344
:101EC0008F939F93AF93BF93EF93FF93E091D403CE
:101ED000F091D5031995FF91EF91BF91AF919F912B
:101EE0008F917F916F915F914F913F912F910F90C3
:101EF0000BBE0F900FBE0F901F901895CF92DF92E0
:101F0000EF92FF920F931F93CF93DF936C017A01AF
:101F10008B01C0E0D0E0CE15DF0589F0D8016D91CE
:101F20008D01D601ED91FC910190F081E02DC6016B
:101F30001995892B11F47E0102C02196ECCFC701BF
:101F4000DF91CF911F910F91FF90EF90DF90CF9095
:101F50000895FC01538D448D252F30E0842F90E0AF
:101F6000821B930B541710F0CF9608950197089594
:101F7000FC01918D828D981761F0828DDF01A80F91
:101F8000B11D5D968C91928D9F5F9F73928F90E0B3
:101F900008958FEF9FEF0895FC01918D828D981722
:101FA00031F0828DE80FF11D858D90E008958FEF5F
:101FB0009FEF0895FC01918D228D892F90E0805C28
:101FC0009F4F821B91098F73992708958CE194E0AC
:101FD000F1DF21E0892B09F420E0822F0895FC0134
:101FE000848DDF01A80FB11DA35ABF4F2C91848DA2
:101FF00090E001968F739927848FA689B7892C93D7
:10200000A089B1898C9180648C93938D848D981371
:1020100006C00288F389E02D80818F7D808308953A
:10202000EF92FF920F931F93CF93DF93EC0181E028
:10203000888F9B8D8C8D981305C0E889F9898081E4
:1020400085FD23C0F62E0B8D10E00F5F1F4F0F7321
:102050001127E02E8C8DE8120BC00FB607FCFACFCB
:10206000E889F989808185FFF5CFCE01B8DFF2CF0D
:102070008B8DFE01E80FF11DE35AFF4FF0820B8FAD
:10208000EA89FB898081806207C0EE89FF896083CD
:10209000E889F98980818064808381E090E0DF9124
:1020A000CF911F910F91FF90EF900895CF93DF9301
:1020B000EC01888D8823C1F0EA89FB89808185FD48
:1020C00005C0A889B9898C9186FD0EC00FB607FCA2
:1020D000F5CF808185FFF2CFA889B9898C9185FFE2
:1020E000EDCFCE017CDFE8CFDF91CF91089580E086
:1020F00090E0892B19F06ADF811125C080E090E023
:10210000892B41F080E090E0892B21F00E940000B3
:1021100081111CC080E090E0892B41F080E090E0CC
:10212000892B21F00E940000811113C080E090E013
:10213000892BA1F080E090E0892B81F00E940000C3
:1021400081110AC008950E940000D8CF0E940000AB
:10215000E1CF0E940000EACF0C9400000895CF93D5
:10216000DF9390E0FC01ED54FC4F2491FC01E35916
:10217000FC4F8491882361F190E0880F991FFC0146
:10218000E457FD4FC591D491FC01EA55FD4FA5914F
:10219000B491611109C09FB7F8948881209582237A
:1021A0008883EC912E230BC0623061F49FB7F894C2
:1021B0003881822F809583238883EC912E2B2C935A
:1021C0009FBF06C08FB7F894E8812E2B28838FBF5E
:1021D000DF91CF9108950E9429210F931F9390E0E2
:1021E000FC01ED54FC4F6491FC01E359FC4FE49178
:1021F000F0E0EE0FFF1FEA5FFC4F8591949100E441
:1022000012E42FE030E0462F0E941B196115710582
:102210008105910549F0DC01CB010196A11DB11D9D
:10222000BC01CD019F7003C060E070E0CB011F9145
:102230000F9108956115710579F0FB01019000205F
:10224000E9F73197AF01461B570BDC01ED91FC918B
:102250000280F381E02D199480E090E008954F9280
:102260005F926F927F92EF92FF920F931F93CF93A3
:10227000DF93CDB7DEB7A1970FB6F894DEBF0FBEE0
:10228000CDBF7C01FA01CB0119A2223008F42AE06B
:102290008E010F5D1F4F422E512C612C712CBF01FE
:1022A000A30192010E949F1EF901CA010150110968
:1022B0006A3014F4605D01C0695CD8016C93232B13
:1022C000242B252B61F7B801C701B4DFA1960FB607
:1022D000F894DEBF0FBECDBFDF91CF911F910F915C
:1022E000FF90EF907F906F905F904F9008951F92B6
:1022F0000F920FB60F9211240BB60F922F933F93AC
:102300004F935F936F937F938F939F93AF93BF93FD
:10231000EF93FF938CE194E062DEFF91EF91BF9128
:10232000AF919F918F917F916F915F914F913F916D
:102330002F910F900BBE0F900FBE0F901F9018950E
:102340001F920F920FB60F9211240BB60F922F937C
:102350008F939F93EF93FF93E0912C04F0912D04C2
:102360008081E0913204F091330482FD12C09081AB
:10237000809135048F5F8F7320913604821751F05E
:10238000E0913504F0E0E45EFB4F958F80933504D7
:1023900001C08081FF91EF919F918F912F910F90BC
:1023A0000BBE0F900FBE0F901F90189590E0FC0190
:1023B0003197E231F10508F04EC08827EE58FF4F03
:1023C0008F4F0C942121809180008F7703C08091E2
:1023D00080008F7D80938000089580918000877FAA
:1023E000F9CF84B58F7702C084B58F7D84BD089501
:1023F0008091B0008F7703C08091B0008F7D809373
:10240000B0000895809190008F7707C08091900070
:102410008F7D03C080919000877F80939000089506
:102420008091A0008F7707C08091A0008F7D03C0AE
:102430008091A000877F8093A00008958091200163
:102440008F7707C0809120018F7D03C0809120018C
:10245000877F8093200108951F93CF93DF93282FC8
:1024600030E0F901E054FD4F8491F901ED54FC4F47
:10247000D491F901E359FC4FC491CC23C1F0162F3C
:10248000811194DFEC2FF0E0EE0FFF1FEA55FD4FB6
:10249000A591B4918FB7F894111105C09C91ED2FBF
:1024A000E095E92302C0EC91ED2BEC938FBFDF9117
:1024B000CF911F9108951F93CF93DF93182FEB01B6
:1024C00061E04DDE209711F460E004C0CF3FD105FC
:1024D00031F461E0812FDF91CF911F91BDCFE12FCA
:1024E000F0E0E054FD4FE4914E2F50E0FA013197B7
:1024F000E231F10508F09DC08827EC57FF4F8F4F60
:102500000C94212184B5806884BDC7BD97C084B573
:10251000806284BDC8BD92C0809180008068809335
:102520008000D0938900C093880088C0809180008B
:10253000806280938000D0938B00C0938A007EC01D
:1025400080918000886080938000D0938D00C0933C
:102550008C0074C08091B00080688093B000C093FC
:10256000B3006CC08091B00080628093B000C093D3
:10257000B40064C080919000806880939000D093F4
:102580009900C09398005AC0809190008062809317
:102590009000D0939B00C0939A0050C0809190000F
:1025A000886080939000D0939D00C0939C0046C0AB
:1025B0008091A00080688093A0008091A0008F7B14
:1025C0008093A000D093A900C093A80037C0809149
:1025D000A00080628093A000D093AB00C093AA00BB
:1025E0002DC08091A00088608093A000D093AD00A2
:1025F000C093AC0023C080912001806880932001AB
:10260000D0932901C093280119C0809120018062D4
:1026100080932001D0932B01C0932A010FC0809199
:102620002001886080932001D0932D01C0932C015C
:1026300005C0C038D1050CF04CCF46CFDF91CF910B
:102640001F910895E0911C04F0911D040190F08108
:10265000E02D682F8CE194E019940F931F93CF9392
:10266000DF9300D01F92CDB7DEB7AC01990F660B98
:10267000770B77FF19C08DE249835A836B837C8384
:10268000E1DF8C0149815A816B817C817095609575
:10269000509541955F4F6F4F7F4F2AE08CE194E05A
:1026A000DEDD080F191F05C02AE08CE194E0D7DDBC
:1026B0008C0166E872E08CE194E0BCDD800F911F34
:1026C0000F900F900F900F90DF91CF911F910F916E
:1026D00008950F931F93CF93DF9300D01F92CDB730
:1026E000DEB7AC01990F660B770B77FF21C08DE247
:1026F00049835A836B837C83A5DF8C0149815A818E
:102700006B817C8170956095509541955F4F6F4FBF
:102710007F4F2AE08CE194E0A2DD800F911F0F90A3
:102720000F900F900F90DF91CF911F910F9108950F
:102730002AE08CE194E00F900F900F900F90DF91C2
:10274000CF911F910F918BCDCF93DF93BC018CE183
:1027500094E070DDEC0166E872E08CE194E06ADD03
:102760008C0F9D1FDF91CF910895ECE1F4E0A089DB
:10277000B18982E08C93A485B5851C92A685B78526
:1027800080E18C93108EA489B58986E08C93A28910
:10279000B3898C9180618C93A289B3898C91886074
:1027A0008C93A289B3898C9180688C930288F38979
:1027B000E02D80818F7D808308958F779EEF980F25
:1027C000923008F4A4C095EB980F923008F49FC0A3
:1027D0009EEE980F943008F49AC0282F30E0F9014B
:1027E000863420F0E355FC4F849116C0ED54FC4F25
:1027F0008491F901E359FC4F9491923059F440913E
:102800001B04482B40931B0440911804482B409311
:1028100018041AC09A3061F490911A04982B90937E
:102820001A0490911704982B909317049AE00CC007
:102830009B3051F440911904482B40931904409166
:102840001604482B40931604F901E05EFC4FA49156
:102850009230C1F4B0E0AA0FBB1FAA5FBB4F6D93CB
:102860007C93EAE0F3E0A591B4919C9190930504E8
:102870002BE630E03093E5052093E4059091680065
:1028800091603BC09A3001F5B0E0AA0FBB1FA95080
:10289000BC4F6D937C93EAE1F3E0A591B4919C91D8
:1028A0009093F6032CE630E03093E5052093E405A1
:1028B000909168009260909368009091F503982B36
:1028C0009093F503880F1BC09B30C9F4B0E0AA0FAA
:1028D000BB1FAB51BC4F6D937C93ECE1F3E0A59132
:1028E000B4919C919093E4032DE630E03093E5059C
:1028F0002093E40590916800946090936800A09103
:10290000E405B091E505EC918E2B8C9308959FB76B
:10291000F894833109F45BC0D8F4833009F47BC0A8
:10292000823109F466C0823009F098C07093DD03EB
:102930006093DC03EC9880916A008C7F80936A003E
:1029400080916A00816080936A00E49AEC9A86C064
:102950008531C9F050F18B3409F46FC08C3409F023
:102960007DC07093E3036093E203EF9880916A0067
:102970008F7380936A0080916A00806480936A00FC
:10298000E79AEF9A6BC07093D5036093D403E898ED
:10299000809169008C7F80936900809169008160DB
:1029A00080936900E09AE89A59C07093D7036093C6
:1029B000D603E99880916900837F809369008091B4
:1029C0006900846080936900E19AE99A47C0709336
:1029D000D9036093D803EA98809169008F7C809333
:1029E000690080916900806180936900E29AEA9AA7
:1029F00035C07093DB036093DA03EB988091690034
:102A00008F7380936900809169008064809369006E
:102A1000E39AEB9A23C07093DF036093DE03ED9893
:102A200080916A00837F80936A0080916A0084604D
:102A300080936A00E59AED9A11C07093E103609368
:102A4000E003EE9880916A008F7C80936A00809109
:102A50006A00806180936A00E69AEE9A9FBF0895AB
:102A60000F931F93CF93DF938C01C0E0D0E0F80168
:102A7000EC0FFD1F6491662371F0E0911C04F0914E
:102A80001D040190F081E02D8CE194E01995892BD3
:102A900011F02196ECCFCE01DF91CF911F910F91D4
:102AA00008954F925F926F927F928F929F92AF9212
:102AB000BF92CF92DF92EF92FF926B017C01B42E16
:102AC0009B01AC010E94F720882319F069EA72E0AB
:102AD00026C026013701E89477F82FEF3FEF4FE744
:102AE0005FE7C301B2010E94F72081110CC02FEFF4
:102AF0003FEF4FE75FE7C301B201F9D718161CF4A7
:102B00006DEA72E00CC02FEF3FEF4FE75FE4C701C3
:102B1000B6010E94A12018168CF461EB72E08CE1E2
:102B200094E0FF90EF90DF90CF90BF90AF909F9098
:102B30008F907F906F905F904F907CCB2FEF3FEF07
:102B40004FE75FECC701B601D2D787FDE6CF20E0A3
:102B500030E0A901C701B601CAD787FF08C08DE2DE
:102B600071DD4C01F7FAF094F7F8F09402C0812C73
:102B7000912CA12C60E070E080E09FE3AB1441F069
:102B800020E030E040E251E40E94AA1FA394F6CF77
:102B90009B01AC01C701B6010E94E11E2B013C0163
:102BA0000E9417206B017C01A6D79B01AC01C301D9
:102BB000B2010E94E01E2B013C012AE0B701A601F0
:102BC0008CE194E04CDB7C01E80CF91CBB2021F08B
:102BD0008EE238DDE80EF91EDB2CDD2019F120E055
:102BE00030E040E251E4C301B201E6D72B013C01E1
:102BF0000E9417204B01A12CB12C2AE0B501A401A1
:102C00008CE194E02CDBE80EF91EC501B40173D70A
:102C10009B01AC01C301B2010E94E01E2B013C01EB
:102C2000DA94DBCFC701FF90EF90DF90CF90BF9099
:102C3000AF909F908F907F906F905F904F9008958E
:102C4000EF92FF920F931F93CF93DF934091AA05CA
:102C50005091AB056091AC057091AD054F5F5F4F32
:102C60006F4F7F4F4093AA055093AB056093AC051F
:102C70007093AD05843209F4A4C2E091A4058532B5
:102C800034F48A3071F08D3009F0A9C20AC08A325A
:102C900041F08C3209F0A3C290919105982790934E
:102CA0009105082FEF3008F074C1F0E0ED56FA4FAF
:102CB000108280919205882309F46DC120919305BB
:102CC0003FEB320F822F022E000C990B363010F49E
:102CD000C79707C02156263018F48755910901C0BF
:102CE000C097282F2295207F309194054FEB430FFA
:102CF000832F032E000C990B463010F4C79707C0A2
:102D00003156363018F48755910901C0C097820FAB
:102D10009091910589132AC18091B6059091B705CC
:102D2000A091B805B091B9050196A11DB11D809380
:102D3000B6059093B705A093B805B093B9058091F7
:102D4000A505882399F08091AE059091AF05A091DB
:102D5000B005B091B1050196A11DB11D8093AE05DE
:102D60009093AF05A093B005B093B1051091A20563
:102D7000112309F46BC0113009F0D2C080913505E0
:102D800090913605A0913705B091380580933105B3
:102D900090933205A0933305B09334050E94F70356
:102DA0006093390570933A0580933B0590933C05F9
:102DB0001093300510932F058091430590914405A1
:102DC000A0914505B091460580933F05909340053D
:102DD000A0934105B09342050E94F7036093470515
:102DE000709348058093490590934A0510933E05DA
:102DF00010933D058091A505882309F491C087E0D3
:102E0000EDE1F5E0AFE0B5E001900D928A95E1F7D4
:102E100087E0E4E2F5E0A6E1B5E001900D928A9545
:102E2000E1F70E94F70360932B0570932C058093C4
:102E30002D0590932E0510930E0510930D058BE430
:102E400095E00E94070589E595E068C080914305FB
:102E500090914405A0914505B091460580933F05AA
:102E600090934005A0934105B09342050E94F7035B
:102E700060934705709348058093490590934A05F0
:102E800011E010933E0510933D058091A505882320
:102E900021F187E0EDE1F5E0AFE0B5E001900D92C2
:102EA0008A95E1F787E0E4E2F5E0A6E1B5E001907C
:102EB0000D928A95E1F70E94F70360932B057093BA
:102EC0002C0580932D0590932E0510930E051093DD
:102ED0000D0587E695E00E94070580917F0590919A
:102EE0008005A0918105B091820580937B05909328
:102EF0007C05A0937D05B0937E050E94F703609347
:102F00007705709378058093790590937A0581E031
:102F1000809376058093750583E895E00E94070508
:102F2000C091A805D091A90511E0209709F43AC1F4
:102F3000E091A805F091A90566A177A18EA19FA1B6
:102F40000E942D21892B09F02DC1BE01CE01409692
:102F50000E9436210E94F70368A379A38AA39BA34A
:102F60001DA31CA30AA4DBA5C02DDFCF8091B20551
:102F70009091B305A091B405B091B5050196A11D3E
:102F8000B11D8093B2059093B305A093B405B0939F
:102F9000B50590E008C18091A305811142C065EBA1
:102FA00072E083E995E00E942D21892B41F06BEBC3
:102FB00072E083E995E00E942D21892B11F481E0D4
:102FC00014C061EC72E083E995E00E942D21892B09
:102FD00041F067EC72E083E995E00E942D21892B96
:102FE00019F41092A20503C082E08093A20580919B
:102FF000A6059091A7059093A9058093A805C09177
:10300000A805D091A905209721F2EEA0FFA063E9C1
:1030100075E0C7010E942D2197FFF7C08AA59BA5E7
:10302000EACFE091A205E23009F491C090919305B6
:10303000992309F48CC020E2E29FF0011124E82BCF
:103040003197E932F10508F082C08827EA56FF4F30
:103050008F4F0C94212183E995E00E94A505609390
:1030600043057093440580934505909346056FC0D2
:1030700081E0913409F042C042C06DE175E009C0C1
:1030800081E0933509F080E08093230560C064E21D
:1030900075E083E995E00E941D0559C081E09735F0
:1030A00009F080E080932A0552C083E995E00E94F0
:1030B000A505609355057093560580935705909329
:1030C000580545C083E995E00E94A5056093630516
:1030D00070936405809365059093660538C083E915
:1030E00095E0CAD460933505709336058093370513
:1030F000909338052CC081E091330CF480E08093EC
:10310000A50525C083E995E0B7D460937F0570934A
:103110008005809381059093820519C083E995E02D
:103120000E94A50560938D0570938E0580938F0591
:10313000909390050CC083E995E00E94A5056093EB
:103140007105709372058093730590937405C09117
:10315000A805D091A905209709F41BCFE091A805F7
:10316000F091A90566A177A18EA19FA10E942D21B2
:10317000892B09F00ECF28A539A58091A30590E0F1
:10318000821793070CF405CF2817390739F440E16B
:1031900050E063E975E0CE010E943D210AA4DBA561
:1031A000C02DD9CF91E08091A3058F5F8093A305B7
:1031B0001092A40581E00A3209F080E08093920524
:1031C00032C01092A4051092A3051092910582E0DE
:1031D0008093A205109292051092A50514C0EE30BE
:1031E00040F491E09E0F9093A405F0E0ED56FA4F65
:1031F000808390919205911106C0209191058227BC
:103200008093910510C090E00EC063E975E0C7019E
:103210000E942D21181619060CF0BBCE1092A9059C
:103220001092A805B6CE892FDF91CF911F910F91F3
:10323000FF90EF900895CF92DF92EF92FF920F935D
:103240001F93E82FF92F05C00150110921093109F9
:1032500061F1908196239417B9F305C001501109CB
:103260002109310911F1908196239413F7CFC12CD4
:10327000D12CE12CF12C0AC08FEFC81AD80AE80A29
:10328000F80A0C151D052E053F0579F0808186236F
:10329000841791F36C2D7D2D8E2D9F2D1F910F91F5
:1032A000FF90EF90DF90CF90089560E070E080E0B5
:1032B00090E01F910F91FF90EF90DF90CF900895D5
:1032C0008EE192E090930205809301058091730056
:1032D0008B7F80937300809173008F7D8093730048
:1032E0008091BB038093BC038091BA038111FCCF12
:1032F000809173008D7F809373000895789484B5D6
:10330000826084BD84B5816084BD85B5826085BDE1
:1033100085B5816085BD80916E00816080936E006F
:103320001092810080918100826080938100809161
:103330008100816080938100809180008160809312
:1033400080008091B10084608093B1008091B000D2
:1033500081608093B00080919100826080939100A1
:1033600080919100816080939100809190008160B4
:10337000809390008091A10082608093A100809151
:10338000A10081608093A1008091A0008160809362
:10339000A000809121018260809321018091210110
:1033A00081608093210180912001816080932001C0
:1033B00080917A00846080937A0080917A008260A4
:1033C00080937A0080917A00816080937A00809166
:1033D0007A00806880937A001092C1001092FD04F8
:1033E0001092FE041092FF04109200051092BB048C
:1033F0001092BC041092BD041092BE040E94F70308
:103400006B017C014B015C0188EB880E8BE0981E00
:10341000A11CB11C0E94F7036C157D058E059F054C
:1034200028F086169706A806B906A0F78CE194E066
:103430009093FC048093FB0498D90E94F703609357
:10344000BB047093BC048093BD049093BE0467E7F3
:1034500072E08091FB049091FC040E941A110E947A
:10346000F7036B017C014B015C018AE0880E911C23
:10347000A11CB11C0E94F7036C157D058E059F05EC
:1034800028F086169706A806B906A0F781E0809373
:10349000CF0489E892E058D960E08BE30E94AF1036
:1034A00060E08AE30E94AF1060E082E40E94AF1007
:1034B00060E083E40E94AF1064EF73E082E47DD9A2
:1034C00061EF73E083E479D961E082E20E94AF109A
:1034D00060E083E20E94AF1061E084E20E94AF10DE
:1034E00060E085E20E94AF1060E089E30E94AF10C7
:1034F00061E085E00E94AF1062E08AE20E94AF10B6
:1035000061E08AE20E94AF1061E08CE00E94AF109F
:1035100061E089E00E94AF1028D9109273001092E8
:10352000200181E88093210183E896E09093C10314
:103530008093C0038BE39CE39093BF038093BE030F
:1035400062E080E30E94AF1061E08EE20E942C12E4
:1035500061E08EE20E94AF101092BD031092BC0396
:103560001092BB031092BA031092B9031092B803E1
:1035700080E28ABB8093730083E4782ECFE5D0E0AD
:1035800007E310E09BE4E92EF12CCC24C394D12C6A
:1035900032E0A32EB12C43E6842E912C80917B0047
:1035A000877F80937B0070927C0080917A0080649A
:1035B00080937A0080917A0086FDFCCF809178001C
:1035C00080917900F8948091C2039091C303A091F7
:1035D000C403B091C5038093D0039093D103A0930B
:1035E000D203B093D303789464E170E085E00E9445
:1035F0005B1281E095E00E9456021816190634F419
:1036000081E095E00E9478021BDBF3CF0E949607D1
:103610000E94DA0910925A0560915F057091600569
:10362000809161059091620568D220E030E048EC1D
:1036300052E490D4F7D47093CF036093CE030E94EA
:10364000BA080E94F5082091CC033091CD032634AE
:1036500031053CF48091CA039091CB0386349105E7
:10366000CCF080910402909105028336910539F4E3
:10367000109307020093060287E390E006C0D09300
:103680000702C09306028FE590E00E94B6080E94F0
:10369000C707A3C0A901435351094331510530F075
:1036A000AC014353510943315105B8F480910402F0
:1036B000909105028336910529F4F0920702E09279
:1036C000060206C0D0930702C09306020E94C707F5
:1036D00080910602909107027EC0A9014F515109C5
:1036E0004331510530F0AC014F515109433151057F
:1036F00010F58DE790E00E94B6088091C903909183
:10370000C803882339F0911105C0B0920502A09238
:103710000402BDCF992339F0811105C0D092050272
:10372000C0920402B4CF8091C6039091C7031816CB
:1037300019065CF3F3CF2E3131051CF04E970CF0D7
:103740004CC08FE790E00E94B608909205028092EC
:1037500004020E94C70782E992E00E94A4138091AC
:10376000CC039091CD03C29774F586E990E00E9456
:10377000B6080E9496070E94DA0910925A056091D5
:103780005F05709160058091610590916205B5D1EA
:1037900020E030E048EC52E4DDD344D47093CF0312
:1037A0006093CE030E94BA080E94F5080E949F0B06
:1037B0008FE992E00E94A41366E470E080E090E05C
:1037C0000E948808CCCF8091CA039091CB03C29706
:1037D00064F28FE790E00E94B6080E949F0B64E6B7
:1037E00070E080E090E00E9488080E947710D6CEBA
:1037F000ECE1F4E01382128288EE93E0A0E0B0E006
:1038000084839583A683B7832CE032E031832083C1
:1038100025EC30E03587248724EC30E03787268795
:1038200020EC30E0318B208B21EC30E0338B228B8D
:1038300022EC30E0358B248B26EC30E0378B268B66
:10384000118E128E138E148EE9EBF4E0168217821D
:10385000108611861286138614861586168617869C
:10386000108A118A128A138A148A158A20910602F4
:10387000309107023093E3052093E205EAEBF5E08F
:1038800041E051E164EF71E44083518362837383CB
:103890004EE45AEA63EC72EC448355836683778383
:1038A0004FE850E164EF71E4408751876287738786
:1038B0004DE35AEA63EC72EC448755876687778755
:1038C0004DEC5FE064EF71E4408B518B628B738B46
:1038D0004BE25AEA63EC72EC448B558B668B778B28
:1038E00040E451E164EF71E4408F518F628F738F38
:1038F00040E65AEA63EC72EC448F558F668F778FFF
:1039000042E751E164EF71E440A351A362A373A3C2
:1039100043E55AEA63EC72EC44A355A366A377A38C
:10392000EDE0F5E01082118213821282148215827A
:1039300016821782108612861186138614861586C3
:1039400016861786118A108A128A138A148A158A93
:10395000168A108E178A118E128E138E148E158E63
:1039600012A213A214A215A216A217A210AA11AA9B
:1039700012AA13AA14AA15AA10924B0510924C056C
:103980001092510510925205109253051092540551
:103990001092590510925A0510925F051092600519
:1039A00010926105109262051092670510926805E9
:1039B00010926D0510926E0510926F0510927005B1
:1039C000109275051092760510927B0510927C0579
:1039D00010927D0510927E05109283051092840549
:1039E0001092890510928A0510928B0510928C0511
:1039F000109291051092920522E02093A205109258
:103A0000A3051092A4051092A5051092A705109287
:103A1000A6051092A9051092A8051092AA05109269
:103A2000AB051092AC051092AD051092AE05109248
:103A3000AF051092B0051092B1051092B205109228
:103A4000B3051092B4051092B5051092B605109208
:103A5000B7051092B8051092B90510929305E1E0F0
:103A6000F5E01382128284839583A683B7838EE167
:103A700092E09183808308951F93FC019927882702
:103A8000BC01E89411911032E9F3193010F01E30A6
:103A9000C8F31B3249F01D3241F4689405C012D0BE
:103AA000610F711D811D911D119110531A30B8F3D2
:103AB0003EF490958095709561957F4F8F4F9F4F05
:103AC0001F910895592F482F372F262F660F771FE4
:103AD000881F991F660F771F881F991F620F731F1A
:103AE000841F951F660F771F881F991F089540D068
:103AF00008F481E00895E89409C097FB3EF490959E
:103B00008095709561957F4F8F4F9F4F9923A9F0B6
:103B1000F92F96E9BB279395F69587957795679545
:103B2000B795F111F8CFFAF4BB0F11F460FF1BC089
:103B30006F5F7F4F8F4F9F4F16C0882311F096E91C
:103B400011C0772321F09EE8872F762F05C06623CA
:103B500071F096E8862F70E060E02AF09A95660F83
:103B6000771F881FDAF7880F9695879597F908953C
:103B7000990F0008550FAA0BE0E8FEEF161617067E
:103B8000E807F907C0F012161306E407F50798F0E6
:103B9000621B730B840B950B39F40A2661F0232BFF
:103BA000242B252B21F408950A2609F4A140A6957B
:103BB0008FEF811D811D08950BD078C069D028F04A
:103BC0006ED018F0952309F05AC05FC01124A2C02E
:103BD0007ED0A0F3959FD1F3950F50E0551F629FC3
:103BE000F001729FBB27F00DB11D639FAA27F00D56
:103BF000B11DAA1F649F6627B00DA11D661F829F7D
:103C00002227B00DA11D621F739FB00DA11D621F61
:103C1000839FA00D611D221F749F3327A00D611D7E
:103C2000231F849F600D211D822F762F6A2F112460
:103C30009F5750408AF0E1F088234AF0EE0FFF1FB3
:103C4000BB1F661F771F881F91505040A9F79E3FEA
:103C5000510570F014C05EC05F3FECF3983EDCF39A
:103C6000869577956795B795F795E7959F5FC1F727
:103C7000FE2B880F911D9695879597F9089597F9D2
:103C80009F6780E870E060E008959FEF80EC089502
:103C900000240A941616170618060906089500242B
:103CA0000A9412161306140605060895092E0394A5
:103CB000000C11F4882352F0BB0F40F4BF2B11F419
:103CC00060FF04C06F5F7F4F8F4F9F4F089557FD78
:103CD0009058440F551F59F05F3F71F04795880F7A
:103CE00097FB991F61F09F3F79F087950895121611
:103CF00013061406551FF2CF4695F1DF08C01616BD
:103D000017061806991FF1CF86957105610508946D
:103D10000895E894BB2766277727CB0197F9089584
:103D2000DB018F939F932DD0BF91AF91A29F800D08
:103D3000911DA39F900DB29F900D11240895A1E2B3
:103D40001A2EAA1BBB1BFD010DC0AA1FBB1FEE1F15
:103D5000FF1FA217B307E407F50720F0A21BB30B60
:103D6000E40BF50B661F771F881F991F1A9469F7DC
:103D700060957095809590959B01AC01BD01CF0138
:103D800008950FD0A59F900DB49F900DA49F800D16
:103D9000911D11240895B7FFF4CFF3DF821B930B1D
:103DA0000895A29FB001B39FC001A39F700D811D14
:103DB0001124911DB29F700D811D1124911D089534
:103DC0005058BB27AA270ED071CF62DF30F067DFD3
:103DD00020F031F49F3F11F41EF457CF0EF4E0951C
:103DE000E7FB4DCFE92F73DF80F3BA176207730744
:103DF0008407950718F071F49EF58BCF0EF4E095CB
:103E00000B2EBA2FA02D0B01B90190010C01CA0194
:103E1000A0011124FF27591B99F0593F50F4503E3F
:103E200068F11A16F040A22F232F342F4427585F31
:103E3000F3CF469537952795A795F0405395C9F749
:103E40007EF41F16BA0B620B730B840BBAF0915001
:103E5000A1F0FF0FBB1F661F771F881FC2F70EC0A0
:103E6000BA0F621F731F841F48F487957795679573
:103E7000B795F7959E3F08F0B3CF9395880F08F05C
:103E80009927EE0F97958795089502DF58F080E8FF
:103E900091E009F49EEF03DF28F040E851E059F487
:103EA0005EEF09C0F2CE35CFE92FE07810DF68F37E
:103EB000092E052AC1F3261737074807590738F096
:103EC0000E2E07F8E02569F0E025E0640AC0EF63F4
:103ED00007F8009407FADB01B9019D01DC01CA0172
:103EE000AD01EF9346D0E2DE0AD05F91552331F069
:103EF0002BED3FE049E450FD49EC63CF0895DF939B
:103F0000DD27B92FBF7740E85FE31616170648078D
:103F10005B0710F4D92F19D19F938F937F936F93E1
:103F200063D1EEE7F1E0AFD0C1DE2F913F914F9129
:103F30005F914EDEDD2349F09058A2EA2AED3FE082
:103F400049EC5FE3D0785D274DDFDF91AFCEC1D084
:103F5000E395E6C00CD0AACEA2DE40F099DE30F0A8
:103F600021F45F3F19F08BCE5111D4CE8ECEAFDE4F
:103F700098F39923C9F35523B1F3951B550BBB2730
:103F8000AA2762177307840738F09F5F5F4F220FDD
:103F9000331F441FAA1FA9F333D00E2E3AF0E0E8D6
:103FA00030D091505040E695001CCAF729D0FE2F22
:103FB00027D0660F771F881FBB1F261737074807B4
:103FC000AB07B0E809F0BB0B802DBF01FF2793586A
:103FD0005F4F2AF09E3F510568F051CE9BCE5F3F68
:103FE000ECF3983EDCF3869577956795B795F79552
:103FF0009F5FC9F7880F911D9695879597F908954A
:10400000E1E0660F771F881FBB1F621773078407E5
:10401000BA0720F0621B730B840BBA0BEE1F88F7F4
:10402000E095089504D06894B11174CE089557DED8
:1040300088F09F5790F0B92F9927B751A0F0D1F091
:10404000660F771F881F991F1AF0BA95C9F712C01B
:10405000B13081F05EDEB1E008955BCE672F782F3E
:104060008827B85F39F0B93FCCF386957795679587
:10407000B395D9F73EF490958095709561957F4FF3
:104080008F4F9F4F0895DF93CF931F930F93FF920E
:10409000EF92DF927B018C01689405C0DA2EEF016C
:1040A00097DDFE01E894A5912591359145915591B3
:1040B000AEF3EF0197DEFE019701A801DA9479F7DC
:1040C000DF90EF90FF900F911F91CF91DF910895B6
:1040D000DCCD05DEE8F3E894E0E0BB279F57F0F085
:1040E0002AED3FE049EC06C0EE0FBB0F661F771FBD
:1040F000881F28F0B23A62077307840728F0B25A83
:10410000620B730B840BE3959A9572F7803830F449
:104110009A95BB0F661F771F881FD2F790486DC016
:10412000EF93E0FF06C0A2EA2AED3FE049EC5FEB27
:1041300059DEBCDD0F90039401FC9058EBEAF1E0EE
:104140006FC016DD08F48FEF08959B01AC0160E0AD
:1041500070E080E89FE3FECE9F93BBDF0F9007FCEB
:10416000EE5FDECF11F40EF490CD45C0B8DDD0F394
:104170009923D9F3CEF39F57550B87FF4AD00024DC
:10418000A0E640EA900180585695979528F4805C07
:10419000660F771F881F20F026173707480730F46F
:1041A000621B730B840B202931294A2BA695179487
:1041B0000794202531254A2758F7660F771F881F57
:1041C00020F026173707480730F4620B730B840B77
:1041D000200D311D411DA09581F7B901842F915803
:1041E000880F9695879508959B01AC01E5CCC0DCBE
:1041F000880B990B08959F3F31F0915020F48795DB
:1042000077956795B795880F911D9695879597F93E
:10421000089591505040660F771F881FD2F7089578
:104220009F938F937F936F93FF93EF939B01AC01C9
:10423000C3DCEF91FF9127DF2F913F914F915F9169
:10424000BBCCEE0FFF1F881F8BBF0790F691E02DB0
:10425000199481E090E0F8941FC0FB01DC018D917E
:10426000019080190110D9F3990B0895FB01DC012D
:1042700001900D920020E1F70895FB01DC0141500F
:10428000504048F001900D920020C9F701C01D92E6
:1042900041505040E0F7089511E0CEEFD1E000E04A
:1042A00005C0802FFE01CDDF2196011DCF3FD10734
:0A42B00080E00807B1F7F894FFCF93
:1042BA00FFFF630063004B000000000010107E0F38
:1042CA00A90F5610DA0FB80FCC0F000000009302A6
:1042DA007E0FCD028E025602780265025475726E06
:1042EA00696E67207269676874005475726E696EC8
:1042FA0067206C6566740020475053204669782011
:10430A003D20002057617970696E74204C41542019
:10431A003D20005374726169676874005269676866
:10432A0074004C65667400564D4450565F317C31BA
:10433A005F564D4450560D0A005374617274696E8B
:10434A0067000A0A53544F5050494E470A0A00520E
:10435A006576657273696E67006E616E00696E6676
:10436A00006F7666004750524D4300474E524D4308
:0E437A0000475047474100474E47474100006B
:020000023000CC
:10E000000D9489F10D94B2F10D94B2F10D94B2F129
:10E010000D94B2F10D94B2F10D94B2F10D94B2F1F0
:10E020000D94B2F10D94B2F10D94B2F10D94B2F1E0
:10E030000D94B2F10D94B2F10D94B2F10D94B2F1D0
:10E040000D94B2F10D94B2F10D94B2F10D94B2F1C0
:10E050000D94B2F10D94B2F10D94B2F10D94B2F1B0
:10E060000D94B2F10D94B2F10D94B2F10D94B2F1A0
:10E070000D94B2F10D94B2F10D94B2F10D94B2F190
:10E080000D94B2F10D94B2F10D94B2F10D94B2F180
:10E090000D94B2F10D94B2F10D94B2F10D94B2F170
:10E0A0000D94B2F10D94B2F10D94B2F10D94B2F160
:10E0B0000D94B2F10D94B2F10D94B2F10D94B2F150
:10E0C0000D94B2F10D94B2F10D94B2F10D94B2F140
:10E0D0000D94B2F10D94B2F10D94B2F10D94B2F130
:10E0E0000D94B2F141546D656761323536300041AF
:10E0F000726475696E6F206578706C6F72657220DE
:10E1000073746B3530305632206279204D4C530099
:10E11000426F6F746C6F616465723E004875683F52
:10E1200000436F6D70696C6564206F6E203D200048
:10E130004350552054797065202020203D20005FF9
:10E140005F4156525F415243485F5F3D2000415658
:10E1500052204C696243205665723D20004743437C
:10E160002056657273696F6E203D20004350552024
:10E1700049442020202020203D20004C6F7720663D
:10E18000757365202020203D20004869676820665F
:10E190007573652020203D200045787420667573D6
:10E1A00065202020203D20004C6F636B2066757336
:10E1B000652020203D20004D617220203720323024
:10E1C000313300312E362E3800342E332E350056A2
:10E1D00023202020414444522020206F7020636F70
:10E1E00064652020202020696E73747275637469E1
:10E1F0006F6E2061646472202020496E74657272B3
:10E20000757074006E6F20766563746F7200726A49
:10E210006D702020006A6D70200057686174207056
:10E220006F72743A00506F7274206E6F7420737541
:10E2300070706F72746564004D7573742062652030
:10E2400061206C6574746572002000577269747483
:10E25000696E672045450052656164696E672045B7
:10E26000450045452065727220636E743D00504F35
:10E27000525400303D5A65726F2061646472003FF1
:10E280003D43505520737461747300403D454550C3
:10E29000524F4D207465737400423D426C696E6B41
:10E2A000204C454400453D44756D70204545505215
:10E2B0004F4D00463D44756D7020464C415348001B
:10E2C000483D48656C70004C3D4C69737420492F83
:10E2D0004F20506F72747300513D51756974005234
:10E2E0003D44756D702052414D00563D73686F7707
:10E2F00020696E7465727275707420566563746FF0
:10E30000727300593D506F727420626C696E6B00BD
:10E310002A0011241FBECFEFD1E2DEBFCDBF01E046
:10E320000CBF12E0A0E0B2E0EEE1FDEF03E00BBFB6
:10E3300002C007900D92A030B107D9F712E0A0E01B
:10E34000B2E001C01D92AE30B107E1F70F9460F367
:10E350000D948DFE01E20EBF0FEF0DBF11241FBE05
:10E360000D9460F30D9400F020E030E040ED57E0B4
:10E3700005C0FA013197F1F72F5F3F4F2817390792
:10E38000C0F308959C01260F311DC901A0E0B0E043
:10E390002F5F3F4FABBFFC018791882361F08093D3
:10E3A000C6008091C00086FFFCCF8091C0008064D1
:10E3B0008093C000EACF08958DE08093C6008091DD
:10E3C000C00086FFFCCF8091C00080648093C000B5
:10E3D0008AE08093C6008091C00086FFFCCF8091C8
:10E3E000C00080648093C00008950F94C2F10F9420
:10E3F000DCF10895FC019081992359F09093C600B7
:10E400008091C00086FFFCCF8091C0008064809323
:10E41000C0003196992379F70895282F982F929567
:10E420009F70892F805D8A3308F0895F8093C600D2
:10E430008091C00086FFFCCF8091C00080648093F3
:10E44000C000822F8F70982F905D9A3308F0995FEB
:10E450009093C6008091C00086FFFCCF8091C000E1
:10E4600080648093C00008959C01FB01853691056E
:10E470001CF46330710594F0C90164E670E00F94F8
:10E480002EFE605D7F4F6093C6008091C00086FFC6
:10E49000FCCF8091C00080648093C0002B30310598
:10E4A00014F43297B4F0C90164E670E00F942EFEC4
:10E4B0006AE070E00F942EFE605D7F4F6093C600AF
:10E4C0008091C00086FFFCCF8091C0008064809363
:10E4D000C000C9016AE070E00F942EFEC0968093E0
:10E4E000C6008091C00086FFFCCF8091C000806490
:10E4F0008093C00008951F93182F8EE692EE60E07F
:10E500000F94C2F11093C6008091C00086FFFCCF2B
:10E510008091C00080648093C0000F94DCF11F9153
:10E5200008952F923F924F925F926F927F928F92B7
:10E530009F92AF92BF92CF92DF92EF92FF920F9392
:10E540001F93DF93CF93CDB7DEB762970FB6F894E2
:10E55000DEBF0FBECDBF382E622ECA01DB015C01CB
:10E560006D01772420E2222E2E010894411C511CBB
:10E570008BC081E0A81680E0B80681E0C80680E084
:10E58000D80628F0C601AA27BB270F940DF2BB2797
:10E59000AD2D9C2D8B2D0F940DF28A2D0F940DF225
:10E5A0002092C6008091C00086FFFCCF8091C00001
:10E5B00080648093C0009DE29093C6008091C0006B
:10E5C00086FFFCCF8091C00080648093C0002092C1
:10E5D000C6008091C00086FFFCCF8091C00080649F
:10E5E0008093C00019828601750188249924A1E0D6
:10E5F0003A1651F03A1620F0B2E03B1661F409C029
:10E600000BBFF701779007C0C7010F9477FE782EF4
:10E6100002C0F7017080872D0F940DF22092C60082
:10E620008091C00086FFFCCF8091C0008064809301
:10E63000C000872D8052F401EF70F0708F3520F408
:10E64000E40DF51D708204C0E40DF51D8EE280839B
:10E650000894E11CF11C011D111D0894811C911CE2
:10E6600090E18916910409F0C2CF80E190E0A0E02A
:10E67000B0E0A80EB91ECA1EDB1E198AC2010F9493
:10E68000FAF10F94DCF16A94662009F072CF629679
:10E690000FB6F894DEBF0FBECDBFCF91DF911F91B3
:10E6A0000F91FF90EF90DF90CF90BF90AF909F9031
:10E6B0008F907F906F905F904F903F902F90089534
:10E6C0002F923F924F925F926F927F928F929F9282
:10E6D000AF92BF92CF92DF92EF92FF920F931F9370
:10E6E000DF93CF93CDB7DEB7CD53D1400FB6F894BB
:10E6F000DEBF0FBECDBF01E20EBF0FEF0DBF94B75F
:10E70000F894A89514BE80916000886180936000A1
:10E7100010926000789493FF05C0E0910002F091A0
:10E7200001021995279A2F9A8091C00082608093E8
:10E73000C00080E18093C40088E18093C1000000A4
:10E74000EE24FF24870144E0A42EB12CCC24DD2448
:10E7500024C0C5010197F1F70894E11CF11C011DCB
:10E76000111D21E2E2162EE4F20620E0020720E06D
:10E77000120718F031E0C32ED12CC801B70127ECE5
:10E780003BE140E050E00F9441FE611571058105C9
:10E79000910519F485B1805885B98091C00087FD35
:10E7A00003C0C114D104A9F2A6014F5F5F4FC25E3E
:10E7B000DE4F59834883CE51D140C25EDE4F8881FF
:10E7C0009981CE51D140019711F00D9410FEC05D9A
:10E7D000DE4F19821882C053D14060E0C15DDE4F28
:10E7E0001882CF52D14088249924C35DDE4F19820C
:10E7F0001882CD52D140C05EDE4F188219821A8233
:10E800001B82C052D140CE5CDE4F188219821A8220
:10E810001B82C253D140EE24FF2487010BBFF701B6
:10E8200007911691C45CDE4F19830883CC53D14005
:10E830000D940BFEC25EDE4F28813981CE51D1404E
:10E840002130310509F52091C600C25EDE4F1982E4
:10E850001882CE51D14022C02F5F3F4F4F4F5F4FA4
:10E86000213082E138078AE7480780E0580780F0C6
:10E87000C45CDE4FE881F981CC53D140EF5FFF4F9C
:10E8800019F0EE27FF27099420E030E040E050E047
:10E890008091C00087FFE0CF2091C600C35DDE4FAE
:10E8A00048815981CD52D1404F5F5F4FC35DDE4FEC
:10E8B00059834883CD52D140213209F063C64A3092
:10E8C000510508F05FC60894811C911C53E0851621
:10E8D000910409F059C600E010E018C081E280936D
:10E8E000C6008091C00086FFFCCF8091C00080648C
:10E8F0008093C0002F5F3F4F2931310579F70F9486
:10E90000DCF10F5F1F4F0530110519F020E030E0FA
:10E91000E5CF10920A0210920B0210920C02109294
:10E920000D02109206021092070210920802109235
:10E930000902109202021092030210920402109235
:10E9400005028FEE90EE60E00F94F5F180E191EE1C
:10E9500060E00F94C2F18091C00087FFFCCF9091DE
:10E96000C600903608F09F759032B8F09093C600BC
:10E970008091C00086FFFCCF8091C00080648093AE
:10E98000C000A0E2A093C6008091C00086FFFCCF2B
:10E990008091C00080648093C000983409F4D7C18E
:10E9A0009934B8F4923409F459C1933458F490333B
:10E9B00019F1903308F4E3C59F33A1F1903409F0C5
:10E9C000DEC5BDC0953409F470C1963409F0D7C5D1
:10E9D00098C1923509F42BC2933538F49C3409F46C
:10E9E000F5C1913509F0CBC518C2963509F445C279
:10E9F000993509F0C4C567C483E792EE62E00F94CD
:10EA0000F5F110920602109207021092080210927D
:10EA1000090210920A0210920B0210920C0210923C
:10EA20000D0213C18FE792EE62E00F94F5F18FEEC5
:10EA300090EE60E00F94F5F181E291EE60E00F94CA
:10EA4000C2F187EB91EE60E00F94F5F180E391EE77
:10EA500060E00F94C2F184EE90EE60E00F94F5F167
:10EA60008FE391EE60E00F94C2F186E090E061E008
:10EA700070E00F9434F20F94DCF18DE591EE60E0DC
:10EA80000F94C2F189EC91EE60E00F94F5F18EE401
:10EA900091EE60E00F94C2F183EC91EE60E00F9490
:10EAA000F5F18CE691EE60E00F94C2F18EE10F94E7
:10EAB0000DF288E90F940DF281E00F940DF20F949E
:10EAC000DCF18BE791EE60E00F94C2F119E0E0E039
:10EAD000F0E010935700E4918E2F0F940DF20F94F5
:10EAE000DCF18AE891EE60E00F94C2F1E3E0F0E03F
:10EAF00010935700E4918E2F0F940DF20F94DCF1D8
:10EB000089E991EE60E00F94C2F1E2E0F0E0109349
:10EB10005700E4918E2F0F940DF20F94DCF188EAE8
:10EB200091EE60E00F94C2F1E1E0F0E01093570045
:10EB30001491812F0F940DF20F94DCF107CF8BE825
:10EB400092EE62E00F94F5F18BE492EE60E00F94A8
:10EB5000F5F10F94DCF100E010E019C0C8016F2D51
:10EB60000F947FFEFF2031F489E492EE60E00F9471
:10EB7000C2F10BC0F092C6008091C00086FFFCCFAE
:10EB80008091C00080648093C0000F5F1F4FC80158
:10EB900081519F41A0E0B0E0ABBFFC01F790BAE229
:10EBA000FB1621F0E2E000301E07C1F60F94DCF105
:10EBB0000F94DCF187E592EE60E00F94F5F10F948D
:10EBC000DCF1CC24DD2400E010E01EC0C8010F946D
:10EBD00077FEF82E882331F489E492EE60E00F94FA
:10EBE000C2F10BC08093C6008091C00086FFFCCFAD
:10EBF0008091C00080648093C000FE1419F00894D6
:10EC0000C11CD11C0F5F1F4FC80181519F41A0E063
:10EC1000B0E0ABBFFC01E790FAE2EF1621F022E092
:10EC20000030120799F60F94DCF10F94DCF182E6C4
:10EC300092EE60E00F94C2F1C60161E070E00F94C3
:10EC400034F20F94DCF10F94DCF110920202109276
:10EC50000302109204021092050278CE89E992EE26
:10EC600062E00F94F5F1279A2F9A16C02F9880E052
:10EC700090E0E0EDF7E03197F1F7019684369105E9
:10EC8000C1F72F9A80E090E0E0EDF7E03197F1F7DF
:10EC9000019684369105C1F78091C00087FFE6CFC9
:10ECA0008091C00087FFFCCF64C485EA92EE62E0E9
:10ECB0000F94F5F140910202509103026091040219
:10ECC0007091050281E020E10F9491F2809102029F
:10ECD00090910302A0910402B091050280509F4FD1
:10ECE000AF4FBF4F8093020290930302A0930402A0
:10ECF000B093050280509041A040B04008F426CE69
:10ED0000A4CF83EB92EE62E00F94F5F140910602FE
:10ED100050910702609108027091090280E020E1A1
:10ED20000F9491F28091060290910702A09108023F
:10ED3000B091090280509F4FAF4FBF4F80930602A2
:10ED400090930702A0930802B0930902FFCD80ECD4
:10ED500092EE62E00F94F5F183E792EE60E00F949B
:10ED6000F5F18FE792EE60E00F94F5F18BE892EE0B
:10ED700060E00F94F5F189E992EE60E00F94F5F10F
:10ED800085EA92EE60E00F94F5F183EB92EE60E09D
:10ED90000F94F5F180EC92EE60E00F94F5F187ECC2
:10EDA00092EE60E00F94F5F188ED92EE60E00F9442
:10EDB000F5F18FED92EE60E00F94F5F18AEE92EEB0
:10EDC00060E00F94F5F183E093EEBDCD87EC92EE19
:10EDD00062E00F94F5F181E40F947BF282E40F94EA
:10EDE0007BF283E40F947BF284E40F947BF285E45E
:10EDF0000F947BF286E40F947BF287E40F947BF20E
:10EE000088E40F947BF28AE40F947BF28BE40F94F6
:10EE10007BF28CE40F947BF299CD88ED92EE62E068
:10EE20000F94F5F1772473948824992409C48FED05
:10EE300092EE62E00F94F5F140910A0250910B02BC
:10EE400060910C0270910D0282E020E10F9491F22A
:10EE500080910A0290910B02A0910C02B0910D02D8
:10EE600080509F4FAF4FBF4F80930A0290930B0289
:10EE7000A0930C02B0930D0269CD8AEE92EE62E08F
:10EE80000F94F5F184EE90EE60E00F94F5F18FECC5
:10EE900091EE60E00F94F5F1662477244301CC5D98
:10EEA000DE4F19821882C452D140D401C301B695F5
:10EEB000A79597958795CA5DDE4F88839983AA8326
:10EEC000BB83C652D140CC5DDE4FA881B981C4520C
:10EED000D1401196CC5DDE4FB983A883C452D14096
:10EEE000CD0162E070E00F9434F2B0E2B093C6005E
:10EEF0008091C00086FFFCCF8091C0008064809329
:10EF0000C000EDE2E093C6008091C00086FFFCCF18
:10EF10008091C00080648093C000F0E2F093C6004E
:10EF20008091C00086FFFCCF8091C00080648093F8
:10EF3000C000CA5DDE4FE880F9800A811B81C6529D
:10EF4000D140BB27A12F902F8F2D0F940DF2CA5DBA
:10EF5000DE4F8881C652D1400F940DF2B0E2FB2EF5
:10EF6000F092C6008091C00086FFFCCF8091C00067
:10EF700080648093C0000DE30093C6008091C000C0
:10EF800086FFFCCF8091C00080648093C00010E2B7
:10EF90001093C6008091C00086FFFCCF8091C00016
:10EFA00080648093C0008BBEF3012791C65DDE4F65
:10EFB0002883CA52D140A22EBB24CC24DD2408943D
:10EFC000611C711C811C911C8BBEF3018791282E42
:10EFD0003324442455240894611C711C811C911C09
:10EFE0008BBEF3013791C55DDE4F3883CB52D140E4
:10EFF0000894611C711C811C911C8BBEF30147910C
:10F00000C45DDE4F4883CC52D140ADEFEA2EAFEF66
:10F01000FA2EAFEF0A2FAFEF1A2F6E0C7F1C801E57
:10F02000911E142D032DF22CEE24EA0CFB1C0C1D5A
:10F030001D1D0F940DF220E22093C6008091C000A8
:10F0400086FFFCCF8091C00080648093C000C65DC5
:10F05000DE4F8881CA52D1400F940DF230E23093D6
:10F06000C6008091C00086FFFCCF8091C000806404
:10F070008093C000C45DDE4F8881CC52D1400F9494
:10F080000DF240E24093C6008091C00086FFFCCFA5
:10F090008091C00080648093C000C55DDE4F888190
:10F0A000CB52D1400F940DF250E25093C6008091A4
:10F0B000C00086FFFCCF8091C00080648093C000B8
:10F0C0008FEFE8168FEFF80680E0080780E018075A
:10F0D00031F484E092EE60E00F94C2F1DFC0D80119
:10F0E000C7018070907CA070B0708050904CA040A0
:10F0F000B040D1F52FEF3FE340E050E0E222F322B1
:10F1000004231523CA5DDE4FA880B980CA80DB8046
:10F11000C652D140AE0CBF1CC01ED11EAA0CBB1CD7
:10F12000CC1CDD1C8EE092EE60E00F94C2F1BB2798
:10F13000A12F902F8F2D0F940DF28E2D0F940DF285
:10F1400030E23093C6008091C00086FFFCCF8091F2
:10F15000C00080648093C0004EE34093C60080915D
:10F16000C00086FFFCCF87C08EE09EEFA0E0B0E03D
:10F17000E822F9220A231B239CE0E91694E9F90608
:10F1800090E0090790E0190709F088C0C45DDE4FE0
:10F19000A881CC52D140EA2EFF2400E010E0102FCD
:10F1A0000F2DFE2CEE24C55DDE4FB881CB52D14031
:10F1B000EB0EF11C011D111DD601C501817090706F
:10F1C000A070B070DC0199278827E80EF91E0A1F8D
:10F1D0001B1F20EF30E040E050E0A222B322C42207
:10F1E000D52241E1AA0CBB1CCC1CDD1C4A95D1F7F1
:10F1F000EA0CFB1C0C1D1D1D81E090E0A0E0B0E0BE
:10F20000282239224A225B2235E1220C331C441C7D
:10F21000551C3A95D1F7E20CF31C041D151D57013E
:10F220006801AA0CBB1CCC1CDD1C85E192EE60E0E1
:10F230000F94C2F1C801AA27BB270F940DF2BB2778
:10F24000A12F902F8F2D0F940DF28E2D0F940DF274
:10F2500090E29093C6008091C00086FFFCCF809121
:10F26000C00080648093C000AEE3A093C60080918C
:10F27000C00086FFFCCF8091C00080648093C000F6
:10F28000C601AA27BB270F940DF2BB27AD2D9C2DDD
:10F290008B2D0F940DF28A2D0F940DF20F94DCF14B
:10F2A000CC5DDE4FE881F981C452D140F99709F471
:10F2B0004DCBF4E0EF2EF12C012D112D6E0C7F1CA7
:10F2C000801E911EF2CD83E093EE62E00F94F5F183
:10F2D0008AE192EE60E00F94C2F18091C00087FF56
:10F2E000FCCF1091C6001F751093C6008091C0001E
:10F2F00086FFFCCF8091C00080648093C0000F9493
:10F30000DCF1812F81548A3108F036C1163409F4BA
:10F3100095C0173490F4133409F44EC0143430F40B
:10F320001134F1F0123409F01DC130C0143409F465
:10F3300059C0153409F016C16BC01A3409F4C4C0A1
:10F340001B3438F4173409F48FC0183409F00AC19B
:10F35000A1C01B3409F4D2C01C3409F003C1E8C0B9
:10F360008FEF81B90DC082B1809582B980E090E0C5
:10F37000E0EDF7E03197F1F70196883C9105C1F790
:10F380008091C00087FFEFCF12B8EFC08FEF84B934
:10F390000DC085B1809585B980E090E0E0EDF7E0A3
:10F3A0003197F1F70196883C9105C1F78091C00033
:10F3B00087FFEFCF15B8D9C08FEF87B90DC088B1DF
:10F3C000809588B980E090E0E0EDF7E03197F1F7C3
:10F3D0000196883C9105C1F78091C00087FFEFCF6F
:10F3E00018B8C3C08FEF8AB90DC08BB180958BB9A7
:10F3F00080E090E0E0EDF7E03197F1F70196883C8E
:10F400009105C1F78091C00087FFEFCF1BB8ADC059
:10F410008FEF8DB90DC08EB180958EB980E090E0F0
:10F42000E0EDF7E03197F1F70196883C9105C1F7DF
:10F430008091C00087FFEFCF1EB897C08FEF80BBD1
:10F440000DC081B3809581BB80E090E0E0EDF7E0F6
:10F450003197F1F70196883C9105C1F78091C00082
:10F4600087FFEFCF11BA81C08FEF83BB0DC084B38C
:10F47000809584BB80E090E0E0EDF7E03197F1F714
:10F480000196883C9105C1F78091C00087FFEFCFBE
:10F4900014BA6BC08FEF809301010FC080910201FD
:10F4A00080958093020180E090E0E0EDF7E03197F5
:10F4B000F1F70196883C9105C1F78091C00087FF64
:10F4C000EDCF1092020151C08FEF809304010FC065
:10F4D0008091050180958093050180E090E0E0ED4A
:10F4E000F7E03197F1F70196883C9105C1F78091DB
:10F4F000C00087FFEDCF1092050137C08FEF8093DA
:10F5000007010FC08091080180958093080180E079
:10F5100090E0E0EDF7E03197F1F70196883C910536
:10F52000C1F78091C00087FFEDCF109208011DC088
:10F530008FEF80930A010FC080910B01809580931B
:10F540000B0180E090E0E0EDF7E03197F1F70196F4
:10F55000883C9105C1F78091C00087FFEDCF1092E4
:10F560000B0103C085E292EEEEC98091C00087FFD7
:10F57000FCCF8091C600EAC988E392EEE4C98CE131
:10F5800091EEE1C988249924933011F1943028F444
:10F59000913089F09230B8F408C0953061F195301F
:10F5A000F0F0963009F048C043C02B3109F042C951
:10F5B00091E06BE13FC96227C15DDE4F2883CF52E6
:10F5C000D14092E037C9B22FA0E0622793E032C960
:10F5D000822F90E0A82BB92B622794E02BC92E3004
:10F5E00009F039C3622795E0C05DDE4F19821882A9
:10F5F000C053D1401FC9E1E0F0E0EC0FFD1FC05D3A
:10F60000DE4F08811981C053D140E00FF11F2083E4
:10F610000F5F1F4FC05DDE4F19830883C053D14079
:10F6200062270A171B0709F005C9D80196E002C92D
:10F63000261709F010C303C0973009F0FBC87724E0
:10F640009981933109F412C19431C8F4963009F4C8
:10F65000D8C0973050F4923009F406C1933009F4C1
:10F660006DC0913009F059C253C0913109F477C08F
:10F67000923108F0BBC0903109F04FC2F5C098310B
:10F6800009F487C0993150F4953109F4EFC09531F0
:10F6900008F4C6C1963109F040C2C2C19A3109F4DA
:10F6A0006CC09A3108F491C09B3109F45BC09D3164
:10F6B00009F033C29D81903359F48F81882311F46E
:10F6C0009EE11CC0813011F091E018C098E916C08D
:10F6D000892F807591F0903539F4E0E0F0E089E011
:10F6E0008093570094910AC0983539F4E3E0F0E034
:10F6F00089E080935700949101C090E01A821B82A8
:10F700008D818C831D829E831F8227E030E009C299
:10F710001A8288E08B8381E48C8386E58D8382E581
:10F720008E8389E48F8383E5888780E589878FE5E9
:10F730008A8782E38B872BE030E0F3C18A818139AD
:10F7400041F0823941F0803911F48FE005C080E04A
