:100000000C94A0000C945C090C9435090C94D20853
:100010000C946F080C94FE070C94C8000C94C80054
:100020000C94C8000C94C8000C945C050C94060653
:100030000C9415050C94C8000C94C8000C94C800CE
:100040000C94D1030C94C8000C943D020C9417023C
:100050000C94C8000C94C8000C94C8000C94C80000
:100060000C94C8000C94C8008C0B9E0BA10BA80B21
:10007000AF0BDD0BE40BF10BFE0B0A0C0A0C0A0CA8
:100080000A0C0A0C0A0C0A0C0A0C0A0C0A0C0A0CC0
:100090000A0C0A0C0A0C0A0C0A0C0A0C0A0C0A0CB0
:1000A0000A0C0A0C0A0C0A0C8C0B990B9E0BA10B68
:1000B000A80BAF0BB60BC30BD00B00000000250044
:1000C00028002B00000000080002010000030407C4
:1000D00000000000000000004473740053706400CE
:1000E0004C6F6E004C61740053617400000000009E
:1000F000240027002A000000000023002600290019
:1001000000010203040506070001020304050001C3
:1001100002030405040404040404040402020202A9
:1001200002020303030303030102040810204080BA
:10013000010204081020010204081020F412D61253
:1001400011241FBECFEFD8E0DEBFCDBF24E0AAEA66
:10015000B1E001C01D92A835B207E1F711E0A0E0BF
:10016000B1E0E0E8F3E302C005900D92AA3AB107CE
:10017000D9F710E0CFE9D0E004C02197FE010E943A
:10018000E016CE39D107C9F70E94890E0C94B31935
:100190000C940000CF92DF92EF92FF920F931F9387
:1001A000CF93DF936C017A018B01C0E0D0E0CE15D4
:1001B000DF0589F0D8016D918D01D601ED91FC919B
:1001C0000190F081E02DC6010995892B11F47E0183
:1001D00002C02196ECCFC701DF91CF911F910F9103
:1001E000FF90EF90DF90CF900895FC01538D448DE8
:1001F000252F30E0842F90E0821B930B541710F0D2
:10020000CF96089501970895FC01918D828D9817DE
:1002100061F0828DDF01A80FB11D5D968C91928DEA
:100220009F5F9F73928F90E008958FEF9FEF0895E7
:10023000FC01918D828D981731F0828DE80FF11DB0
:10024000858D90E008958FEF9FEF0895FC01918DCB
:10025000228D892F90E0805C9F4F821B91098F73C4
:100260009927089588EB92E00E94260121E0892BCE
:1002700009F420E0822F0895FC01848DDF01A80F8E
:10028000B11DA35ABF4F2C91848D90E001968F73BE
:100290009927848FA689B7892C93A089B1898C91DD
:1002A00080648C93938D848D981306C00288F389A3
:1002B000E02D80818F7D80830895EF92FF920F93D0
:1002C0001F93CF93DF93EC0181E0888F9B8D8C8D02
:1002D000981305C0E889F989808185FD24C0F62E30
:1002E0000B8D10E00F5F1F4F0F731127E02E8C8DC9
:1002F000E8120CC00FB607FCFACFE889F9898081B3
:1003000085FFF5CFCE010E943C01F1CF8B8DFE0120
:10031000E80FF11DE35AFF4FF0820B8FEA89FB894A
:100320008081806207C0EE89FF896083E889F9894E
:1003300080818064808381E090E0DF91CF911F9184
:100340000F91FF90EF900895CF93DF93EC01888D8C
:100350008823C9F0EA89FB89808185FD05C0A889C9
:10036000B9898C9186FD0FC00FB607FCF5CF80814F
:1003700085FFF2CFA889B9898C9185FFEDCFCE0199
:100380000E943C01E7CFDF91CF91089580E090E09B
:10039000892B29F00E94320181110C9400000895EC
:1003A0000E94EE161F93CF93DF93282F30E0F901C0
:1003B000EC53FF4F8491F901E85DFE4FD491F901B0
:1003C000EC5EFE4FC491CC23C9F0162F81110E9420
:1003D0000E03EC2FF0E0EE0FFF1FE654FF4FA59148
:1003E000B4918FB7F894111105C09C91ED2FE09551
:1003F000E92302C0EC91ED2BEC938FBFDF91CF91FD
:100400001F9108956115710579F0FB01019000209D
:10041000E9F73197AF01461B570BDC01ED91FC91D9
:100420000280F381E02D099480E090E008951F920E
:100430000F920FB60F9211242F933F934F935F9318
:100440006F937F938F939F93AF93BF93EF93FF939C
:1004500088EB92E00E943C01FF91EF91BF91AF9138
:100460009F918F917F916F915F914F913F912F91CC
:100470000F900FBE0F901F9018951F920F920FB6FE
:100480000F9211242F938F939F93EF93FF93E091FB
:10049000C802F091C9028081E091CE02F091CF02B2
:1004A00082FD12C090818091D1028F5F8F73209165
:1004B000D202821751F0E091D102F0E0E854FD4FF2
:1004C000958F8093D10201C08081FF91EF919F9120
:1004D0008F912F910F900FBE0F901F9018953FB7DF
:1004E000F89480917F0290918002A0918102B09156
:1004F000820226B5A89B05C02F3F19F00196A11DC9
:10050000B11D3FBFBA2FA92F982F8827820F911DA9
:10051000A11DB11DBC01CD0142E0660F771F881FF0
:10052000991F4A95D1F708955091AE014091AD01C0
:10053000852F90E0242F30E0541710F4805B9F4FFC
:10054000821B930B08958091AE01E091AD018E174F
:1005500051F0EF5FE03508F0E0E0F0E0E65DFD4FE0
:10056000808190E008958FEF9FEF08958091AE0114
:100570009091AD01891769F09F5F903508F090E088
:10058000E92FF0E0E65DFD4F80819093AD0190E0B2
:1005900008958FEF9FEF08958091AC018111FCCFFA
:1005A00008958091AB018F5F843408F080E09091D2
:1005B000AA019817E1F32FB7F8949091AC01992311
:1005C00041F0E82FF0E0E052FE4F60838093AB01F2
:1005D0001DC081E08093AC0160932502109224023B
:1005E00082E086BB80916F00826080936F00809173
:1005F00080008F7380688093800080918400909148
:100600008500409690938900809388002FBF81E0F9
:1006100090E00895089580E090E00895833081F09F
:1006200028F4813099F08230A1F008958730A9F044
:100630008830B9F08430D1F4809180008F7D03C080
:10064000809180008F7780938000089584B58F77A4
:1006500002C084B58F7D84BD08958091B0008F77EE
:1006600003C08091B0008F7D8093B00008950F93F8
:100670001F93CF93DF93082F70E0FB01EC53FF4FE4
:100680008491FB01E85DFE4FD491FB01EC5EFE4FCF
:10069000C49110E0CC23E1F081110E940E03EC2FF5
:1006A000F0E0EE0FFF1FEA50FF4FA591B491EC91DF
:1006B000ED2371F00E946F02000F111F000F111F38
:1006C000F801E053FE4F608371838283938314C0EB
:1006D0000E946F02F801EE0FFF1FEE0FFF1FE053A5
:1006E000FE4F20813181621B730B000F111FF80137
:1006F000EC54FE4F71836083DF91CF911F910F9176
:10070000089560E181E00C9437036FE080E00C9481
:100710003703CF93DF9390E0FC01E85DFE4F249117
:10072000FC01EC5EFE4F8491882361F190E0880F1C
:10073000991FFC01E451FF4FC591D491FC01E6548F
:10074000FF4FA591B491611109C09FB7F8948881BA
:10075000209582238883EC912E230BC0623061F4B4
:100760009FB7F8943881822F809583238883EC91FA
:100770002E2B2C939FBF06C08FB7F894E8812E2BA9
:1007800028838FBFDF91CF9108952FB7F8946091A0
:100790007B0270917C0280917D0290917E022FBF3E
:1007A00008951F920F920FB60F9211242F933F932B
:1007B0008F939F93AF93BF9380917B0290917C0224
:1007C000A0917D02B0917E0230917A0223E0230F46
:1007D0002D3720F40196A11DB11D05C026E8230F79
:1007E0000296A11DB11D20937A0280937B02909303
:1007F0007C02A0937D02B0937E0280917F02909153
:100800008002A0918102B09182020196A11DB11DCA
:1008100080937F0290938002A0938102B093820222
:10082000BF91AF919F918F913F912F910F900FBEEC
:100830000F901F901895CF93DF93EC018A859B85CD
:10084000AC85BD858E839F83A887B9870E94C50329
:100850006A837B838C839D8381E089838883DF9196
:10086000CF9108952F923F924F925F926F927F9215
:100870008F929F92AF92BF92CF92DF92EF92FF92B0
:100880000F931F93CF93DF93D82FC92F8B010E9413
:10089000DE1324E630E040E050E00E944E154901AE
:1008A0005A019B01AC0160E876E988E990E00E947A
:1008B0003E156B017C01F80191828082ED2FFC2FA7
:1008C0002191822F022E000C990BC0970A97C0F33A
:1008D0002E3239F51F0180E8882E86E9982E88E9A6
:1008E000A82EB12C9AE0492E512C612C712CF101CB
:1008F000C1911F010C2E000CDD0BE097CA30D10511
:1009000080F4C501B401A30192010E944E15490172
:100910005A01DE010E94E616C60ED71EE81EF91E19
:10092000E6CFA5E0B0E0A70196010E9470156F5FC9
:100930007F4F8F4F9F4F23E030E040E050E00E9418
:100940004E15F80122833383448355831682DF9149
:10095000CF911F910F91FF90EF90DF90CF90BF90BC
:10096000AF909F908F907F906F905F904F903F904F
:100970002F900895FF920F931F93CF93DF93EC0175
:10098000FF24F39488818D3211F0F12C01C021965F
:10099000CE010E94DE139B01AC01A4E6B0E00E94F0
:1009A0007015FE014991242F042E000C330B2053A7
:1009B00031092A303105A8F34E3241F52181022E4A
:1009C000000C330B205331092A303105F8F44AE08A
:1009D000429F8001439F100D1124012E000C220B19
:1009E000330B600F711F821F931F0281002E000CBA
:1009F000110B005311090A30110540F4012E000CAF
:100A0000220B330B600F711F821F931FFF2039F0E1
:100A100090958095709561957F4F8F4F9F4FDF9197
:100A2000CF911F910F91FF9008951F920F920FB6D3
:100A30000F9211242F938F939F93EF93FF938091A5
:100A40006F008B7F80936F00809181008F7B8093FC
:100A500081008091AF0120912902205890912802B5
:100A6000893020F49695922B8F5FFACF90932802CD
:100A70008091AE018F5F803508F080E02091AD015C
:100A8000821739F0E82FF0E0E65DFD4F9083809308
:100A9000AE011092AF01809181008F7B8093810025
:100AA00010922902FF91EF919F918F912F910F90BA
:100AB0000FBE0F901F9018951F920F920FB60F92B6
:100AC00011242F933F934F935F936F937F938F9353
:100AD0009F93AF93BF93EF93FF9380918600909184
:100AE00087004091290220918100442331F02F7B1F
:100AF000209381001092290206C020642093810077
:100B000020E8209329023091AF01311125C0411115
:100B10006CC02091B0013091B101280F391F309382
:100B20008B0020938A0024E026BB20916F00246074
:100B300020936F002091B2013091B301820F931F77
:100B400036952795820F931F909327028093260254
:100B500081E08093AF0149C0409126025091270265
:100B60006091B2017091B301DB01A095B095E09165
:100B7000290220912802841B950BA817B90768F158
:100B800026952E2B460F571F3F5F861B970B39303C
:100B9000A0F32093280280916F008B7F80936F00D9
:100BA0008091AE018F5F803508F080E09091AD01BB
:100BB000891749F0E82FF0E090912802E65DFD4F9B
:100BC00090838093AE01809181008F7B8093810020
:100BD000109229021092AF0108C02093280250936E
:100BE0002702409326023093AF01FF91EF91BF910E
:100BF000AF919F918F917F916F915F914F913F91B5
:100C00002F910F900FBE0F901F9018951F920F926B
:100C10000FB60F9211242F933F934F935F936F93CF
:100C20007F938F939F93EF93FF938091AC0160919B
:100C3000250220918800309189004091B2015091A5
:100C4000B301909124028A30F8F4240F351F8930C3
:100C500019F0762F717001C071E066958F5F79177A
:100C600091F390918000772311F0906C02C09F73F4
:100C7000906890938000309389002093880070934F
:100C80002402609325024AC09091AB01E091AA0131
:100C90009E1319C08A3051F48BE08093AC01240F6D
:100CA000351F30938900209388003AC01092AC0120
:100CB000809180008F738093800080916F008D7F82
:100CC00080936F002DC0EF5FE43408F0E0E0E09324
:100CD000AA01F0E0E052FE4F90819093250210921D
:100CE0002402909180009F739068909380008A30D6
:100CF00059F48091B2019091B301280F391F3093BC
:100D000089002093880009C080918400909185001B
:100D10004096909389008093880081E08093AC0195
:100D2000FF91EF919F918F917F916F915F914F9183
:100D30003F912F910F900FBE0F901F9018953F92EB
:100D40004F925F926F927F928F929F92AF92BF92DB
:100D5000CF92DF92EF92FF920F931F93CF93DF9387
:100D60006B017C01E901411112C0C230D1052CF0A8
:100D70008AE20E947E0C2197F8CF80E20E947E0CCE
:100D800063E571E088EB92E00E940202F2C09B01F1
:100D9000AC010E94DB16882319F061E871E01AC0EB
:100DA00046015701E894B7F82FEF3FEF4FE75FE7B1
:100DB000C501B4010E94DB16811111C02FEF3FEF76
:100DC0004FE75FE7C501B4010E941A1418163CF4FE
:100DD00065E871E088EB92E00E94020285C02FEF87
:100DE0003FEF4FE75FE4C701B6010E94D616181621
:100DF0001CF469E871E0EECF2FEF3FEF4FE75FECB7
:100E0000C701B6010E941A1487FDF3CF20E030E03D
:100E1000A901C701B6010E941A1487FF0AC08DE21A
:100E20000E947E0C46015701B7FAB094B7F8B0940F
:100E300002C046015701302E712C60E070E080E066
:100E40009FE3731440F420E030E040E251E40E945C
:100E50002E167394F6CF9B01AC01C501B4010E941C
:100E6000C2154B015C010E94A7162B013C010E9498
:100E70001F149B01AC01C501B4010E94C1154B01B7
:100E80005C012AE0B301A20188EB92E00E948F0D81
:100E9000332019F08EE20E947E0C302E332021F197
:100EA00020E030E040E251E4C501B4010E9480142A
:100EB0004B015C010E94A7162B01612C712C2AE0CA
:100EC000B301A20188EB92E00E948F0DC301B20131
:100ED0000E941F149B01AC01C501B4010E94C11501
:100EE0004B015C013A94DACF63E571E088EB92E064
:100EF0000E940202C701B6010E94A0165B0177FFA3
:100F000004C0AA24BB24A61AB70A20E030E0A90135
:100F1000C701B6010E941A14082E000C990B8827ED
:100F2000990F881F99270196080F191F88EEA81698
:100F300083E0B8065CF484E6A816B10454F48AE0B1
:100F4000A816B1044CF481E090E008C084E090E081
:100F500005C083E090E002C082E090E0080F191F16
:100F60000C171D0734F480E20E947E0C0F5F1F4FA8
:100F7000F7CFC701B601DF91CF911F910F91FF907D
:100F8000EF90DF90CF90BF90AF909F908F907F9029
:100F90006F905F904F903F9008958F929F92AF9285
:100FA000BF92CF92DF92EF92FF926B017C010E9481
:100FB000C5034B015C018DE993E00E949402892BEB
:100FC00039F08DE993E00E94B6020E948309F3CFC5
:100FD0000E94C503DC01CB0188199909AA09BB0944
:100FE0008C159D05AE05BF0530F3FF90EF90DF90A7
:100FF000CF90BF90AF909F908F9008951F920F92C7
:101000000FB60F9211242F933F934F935F936F93DB
:101010007F938F939F93AF93BF93CF93EF93FF9360
:1010200029B1C09187029091B5028091B202322F0E
:10103000309583239223892B90916D00C227C92379
:10104000C82320938702CC23C1F1C0FF05C0E091E3
:101050008802F09189020995C1FF05C0E0918A02DA
:10106000F0918B020995C2FF05C0E0918C02F091CE
:101070008D020995C3FF05C0E0918E02F0918F02A9
:101080000995C4FF05C0E0919002F0919102099585
:10109000C5FF05C0E0919202F09193020995C6FF49
:1010A00005C0E0919402F09195020995C7FF05C033
:1010B000E0919602F09197020995FF91EF91CF91FF
:1010C000BF91AF919F918F917F916F915F914F9160
:1010D0003F912F910F900FBE0F901F9018951F9268
:1010E0000F920FB60F9211242F933F934F935F935C
:1010F0006F937F938F939F93AF93BF93CF93EF9310
:10110000FF9326B1C09198029091B6028091B302EC
:10111000322F309583239223892B90916C00C22724
:10112000C923C82320939802CC2351F1C0FF05C0E6
:10113000E0919902F0919A020995C1FF05C0E091F2
:101140009B02F0919C020995C2FF05C0E0919D02AF
:10115000F0919E020995C3FF05C0E0919F02F091B6
:10116000A0020995C4FF05C0E091A102F091A2027E
:101170000995C5FF05C0E091A302F091A40209956D
:10118000FF91EF91CF91BF91AF919F918F917F91FF
:101190006F915F914F913F912F910F900FBE0F90E4
:1011A0001F9018951F920F920FB60F9211242F9334
:1011B0003F934F935F936F937F938F939F93AF93DF
:1011C000BF93CF93EF93FF9323B1C091A50290916A
:1011D000B7028091B402322F309583239223892B5A
:1011E00090916B00C227C923C8232093A502CC236A
:1011F00051F1C0FF05C0E091A602F091A702099548
:10120000C1FF05C0E091A802F091A9020995C2FFB3
:1012100005C0E091AA02F091AB020995C3FF05C099
:10122000E091AC02F091AD020995C4FF05C0E091D8
:10123000AE02F091AF020995C5FF05C0E091B00282
:10124000F091B1020995FF91EF91CF91BF91AF91CC
:101250009F918F917F916F915F914F913F912F91CE
:101260000F900FBE0F901F9018951F920F920FB600
:101270000F9211242F933F934F935F936F937F931C
:101280008F939F93AF93BF93EF93FF93E09185026A
:10129000F09186020995FF91EF91BF91AF919F91D7
:1012A0008F917F916F915F914F913F912F910F900F
:1012B0000FBE0F901F9018951F920F920FB60F92AE
:1012C00011242F933F934F935F936F937F938F934B
:1012D0009F93AF93BF93EF93FF93E0918302F091BD
:1012E00084020995FF91EF91BF91AF919F918F91EA
:1012F0007F916F915F914F913F912F910F900FBE12
:101300000F901F901895EF92FF920F931F93CF931A
:10131000DF934091460450914704609148047091D6
:1013200049044F5F5F4F6F4F7F4F40934604509388
:1013300047046093480470934904843209F4A4C2BA
:10134000E0914004853234F48A3071F08D3009F038
:10135000A9C20AC08A3241F08C3209F0A3C290912E
:101360002D04982790932D04082FEF3008F074C1B6
:10137000F0E0E15DFB4F108280912E04882309F498
:101380006DC120912F043FEB320F822F022E000CF3
:10139000990B363010F4C79707C02156263018F441
:1013A0008755910901C0C097282F2295207F309141
:1013B00030044FEB430F832F032E000C990B463064
:1013C00010F4C79707C03156363018F48755910985
:1013D00001C0C097820F90912D0489132AC180917A
:1013E000520490915304A0915404B0915504019675
:1013F000A11DB11D8093520490935304A0935404F3
:10140000B093550480914104882399F080914A0457
:1014100090914B04A0914C04B0914D040196A11DF4
:10142000B11D80934A0490934B04A0934C04B09355
:101430004D0410913E04112309F46BC0113009F0E2
:10144000D2C08091D1039091D203A091D303B091E7
:10145000D4038093CD039093CE03A093CF03B09396
:10146000D0030E94C5036093D5037093D603809385
:10147000D7039093D8031093CC031093CB038091A0
:10148000DF039091E003A091E103B091E203809328
:10149000DB039093DC03A093DD03B093DE030E9493
:1014A000C5036093E3037093E4038093E503909393
:1014B000E6031093DA031093D90380914104882343
:1014C00009F491C087E0E9EBF3E0ABEAB3E0019007
:1014D0000D928A95E1F787E0E0ECF3E0A2EBB3E050
:1014E00001900D928A95E1F70E94C5036093C703AE
:1014F0007093C8038093C9039093CA031093AA03FF
:101500001093A90387EE93E00E941B0485EF93E0FC
:1015100068C08091DF039091E003A091E103B09156
:10152000E2038093DB039093DC03A093DD03B0938D
:10153000DE030E94C5036093E3037093E40380938A
:10154000E5039093E60311E01093DA031093D903B7
:1015500080914104882321F187E0E9EBF3E0ABEAD5
:10156000B3E001900D928A95E1F787E0E0ECF3E0BB
:10157000A2EBB3E001900D928A95E1F70E94C503BA
:101580006093C7037093C8038093C9039093CA0301
:101590001093AA031093A90383E094E00E941B0414
:1015A00080911B0490911C04A0911D04B0911E0415
:1015B0008093170490931804A0931904B0931A040D
:1015C0000E94C50360931304709314048093150460
:1015D0009093160481E080931204809311048FE1AC
:1015E00094E00E941B04C0914404D091450411E092
:1015F000209709F43AC1E0914404F091450466A1B2
:1016000077A18EA19FA10E94F316892B09F02DC10D
:10161000BE01CE0140960E94FC160E94C50368A33D
:1016200079A38AA39BA31DA31CA30AA4DBA5C02D99
:10163000DFCF80914E0490914F04A0915004B0915F
:1016400051040196A11DB11D80934E0490934F0447
:10165000A0935004B093510490E008C190913F04CE
:10166000911142C06DE871E08FE294E00E94F316A0
:10167000892B41F063E971E08FE294E00E94F31658
:10168000892B11F481E014C069E971E08FE294E0E4
:101690000E94F316892B41F06FE971E08FE294E02C
:1016A0000E94F316892B19F410923E0403C082E0C5
:1016B00080933E04809142049091430490934504AA
:1016C00080934404C0914404D0914504209721F2B2
:1016D000EEA0FFA06FE274E0C7010E94F31697FF2F
:1016E000F7C08AA59BA5EACFE0913E04E23009F459
:1016F00091C080912F04882309F48CC020E2E29FDE
:10170000F0011124E92B3197E932F10508F082C08C
:10171000EC5CFF4F0C94E0168FE294E00E94BA0458
:101720006093DF037093E0038093E1039093E203FF
:1017300071C091E0813409F043C043C069EB73E0AC
:1017400009C091E0833509F090E09093BF0362C037
:1017500060EC73E08FE294E00E9432045BC091E0A1
:10176000873509F090E09093C60354C08FE294E06F
:101770000E94BA046093F1037093F2038093F30321
:101780009093F40347C08FE294E00E94BA04609300
:10179000FF037093000480930104909302043AC005
:1017A0008FE294E00E94DE136093D1037093D20322
:1017B0008093D3039093D4032DC091E081330CF434
:1017C00090E09093410426C08FE294E00E94DE13E3
:1017D00060931B0470931C0480931D0490931E045B
:1017E00019C08FE294E00E94BA04609329047093B8
:1017F0002A0480932B0490932C040CC08FE294E075
:101800000E94BA0460930D0470930E0480930F0439
:1018100090931004C0914404D0914504209709F49A
:101820001BCFE0914404F091450466A177A18EA1FD
:101830009FA10E94F316892B09F00ECF28A539A588
:1018400080913F0490E0821793070CF405CF28178E
:10185000390739F440E150E06FE274E0CE010E94B4
:1018600003170AA4DBA5C02DD9CF91E080913F04D6
:101870008F5F80933F041092400481E00A3209F0A8
:1018800080E080932E0432C01092400410923F04F6
:1018900010922D0482E080933E0410922E04109248
:1018A000410414C0EE3040F491E09E0F9093400448
:1018B000F0E0E15DFB4F808390912E04911106C012
:1018C00020912D04822780932D0410C090E00EC03B
:1018D0006FE274E0C7010E94F316181619060CF0A7
:1018E000BBCE1092450410924404B6CE892FDF91EE
:1018F000CF911F910F91FF90EF900895E091B80262
:10190000F091B9020190F081E02D682F88EB92E010
:101910000994E8EBF2E0A089B18982E08C93A48578
:10192000B5851C92A685B78580E18C93108EA4891D
:10193000B58986E08C93A289B3898C9180618C9360
:10194000A289B3898C9188608C93A289B3898C9188
:1019500080688C930288F389E02D80818F7D80835D
:101960000895E82FEF7787FD05C08EEF8E0F823048
:1019700008F48BC08E2F90E0FC01E85DFE4F2491AF
:10198000FC01EC5EFE4F3491323059F44091B702C5
:10199000422B4093B7024091B402422B4093B402D1
:1019A00019C0333059F44091B602422B4093B6022D
:1019B0004091B302422B4093B3020CC0343051F437
:1019C0004091B502422B4093B5024091B202422BA6
:1019D0004093B202FC01E050FF4FA4913230C1F4B9
:1019E000B0E0AA0FBB1FAA55BD4F6D937C93EAEFE1
:1019F000F0E0A591B4918C918093A5028BE690E0E4
:101A0000909357048093560480916800816033C09E
:101A10003330C1F4B0E0AA0FBB1FA756BD4F6D9382
:101A20007C93ECEFF0E0A591B4918C9180939802B7
:101A30008CE690E090935704809356048091680060
:101A4000826019C03430C9F4B0E0AA0FBB1FA85798
:101A5000BD4F6D937C93EEEFF0E0A591B4918C9126
:101A6000809387028DE690E090935704809356040C
:101A700080916800846080936800A0915604B091C2
:101A80005704EC912E2B2C9308959FB7F894E230D5
:101A900099F47093840260938302E89880916900BE
:101AA0008C7F8093690080916900816080936900D8
:101AB000E09AE89A9FBF089570938602609385022A
:101AC000E99880916900837F809369008091690023
:101AD000846080936900E19AE99AECCF0F931F9399
:101AE000CF93DF938C01C0E0D0E0F801EC0FFD1F35
:101AF0006491662371F0E091B802F091B90201900F
:101B0000F081E02D88EB92E00995892B11F0219668
:101B1000ECCFCE01DF91CF911F910F9108954F929D
:101B20005F926F927F92EF92FF920F931F93CF93EA
:101B3000DF93CDB7DEB7A1970FB6F894DEBF0FBE27
:101B4000CDBF7C01FA01CB0119A2223008F42AE0B2
:101B50008E010F5D1F4F422E512C612C712CBF0145
:101B6000A30192010E944E15F901CA010150110909
:101B70006A3014F4605D01C0695CD8016C93232B5A
:101B8000242B252B61F7B801C7010E940202A19600
:101B90000FB6F894DEBF0FBECDBFDF91CF911F917E
:101BA0000F91FF90EF907F906F905F904F9008950E
:101BB0000F931F93CF93DF93EC010E9402028C01DD
:101BC00063E571E0CE010E940202800F911FDF9158
:101BD000CF911F910F9108950F931F93CF93DF9390
:101BE000CDB7DEB7A0970FB6F894DEBF0FBECDBF5E
:101BF00022E1E0E0F1E08E010F5F1F4FD80101907C
:101C00000D922A95E1F7FE0173962EE0DF011D92F9
:101C10002A95E9F7442389F09F938F937F936F93DD
:101C200085EA91E09F938F931F930F930E94121761
:101C30000FB6F894DEBF0FBECDBF1B82F801019036
:101C40000020E9F7319720E2CF01801B910B02972A
:101C500014F42193F9CF80E28A83B80188EB92E0F3
:101C60000E94D80D60E070E0CB010E94CD07A096E5
:101C70000FB6F894DEBF0FBECDBFDF91CF911F919D
:101C80000F9108950C940202CF92DF92EF92FF928F
:101C90000F931F93E82FF92F05C001501109210957
:101CA000310961F1908196239417B9F305C0015071
:101CB00011092109310911F1908196239413F7CF6D
:101CC000C12CD12CE12CF12C0AC08FEFC81AD80AF4
:101CD000E80AF80A0C151D052E053F0579F08081EC
:101CE0008623841791F36C2D7D2D8E2D9F2D1F91B2
:101CF0000F91FF90EF90DF90CF90089560E070E03B
:101D000080E090E01F910F91FF90EF90DF90CF90D7
:101D10000895CF93DF9300D000D0CDB7DEB778948D
:101D200084B5826084BD84B5816084BD85B58260E0
:101D300085BD85B5816085BD80916E008160809391
:101D40006E001092810080918100826080938100FA
:101D5000809181008160809381008091800081600A
:101D6000809380008091B10084608093B100809165
:101D7000B00081608093B00080917A00846080938D
:101D80007A0080917A00826080937A0080917A0054
:101D9000816080937A0080917A00806880937A00D5
:101DA0001092C1001092990310929A0310929B0313
:101DB00010929C03109257031092580310925903EB
:101DC00010925A030E94C5036B017C014B015C0118
:101DD00028EB820E2BE0921EA11CB11C0E94C503B1
:101DE0006C157D058E059F0528F086169706A806BA
:101DF000B906A0F788EB92E090939803809397033D
:101E00000E94890C0E94C503609357037093580386
:101E10008093590390935A0364E471E0809197038F
:101E2000909198030E94420E0E94C5036B017C01B1
:101E30004B015C013AE0830E911CA11CB11C0E9475
:101E4000C5036C157D058E059F0528F0861697063F
:101E5000A806B906A0F781E080936B0366E571E000
:101E600088EB92E00E94D80D61E082E20E94890333
:101E700060E083E20E94890360E08FE00E948903B2
:101E800060E080E10E94890360E081E10E948903B3
:101E900061E085E00E94890365E873E08FE00E94BD
:101EA000B10C61E873E080E10E94B10C62E08AE26B
:101EB0000E94890362E08BE20E94890361E08AE26A
:101EC0000E94890361E08BE20E9489030E94890CD1
:101ED00010926F001092800081E88093810083E867
:101EE00096E09093B3018093B2018BE39CE39093CF
:101EF000B1018093B00162E088E00E94890361E053
:101F000089E00E94D20161E089E00E948903109279
:101F1000AF011092AE011092AD011092AC0110927F
:101F2000AB011092AA0180E286BB80936F0044EF60
:101F3000442E55245394612C712C54E1A52EB12CC0
:101F400063E0262E312C73E2872E912C0E94C5036C
:101F5000672B682B692B41F40E94C5036230710521
:101F60008105910508F414C10E94C5036093CC015A
:101F70007093CD018093CE019093CF010091C80161
:101F80001091C9012091CA013091CB0160177107EE
:101F90008207930740F46093C8017093C90180934E
:101FA000CA019093CB010091C8011091C901209101
:101FB000CA013091CB016B017C01C01AD10AE20A3F
:101FC000F30A970186010A3F11052105310508F43E
:101FD000DFC06093C8017093C9018093CA019093D8
:101FE000CB01409263035092640360926503709248
:101FF00066031092670310926803109269031092AF
:102000006A0380915B0390915C03A0915D03B091A2
:102010005E0380935F0390936003A0936103B0938A
:1020200062030E94C50360935B0370935C0380931B
:102030005D0390935E030E94C50360935703709302
:1020400058038093590390935A030E94C5036B0170
:102050007C016FE571E080919703909198030E9455
:10206000420E2AE041E050E060E070E0809197038A
:10207000909198030E948F0D66E671E0809197031E
:10208000909198030E94420E2AE0B701A601809128
:102090009703909198030E948F0D68E671E08091FC
:1020A0009703909198030E94420E80915B03909158
:1020B0005C03A0915D03B0915E03B701A601481BCC
:1020C000590B6A0B7B0B2AE0809197039091980340
:1020D0000E948F0D68E671E08091970390919803BC
:1020E0000E94420E40915B0350915C0360915D033E
:1020F00070915E0380915F0390916003A0916103F2
:10210000B0916203481B590B6A0B7B0B2AE080914C
:102110009703909198030E948F0D6AE671E0809179
:102120009703909198030E94420E0E94C503AB0151
:10213000BC012AE080919703909198030E948F0D33
:102140006CE671E080919703909198030E94D80DFE
:102150000E94C5036B017C019B01AC012E5F3F4FC8
:102160004F4F5F4F29833A834B835C830E94C503A3
:102170006C157D058E059F0508F00DC20E94C503F4
:1021800060935B0370935C0380935D0390935E03A5
:1021900061E085E00E948903E9ECF0E084918330FE
:1021A00011F158F48130C9F08230D9F584B58062DC
:1021B00084BD34E1C32EC8BC38C08730F1F088300C
:1021C00031F1843071F580918000806280938000CD
:1021D000B0928B00A0928A0028C084B5806884BD2C
:1021E000F4E1F7BD22C08091800080688093800078
:1021F000B0928900A092880018C08091B0008068D9
:102200008093B00024E1D22ED092B3000EC0809112
:10221000B00080628093B00094E1E92EE092B400B7
:1022200004C060E085E00E94D2018DE993E00E9445
:102230009402181619063CF48DE993E00E94B60248
:102240000E948309F2CF88EE90E00E946E0D4091CB
:102250001104109212046091170470911804809177
:10226000190490911A040E94EC0D84EE90E00E94F3
:102270006E0DF090A903F9821092AA036091AB034E
:102280007091AC0380E090E00E941F146B017C0110
:102290006091AD037091AE038091AF039091B00354
:1022A0000E941F1428E23BE64EE65EE40E942E16D2
:1022B0009B01AC01C701B6010E94C2152091B10378
:1022C0002111905806E010E02BE030E049810E9497
:1022D0009F0680EE90E00E946E0DC090A903C98217
:1022E0001092AA036091B2037091B30380E090E072
:1022F0000E941F146B017C016091B4037091B503BF
:102300008091B6039091B7030E941F1428E23BE628
:102310004EE65EE40E942E169B01AC01C701B60199
:102320000E94C2152091B8032111905806E010E0D8
:102330002CE030E049810E949F068CED90E00E94E5
:102340006E0DF090E7031092E8036091ED03709139
:10235000EE038091EF039091F0030E9421142EEB85
:102360003CE443E95FE30E94801420E030E048EC65
:1023700052E40E942E1602E010E026E030E04F2DDD
:102380000E949F0688ED90E00E946E0D60E082E260
:102390000E94D201C1010197F1F761E082E20E943F
:1023A000D201C4010197F1F760E082E20E94D201FC
:1023B000EBE4F1E06491E7E3F1E08491E82FF0E0F1
:1023C000EE0FFF1FEA50FF4F8591949100E412E455
:1023D0002FE030E0462F0E94440E61157105810503
:1023E000910549F0DC01CB010196A11DB11DBC0195
:1023F000CD019F7003C060E070E0CB010E941F140C
:1024000026E933E44BE05DE30E94801420E030E0F5
:1024100040E05FE30E9480146B017C0120E030E02B
:1024200046E154E40E941A1487FD0BC020E030E01E
:1024300040E951E4C701B6010E94D61618160CF007
:1024400061C020E030E040E752E4C701B6010E94DD
:102450001A1418160CF450C00E94C5030091BC0158
:102460001091BD012091BE013091BF01DC01CB0173
:10247000801B910BA20BB30B80339547A105B105CF
:10248000C8F061E08AE20E94D20164E670E080E078
:1024900090E00E94CD0760E08AE20E94D2010E9493
:1024A000C5036093BC017093BD018093BE019093FE
:1024B000BF0128C020E030E040E752E4C701B60188
:1024C0000E941A1487FF13C020E030E0A901C70161
:1024D000B6010E94D616181654F461E08AE20E94F2
:1024E000D20164EF71E080E090E00E94CD0760E0EF
:1024F0008AE20E94D20106C063E771E088EB92E0B5
:102500000E94D80DC701B6010E94A71641E00E94A3
:10251000EC0DF894E4EBF1E0A0ECB1E088E0019080
:102520000D928A95E1F7789467E771E088EB92E085
:102530000E94420E4091C0015091C10160E070E0E4
:102540002AE088EB92E00E948F0D6BE771E088EB48
:1025500092E00E94D80D6DE771E088EB92E00E9456
:10256000420E4091C2015091C30160E070E02AE048
:1025700088EB92E00E948F0D6BE771E088EB92E0B0
:102580000E94D80D68E572E080E090E00E94CD07DF
:102590000E94C601DBCC29813A814B815C812617E0
:1025A00037074807590708F0E1CDE8CD86E391E009
:1025B00090939E0380939D0380916F008B7F809307
:1025C0006F0080916F008F7D80936F008091AD01CF
:1025D0008093AE018091AC018111FCCF80916F009E
:1025E0008D7F80936F000895E8EBF2E013821282F2
:1025F00088EE93E0A0E0B0E084839583A683B78360
:1026000024E231E03183208325EC30E035872487D4
:1026100024EC30E03787268720EC30E0318B208BAC
:1026200021EC30E0338B228B22EC30E0358B248B95
:1026300026EC30E0378B268B118E128E138E148E83
:10264000E5E5F3E01682178210861186128613865E
:102650001486158616861786108A118A128A138A9E
:10266000148A158AE9EAF3E0108211821382128239
:10267000148215821682178210861286118613869E
:102680001486158616861786118A108A128A138A6E
:10269000148A158A168A108E178A118E128E138E3E
:1026A000148E158E12A213A214A215A216A217A29E
:1026B00010AA11AA12AA13AA14AA15AA1092E70323
:1026C0001092E8031092ED031092EE031092EF03C4
:1026D0001092F0031092F5031092F6031092FB0390
:1026E0001092FC031092FD031092FE03109203045B
:1026F000109204041092090410920A0410920B0420
:1027000010920C04109211041092120410921704EB
:10271000109218041092190410921A0410921F04B7
:10272000109220041092250410922604109227047F
:102730001092280410922D0410922E0422E020936F
:102740003E0410923F0410924004109241041092F3
:1027500043041092420410924504109244041092D3
:1027600046041092470410924804109249041092B3
:102770004A0410924B0410924C0410924D04109293
:102780004E0410924F041092500410925104109273
:102790005204109253041092540410925504109253
:1027A0002F04EDE9F3E01382128284839583A683DC
:1027B000B78386E391E09183808308951F93FC01A2
:1027C00099278827BC01E89411911032E9F3193058
:1027D00010F01E30C8F31B3251F01D3249F46894DA
:1027E00006C00E940514610F711D811D911D11917C
:1027F00010531A30B0F33EF4909580957095619522
:102800007F4F8F4F9F4F1F910895592F482F372F7C
:10281000262F660F771F881F991F660F771F881F47
:10282000991F620F731F841F951F660F771F881FE4
:10283000991F08950E945C1408F481E00895E894BB
:1028400009C097FB3EF490958095709561957F4FF8
:102850008F4F9F4F9923A9F0F92F96E9BB279395A6
:10286000F695879577956795B795F111F8CFFAF4B6
:10287000BB0F11F460FF1BC06F5F7F4F8F4F9F4FE7
:1028800016C0882311F096E911C0772321F09EE845
:10289000872F762F05C0662371F096E8862F70E0AB
:1028A00060E02AF09A95660F771F881FDAF7880F85
:1028B0009695879597F90895990F0008550FAA0BDB
:1028C000E0E8FEEF16161706E807F907C0F0121643
:1028D0001306E407F50798F0621B730B840B950B46
:1028E00039F40A2661F0232B242B252B21F408959B
:1028F0000A2609F4A140A6958FEF811D811D089538
:102900000E9493140C9404150E94F61438F00E944F
:10291000FD1420F0952311F00C94ED140C94F31495
:1029200011240C9438150E94151570F3959FC1F36E
:10293000950F50E0551F629FF001729FBB27F00D6D
:10294000B11D639FAA27F00DB11DAA1F649F6627C2
:10295000B00DA11D661F829F2227B00DA11D621F11
:10296000739FB00DA11D621F839FA00D611D221FCB
:10297000749F3327A00D611D231F849F600D211DAF
:10298000822F762F6A2F11249F5750409AF0F1F032
:1029900088234AF0EE0FFF1FBB1F661F771F881F9B
:1029A00091505040A9F79E3F510580F00C94ED14D2
:1029B0000C9438155F3FE4F3983ED4F386957795F1
:1029C0006795B795F795E7959F5FC1F7FE2B880F41
:1029D000911D9695879597F9089597F99F6780E8D7
:1029E00070E060E008959FEF80EC089500240A9461
:1029F0001616170618060906089500240A941216DA
:102A00001306140605060895092E0394000C11F40C
:102A1000882352F0BB0F40F4BF2B11F460FF04C0B9
:102A20006F5F7F4F8F4F9F4F089557FD9058440F12
:102A3000551F59F05F3F71F04795880F97FB991F1D
:102A400061F09F3F79F087950895121613061406DA
:102A5000551FF2CF4695F1DF08C016161706180667
:102A6000991FF1CF86957105610508940895E89442
:102A7000BB2766277727CB0197F90895DB018F9352
:102A80009F930E947015BF91AF91A29F800D911DE1
:102A9000A39F900DB29F900D11240895A1E21A2ECC
:102AA000AA1BBB1BFD010DC0AA1FBB1FEE1FFF1FF2
:102AB000A217B307E407F50720F0A21BB30BE40B42
:102AC000F50B661F771F881F991F1A9469F7609589
:102AD0007095809590959B01AC01BD01CF01089543
:102AE0000E94B215A59F900DB49F900DA49F800DDC
:102AF000911D112408952F923F924F925F926F92F1
:102B00007F928F929F92AF92BF92CF92DF92EF927D
:102B1000FF920F931F93CF93DF93CDB7DEB7CA1BFE
:102B2000DB0B0FB6F894DEBF0FBECDBF09942A8829
:102B3000398848885F846E847D848C849B84AA84D1
:102B4000B984C884DF80EE80FD800C811B81AA815E
:102B5000B981CE0FD11D0FB6F894DEBF0FBECDBF29
:102B6000ED010895A29FB001B39FC001A39F700D16
:102B7000811D1124911DB29F700D811D1124911D85
:102B800008955058BB27AA270E94D9150C94041504
:102B90000E94F61438F00E94FD1420F039F49F3F93
:102BA00019F426F40C94F3140EF4E095E7FB0C945E
:102BB000ED14E92F0E94151558F3BA176207730731
:102BC0008407950720F079F4A6F50C9437150EF4D8
:102BD000E0950B2EBA2FA02D0B01B90190010C012D
:102BE000CA01A0011124FF27591B99F0593F50F445
:102BF000503E68F11A16F040A22F232F342F44279D
:102C0000585FF3CF469537952795A795F040539594
:102C1000C9F77EF41F16BA0B620B730B840BBAF064
:102C20009150A1F0FF0FBB1F661F771F881FC2F7CF
:102C30000EC0BA0F621F731F841F48F487957795E3
:102C40006795B795F7959E3F08F0B0CF9395880F9D
:102C500008F09927EE0F9795879508950E944216E0
:102C60000C9404150E94FD1458F00E94F61440F0D4
:102C700029F45F3F29F00C94ED1451110C94381590
:102C80000C94F3140E94151568F39923B1F355239E
:102C900091F3951B550BBB27AA276217730784076F
:102CA00038F09F5F5F4F220F331F441FAA1FA9F305
:102CB00035D00E2E3AF0E0E832D091505040E695F3
:102CC000001CCAF72BD0FE2F29D0660F771F881F54
:102CD000BB1F261737074807AB07B0E809F0BB0B47
:102CE000802DBF01FF2793585F4F3AF09E3F51055B
:102CF00078F00C94ED140C9438155F3FE4F3983E93
:102D0000D4F3869577956795B795F7959F5FC9F743
:102D1000880F911D9695879597F90895E1E0660FC4
:102D2000771F881FBB1F621773078407BA0720F03D
:102D3000621B730B840BBA0BEE1F88F7E0950895A6
:102D40000E94A7166894B1110C94381508950E943A
:102D50001D1588F09F5798F0B92F9927B751B0F0FB
:102D6000E1F0660F771F881F991F1AF0BA95C9F70F
:102D700014C0B13091F00E943715B1E008950C9461
:102D80003715672F782F8827B85F39F0B93FCCF314
:102D9000869577956795B395D9F73EF4909580958C
:102DA000709561957F4F8F4F9F4F08950E945C14DF
:102DB00008F48FEF08950E945C14880B990B089516
:102DC000EE0FFF1F0590F491E02D0994B7FF0C94CE
:102DD00070150E947015821B930B089581E090E09E
:102DE000F8940C94B319FB01DC018D9101908019CA
:102DF0000110D9F3990B0895FB01DC0101900D92AC
:102E00000020E1F70895FB01DC014150504048F0FB
:102E100001900D920020C9F701C01D924150504011
:102E2000E0F70895AEE0B0E0E8E1F7E10C94891531
:102E30000D891E8986E08C831A8309838FEF9FE7B3
:102E40009E838D83AE01475E5F4F6F89788DCE0183
:102E500001960E9435172F813885F801E20FF31F84
:102E600010822E96E4E00C94A515ACE0B0E0EBE304
:102E7000F7E10C947B157C016B018A01FC01178240
:102E80001682838181FFBDC1CE0101964C01F701FD
:102E90009381F60193FD859193FF81916F018823C2
:102EA00009F4ABC1853239F493FD859193FF81918B
:102EB0006F01853229F4B70190E00E941D19E7CF18
:102EC000512C312C20E02032A0F48B3269F030F408
:102ED000803259F0833269F420612CC08D3239F090
:102EE000803339F4216026C02260246023C028602A
:102EF00021C027FD27C030ED380F3A3078F426FF87
:102F000006C0FAE05F9E300D1124532E13C08AE0F4
:102F1000389E300D1124332E20620CC08E3221F4E5
:102F200026FD6BC1206406C08C3611F4206802C0F7
:102F3000883641F4F60193FD859193FF81916F01ED
:102F40008111C1CF982F9F7D9554933028F40C5F49
:102F50001F4FFFE3F9830DC0833631F0833771F0E3
:102F6000833509F05BC022C0F801808189830E5F40
:102F70001F4F44244394512C540115C03801F2E0F2
:102F80006F0E711CF801A080B18026FF03C0652D73
:102F900070E002C06FEF7FEFC5012C870E9412190D
:102FA0002C0183012C852F77222E17C03801F2E0E7
:102FB0006F0E711CF801A080B18026FF03C0652D43
:102FC00070E002C06FEF7FEFC5012C870E940719E8
:102FD0002C012C852068222E830123FC1BC0832D0D
:102FE00090E048165906B0F4B70180E290E00E94E4
:102FF0001D193A94F4CFF50127FC859127FE8191A4
:103000005F01B70190E00E941D1931103A94F1E080
:103010004F1A51084114510471F7E5C0843611F07C
:10302000893639F5F80127FF07C0608171818281F7
:1030300093810C5F1F4F08C060817181072E000CC7
:10304000880B990B0E5F1F4F2F76722E97FF09C0CA
:1030500090958095709561957F4F8F4F9F4F206819
:10306000722E2AE030E0A4010E945519A82EA8185B
:1030700044C0853729F42F7EB22E2AE030E025C0E7
:10308000F22FF97FBF2E8F36C1F018F4883579F012
:10309000B4C0803719F0883721F0AFC02F2F2061DE
:1030A000B22EB4FE0DC08B2D8460B82E09C024FF53
:1030B0000AC09F2F9660B92E06C028E030E005C0F8
:1030C00020E130E002C020E132E0F801B7FE07C0A5
:1030D00060817181828193810C5F1F4F06C0608186
:1030E000718180E090E00E5F1F4FA4010E9455198E
:1030F000A82EA818FB2DFF777F2E76FE0BC0372D4C
:103100003E7FA51450F474FE0AC072FC08C0372D2F
:103110003E7E05C0BA2C372D03C0BA2C01C0B52C99
:1031200034FF0DC0FE01EA0DF11D8081803311F4E2
:10313000397E09C032FF06C0B394B39404C0832F14
:10314000867809F0B39433FD13C030FF06C05A2CC3
:10315000B31418F4530C5B18B32CB31468F4B70110
:1031600080E290E03C870E941D19B3943C85F5CF26
:10317000B31410F43B1801C0312C34FF12C0B70156
:1031800080E390E03C870E941D193C8532FF17C008
:1031900031FD03C088E790E002C088E590E0B70108
:1031A0000CC0832F867859F031FF02C08BE201C03A
:1031B00080E237FD8DE2B70190E00E941D19A51451
:1031C00038F4B70180E390E00E941D195A94F7CFBC
:1031D000AA94F401EA0DF11D8081B70190E00E94EC
:1031E0001D19A110F5CF332009F451CEB70180E2AB
:1031F00090E00E941D193A94F6CFF70186819781DD
:1032000002C08FEF9FEF2C96E2E10C949715FC0122
:103210000590615070400110D8F7809590958E0F01
:103220009F1F0895FC016150704001900110D8F774
:10323000809590958E0F9F1F08950F931F93CF93A6
:10324000DF93FB01238121FD03C08FEF9FEF28C097
:1032500022FF16C0468157812481358142175307CA
:1032600044F4A081B1819D012F5F3F4F31832083C2
:103270008C93268137812F5F3F4F3783268310C081
:10328000EB01092F182F0084F185E02D0995892B7A
:10329000E1F68E819F8101969F838E83812F902FEF
:1032A000DF91CF911F910F910895FA01AA2728303D
:1032B00051F1203181F1E8946F936E7F6E5F7F4F03
:1032C0008F4F9F4FAF4FB1E03ED0B4E03CD0670F7F
:1032D000781F891F9A1FA11D680F791F8A1F911DD2
:1032E000A11D6A0F711D811D911DA11D20D009F422
:1032F00068943F912AE0269F11243019305D319364
:10330000DEF6CF010895462F4770405D4193B3E04C
:103310000FD0C9F7F6CF462F4F70405D4A3318F0F3
:10332000495D31FD4052419302D0A9F7EACFB4E0A4
:10333000A6959795879577956795BA95C9F700975C
:103340006105710508959B01AC010A2E06945795FD
:10335000479537952795BA95C9F7620F731F841F54
:10336000951FA01D089510E0CFE9D0E004C0FE0134
:103370000E94E0162196C03AD107C9F7F894FFCF12
:103380002A2A2A2A2A2A2A2A2A2A2A2A2A2A2A2A9D
:103390002A00000000000000000000000000000003
:1033A000000000005D01CA00F500A401260104012F
:1033B000180100000000D102CA000B03CC029402E5
:1033C000B602A302564D4450565F317C315F564DD4
:1033D0004450560D0A005374617274696E6700564A
:1033E0004D4450455F003A323A007C005F564D44F0
:1033F0005045002A2A2A0043483100090043483337
:10340000006E616E00696E66006F7666004750520E
:103410004D4300474E524D430047504747410047F8
:0A3420004E47474100256C64000090
:107E0000112484B714BE81FFF0D085E080938100F7
:107E100082E08093C00088E18093C10086E0809377
:107E2000C20080E18093C4008EE0C9D0259A86E02C
:107E300020E33CEF91E0309385002093840096BBD3
:107E4000B09BFECF1D9AA8958150A9F7CC24DD24C4
:107E500088248394B5E0AB2EA1E19A2EF3E0BF2EE7
:107E6000A2D0813461F49FD0082FAFD0023811F036
:107E7000013811F484E001C083E08DD089C08234E0
:107E800011F484E103C0853419F485E0A6D080C0E4
:107E9000853579F488D0E82EFF2485D0082F10E0AE
:107EA000102F00270E291F29000F111F8ED06801E7
:107EB0006FC0863521F484E090D080E0DECF843638
:107EC00009F040C070D06FD0082F6DD080E0C81688
:107ED00080E7D80618F4F601B7BEE895C0E0D1E017
:107EE00062D089930C17E1F7F0E0CF16F0E7DF06D8
:107EF00018F0F601B7BEE89568D007B600FCFDCFD4
:107F0000A601A0E0B1E02C9130E011968C91119780
:107F100090E0982F8827822B932B1296FA010C0160
:107F200087BEE89511244E5F5F4FF1E0A038BF0790
:107F300051F7F601A7BEE89507B600FCFDCF97BE46
:107F4000E89526C08437B1F42ED02DD0F82E2BD052
:107F50003CD0F601EF2C8F010F5F1F4F84911BD097
:107F6000EA94F801C1F70894C11CD11CFA94CF0C13
:107F7000D11C0EC0853739F428D08EE10CD085E9AC
:107F80000AD08FE07ACF813511F488E018D01DD067
:107F900080E101D065CF982F8091C00085FFFCCF94
:107FA0009093C60008958091C00087FFFCCF809118
:107FB000C00084FD01C0A8958091C6000895E0E648
:107FC000F0E098E1908380830895EDDF803219F02E
:107FD00088E0F5DFFFCF84E1DECF1F93182FE3DFCA
:107FE0001150E9F7F2DF1F91089580E0E8DFEE27F6
:047FF000FF270994CA
:027FFE00040479
:0400000300007E007B
:00000001FF