:100000000C9495000C942D090C9408090C94B108DB
:100010000C945A080C94F9070C94BD000C94BD0084
:100020000C94BD000C94BD000C94EC040C9496054B
:100030000C94A5040C94BD000C94BD000C94BD0060
:100040000C94E7020C94BD000C94A9020C9483025A
:100050000C94BD000C94BD000C94BD000C94BD002C
:100060000C94BD000C94BD00860B980B9B0BA20B4F
:10007000A90BD70BDE0BEB0BF80B040C040C040CD8
:10008000040C040C040C040C040C040C040C040CF0
:10009000040C040C040C040C040C040C040C040CE0
:1000A000040C040C040C040C860B930B980B9B0B98
:1000B000A20BA90BB00BBD0BCA0B00000000240063
:1000C00027002A0000000000250028002B0004045F
:1000D00004040404040402020202020203030303F0
:1000E00003030102040810204080010204081020CC
:1000F00001020408102000000008000201000003B3
:100100000407000000000000000078415800794119
:10011000580044737400537064004C6F6E004C615F
:100120007400536174001611F81011241FBECFEF34
:10013000D8E0DEBFCDBF11E0A0E0B1E0E6EAF0E339
:1001400002C005900D92AA38B107D9F724E0AAE8B9
:10015000B1E001C01D92AC31B207E1F710E0C4E993
:10016000D0E004C02197FE010E947B15C339D1075E
:10017000C9F70E942A0D0C9446180C940000FC014B
:10018000538D448D252F30E0842F90E0821B930BFC
:10019000541710F0CF96089501970895FC01918DA2
:1001A000828D981761F0828DDF01A80FB11D5D96D9
:1001B0008C91928D9F5F9F73928F90E008958FEF47
:1001C0009FEF0895FC01918D828D981731F0828DFB
:1001D000E80FF11D858D90E008958FEF9FEF089552
:1001E000FC01918D228D892F90E0805C9F4F821BB6
:1001F00091098F739927089586E592E00E94F00097
:1002000021E0892B09F420E0822F0895FC01848DE0
:10021000DF01A80FB11DA35ABF4F2C91848D90E030
:1002200001968F739927848FA689B7892C93A0890B
:10023000B1898C9180648C93938D848D981306C0C2
:100240000288F389E02D80818F7D80830895EF926D
:10025000FF920F931F93CF93DF93EC0181E0888F80
:100260009B8D8C8D981305C0E889F989808185FD67
:1002700024C0F62E0B8D10E00F5F1F4F0F73112758
:10028000E02E8C8DE8120CC00FB607FCFACFE8897F
:10029000F989808185FFF5CFCE010E940601F1CF5B
:1002A0008B8DFE01E80FF11DE35AFF4FF0820B8F9B
:1002B000EA89FB898081806207C0EE89FF896083BB
:1002C000E889F98980818064808381E090E0DF9112
:1002D000CF911F910F91FF90EF900895CF93DF93EF
:1002E000EC01888D8823C9F0EA89FB89808185FD2E
:1002F00005C0A889B9898C9186FD0FC00FB607FC8F
:10030000F5CF808185FFF2CFA889B9898C9185FFCF
:10031000EDCFCE010E940601E7CFDF91CF91089586
:1003200080E090E0892B29F00E94FC0081110C9460
:100330000000089590E0FC01EA50FF4F3491FC0169
:10034000EE51FF4F2491FC01E253FF4FE491EE2365
:1003500009F43BC0332339F1333091F038F43130B4
:10036000A9F0323001F584B58F7D12C0373091F09D
:100370003830A1F03430B9F4809180008F7D03C013
:10038000809180008F77809380000DC084B58F7737
:1003900084BD09C08091B0008F7703C08091B00008
:1003A0008F7D8093B000F0E0EE0FFF1FEC53FF4F06
:1003B000A591B4918FB7F894EC91611103C0209589
:1003C0002E2301C02E2B2C938FBF0895CF93DF9344
:1003D00090E0FC01EE51FF4F2491FC01E253FF4FEE
:1003E0008491882361F190E0880F991FFC01E65405
:1003F000FF4FC591D491FC01EC53FF4FA591B491EF
:10040000611109C09FB7F894888120958223888361
:10041000EC912E230BC0623061F49FB7F8943881C1
:10042000822F809583238883EC912E2B2C939FBF62
:1004300006C08FB7F894E8812E2B28838FBFDF91F9
:10044000CF9108951F93CF93DF93182FEB0161E0B5
:100450000E94E601209711F460E004C0CF3FD1056F
:1004600039F461E0812FDF91CF911F910C949A01B3
:10047000E12FF0E0EA50FF4FE491E330F9F048F467
:10048000E130B9F0E230A1F584B5806284BDC8BD29
:1004900034C0E730E9F0E83019F1E43049F58091F3
:1004A0008000806280938000D0938B00C0938A008C
:1004B00024C084B5806884BDC7BD1FC08091800002
:1004C000806880938000D0938900C093880015C015
:1004D0008091B00080688093B000C093B3000DC0DD
:1004E0008091B00080628093B000C093B40005C0DA
:1004F000C038D1050CF0B5CFAFCFDF91CF911F91B0
:1005000008950E9481151F920F920FB60F92112429
:100510002F933F934F935F936F937F938F939F930B
:10052000AF93BF93EF93FF9386E592E00E9406019D
:10053000FF91EF91BF91AF919F918F917F916F91BB
:100540005F914F913F912F910F900FBE0F901F9091
:1005500018951F920F920FB60F9211242F938F931D
:100560009F93EF93FF93E0916602F0916702808181
:10057000E0916C02F0916D0282FD12C09081809139
:100580006F028F5F8F7320917002821751F0E0919C
:100590006F02F0E0EA5AFD4F958F80936F0201C021
:1005A0008081FF91EF919F918F912F910F900FBEBE
:1005B0000F901F9018952FB7F89460919901709142
:1005C0009A0180919B0190919C012FBF08951F92E9
:1005D0000F920FB60F9211242F933F938F939F93F7
:1005E000AF93BF938091990190919A01A0919B0143
:1005F000B0919C013091980123E0230F2D3720F416
:100600000196A11DB11D05C026E8230F0296A11D6C
:10061000B11D209398018093990190939A01A09322
:100620009B01B0939C018091940190919501A091C0
:100630009601B09197010196A11DB11D809394017F
:1006400090939501A0939601B0939701BF91AF91BC
:100650009F918F913F912F910F900FBE0F901F9000
:100660001895CF93DF93EC018A859B85AC85BD857A
:100670008E839F83A887B9870E94DB026A837B836E
:100680008C839D8381E089838883DF91CF91089556
:100690002F923F924F925F926F927F928F929F9292
:1006A000AF92BF92CF92DF92EF92FF920F931F9380
:1006B000CF93DF93D82FC92F8B010E94521224E6CB
:1006C00030E040E050E00E94C21349015A019B0112
:1006D000AC0160E876E988E990E00E94B2136B0112
:1006E0007C01F80191828082ED2FFC2F2191822FD5
:1006F000022E000C990BC0970A97C0F32E3239F5E1
:100700001F0180E8882E86E9982E88E9A82EB12C52
:100710009AE0492E512C612C712CF101C1911F01DD
:100720000C2E000CDD0BE097CA30D10580F4C5011A
:10073000B401A30192010E94C21349015A01DE01D2
:100740000E940E14C60ED71EE81EF91EE6CFA5E0C5
:10075000B0E0A70196010E9403146F5F7F4F8F4F97
:100760009F4F23E030E040E050E00E94C213F801C8
:1007700022833383448355831682DF91CF911F9167
:100780000F91FF90EF90DF90CF90BF90AF909F9030
:100790008F907F906F905F904F903F902F90089533
:1007A00050918E0140918D01852F90E0242F30E0F3
:1007B000541710F4805B9F4F821B930B0895809118
:1007C0008E01E0918D018E1751F0EF5FE03508F05A
:1007D000E0E0F0E0EA5FFD4F808190E008958FEF68
:1007E0009FEF089580918E0190918D01891769F096
:1007F0009F5F903508F090E0E92FF0E0EA5FFD4F51
:10080000808190938D0190E008958FEF9FEF089580
:1008100080918C018111FCCF089580918B018F5FB5
:10082000843408F080E090918A019817E1F32FB7A3
:10083000F89490918C01992341F0E82FF0E0E45472
:10084000FE4F608380938B011DC081E080938C01FB
:10085000609301021092000282E086BB80916F00DB
:10086000826080936F00809180008F738068809396
:10087000800080918400909185004096909389003B
:10088000809388002FBF81E090E00895089580E074
:1008900090E00895FF920F931F93CF93DF93EC01A5
:1008A000FF24F39488818D3211F0F12C01C0219640
:1008B000CE010E9452129B01AC01A4E6B0E00E945E
:1008C0000314FE014991242F042E000C330B2053F6
:1008D00031092A303105A8F34E3241F52181022E2B
:1008E000000C330B205331092A303105F8F44AE06B
:1008F000429F8001439F100D1124012E000C220BFA
:10090000330B600F711F821F931F0281002E000C9A
:10091000110B005311090A30110540F4012E000C8F
:10092000220B330B600F711F821F931FFF2039F0C2
:1009300090958095709561957F4F8F4F9F4FDF9178
:10094000CF911F910F91FF9008951F920F920FB6B4
:100950000F9211242F938F939F93EF93FF93809186
:100960006F008B7F80936F00809181008F7B8093DD
:10097000810080918F0120910502205890910402FE
:10098000893020F49695922B8F5FFACF90930402D2
:1009900080918E018F5F803508F080E020918D017D
:1009A000821739F0E82FF0E0EA5FFD4F90838093E3
:1009B0008E0110928F01809181008F7B8093810046
:1009C00010920502FF91EF919F918F912F910F90BF
:1009D0000FBE0F901F9018951F920F920FB60F9297
:1009E00011242F933F934F935F936F937F938F9334
:1009F0009F93AF93BF93EF93FF9380918600909165
:100A000087004091050220918100442331F02F7B23
:100A1000209381001092050206C02064209381007B
:100A200020E82093050230918F01311125C041113A
:100A30006CC02091900130919101280F391F3093A3
:100A40008B0020938A0024E026BB20916F00246055
:100A500020936F002091920130919301820F931F98
:100A600036952795820F931F90930302809302027D
:100A700081E080938F0149C04091020250910302AE
:100A80006091920170919301DB01A095B095E09186
:100A9000050220910402841B950BA817B90768F181
:100AA00026952E2B460F571F3F5F861B970B39301D
:100AB000A0F32093040280916F008B7F80936F00DE
:100AC00080918E018F5F803508F080E090918D01DC
:100AD000891749F0E82FF0E090910402EA5FFD4F9A
:100AE000908380938E01809181008F7B8093810021
:100AF0001092050210928F0108C0209304025093B7
:100B000003024093020230938F01FF91EF91BF9156
:100B1000AF919F918F917F916F915F914F913F9195
:100B20002F910F900FBE0F901F9018951F920F924C
:100B30000FB60F9211242F933F934F935F936F93B0
:100B40007F938F939F93EF93FF9380918C0160919C
:100B500001022091880030918900409192015091CA
:100B60009301909100028A30F8F4240F351F8930E8
:100B700019F0762F717001C071E066958F5F79175B
:100B800091F390918000772311F0906C02C09F73D5
:100B90009068909380003093890020938800709330
:100BA0000002609301024AC090918B01E0918A019A
:100BB0009E1319C08A3051F48BE080938C01240F6E
:100BC000351F30938900209388003AC010928C0121
:100BD000809180008F738093800080916F008D7F63
:100BE00080936F002DC0EF5FE43408F0E0E0E09305
:100BF0008A01F0E0E454FE4F90819093010210923C
:100C00000002909180009F739068909380008A30DA
:100C100059F48091920190919301280F391F3093DC
:100C200089002093880009C08091840090918500FC
:100C30004096909389008093880081E080938C0196
:100C4000FF91EF919F918F917F916F915F914F9164
:100C50003F912F910F900FBE0F901F9018953F92CC
:100C60004F925F926F927F928F929F92AF92BF92BC
:100C7000CF92DF92EF92FF920F931F93CF93DF9368
:100C80006B017C01E901411112C0C230D1052CF089
:100C90008AE20E94990C2197F8CF80E20E94990C79
:100CA00065E571E086E592E00E94CC0CF2C09B0104
:100CB000AC010E947615882319F061E671E01AC034
:100CC00046015701E894B7F82FEF3FEF4FE75FE792
:100CD000C501B4010E947615811111C02FEF3FEFBD
:100CE0004FE75FE7C501B4010E948E1218163CF46D
:100CF00065E671E086E592E00E94CC0C85C02FEF9E
:100D00003FEF4FE75FE4C701B6010E947115181667
:100D10001CF469E671E0EECF2FEF3FEF4FE75FEC99
:100D2000C701B6010E948E1287FDF3CF20E030E0AC
:100D3000A901C701B6010E948E1287FF0AC08DE289
:100D40000E94990C46015701B7FAB094B7F8B094D5
:100D500002C046015701302E712C60E070E080E047
:100D60009FE3731440F420E030E040E251E40E943D
:100D7000C9147394F6CF9B01AC01C501B4010E9464
:100D80005D144B015C010E9442152B013C010E9445
:100D900093129B01AC01C501B4010E945C144B018C
:100DA0005C012AE0B301A20186E592E00E94E10C19
:100DB000332019F08EE20E94990C302E332021F15D
:100DC00020E030E040E251E4C501B4010E94F41299
:100DD0004B015C010E9442152B01612C712C2AE011
:100DE000B301A20186E592E00E94E10CC301B201C9
:100DF0000E9493129B01AC01C501B4010E945C14D6
:100E00004B015C013A94DACF65E571E086E592E04A
:100E10000E94CC0CC701B6010E943B155B0177FF15
:100E200004C0AA24BB24A61AB70A20E030E0A90116
:100E3000C701B6010E948E12082E000C990B88275C
:100E4000990F881F99270196080F191F88EEA81679
:100E500083E0B8065CF484E6A816B10454F48AE092
:100E6000A816B1044CF481E090E008C084E090E062
:100E700005C083E090E002C082E090E0080F191FF7
:100E80000C171D0734F480E20E94990C0F5F1F4F6E
:100E9000F7CFC701B601DF91CF911F910F91FF905E
:100EA000EF90DF90CF90BF90AF909F908F907F900A
:100EB0006F905F904F903F9008958F929F92AF9266
:100EC000BF92CF92DF92EF92FF926B017C010E9462
:100ED000DB024B015C018BE393E00E94D003892B82
:100EE00039F08BE393E00E94F2030E947D09F3CF77
:100EF0000E94DB02DC01CB0188199909AA09BB0910
:100F00008C159D05AE05BF0530F3FF90EF90DF9087
:100F1000CF90BF90AF909F908F900895EF92FF92E7
:100F20000F931F93CF93DF93CDB7DEB7A0970FB684
:100F3000F894DEBF0FBECDBF790122E1E2E0F1E01F
:100F40008E010F5F1F4FD80101900D922A95E1F796
:100F5000FE0173962EE0DF011D922A95E9F74423E6
:100F600089F09F938F937F936F938DE691E09F938A
:100F70008F931F930F930E94A5150FB6F894DEBFB1
:100F80000FBECDBFF801EE0DFF1D1082F8010190DC
:100F90000020E9F7319720E2CF01801B910B8E15DD
:100FA0009F0514F42193F8CF1E141F042CF4FE01A6
:100FB000EE0DFF1D80E28083B80186E592E00E947D
:100FC000CC0C65E571E086E592E00E94CC0C60E017
:100FD00070E0CB010E945D07A0960FB6F894DEBFCB
:100FE0000FBECDBFDF91CF911F910F91FF90EF907A
:100FF00008951F920F920FB60F9211242F933F93D3
:101000004F935F936F937F938F939F93AF93BF9310
:10101000CF93EF93FF9329B1C091BB019091BA0197
:101020008091B901322F309583239223892B90919F
:101030006D00C227C923C8232093BB01CC2341F1F3
:10104000C0FF03C0E0E0F0E00995C1FF03C0E0E0AD
:10105000F0E00995C2FF03C0E0E0F0E00995C3FFAE
:1010600003C0E0E0F0E00995C4FF03C0E0E0F0E079
:101070000995C5FF03C0E0E0F0E00995C6FF03C095
:10108000E0E0F0E00995C7FF03C0E0E0F0E009957B
:10109000FF91EF91CF91BF91AF919F918F917F91F0
:1010A0006F915F914F913F912F910F900FBE0F90D5
:1010B0001F9018951F920F920FB60F9211242F9325
:1010C0003F934F935F936F937F938F939F93AF93D0
:1010D000BF93CF93EF93FF9326B1C091B801909146
:1010E000B7018091B601322F309583239223892B4B
:1010F00090916C00C227C923C8232093B801CC2348
:10110000F1F0C0FF03C0E0E0F0E00995C1FF03C0CB
:10111000E0E0F0E00995C2FF03C0E0E0F0E00995EF
:10112000C3FF03C0E0E0F0E00995C4FF03C0E0E0C6
:10113000F0E00995C5FF03C0E0E0F0E00995FF91FC
:10114000EF91CF91BF91AF919F918F917F916F91CF
:101150005F914F913F912F910F900FBE0F901F9075
:1011600018951F920F920FB60F9211242F933F9351
:101170004F935F936F937F938F939F93AF93BF939F
:10118000CF93EF93FF9323B1C091B5019091B40138
:101190008091B301322F309583239223892B909134
:1011A0006B00C227C923C8232093B501CC23F1F0DB
:1011B000C0FF03C0E0E0F0E00995C1FF03C0E0E03C
:1011C000F0E00995C2FF03C0E0E0F0E00995C3FF3D
:1011D00003C0E0E0F0E00995C4FF03C0E0E0F0E008
:1011E0000995C5FF03C0E0E0F0E00995FF91EF919C
:1011F000CF91BF91AF919F918F917F916F915F91AF
:101200004F913F912F910F900FBE0F901F90189507
:101210001F920F920FB60F9211242F933F934F936B
:101220005F936F937F938F939F93AF93BF93EF934E
:10123000FF93E0E0F0E00995FF91EF91BF91AF914E
:101240009F918F917F916F915F914F913F912F91DE
:101250000F900FBE0F901F9018951F920F920FB610
:101260000F9211242F933F934F935F936F937F932C
:101270008F939F93AF93BF93EF93FF93E0E0F0E0E2
:101280000995FF91EF91BF91AF919F918F917F91C0
:101290006F915F914F913F912F910F900FBE0F90E3
:1012A0001F901895CF92DF92EF92FF920F931F93AA
:1012B000CF93DF936C017A018B01C0E0D0E0CE15B3
:1012C000DF0589F0D8016D918D01D601ED91FC917A
:1012D0000190F081E02DC6010995892B11F47E0162
:1012E00002C02196ECCFC701DF91CF911F910F91E2
:1012F000FF90EF90DF90CF900895EF92FF920F93C1
:101300001F93CF93DF934091E4035091E5036091E5
:10131000E6037091E7034F5F5F4F6F4F7F4F40933E
:10132000E4035093E5036093E6037093E70384328C
:1013300009F4A4C2E091DE03853234F48A3071F0FE
:101340008D3009F0A9C20AC08A3241F08C3209F00E
:10135000A3C29091CB0398279093CB03082FEF3033
:1013600008F074C1F0E0E353FC4F10828091CC038D
:10137000882309F46DC12091CD033FEB320F822FFA
:10138000022E000C990B363010F4C79707C0215677
:10139000263018F48755910901C0C097282F22954F
:1013A000207F3091CE034FEB430F832F032E000C91
:1013B000990B463010F4C79707C03156363018F4F1
:1013C0008755910901C0C097820F9091CB03891373
:1013D0002AC18091F0039091F103A091F203B091A2
:1013E000F3030196A11DB11D8093F0039093F103C7
:1013F000A093F203B093F3038091DF03882399F065
:101400008091E8039091E903A091EA03B091EB0386
:101410000196A11DB11D8093E8039093E903A09369
:10142000EA03B093EB031091DC03112309F46BC0C2
:10143000113009F0D2C080916F0390917003A09198
:101440007103B091720380936B0390936C03A0932C
:101450006D03B0936E030E94DB026093730370937D
:101460007403809375039093760310936A0310932B
:10147000690380917D0390917E03A0917F03B091D9
:1014800080038093790390937A03A0937B03B093B6
:101490007C030E94DB02609381037093820380933C
:1014A00083039093840310937803109377038091C0
:1014B000DF03882309F491C087E0E7E5F3E0A9E4BE
:1014C000B3E001900D928A95E1F787E0EEE5F3E055
:1014D000A0E5B3E001900D928A95E1F70E94DB024E
:1014E000609365037093660380936703909368032A
:1014F000109348031093470385E893E00E9431035B
:1015000083E993E068C080917D0390917E03A09170
:101510007F03B09180038093790390937A03A09323
:101520007B03B0937C030E94DB0260938103709382
:101530008203809383039093840311E010937803D4
:10154000109377038091DF03882321F187E0E7E59B
:10155000F3E0A9E4B3E001900D928A95E1F787E00A
:10156000EEE5F3E0A0E5B3E001900D928A95E1F796
:101570000E94DB02609365037093660380936703A8
:1015800090936803109348031093470381EA93E014
:101590000E9431038091B9039091BA03A091BB03DB
:1015A000B091BC038093B5039093B603A093B703A7
:1015B000B093B8030E94DB026093B1037093B2034F
:1015C0008093B3039093B40381E08093B00380933E
:1015D000AF038DEB93E00E943103C091E203D09101
:1015E000E30311E0209709F43AC1E091E203F0919E
:1015F000E30366A177A18EA19FA10E948615892B86
:1016000009F02DC1BE01CE0140960E948F150E94A7
:10161000DB0268A379A38AA39BA31DA31CA30AA42E
:10162000DBA5C02DDFCF8091EC039091ED03A0915D
:10163000EE03B091EF030196A11DB11D8093EC0361
:101640009093ED03A093EE03B093EF0390E008C1F5
:101650009091DD03911142C061E771E08DEC93E060
:101660000E948615892B41F067E771E08DEC93E0CD
:101670000E948615892B11F481E014C06DE771E09A
:101680008DEC93E00E948615892B41F063E871E0B0
:101690008DEC93E00E948615892B19F41092DC03DF
:1016A00003C082E08093DC038091E0039091E1032A
:1016B0009093E3038093E203C091E203D091E303AC
:1016C000209721F2EEA0FFA06DEC73E0C7010E940D
:1016D000861597FFF7C08AA59BA5EACFE091DC03AA
:1016E000E23009F491C08091CD03882309F48CC0C5
:1016F00020E2E29FF0011124E92B3197E932F10554
:1017000008F082C0EC5CFF4F0C947B158DEC93E0ED
:101710000E944A0460937D0370937E0380937F034D
:101720009093800371C091E0813409F043C043C0BD
:1017300067E573E009C091E0833509F090E090938C
:101740005D0362C06EE573E08DEC93E00E94480398
:101750005BC091E0873509F090E09093640354C03A
:101760008DEC93E00E944A0460938F037093900382
:10177000809391039093920347C08DEC93E00E9475
:101780004A0460939D0370939E0380939F039093FC
:10179000A0033AC08DEC93E00E94521260936F0355
:1017A0007093700380937103909372032DC091E046
:1017B00081330CF490E09093DF0326C08DEC93E02E
:1017C0000E9452126093B9037093BA038093BB03D3
:1017D0009093BC0319C08DEC93E00E944A0460937F
:1017E000C7037093C8038093C9039093CA030CC0C6
:1017F0008DEC93E00E944A046093AB037093AC03BA
:101800008093AD039093AE03C091E203D091E303C4
:10181000209709F41BCFE091E203F091E30366A166
:1018200077A18EA19FA10E948615892B09F00ECF6A
:1018300028A539A58091DD0390E0821793070CF469
:1018400005CF2817390739F440E150E06DEC73E01B
:10185000CE010E9496150AA4DBA5C02DD9CF91E038
:101860008091DD038F5F8093DD031092DE0381E0C2
:101870000A3209F080E08093CC0332C01092DE037C
:101880001092DD031092CB0382E08093DC03109270
:10189000CC031092DF0314C0EE3040F491E09E0FB1
:1018A0009093DE03F0E0E353FC4F80839091CC03F0
:1018B000911106C02091CB0382278093CB0310C0E7
:1018C00090E00EC06DEC73E0C7010E9486151816FB
:1018D00019060CF0BBCE1092E3031092E203B6CED1
:1018E000892FDF91CF911F910F91FF90EF90089575
:1018F0000F931F93CF93DF938C01C0E0D0E0F801EA
:10190000EC0FFD1F6491662371F0E0915602F09197
:1019100057020190F081E02D86E592E00995892B30
:1019200011F02196ECCFCE01DF91CF911F910F9155
:101930000895E0915602F09157020190F081E02D58
:10194000682F86E592E00994E6E5F2E0A089B18986
:1019500082E08C93A485B5851C92A685B78580E12D
:101960008C93108EA489B58986E08C93A289B38963
:101970008C9180618C93A289B3898C9188608C93BF
:10198000A289B3898C9180688C930288F389E02DB9
:1019900080818F7D808308956115710579F0FB0149
:1019A00001900020E9F73197AF01461B570BDC018E
:1019B000ED91FC910280F381E02D099480E090E0AC
:1019C00008954F925F926F927F92EF92FF920F93E2
:1019D0001F93CF93DF93CDB7DEB7A1970FB6F894DF
:1019E000DEBF0FBECDBF7C01FA01CB0119A22230B0
:1019F00008F42AE08E010F5D1F4F422E512C612CFE
:101A0000712CBF01A30192010E94C213F901CA0106
:101A1000015011096A3014F4605D01C0695CD8019D
:101A20006C93232B242B252B61F7B801C7010E944F
:101A3000CC0CA1960FB6F894DEBF0FBECDBFDF91E0
:101A4000CF911F910F91FF90EF907F906F905F90DB
:101A50004F900895789484B5826084BD84B5816088
:101A600084BD85B5826085BD85B5816085BD809169
:101A70006E00816080936E001092810080918100E1
:101A800082608093810080918100816080938100D9
:101A9000809180008160809380008091B10084609B
:101AA0008093B1008091B00081608093B0008091FC
:101AB0007A00846080937A0080917A0082608093BB
:101AC0007A0080917A00816080937A0080917A0018
:101AD000806880937A001092C100109237031092B0
:101AE00038031092390310923A031092F5021092C3
:101AF000F6021092F7021092F8020E94DB026B01CC
:101B00007C014B015C0128EB820E2BE0921EA11C94
:101B1000B11C0E94DB026C157D058E059F0528F027
:101B200086169706A806B906A0F786E592E0909378
:101B30003603809335030E94A40C0E94DB0260935D
:101B4000F5027093F6028093F7029093F80266E430
:101B500071E080913503909136030E94CC0C0E9475
:101B6000DB026B017C014B015C018AE0880E911C59
:101B7000A11CB11C0E94DB026C157D058E059F0522
:101B800028F086169706A806B906A0F781E080938C
:101B9000090368E571E086E592E00E94CC0C65E5FA
:101BA00071E086E592E00E94CC0C61E082E20E9446
:101BB000E60160E083E20E94E60160E081E10E94CC
:101BC000E60161E085E00E94E60162E08AE20E94AF
:101BD000E60162E08BE20E94E60161E08AE20E9497
:101BE000E60161E08BE20E94E60161E08AE00E948A
:101BF000E60161E08BE00E94E60161E085E00E9481
:101C0000E60161E086E00E94E60161E087E00E9473
:101C1000E60161E088E00E94E60161E08CE00E945C
:101C2000E6010E94DB026093AE017093AF018093E6
:101C3000B0019093B10160E089E00E94E6010E944A
:101C4000A40C10926F001092800081E880938100B4
:101C500083E896E090939301809392018BE39CE359
:101C6000909391018093900162E088E00E94E601E8
:101C700061E089E00E949A0161E089E00E94E6014A
:101C800010928F0110928E0110928D0110928C0192
:101C900010928B0110928A0180E286BB80936F00C4
:101CA000C2E08EE5882E99249394A12CB12CD4E027
:101CB00090E9C92EDD24D394E12CF12C64E170E08D
:101CC00085E00E9422028BE393E00E94D003181665
:101CD00019063CF48BE393E00E94F2030E947D0915
:101CE000F2CF82E291E00E94780C4091AF03109213
:101CF000B0036091B5037091B6038091B7039091E2
:101D0000B80322E030E00E948E078EE191E00E944D
:101D1000780C6090470310924803609149037091DA
:101D20004A0380E090E00E9493121B012C01609115
:101D30004B0370914C0380914D0390914E030E9490
:101D4000931228E23BE64EE65EE40E94C9149B0132
:101D5000AC01C201B1010E945D1420914F03211119
:101D6000905806E010E02BE030E0462D0E942F0650
:101D70008AE191E00E94780C60904703109248033A
:101D8000609150037091510380E090E00E949312A3
:101D90001B012C01609152037091530380915403F5
:101DA000909155030E94931228E23BE64EE65EE4D2
:101DB0000E94C9149B01AC01C201B1010E945D14D3
:101DC000209156032111905806E010E02CE030E0FD
:101DD000462D0E942F0686E191E00E94780C6090CB
:101DE00085031092860360918B0370918C03809120
:101DF0008D0390918E030E9495122EEB3CE443E9F3
:101E00005FE30E94F41220E030E048EC52E40E94CC
:101E1000C91402E010E026E030E0462D0E942F06B3
:101E200082E191E00E94780C0E94DB0200919D010A
:101E300010919E0120919F013091A001DC01CB0106
:101E4000801B910BA20BB30B80339547A105B10505
:101E5000C0F061E08AE20E949A0164E670E080E0EE
:101E600090E00E945D0760E08AE20E949A010E9471
:101E7000DB0260939D0170939E0180939F0190937C
:101E8000A0018091B201882331F1F8940E94DB0215
:101E90006093AE017093AF018093B0019093B10154
:101EA0008091B2018093AD0180FF08C02091AB0109
:101EB0003091AC013093AA012093A90181FF08C0A1
:101EC0008091A7019091A8019093A6018093A5010C
:101ED0001092B20178941091AD0110FF5EC0209174
:101EE000A9013091AA012C3484E0380738F02D364E
:101EF00087E0380728F02CE637E002C02CE434E015
:101F00003093AA012093A9012F3086E03807B8F05A
:101F1000C901A0E0B0E09C01AD012E50364041095E
:101F20005109AFEFB0E00E940314A50194010E9493
:101F3000E4132093A40181E08093A30124C02A3AF2
:101F400085E03807E0F4C901A0E0B0E09C01AD01F4
:101F50002C54344041095109A1E0BFEF0E941114F3
:101F6000A50194010E94E413DA01C90181509F4F39
:101F7000AF4FBF4F8093A401C093A30104C0109240
:101F8000A3011092A4018091A401823320F481E086
:101F90008093010102C0C093010111FFBDC01091E7
:101FA000A4018091A3018093A2012091A501309109
:101FB000A6012C3484E0380738F02D3687E0380746
:101FC00028F02CE637E002C02CE434E03093A60180
:101FD0002093A50180910101813019F08230E1F157
:101FE00074C02F3086E03807B0F083E08093A20100
:101FF000C901A0E0B0E09C01AD012C5D3540410974
:102000005109AFEFB0E00E940314A70196010E94AE
:10201000E413122F58C02A3A85E0380708F055C05B
:10202000D093A201C901A0E0B0E09C01AD012C5405
:10203000344041095109A1E0BFEF0E941114A701EA
:1020400096010E94E413DA01C90181509F4FAF4FFE
:10205000BF4F182F082F3AC02F3086E03807F0F016
:10206000412E512C612C712CC901A0E0B0E09C01E3
:10207000AD012C5D35404109510966277727CB0119
:1020800064197509860997090E94B213A701960180
:102090000E94E413012F122F140D18C02A3A85E074
:1020A000380798F4C901A0E0B0E09C01AD012C54C0
:1020B000344041095109A12FB0E00E940314A70147
:1020C00096010E94E413022F01C0012F612F70E0DE
:1020D0008AE00E942202602F70E08BE00E942202C0
:1020E0008EE091E00E94780C26E030E041E06CED5B
:1020F00075E080E090E00E948E078AE091E00E9407
:10210000780C6091A5017091A60180E090E026E036
:1021100030E041E00E948E071091A2019091A10150
:1021200080910101191305C090910001891709F4EC
:1021300054C01093A1018093000160E085E00E94EB
:102140009A0160E086E00E949A0160E087E00E94C8
:102150009A0160E088E00E949A011230A9F050F4E0
:10216000112359F11130C9F560E085E00E949A0110
:1021700061E015C0133071F0143079F560E085E04E
:102180000E949A0161E014C061E085E00E949A011A
:1021900060E00EC061E085E00E949A0160E086E0A8
:1021A0000E949A0160E087E00E949A0161E012C0FB
:1021B00086E00E949A0161E009C060E085E00E942B
:1021C0009A0160E086E00E949A0160E087E00E9448
:1021D0009A0160E088E00E949A011092AD0162E3EA
:1021E00070E080E090E00E945D070E94900166CD63
:1021F00088E391E090933C0380933B0380916F00D0
:102200008B7F80936F0080916F008F7D80936F0034
:1022100080918D0180938E0180918C018111FCCF82
:1022200080916F008D7F80936F000895E6E5F2E066
:102230001382128288EE93E0A0E0B0E0848395835D
:10224000A683B78326E231E03183208325EC30E09A
:102250003587248724EC30E03787268720EC30E070
:10226000318B208B21EC30E0338B228B22EC30E061
:10227000358B248B26EC30E0378B268B118E128E1B
:10228000138E148EE3EFF2E0168217821086118609
:10229000128613861486158616861786108A118A6A
:1022A000128A138A148A158AE4EFF3E041E051E1BF
:1022B00064EF71E440835183628373834EE45AEA8E
:1022C00063EC72EC44835583668377834FE850E177
:1022D00064EF71E440875187628773874DE35AEA60
:1022E00063EC72EC44875587668777874DEC5FE037
:1022F00064EF71E4408B518B628B738B4BE25AEA33
:1023000063EC72EC448B558B668B778B40E451E128
:1023100064EF71E4408F518F628F738F40E65AEA09
:1023200063EC72EC448F558F668F778F42E751E1F3
:1023300064EF71E440A351A362A373A343E55AEA97
:1023400063EC72EC44A355A366A377A3E7E4F3E040
:1023500010821182138212821482158216821782D1
:1023600010861286118613861486158616861786A1
:10237000118A108A128A138A148A158A168A108E74
:10238000178A118E128E138E148E158E12A213A21E
:1023900014A215A216A217A210AA11AA12AA13AA71
:1023A00014AA15AA109285031092860310928B032B
:1023B00010928C0310928D0310928E03109293034F
:1023C000109294031092990310929A0310929B0317
:1023D00010929C031092A1031092A2031092A703E3
:1023E0001092A8031092A9031092AA031092AF03AF
:1023F0001092B0031092B5031092B6031092B70377
:102400001092B8031092BD031092BE031092C30342
:102410001092C4031092C5031092C6031092CB030E
:102420001092CC0322E02093DC031092DD03109283
:10243000DE031092DF031092E1031092E00310928A
:10244000E3031092E2031092E4031092E50310926A
:10245000E6031092E7031092E8031092E90310924A
:10246000EA031092EB031092EC031092ED0310922A
:10247000EE031092EF031092F0031092F10310920A
:10248000F2031092F3031092CD03EBE3F3E0138217
:10249000128284839583A683B78388E391E0918336
:1024A000808308951F93FC0199278827BC01E89435
:1024B00011911032E9F3193010F01E30C8F31B32BD
:1024C00051F01D3249F4689406C00E947912610FE0
:1024D000711D811D911D119110531A30B0F33EF4FE
:1024E00090958095709561957F4F8F4F9F4F1F916D
:1024F0000895592F482F372F262F660F771F881FD3
:10250000991F660F771F881F991F620F731F841F03
:10251000951F660F771F881F991F08950E94D0127C
:1025200008F481E00895E89409C097FB3EF4909583
:102530008095709561957F4F8F4F9F4F9923A9F09C
:10254000F92F96E9BB279395F6958795779567952B
:10255000B795F111F8CFFAF4BB0F11F460FF1BC06F
:102560006F5F7F4F8F4F9F4F16C0882311F096E902
:1025700011C0772321F09EE8872F762F05C06623B0
:1025800071F096E8862F70E060E02AF09A95660F69
:10259000771F881FDAF7880F9695879597F9089522
:1025A000990F0008550FAA0BE0E8FEEF1616170664
:1025B000E807F907C0F012161306E407F50798F0CC
:1025C000621B730B840B950B39F40A2661F0232BE5
:1025D000242B252B21F408950A2609F4A140A69561
:1025E0008FEF811D811D08950E9407130C947813AD
:1025F0000E946A1338F00E94711320F0952311F0A5
:102600000C9461130C94671311240C94AC130E9466
:10261000891370F3959FC1F3950F50E0551F629F8A
:10262000F001729FBB27F00DB11D639FAA27F00D2B
:10263000B11DAA1F649F6627B00DA11D661F829F52
:102640002227B00DA11D621F739FB00DA11D621F37
:10265000839FA00D611D221F749F3327A00D611D54
:10266000231F849F600D211D822F762F6A2F112436
:102670009F5750409AF0F1F088234AF0EE0FFF1F69
:10268000BB1F661F771F881F91505040A9F79E3FC0
:10269000510580F00C9461130C94AC135F3FE4F38C
:1026A000983ED4F3869577956795B795F795E79516
:1026B0009F5FC1F7FE2B880F911D9695879597F91F
:1026C000089597F99F6780E870E060E008959FEFB4
:1026D00080EC089500240A941616170618060906B9
:1026E000089500240A941216130614060506089588
:1026F000092E0394000C11F4882352F0BB0F40F410
:10270000BF2B11F460FF04C06F5F7F4F8F4F9F4F4F
:10271000089557FD9058440F551F59F05F3F71F0D1
:102720004795880F97FB991F61F09F3F79F0879538
:102730000895121613061406551FF2CF4695F1DFC1
:1027400008C0161617061806991FF1CF8695710551
:10275000610508940895E894BB2766277727CB0185
:1027600097F90895DB018F939F930E940314BF9103
:10277000AF91A29F800D911DA39F900DB29F900DD0
:1027800011240895A1E21A2EAA1BBB1BFD010DC046
:10279000AA1FBB1FEE1FFF1FA217B307E407F50711
:1027A00020F0A21BB30BE40BF50B661F771F881FED
:1027B000991F1A9469F760957095809590959B0183
:1027C000AC01BD01CF010895052E97FB1EF40094C6
:1027D0000E94FB1357FD07D00E94C21307FC03D0D1
:1027E0004EF40C94FB1350954095309521953F4F36
:1027F0004F4F5F4F089590958095709561957F4FED
:102800008F4F9F4F08950E944D14A59F900DB49F28
:10281000900DA49F800D911D11240895B7FF0C9475
:1028200003140E940314821B930B08952F923F926E
:102830004F925F926F927F928F929F92AF92BF92D0
:10284000CF92DF92EF92FF920F931F93CF93DF937C
:10285000CDB7DEB7CA1BDB0B0FB6F894DEBF0FBED9
:10286000CDBF09942A88398848885F846E847D8426
:102870008C849B84AA84B984C884DF80EE80FD8028
:102880000C811B81AA81B981CE0FD11D0FB6F8949E
:10289000DEBF0FBECDBFED010895A29FB001B39F73
:1028A000C001A39F700D811D1124911DB29F700D59
:1028B000811D1124911D08955058BB27AA270E94FD
:1028C00074140C9478130E946A1338F00E947113E8
:1028D00020F039F49F3F19F426F40C9467130EF49A
:1028E000E095E7FB0C946113E92F0E94891358F3DC
:1028F000BA17620773078407950720F079F4A6F5E5
:102900000C94AB130EF4E0950B2EBA2FA02D0B01F7
:10291000B90190010C01CA01A0011124FF27591B24
:1029200099F0593F50F4503E68F11A16F040A22F2A
:10293000232F342F4427585FF3CF4695379527959B
:10294000A795F0405395C9F77EF41F16BA0B620B9A
:10295000730B840BBAF09150A1F0FF0FBB1F661FE1
:10296000771F881FC2F70EC0BA0F621F731F841F24
:1029700048F4879577956795B795F7959E3F08F04A
:10298000B0CF9395880F08F09927EE0F979587950C
:1029900008950E94DD140C9478130E94711358F06E
:1029A0000E946A1340F029F45F3F29F00C946113F0
:1029B00051110C94AC130C9467130E94891368F3A3
:1029C0009923B1F3552391F3951B550BBB27AA27E8
:1029D00062177307840738F09F5F5F4F220F331F22
:1029E000441FAA1FA9F335D00E2E3AF0E0E832D0EA
:1029F00091505040E695001CCAF72BD0FE2F29D0ED
:102A0000660F771F881FBB1F261737074807AB07BE
:102A1000B0E809F0BB0B802DBF01FF2793585F4F33
:102A20003AF09E3F510578F00C9461130C94AC136E
:102A30005F3FE4F3983ED4F3869577956795B79515
:102A4000F7959F5FC9F7880F911D9695879597F920
:102A50000895E1E0660F771F881FBB1F6217730799
:102A60008407BA0720F0621B730B840BBA0BEE1FAE
:102A700088F7E09508950E9442156894B1110C946E
:102A8000AC1308950E94911388F09F5798F0B92FC6
:102A90009927B751B0F0E1F0660F771F881F991F93
:102AA0001AF0BA95C9F714C0B13091F00E94AB1377
:102AB000B1E008950C94AB13672F782F8827B85F87
:102AC00039F0B93FCCF3869577956795B395D9F7EB
:102AD0003EF490958095709561957F4F8F4F9F4FF5
:102AE00008950E94D01208F48FEF08950E94D0122A
:102AF000880B990B0895EE0FFF1F0590F491E02DC0
:102B0000099481E090E0F8940C944618FB01DC01F4
:102B10008D91019080190110D9F3990B0895FB0153
:102B2000DC0101900D920020E1F70895FB01DC012A
:102B30004150504048F001900D920020C9F701C06B
:102B40001D9241505040E0F70895AEE0B0E0EBEA4E
:102B5000F5E10C9424140D891E8986E08C831A8378
:102B600009838FEF9FE79E838D83AE01475E5F4FA2
:102B70006F89788DCE0101960E94C8152F81388506
:102B8000F801E20FF31F10822E96E4E00C9440143B
:102B9000ACE0B0E0EEECF5E10C9416147C016B01B6
:102BA0008A01FC0117821682838181FFBDC1CE019B
:102BB00001964C01F7019381F60193FD859193FFF6
:102BC00081916F01882309F4ABC1853239F493FDFB
:102BD000859193FF81916F01853229F4B70190E0CF
:102BE0000E94B017E7CF512C312C20E02032A0F406
:102BF0008B3269F030F4803259F0833269F420610D
:102C00002CC08D3239F0803339F4216026C0226027
:102C1000246023C0286021C027FD27C030ED380F75
:102C20003A3078F426FF06C0FAE05F9E300D11249A
:102C3000532E13C08AE0389E300D1124332E2062AB
:102C40000CC08E3221F426FD6BC1206406C08C3688
:102C500011F4206802C0883641F4F60193FD859195
:102C600093FF81916F018111C1CF982F9F7D955462
:102C7000933028F40C5F1F4FFFE3F9830DC08336B8
:102C800031F0833771F0833509F05BC022C0F80161
:102C9000808189830E5F1F4F44244394512C54013B
:102CA00015C03801F2E06F0E711CF801A080B180F0
:102CB00026FF03C0652D70E002C06FEF7FEFC501F6
:102CC0002C870E94A5172C0183012C852F77222E9B
:102CD00017C03801F2E06F0E711CF801A080B180BE
:102CE00026FF03C0652D70E002C06FEF7FEFC501C6
:102CF0002C870E949A172C012C852068222E830194
:102D000023FC1BC0832D90E048165906B0F4B70190
:102D100080E290E00E94B0173A94F4CFF50127FCCE
:102D2000859127FE81915F01B70190E00E94B01765
:102D300031103A94F1E04F1A51084114510471F7DF
:102D4000E5C0843611F0893639F5F80127FF07C050
:102D500060817181828193810C5F1F4F08C0608107
:102D60007181072E000C880B990B0E5F1F4F2F7679
:102D7000722E97FF09C090958095709561957F4F51
:102D80008F4F9F4F2068722E2AE030E0A4010E94EE
:102D9000E817A82EA81844C0853729F42F7EB22E34
:102DA0002AE030E025C0F22FF97FBF2E8F36C1F028
:102DB00018F4883579F0B4C0803719F0883721F0DD
:102DC000AFC02F2F2061B22EB4FE0DC08B2D8460BA
:102DD000B82E09C024FF0AC09F2F9660B92E06C0E6
:102DE00028E030E005C020E130E002C020E132E020
:102DF000F801B7FE07C060817181828193810C5F09
:102E00001F4F06C06081718180E090E00E5F1F4F10
:102E1000A4010E94E817A82EA818FB2DFF777F2E8B
:102E200076FE0BC0372D3E7FA51450F474FE0AC009
:102E300072FC08C0372D3E7E05C0BA2C372D03C06A
:102E4000BA2C01C0B52C34FF0DC0FE01EA0DF11DF6
:102E50008081803311F4397E09C032FF06C0B394FB
:102E6000B39404C0832F867809F0B39433FD13C064
:102E700030FF06C05A2CB31418F4530C5B18B32C53
:102E8000B31468F4B70180E290E03C870E94B01769
:102E9000B3943C85F5CFB31410F43B1801C0312C2A
:102EA00034FF12C0B70180E390E03C870E94B01766
:102EB0003C8532FF17C031FD03C088E790E002C0B7
:102EC00088E590E0B7010CC0832F867859F031FF78
:102ED00002C08BE201C080E237FD8DE2B70190E0D5
:102EE0000E94B017A51438F4B70180E390E00E9467
:102EF000B0175A94F7CFAA94F401EA0DF11D80811E
:102F0000B70190E00E94B017A110F5CF332009F46B
:102F100051CEB70180E290E00E94B0173A94F6CF0C
:102F2000F7018681978102C08FEF9FEF2C96E2E137
:102F30000C943214FC010590615070400110D8F7D8
:102F4000809590958E0F9F1F0895FC0161507040F1
:102F500001900110D8F7809590958E0F9F1F0895CE
:102F60000F931F93CF93DF93FB01238121FD03C0B8
:102F70008FEF9FEF28C022FF16C046815781248122
:102F800035814217530744F4A081B1819D012F5F21
:102F90003F4F318320838C93268137812F5F3F4FB2
:102FA0003783268310C0EB01092F182F0084F18589
:102FB000E02D0995892BE1F68E819F8101969F83F3
:102FC0008E83812F902FDF91CF911F910F910895C4
:102FD000FA01AA27283051F1203181F1E8946F934A
:102FE0006E7F6E5F7F4F8F4F9F4FAF4FB1E03ED0F0
:102FF000B4E03CD0670F781F891F9A1FA11D680F8E
:10300000791F8A1F911DA11D6A0F711D811D911DC0
:10301000A11D20D009F468943F912AE0269F112435
:103020003019305D3193DEF6CF010895462F477099
:10303000405D4193B3E00FD0C9F7F6CF462F4F70F4
:10304000405D4A3318F0495D31FD4052419302D052
:10305000A9F7EACFB4E0A6959795879577956795F8
:10306000BA95C9F700976105710508959B01AC01F8
:103070000A2E06945795479537952795BA95C9F71F
:10308000620F731F841F951FA01D089510E0C4E9EF
:10309000D0E004C0FE010E947B152196C539D107FE
:0630A000C9F7F894FFCF10
:1030A60001012A2A2A2A2A2A2A2A2A2A2A2A2A2ACC
:1030B6002A2A2A000000000000000000000000008C
:1030C60000000000000027015209BF006E01F00059
:1030D600CE00E200000000000D0452094704080477
:1030E600D003F203DF03564D4450565F317C315F07
:1030F600564D4450560D0A005374617274696E67DA
:10310600006E616E00696E66006F766600256C64FF
:10311600004750524D4300474E524D4300475047DB
:0A312600474100474E4747410000B3
:00000001FF
