:10000000BAC100000C945A0E0C94310E0C94080ED8
:100010000C94DF0D0C94B60D0C948D0D0C94640DA6
:100020000C943B0D0C94D60C0C94750C0C940F0C8A
:10003000D3C10000D1C10000CFC10000CDC100007C
:10004000CBC10000C9C10000C7C10000C5C100008C
:10005000C3C10000C1C10000BFC10000FEC5000057
:10006000BBC1000038C400000DC40000B5C10000D1
:10007000B3C10000B1C10000AFC10000ADC10000BC
:10008000ABC10000A9C10000A7C10000A5C10000CC
:10009000A3C10000A1C100009FC100009DC10000DC
:1000A0009BC1000099C1000097C1000095C10000EC
:1000B00093C1000091C100005EC700000C94690864
:1000C0000FC7000089C1000087C1000085C1000082
:1000D00083C1000081C100007FC100007DC100001C
:1000E0007BC10000D004D304C204C604CA040A05BC
:1000F000D704DB04E104E504E904EF04F304F704A6
:100100000A05FD0401050505810586058B05950594
:100110009F051806A905B105B905C305CD05D70585
:10012000E605F0051806FA0504060E06C310D510FC
:10013000D810DF10E61014111B11281135114111D0
:10014000411141114111411141114111411141111F
:10015000411141114111411141114111411141110F
:10016000411141114111411141114111C310D010F0
:10017000D510D810DF10E610ED10FA100711084A5C
:10018000D73B3BCE016E84BCBFFDC12F3D6C7431AB
:100190009ABD56833DDA3D00C77F11BED9E4BB4C02
:1001A0003E916BAAAABE000000803F05A84CCDB2CC
:1001B000D44EB93836A9020C50B9918688083CA6AD
:1001C000AAAA2ABE000000803F00000021002400EF
:1001D00027002A002D003000330001010000040137
:1001E00007010A0100002200250028002B002E0034
:1001F0003100340002010000050108010B0100007C
:100200000A0B02090C0D0E08070304010000000090
:1002100000000000000000000000000000000000DE
:10022000000000000000000000001211100000009B
:1002300000000000000000000000000000000000BE
:1002400000000000000020002300260029002C00F0
:100250002F0032000001000003010601090105051D
:100260000505070508080808020202020A0A08082C
:10027000040404040101010101010101030303035A
:1002800003030303040707070C0C0C0C0C0C0C0CE9
:100290000202020206060606060606060B0B0B0BFA
:1002A0000B0B0B0B0102102020080810204010201F
:1002B000408002010201080402010102040810202A
:1002C0004080804020100804020180040201804028
:1002D0002010080402010804020101020408102091
:1002E0004080010204081020408020204572726F77
:1002F00072203D2000202043757272656E74203D8F
:1003000020002020546172676574203D2000205336
:100310007064203D2000536F6E6172203D200047C5
:1003200050532048656164696E672000436F6D70AB
:100330006173732048656164696E6720004F72695C
:1003400067696E616C20446973742000204469738E
:10035000742000204C4F4E203D20004C4154203D45
:100360002000537064004C6F6E004C617400536148
:100370007400FF19661411241FBECFEFD1E2DEBF57
:10038000CDBF00E00CBF25E0A0EFB2E001C01D92A0
:10039000AE3AB207E1F712E0A0E0B2E0E8E9F4E437
:1003A00000E00BBF02C007900D92A03FB107D9F744
:1003B00011E0CAEBD1E000E006C021970109802FCF
:1003C000FE010E942D1FC93BD10780E00807A9F755
:1003D0000E9484140C943B2213CEFC01538D448D57
:1003E000252F30E0842F90E0821B930B541710F0E0
:1003F000CF96089501970895FC01918D828D9817ED
:1004000061F0828DDF01A80FB11D5D968C91928DF8
:100410009F5F9F73928F90E008958FEF9FEF0895F5
:10042000FC01918D828D981731F0828DE80FF11DBE
:10043000858D90E008958FEF9FEF0895FC01918DD9
:10044000228D892F90E0805C9F4F821B91098F73D2
:1004500099270895FC01848DDF01A80FB11DA35ACF
:10046000BF4F2C91848D90E001968F739927848FD4
:10047000A689B7892C93A089B1898C9180648C93CB
:10048000938D848D981306C00288F389E02D8081B6
:100490008F7D80830895EF92FF920F931F93CF93E8
:1004A000DF93EC0181E0888F9B8D8C8D981305C0C4
:1004B000E889F989808185FD23C0F62E0B8D10E037
:1004C0000F5F1F4F0F731127E02E8C8DE8120BC0AA
:1004D0000FB607FCFACFE889F989808185FFF5CF4F
:1004E000CE01B8DFF2CF8B8DFE01E80FF11DE35A8C
:1004F000FF4FF0820B8FEA89FB898081806207C001
:10050000EE89FF896083E889F9898081806480832E
:1005100081E090E0DF91CF911F910F91FF90EF90DC
:100520000895CF93DF93EC01888D8823C1F0EA8989
:10053000FB89808185FD05C0A889B9898C9186FDDC
:100540000EC00FB607FCF5CF808185FFF2CFA889DA
:10055000B9898C9185FFEDCFCE017CDFE8CFDF91AB
:10056000CF91089580E090E0892B21F00E94830EC6
:10057000811125C080E090E0892B41F080E090E07F
:10058000892B21F00E94000081111CC080E090E0C6
:10059000892B41F080E090E0892B21F00E9400003F
:1005A000811113C080E090E0892BA1F080E090E001
:1005B000892B81F00E94000081110AC008950E94D9
:1005C0000000D8CF0E940000E1CF0E940000EACFD7
:1005D0000C94000008955091B0034091AF03852F13
:1005E00090E0242F30E0541710F4805B9F4F821B63
:1005F000930B08958091B003E091AF038E1751F0F3
:10060000EF5FE03508F0E0E0F0E0ED5AFC4F80816C
:1006100090E008958FEF9FEF08958091B00390913F
:10062000AF03891769F09F5F903508F090E0E92FDC
:10063000F0E0ED5AFC4F80819093AF0390E0089575
:100640008FEF9FEF08958091AE038111FCCF089545
:100650008091AD038F5F843408F080E09091AC030B
:100660009817E1F32FB7F8949091AE03992341F0D6
:10067000E82FF0E0E75FFC4F60838093AD031DC07F
:1006800081E08093AE0360934E0310924D0382E0AD
:100690008ABB8091730082608093730080912001F7
:1006A0008F738068809320018091240190912501AF
:1006B000409690932901809328012FBF81E090E01C
:1006C0000895089580E090E008950E944F1F4F9292
:1006D0005F926F927F928F929F92AF92BF92CF92D2
:1006E000DF92EF92FF92CF93DF93CDB7DEB76097A3
:1006F0000FB6F894DEBF0FBECDBF409005035090FB
:1007000006036090070370900803C0900103D09027
:100710000203E0900303F09004030E9417129B0170
:10072000AC016D873E874F87588B0E94E8114B01C3
:100730005C012D853E854F855889C301B2010E9419
:10074000D91C25E33AEF4EE85CE30E94DB1B2B014A
:100750003C0125E33AEF4EE85CE3C501B4010E9499
:10076000DB1B4B015C0125E33AEF4EE85CE3C7017C
:10077000B6010E94DB1B6B017C01C301B2010E9428
:10078000A51E6D837E838F839887C701B6010E9463
:10079000A01D69837A838B839C83C501B4010E9469
:1007A000A51E69877A878B879C87C301B2010E9447
:1007B000A01D2B013C0129813A814B815C81698517
:1007C0007A858B859C850E94DB1BA30192010E9488
:1007D000DB1B2B013C01C501B4010E94A01D4B0194
:1007E0005C01C701B6010E94A51E9B01AC01C501B9
:1007F000B4010E94DB1BA30192010E94D91C6B0172
:100800007C0129813A814B815C816D817E818F8160
:1008100098850E94DB1BA70196010E944D1D6B016C
:100820007C0120E030E0A9010E94761B87FF0AC00E
:100830002BED3FE049EC50E4C701B6010E94DA1C01
:100840006B017C0121EE3EE245E652E4C701B601B0
:100850000E94DB1B0E940B1ECB0160960FB6F89422
:10086000DEBF0FBECDBFDF91CF91FF90EF90DF9045
:10087000CF90BF90AF909F908F907F906F905F9040
:100880004F9008951F920F920FB60F9211240BB63E
:100890000F922F933F934F935F936F937F938F9319
:1008A0009F93AF93BF93EF93FF9388EE93E0D2DDD6
:1008B000FF91EF91BF91AF919F918F917F916F9138
:1008C0005F914F913F912F910F900BBE0F900FBEF4
:1008D0000F901F9018951F920F920FB60F92112430
:1008E0000BB60F922F938F939F93EF93FF93E0910B
:1008F000F803F091F9038081E091FE03F091FF038A
:1009000082FD12C09081809101048F5F8F732091CE
:100910000204821751F0E0910104F0E0E851FC4F2D
:10092000958F8093010401C08081FF91EF919F9189
:100930008F912F910F900BBE0F900FBE0F901F90B5
:100940001895362F90E0FC01E250FE4F4491FC01D7
:10095000EC55FD4F2491FC01E25AFD4F94919923EF
:1009600009F46BC0442309F455C050E0FA013197F3
:10097000E231F10508F04EC08827EE58FF4F8F4F47
:100980000C942D1F809180008F7707C0809180008C
:100990008F7D03C080918000877F809380003AC064
:1009A00084B58F7702C084B58F7D84BD33C08091BC
:1009B000B0008F7703C08091B0008F7D8093B0002E
:1009C00029C0809190008F7707C0809190008F7D23
:1009D00003C080919000877F809390001BC080911E
:1009E000A0008F7707C08091A0008F7D03C0809109
:1009F000A000877F8093A0000DC0809120018F7799
:100A000007C0809120018F7D03C080912001877FE6
:100A100080932001E92FF0E0EE0FFF1FEC51FE4F15
:100A2000A591B4918FB7F894EC91311103C0209542
:100A30002E2301C02E2B2C938FBF0895CF93DF93CD
:100A400090E0FC01EC55FD4F2491FC01E25AFD4F72
:100A50008491882361F190E0880F991FFC01E6538F
:100A6000FE4FC591D491FC01EC51FE4FA591B4917C
:100A7000611109C09FB7F8948881209582238883EB
:100A8000EC912E230BC0623061F49FB7F89438814B
:100A9000822F809583238883EC912E2B2C939FBFEC
:100AA00006C08FB7F894E8812E2B28838FBFDF9183
:100AB000CF9108951F93CF93DF93182FEB0161E03F
:100AC000BDDF209711F460E004C0CF3FD10531F4C1
:100AD00061E0812FDF91CF911F9133CFE12FF0E0C3
:100AE000E250FE4FE4914E2F50E0FA013197E2318F
:100AF000F10508F09DC08827EC57FF4F8F4F0C94ED
:100B00002D1F84B5806884BDC7BD97C084B5806241
:100B100084BDC8BD92C080918000806880938000B1
:100B2000D0938900C093880088C080918000806243
:100B300080938000D0938B00C0938A007EC0809108
:100B40008000886080938000D0938D00C0938C00DB
:100B500074C08091B00080688093B000C093B300EF
:100B60006CC08091B00080628093B000C093B400EC
:100B700064C080919000806880939000D093990029
:100B8000C09398005AC0809190008062809390003A
:100B9000D0939B00C0939A0050C0809190008860D1
:100BA00080939000D0939D00C0939C0046C080919C
:100BB000A00080688093A0008091A0008F7B80932C
:100BC000A000D093A900C093A80037C08091A000D6
:100BD00080628093A000D093AB00C093AA002DC088
:100BE0008091A00088608093A000D093AD00C09356
:100BF000AC0023C080912001806880932001D093B5
:100C00002901C093280119C080912001806280933E
:100C10002001D0932B01C0932A010FC080912001A5
:100C2000886080932001D0932D01C0932C0105C0D2
:100C3000C038D1050CF04CCF46CFDF91CF911F913A
:100C400008952FB7F8946091A8037091A90380913B
:100C5000AA039091AB032FBF08951F920F920FB676
:100C60000F9211242F933F938F939F93AF93BF9332
:100C70008091A8039091A903A091AA03B091AB031E
:100C80003091A70323E0230F2D3720F40196A11DF7
:100C9000B11D05C026E8230F0296A11DB11D2093AA
:100CA000A7038093A8039093A903A093AA03B093EA
:100CB000AB038091A3039091A403A091A503B091ED
:100CC000A6030196A11DB11D8093A3039093A403D5
:100CD000A093A503B093A603BF91AF919F918F916D
:100CE0003F912F910F900FBE0F901F901895CF93AB
:100CF000DF93EC018A859B85AC85BD858E839F83C0
:100D0000A887B9879EDF6A837B838C839D8381E07C
:100D100089838883DF91CF9108952F923F924F92DC
:100D20005F926F927F928F929F92AF92BF92CF927B
:100D3000DF92EF92FF920F931F93CF93DF93D82F01
:100D4000C92F8B010E943B1B24E630E040E050E0BD
:100D50000E949E1C49015A019B01AC0160E876E9A2
:100D600088E990E00E948F1C6B017C01F801918260
:100D70008082ED2FFC2F2191822F022E000C990BE7
:100D8000C0970A97C0F32E3239F51F0180E8882EEC
:100D900086E9982E88E9A82EB12C9AE0492E512C8C
:100DA000612C712CF101C1911F010C2E000CDD0B87
:100DB000E097CA30D10580F4C501B401A3019201C6
:100DC0000E949E1C49015A01DE010E94351FC60E79
:100DD000D71EE81EF91EE6CFA5E0B0E0A7019601F8
:100DE0000E94C01C6F5F7F4F8F4F9F4F23E030E00A
:100DF00040E050E00E949E1CF8012283338344832C
:100E000055831682DF91CF911F910F91FF90EF9044
:100E1000DF90CF90BF90AF909F908F907F906F901A
:100E20005F904F903F902F900895FF920F931F93E4
:100E3000CF93DF93EC01FF24F39488818D3211F07E
:100E4000F12C01C02196CE010E943B1B9B01AC01FD
:100E5000A4E6B0E00E94C01CFE014991242F042E9C
:100E6000000C330B205331092A303105A8F34E32E0
:100E700041F52181022E000C330B205331092A3019
:100E80003105F8F44AE0429F8001439F100D112480
:100E9000012E000C220B330B600F711F821F931F5A
:100EA0000281002E000C110B005311090A301105AC
:100EB00040F4012E000C220B330B600F711F821FB8
:100EC000931FFF2039F090958095709561957F4F25
:100ED0008F4F9F4FDF91CF911F910F91FF900895FA
:100EE0001F920F920FB60F9211240BB60F922F93F1
:100EF0008F939F93EF93FF93809173008B7F8093E9
:100F00007300809121018F7B809321018091B10337
:100F100020915203205890915103893020F49695E6
:100F2000922B8F5FFACF909351038091B0038F5F24
:100F3000803508F080E02091AF03821739F0E82F68
:100F4000F0E0ED5AFC4F90838093B0031092B10310
:100F5000809121018F7B8093210110925203FF9198
:100F6000EF919F918F912F910F900BBE0F900FBE1D
:100F70000F901F9018951F920F920FB60F92112489
:100F80000BB60F922F933F934F935F936F937F9383
:100F90008F939F93AF93BF93EF93FF93809126011D
:100FA000909127014091520320912101442331F077
:100FB0002F7B209321011092520306C020642093BE
:100FC000210120E8209352033091B103311125C053
:100FD00041116CC02091B2033091B303280F391F27
:100FE00030932B0120932A0124E02ABB2091730027
:100FF0002460209373002091B4033091B503820FD5
:10100000931F36952795820F931F909350038093DB
:101010004F0381E08093B10349C040914F03509149
:1010200050036091B4037091B503DB01A095B095B6
:10103000E091520320915103841B950BA817B90727
:1010400068F126952E2B460F571F3F5F861B970B87
:101050003930A0F320935103809173008B7F8093EC
:1010600073008091B0038F5F803508F080E090912D
:10107000AF03891749F0E82FF0E090915103ED5A42
:10108000FC4F90838093B003809121018F7B8093EC
:101090002101109252031092B10308C02093510312
:1010A0005093500340934F033093B103FF91EF915E
:1010B000BF91AF919F918F917F916F915F914F9170
:1010C0003F912F910F900BBE0F900FBE0F901F906E
:1010D00018951F920F920FB60F9211240BB60F9214
:1010E0002F933F934F935F936F937F938F939F9330
:1010F000EF93FF938091AE0360914E0320912801FE
:10110000309129014091B4035091B50390914D0362
:101110008A30F8F4240F351F893019F0762F71705A
:1011200001C071E066958F5F791791F3909120016E
:10113000772311F0906C02C09F7390689093200108
:10114000309329012093280170934D0360934E033F
:101150004AC09091AD03E091AC039E1319C08A3050
:1011600051F48BE08093AE03240F351F3093290197
:10117000209328013AC01092AE03809120018F7312
:1011800080932001809173008D7F809373002DC028
:10119000EF5FE43408F0E0E0E093AC03F0E0E75FF9
:1011A000FC4F908190934E0310924D03909120013B
:1011B0009F739068909320018A3059F48091B40312
:1011C0009091B503280F391F3093290120932801EE
:1011D00009C08091240190912501409690932901A6
:1011E0008093280181E08093AE03FF91EF919F915E
:1011F0008F917F916F915F914F913F912F910F90C0
:101200000BBE0F900FBE0F901F9018958F929F925C
:10121000AF92BF92EF92FF920F931F93CF93DF9302
:101220004B015C01E901411112C0C230D1052CF023
:101230008AE20E94B5112197F8CF80E20E94B51191
:101240006DE972E088EE93E00E94671248C0402F7B
:101250000E94C4126DE972E088EE93E00E9467126A
:10126000C501B4010E940B1E7B0177FF04C0EE2470
:10127000FF24E61AF70A20E030E0A901C501B40115
:101280000E94761B082E000C990B8827990F881F47
:1012900099270196800F911F28EEE21623E0F206AF
:1012A0005CF424E6E216F10454F42AE0E216F104B8
:1012B0004CF401E010E008C004E010E005C003E0D9
:1012C00010E002C002E010E0080F191F0C171D0704
:1012D00034F480E20E94B5110F5F1F4FF7CFC501B4
:1012E000B401DF91CF911F910F91FF90EF90BF90CC
:1012F000AF909F908F9008958F929F92AF92BF92E0
:10130000CF92DF92EF92FF926B017C019ADC4B014E
:101310005C018DEC94E05FD9892B29F08DEC94E091
:101320007CD926D5F6CF8DDCDC01CB018819990953
:10133000AA09BB098C159D05AE05BF0550F3FF90AA
:10134000EF90DF90CF90BF90AF909F908F900895D7
:101350000F931F93809102029091030282309105B6
:1013600079F08336910531F0019709F03AC06FEFBB
:1013700070E002C06FE770E088E01F910F919ACB98
:1013800060DC0091B6031091B7032091B80330914F
:10139000B903DC01CB01801B910BA20BB30B803D89
:1013A0009740A105B105E8F060E070E088E082DBDD
:1013B00048DC0091B6031091B7032091B803309137
:1013C000B903DC01CB01801B910BA20BB30B84365C
:1013D0009105A105B10528F060E08AE21F910F9107
:1013E000B0CA1F910F9108958091BC039091BD03E5
:1013F0002091CA033091CB03821B930B8C342FEFC7
:10140000920714F488599E4F9093BB038093BA03BC
:101410008091BA039091BB03853B910534F08856C7
:1014200091409093BB038093BA038091BA0390914B
:10143000BB039C012B5F3F4F2B30310518F483E633
:1014400090E007C097FF03C081E090E002C082E017
:1014500090E0909303028093020208952091CC03C0
:101460003091CD032115310511F420EF30E080914A
:10147000BE039091BF03820F931F97FD0196959530
:1014800087959093BF038093BE030895CF92DF9218
:10149000EF92FF929DD76093C6037093C70380932A
:1014A000C8039093C90394D76B017C016093C20376
:1014B0007093C3038093C4039093C50310922605D1
:1014C00060912B0570912C0580912D0590912E0532
:1014D0000E947C1B20E030E048EC52E40E94A31DF7
:1014E00020E030E044E351E40E94DA1C20E030E0E8
:1014F00044EB51E40E94A31D0E940B1ECB0160E14E
:1015000070E00E941A1FFC01EE0FFF1FEA5FFD4F03
:101510008081918122E08A36920791F48091C603FE
:101520009091C703A091C803B091C903B0588093AC
:10153000C6039093C703A093C803B093C9030FC019
:101540008C58924061F4F7FAF094F7F8F094C09256
:10155000C203D092C303E092C403F092C50305D046
:10156000FF90EF90DF90CF90B2C84F925F926F9252
:101570007F928F929F92AF92BF92CF92DF92EF9223
:10158000FF92CF93DF93CDB7DEB764970FB6F89491
:10159000DEBF0FBECDBF2091050330910603409101
:1015A0000703509108038090010390900203A090DC
:1015B0000303B0900403298B3A8B4B8B5C8B37D79A
:1015C0002B013C0105D76B017C0129893A894B89A4
:1015D0005C89C301B2010E94D91C25E33AEF4EE8B1
:1015E0005CE30E94DB1B2B013C010E94A51E6D8762
:1015F0007E878F87988BC301B2010E94A01D6983EB
:101600007A838B839C8325E33AEF4EE85CE3C70142
:10161000B6010E94DB1B6B017C0125E33AEF4EE82B
:101620005CE3C501B4010E94DB1B2B013C01C70137
:10163000B6010E94A51E4B015C01C701B6010E94C4
:10164000A01D6D837E838F839887C301B2010E94A2
:10165000A51E69877A878B879C87C301B2010E9488
:10166000A01D6B017C0129853A854B855C856D81C8
:101670007E818F8198850E94DB1B2B013C01A70195
:101680009601C501B4010E94DB1B29813A814B817F
:101690005C810E94DB1B9B01AC01C301B2010E9473
:1016A000D91C9B01AC010E94DB1B2B013C012D8549
:1016B0003E854F855889C701B6010E94DB1B9B01FF
:1016C000AC010E94DB1B9B01AC01C301B2010E9473
:1016D000DA1C0E94AF1E2B013C0129853A854B85FF
:1016E0005C85C501B4010E94DB1B4B015C01A701B5
:1016F00096016D817E818F8198850E94DB1B2981F7
:101700003A814B815C810E94DB1B9B01AC01C501CE
:10171000B4010E94DA1C9B01AC01C301B2010E941A
:101720004D1D26E73BE742EC5AE40E94DB1B0E947A
:10173000101E28EE33E040E050E00E949E1C49015C
:101740005A01263031050CF054C0E0900002F090B0
:1017500001028FEFE81AF80AF0920102E09200020B
:10176000F70183E0EE0FFF1F8A95E1F7EA57FA4F82
:101770006481758186819781609301037093020370
:1017800080930303909304034080518062807380B0
:10179000409205035092060360920703709208037B
:1017A00020E030E0A9010E94761B811109C020E0F1
:1017B00030E0A901C301B2010E94761B882321F009
:1017C00085E0E816F1044CF06FE770E088E072D92C
:1017D0006FE770E089E06ED9FFCF58DEC6DE9093E8
:1017E000C1038093C003909300038093FF020E9483
:1017F0006703C40164960FB6F894DEBF0FBECDBF79
:10180000DF91CF91FF90EF90DF90CF90BF90AF909E
:101810009F908F907F906F905F904F9008951F9250
:101820000F920FB60F9211240BB60F922F933F9386
:101830004F935F936F937F938F939F93AF93BF93D8
:10184000CF93EF93FF9320910601C091FE029091F8
:10185000FD028091FC02322F309583239223892B45
:1018600090916D00C227C923C8232093FE02CC2388
:1018700041F1C0FF03C0E0E0F0E01995C1FF03C0F3
:10188000E0E0F0E01995C2FF03C0E0E0F0E0199558
:10189000C3FF03C0E0E0F0E01995C4FF03C0E0E03F
:1018A000F0E01995C5FF03C0E0E0F0E01995C6FF30
:1018B00003C0E0E0F0E01995C7FF03C0E0E0F0E00E
:1018C0001995FF91EF91CF91BF91AF919F918F911A
:1018D0007F916F915F914F913F912F910F900BBE30
:1018E0000F900FBE0F901F9018951F920F920FB67A
:1018F0000F9211240BB60F922F933F934F935F9348
:101900006F937F938F939F93AF93BF93CF93EF93F7
:10191000FF9320910301C091FB029091FA02809104
:10192000F902322F309583239223892B9091F8026C
:10193000C227C923C8232093FB02CC2319F1C0FF7F
:1019400003C0E0E0F0E01995C1FF03C0E0E0F0E083
:101950001995C2FF03C0E0E0F0E01995C3FF03C092
:10196000E0E0F0E01995C4FF03C0E0E0F0E0199575
:10197000C5FF03C0E0E0F0E01995C6FF03C0E0E05A
:10198000F0E01995FF91EF91CF91BF91AF919F91A9
:101990008F917F916F915F914F913F912F910F9018
:1019A0000BBE0F900FBE0F901F9018951F920F92B5
:1019B0000FB60F9211240BB60F922F933F934F93B4
:1019C0005F936F937F938F939F93AF93BF93CF93C7
:1019D000EF93FF9323B1C091F7029091F6028091AB
:1019E000F502322F309583239223892B90916B003F
:1019F000C227C923C8232093F702CC2341F1C0FF9B
:101A000003C0E0E0F0E01995C1FF03C0E0E0F0E0C2
:101A10001995C2FF03C0E0E0F0E01995C3FF03C0D1
:101A2000E0E0F0E01995C4FF03C0E0E0F0E01995B4
:101A3000C5FF03C0E0E0F0E01995C6FF03C0E0E099
:101A4000F0E01995C7FF03C0E0E0F0E01995FF91C1
:101A5000EF91CF91BF91AF919F918F917F916F91B6
:101A60005F914F913F912F910F900BBE0F900FBE42
:101A70000F901F9018951F920F920FB60F9211247E
:101A80000BB60F922F933F934F935F936F937F9378
:101A90008F939F93AF93BF93EF93FF93E0E0F0E0BA
:101AA0001995FF91EF91BF91AF919F918F917F9188
:101AB0006F915F914F913F912F910F900BBE0F90BF
:101AC0000FBE0F901F9018951F920F920FB60F9296
:101AD00011240BB60F922F933F934F935F936F9305
:101AE0007F938F939F93AF93BF93EF93FF93E0E028
:101AF000F0E01995FF91EF91BF91AF919F918F9178
:101B00007F916F915F914F913F912F910F900BBEFD
:101B10000F900FBE0F901F9018951F920F920FB647
:101B20000F9211240BB60F922F933F934F935F9315
:101B30006F937F938F939F93AF93BF93EF93FF9395
:101B4000E0E0F0E01995FF91EF91BF91AF919F9187
:101B50008F917F916F915F914F913F912F910F9056
:101B60000BBE0F900FBE0F901F9018951F920F92F3
:101B70000FB60F9211240BB60F922F933F934F93F2
:101B80005F936F937F938F939F93AF93BF93EF93E5
:101B9000FF93E0E0F0E01995FF91EF91BF91AF91D5
:101BA0009F918F917F916F915F914F913F912F9175
:101BB0000F900BBE0F900FBE0F901F9018951F92A5
:101BC0000F920FB60F9211240BB60F922F933F93E3
:101BD0004F935F936F937F938F939F93AF93BF9335
:101BE000EF93FF93E0E0F0E01995FF91EF91BF9143
:101BF000AF919F918F917F916F915F914F913F91A5
:101C00002F910F900BBE0F900FBE0F901F90189545
:101C10001F920F920FB60F9211240BB60F922F93B3
:101C20003F934F935F936F937F938F939F93AF9364
:101C3000BF93EF93FF93E0E0F0E01995FF91EF91F0
:101C4000BF91AF919F918F917F916F915F914F91D4
:101C50003F912F910F900BBE0F900FBE0F901F90D2
:101C600018951F920F920FB60F9211240BB60F9278
:101C70002F933F934F935F936F937F938F939F9394
:101C8000AF93BF93EF93FF93E0E0F0E01995FF91DE
:101C9000EF91BF91AF919F918F917F916F915F91E4
:101CA0004F913F912F910F900BBE0F900FBE0F9051
:101CB0001F9018951F920F920FB60F9211240BB61A
:101CC0000F922F933F934F935F936F937F938F93D5
:101CD0009F93AF93BF93EF93FF93E0E0F0E01995EC
:101CE000FF91EF91BF91AF919F918F917F916F91F4
:101CF0005F914F913F912F910F900BBE0F900FBEB0
:101D00000F901F90189588EE93E00E941E0221E02C
:101D1000892B09F420E0822F0895CF92DF92EF9271
:101D2000FF920F931F93CF93DF936C017A018B0186
:101D3000C0E0D0E0CE15DF0589F0D8016D918D01AE
:101D4000D601ED91FC910190F081E02DC60119952D
:101D5000892B11F47E0102C02196ECCFC701DF91DF
:101D6000CF911F910F91FF90EF90DF90CF9008954A
:101D7000EF92FF920F931F93CF93DF9340917605DD
:101D80005091770560917805709179054F5F5F4FAD
:101D90006F4F7F4F4093760550937705609378059A
:101DA00070937905843209F4A6C2E09170058532FA
:101DB00034F48A3071F08D3009F0ABC20AC08A3237
:101DC00041F08C3209F0A5C290915D05982790935F
:101DD0005D05082FEF3008F074C1F0E0E15AFA4FCA
:101DE000108280915E05882309F46DC120915F0502
:101DF0003FEB320F822F022E000C990B363010F47D
:101E0000C79707C02156263018F48755910901C09D
:101E1000C097282F2295207F309160054FEB430F0C
:101E2000832F032E000C990B463010F4C79707C080
:101E30003156363018F48755910901C0C097820F8A
:101E400090915D0589132AC1809182059091830547
:101E5000A0918405B09185050196A11DB11D8093C7
:101E6000820590938305A0938405B09385058091A6
:101E70007105882399F080917A0590917B05A09156
:101E80007C05B0917D050196A11DB11D80937A0559
:101E900090937B05A0937C05B0937D0510916E0512
:101EA000112309F46BC0113009F0D2C080910105F3
:101EB00090910205A0910305B09104058093FD0463
:101EC0009093FE04A093FF04B09300050E942106A6
:101ED00060930505709306058093070590930805A8
:101EE0001093FC041093FB0480910F059091100552
:101EF000A0911105B091120580930B0590930C05EC
:101F0000A0930D05B0930E050E9421066093130562
:101F100070931405809315059093160510930A0588
:101F20001093090580917105882309F491C087E019
:101F3000E9EEF4E0ABEDB4E001900D928A95E1F7A3
:101F400087E0E0EFF4E0A2EEB4E001900D928A9514
:101F5000E1F70E9421066093F7047093F8048093E0
:101F6000F9049093FA041093DA041093D90487E1EA
:101F700095E00E94770685E295E068C080910F05A4
:101F800090911005A0911105B091120580930B0559
:101F900090930C05A0930D05B0930E050E942106A9
:101FA000609313057093140580931505909316059F
:101FB00011E010930A05109309058091710588239B
:101FC00021F187E0E9EEF4E0ABEDB4E001900D9291
:101FD0008A95E1F787E0E0EFF4E0A2EEB4E001904B
:101FE0000D928A95E1F70E9421066093F7047093A1
:101FF000F8048093F9049093FA041093DA04109390
:10200000D90483E395E00E94770680914B05909177
:102010004C05A0914D05B0914E05809347059093D6
:102020004805A0934905B0934A050E942106609394
:10203000430570934405809345059093460581E0E0
:1020400080934205809341058FE495E00E947706D6
:10205000C0917405D091750511E0209709F43CC139
:10206000E0917405F091750566A177A18EA19FA1FD
:102070000E94531F892B09F02FC1BE01CE0140964B
:102080000E945C1F0E94210668A379A38AA39BA3D8
:102090001DA31CA30AA4DBA5C02DDFCF80917E0564
:1020A00090917F05A0918005B09181050196A11DB9
:1020B000B11D80937E0590937F05A0938005B0931A
:1020C000810590E00AC180916F05811142C06BECDF
:1020D00072E08FE595E00E94531F892B41F061ED7E
:1020E00072E08FE595E00E94531F892B11F481E087
:1020F00014C067ED72E08FE595E00E94531F892BB5
:1021000041F06DED72E08FE595E00E94531F892B41
:1021100019F410926E0503C082E080936E058091E1
:102120007205909173059093750580937405C09125
:102130007405D0917505209721F2EEA0FFA06FE500
:1021400075E0C7010E94531F97FFF9C08AA59BA5A0
:10215000EACFE0916E05E23009F493C090915F05FB
:10216000992309F48EC020E2E29FF0011124E82BAC
:102170003197E932F10508F084C08827EA56FF4F0D
:102180008F4F0C942D1F8FE595E00E9415076093EB
:102190000F0570931005809311059093120571C07F
:1021A00081E0913409F043C043C069EE74E009C096
:1021B00081E0933509F080E08093EF0462C060EF26
:1021C00074E08FE595E00E948D065BC081E0973555
:1021D00009F080E08093F60454C08FE595E00E94FA
:1021E0001507609321057093220580932305909332
:1021F000240547C08FE595E00E94150760932F05E1
:102200007093300580933105909332053AC08FE585
:1022100095E00E943B1B609301057093020580933B
:102220000305909304052DC081E091330CF480E008
:102230008093710526C08FE595E00E943B1B60935B
:102240004B0570934C0580934D0590934E0519C036
:102250008FE595E00E9415076093590570935A0524
:1022600080935B0590935C050CC08FE595E00E9420
:10227000150760933D0570933E0580933F0590934D
:102280004005C0917405D0917505209709F419CFC8
:10229000E0917405F091750566A177A18EA19FA1CB
:1022A0000E94531F892B09F00CCF28A539A58091D6
:1022B0006F0590E0821793070CF403CF28173907B6
:1022C00039F440E150E06FE575E0CE010E94631FF4
:1022D0000AA4DBA5C02DD9CF91E080916F058F5F57
:1022E00080936F051092700581E00A3209F080E05A
:1022F00080935E0532C01092700510926F051092A7
:102300005D0582E080936E0510925E051092710566
:1023100014C0EE3040F491E09E0F90937005F0E011
:10232000E15AFA4F808390915E05911106C0209189
:102330005D05822780935D0510C090E00EC06FE5BB
:1023400075E0C7010E94531F181619060CF0B9CE8C
:102350001092750510927405B4CE892FDF91CF913C
:102360001F910F91FF90EF900895E091E803F09195
:10237000E9030190F081E02D682F88EE93E0199435
:10238000E8EEF3E0A089B18982E08C93A485B5855D
:102390001C92A685B78580E18C93108EA489B5899F
:1023A00086E08C93A289B3898C9180618C93A289F9
:1023B000B3898C9188608C93A289B3898C91806851
:1023C0008C930288F389E02D80818F7D808308952E
:1023D000CF92DF92EF92FF921092DA046091DB04C9
:1023E0007091DC0480E090E00E947A1B6B017C011C
:1023F0006091DD047091DE048091DF049091E0042F
:102400000E947A1B28E23BE64EE65EE40E94A31D92
:102410009B01AC01C701B6010E94DA1C2091E104C6
:1024200021119058FF90EF90DF90CF900895CF92B8
:10243000DF92EF92FF921092DA046091E2047091C1
:10244000E30480E090E00E947A1B6B017C016091C4
:10245000E4047091E5048091E6049091E7040E9401
:102460007A1B28E23BE64EE65EE40E94A31D9B0138
:10247000AC01C701B6010E94DA1C2091E8042111C9
:102480009058FF90EF90DF90CF9008950F931F9397
:10249000CF93DF938C01C0E0D0E0F801EC0FFD1F7B
:1024A0006491662371F0E091E803F091E9030190F3
:1024B000F081E02D88EE93E01995892B11F021969B
:1024C000ECCFCE01DF91CF911F910F91089561154F
:1024D000710579F0FB0101900020E9F73197AF0118
:1024E000461B570BDC01ED91FC910280F381E02D3E
:1024F000199480E090E008954F925F926F927F92DE
:10250000EF92FF920F931F93CF93DF93CDB7DEB778
:10251000A1970FB6F894DEBF0FBECDBF7C01FA01C4
:10252000CB0119A2223008F42AE08E010F5D1F4F63
:10253000422E512C612C712CBF01A30192010E94EB
:102540009E1CF901CA01015011096A3014F4605D42
:1025500001C0695CD8016C93232B242B252B61F7D8
:10256000B801C701B4DFA1960FB6F894DEBF0FBE65
:10257000CDBFDF91CF911F910F91FF90EF907F9092
:102580006F905F904F9008954F925F926F927F92FD
:102590008F929F92AF92BF92CF92DF92EF92FF9273
:1025A0006B017C01B42E9B01AC010E94F01E8823BC
:1025B00019F063EE72E027C026013701E89477F83E
:1025C0002FEF3FEF4FE75FE7C301B2010E94F01E1C
:1025D00081110DC02FEF3FEF4FE75FE7C301B2015D
:1025E0000E94761B18161CF467EE72E00CC02FEFE9
:1025F0003FEF4FE75FE4C701B6010E949A1E18162D
:102600008CF46BEE72E088EE93E0FF90EF90DF9039
:10261000CF90BF90AF909F908F907F906F905F9082
:102620004F9055CF2FEF3FEF4FE75FECC701B6015B
:102630000E94761B87FDE5CF20E030E0A901C701AD
:10264000B6010E94761B87FF08C08DE28EDE4C012A
:10265000F7FAF094F7F8F09402C0812C912CA12C99
:1026600060E070E080E09FE3AB1441F020E030E0F8
:1026700040E251E40E94A31DA394F6CF9B01AC015C
:10268000C701B6010E94DA1C2B013C010E94101EFA
:102690006B017C010E947A1B9B01AC01C301B2015A
:1026A0000E94D91C2B013C012AE0B701A60188EE4B
:1026B00093E022DF7C01E80CF91CBB2021F08EE2C4
:1026C00054DEE80EF91EDB2CDD2021F120E030E0A5
:1026D00040E251E4C301B2010E94DB1B2B013C012B
:1026E0000E94101E4B01A12CB12C2AE0B501A401BF
:1026F00088EE93E001DFE80EF91EC501B401FAD7B8
:102700009B01AC01C301B2010E94D91C2B013C0109
:10271000DA94DACFC701FF90EF90DF90CF90BF90AF
:10272000AF909F908F907F906F905F904F900895A3
:102730000F931F93CF93DF9300D01F92CDB7DEB7D7
:10274000AC01990F660B770B77FF19C08DE24983B7
:102750005A836B837C8309DE8C0149815A816B81AA
:102760007C8170956095509541955F4F6F4F7F4F7D
:102770002AE088EE93E0C0DE080F191F05C02AE0AA
:1027800088EE93E0B9DE8C016DE972E088EE93E0AB
:102790009EDE800F911F0F900F900F900F90DF9192
:1027A000CF911F910F9108950F931F93CF93DF93B4
:1027B00000D01F92CDB7DEB7AC01990F660B770B37
:1027C00077FF21C08DE249835A836B837C83CDDD03
:1027D0008C0149815A816B817C81709560955095FF
:1027E00041955F4F6F4F7F4F2AE088EE93E084DE84
:1027F000800F911F0F900F900F900F90DF91CF914E
:102800001F910F9108952AE088EE93E00F900F90AA
:102810000F900F90DF91CF911F910F916DCE0F937D
:102820001F93CF93DF93EC0152DE8C016DE972E0D0
:10283000CE014DDE800F911FDF91CF911F910F913F
:102840000895CF92DF92EF92FF920F931F93E82F9C
:10285000F92F05C0015011092109310961F1908159
:1028600096239417B9F305C00150110921093109C4
:1028700011F1908196239413F7CFC12CD12CE12C28
:10288000F12C0AC08FEFC81AD80AE80AF80A0C150A
:102890001D052E053F0579F080818623841791F36D
:1028A0006C2D7D2D8E2D9F2D1F910F91FF90EF9000
:1028B000DF90CF90089560E070E080E090E01F919D
:1028C0000F91FF90EF90DF90CF9008958CE592E00C
:1028D0009093CE048093CD04809173008B7F80937E
:1028E0007300809173008F7D809373008091AF039C
:1028F0008093B0038091AE038111FCCF809173006F
:102900008D7F809373000895CF93DF93CDB7DEB7AB
:10291000A8970FB6F894DEBF0FBECDBF789484B5EC
:10292000826084BD84B5816084BD85B5826085BDCB
:1029300085B5816085BD80916E00816080936E0059
:10294000109281008091810082608093810080914B
:1029500081008160809381008091800081608093FC
:1029600080008091B10084608093B1008091B000BC
:1029700081608093B000809191008260809391008B
:10298000809191008160809391008091900081609E
:10299000809390008091A10082608093A10080913B
:1029A000A10081608093A1008091A000816080934C
:1029B000A0008091210182608093210180912101FA
:1029C00081608093210180912001816080932001AA
:1029D00080917A00846080937A0080917A0082608E
:1029E00080937A0080917A00816080937A00809150
:1029F0007A00806880937A001092C1001092C90416
:102A00001092CA041092CB041092CC041092870446
:102A1000109288041092890410928A040E94210660
:102A20006B017C014B015C0128EB820E2BE0921EB6
:102A3000A11CB11C0E9421066C157D058E059F0509
:102A400028F086169706A806B906A0F788EE93E048
:102A50009093C8048093C70493DC0E94210660937E
:102A60008704709388048093890490938A046EE8A5
:102A700072E08091C7049091C80429DD0E9421066C
:102A80006B017C014B015C013AE0830E911CA11C9F
:102A9000B11C0E9421066C157D058E059F0528F04E
:102AA00086169706A806B906A0F781E080939B04D6
:102AB00060EA72E088EE93E0B2DE60E082E40E94B9
:102AC0001E0560E083E40E941E0561E082E20E9430
:102AD0001E0560E083E20E941E0560E089E30E941B
:102AE0001E0561E085E00E941E0562E08AE20E9408
:102AF0001E0562E08BE20E941E0561E08AE20E94F0
:102B00001E0561E08BE20E941E0561E089E00E94E3
:102B10001E0561E088E00E941E050E942106609368
:102B2000CE037093CF038093D0039093D10328DC1E
:102B3000109273001092200181E88093210183E8B4
:102B400096E09093B5038093B4038BE39CE390935A
:102B5000B3038093B20362E080E30E941E0561E04C
:102B60008EE20E94A10461E08EE20E941E05109296
:102B7000B1031092B0031092AF031092AE03109203
:102B8000AD031092AC0380E28ABB80937300AE0168
:102B90004F5F5F4F5A01CE0143969AA389A39CE8E9
:102BA000292E312C88248394912C0E942106672B96
:102BB000682B692B41F40E94210662307105810562
:102BC000910508F40BC10E9421066093E403709301
:102BD000E5038093E6039093E703C090E003D09071
:102BE000E103E090E203F090E3036C157D058E05B0
:102BF0009F0540F46093E0037093E1038093E20348
:102C00009093E303C090E003D090E103E090E203EF
:102C1000F090E3039B01AC012C193D094E095F09BB
:102C200069017A013AEFC316D104E104F10408F412
:102C3000D5C06093E0037093E1038093E203909327
:102C4000E30384EF91E0A0E0B0E0809393049093DD
:102C50009404A0939504B093960410929704109254
:102C600098041092990410929A0480918B04909188
:102C70008C04A0918D04B0918E0480938F04909366
:102C80009004A0939104B09392040E942106609353
:102C90008B0470938C0480938D0490938E040E9417
:102CA000210660938704709388048093890490932D
:102CB0008A040E9421066B017C0169EA72E080911E
:102CC000C7049091C80403DC2AE041E050E060E0D2
:102CD00070E08091C7049091C8040EDC60EB72E054
:102CE0008091C7049091C804F2DB2AE0B701A601E5
:102CF0008091C7049091C804FFDB62EB72E0809181
:102D0000C7049091C804E3DB80918B0490918C04FC
:102D1000A0918D04B0918E04B701A601481B590BF8
:102D20006A0B7B0B2AE08091C7049091C804E4DB16
:102D300062EB72E08091C7049091C804C8DB4091B7
:102D40008B0450918C0460918D0470918E0480915D
:102D50008F0490919004A0919104B0919204481B2B
:102D6000590B6A0B7B0B2AE08091C7049091C80431
:102D7000C3DB64EB72E08091C7049091C804A7DBC9
:102D80000E942106AB01BC012AE08091C70490910A
:102D9000C804B2DB66EB72E08091C7049091C8046E
:102DA0003EDD0E9421062B013C016B017C0195E078
:102DB000C90ED11CE11CF11C0E9421066415750589
:102DC0008605970508F014C30E94210660938B04C2
:102DD00070938C0480938D0490938E0464E170E072
:102DE00085E00E945A058DEC94E00E94EB021816D3
:102DF00019063CF48DEC94E00E940D030E94B80E7D
:102E0000F2CF8EE693E042DB5091410510924205ED
:102E100090914705209148053091490540914A0518
:102E200082E1E6E2F2E0D50101900D928A95E1F7A8
:102E30008EE0A9A1BAA11D928A95E9F7552389F0E0
:102E40004F933F932F939F93ADEBB2E0BF93AF931C
:102E5000BF92AF920E94721F0FB6F894DEBF0FBEF2
:102E6000CDBF1B82F50101900020E9F73197CF011A
:102E70008A199B0902971CF430E23193F8CF40E2A3
:102E80004A83B50188EE93E0CADC60E070E0CB01D4
:102E90000E947C098AE693E0F9DA4091D90448A7B8
:102EA00097DA06E010E02BE030E048A50E94060922
:102EB00086E693E0EBDA4091D90448A7B8DA2CE033
:102EC00030E048A50E94060982E693E0DFDAF09040
:102ED00017051092180560911D0570911E058091CF
:102EE0001F059091200508D42EEB3CE443E95FE3F5
:102EF00062D420E030E048EC52E425D602E010E055
:102F000026E030E04F2D0E94060960E082E20E9438
:102F1000A10483E090E00197F1F761E082E20E9472
:102F2000A10483E290E00197F1F760E082E20E9461
:102F3000A104E7ECF2E06491E1E8F2E08491E82F8B
:102F4000F0E0EE0FFF1FEC5BFD4F8591949100E4E4
:102F500012E42FE030E0462F74DC61157105810525
:102F6000910549F0DC01CB010196A11DB11DBC0109
:102F7000CD019F7003C060E070E0CB01BBD320E0C7
:102F800030E048EE51E4DFD520E030E040E05FE3A0
:102F900012D46B017C0120E030E046E154E4A6D37A
:102FA00018160CF46EC020E030E048E951E4C70187
:102FB000B601C0D687FD65C020E030E040E752E4AE
:102FC000C701B60193D318160CF456C00E9421060F
:102FD0002B013C0120E030E040EA52E4C701B60199
:102FE00085D318160CF444C020E030E040EA51E4E8
:102FF000C701B6019FD687FD3BC061E08AE20E940F
:10300000A1042091B6033091B7034091B8035091C9
:10301000B903421A530A640A750AF0E34F16F5E73A
:103020005F066104710440F12DA33EA348A75FA38E
:103030000E9421062DA13EA148A55FA1DC01CB0184
:10304000821B930BA40BB50B84369105A105B1052A
:1030500020F060E08AE20E94A1040E9421066093B1
:10306000B6037093B7038093B8039093B90304C079
:1030700060E08AE20E94A104C701B601CCD57CA31E
:103080006BA32BA13CA13093CD032093CC030E94D2
:103090002106C090B603D090B703E090B803F0903B
:1030A000B903DC01CB018C199D09AE09BF0980333E
:1030B0009547A105B10550F061E08AE20E94A104A4
:1030C00064E670E080E090E00E947C090E942106A6
:1030D0006093B6037093B7038093B8039093B903DA
:1030E00060E08AE20E94A1041092260560912B05FF
:1030F00070912C0580912D0590912E05FDD220E038
:1031000030E048EC52E41FD586D57093CB03609332
:10311000CA030E94F40961EC72E088EE93E0D7D90B
:103120008091CA039091CB033FDB0E942E0A8091CD
:10313000CC039091CD039093BF038093BE0386345C
:103140009105E4F08091020290910302833691058B
:1031500019F48FEF90E002C08AEA90E090930502A4
:103160008093040260910402709105027093D3036E
:103170006093D20389E00E945A055EC09C012952E7
:1031800031092D313105F8F480910202909103024A
:103190008336910539F482ED90E090930502809397
:1031A000040208C08AEA90E090930502809304022A
:1031B0000E94A80960910402709105027093D303E4
:1031C0006093D20383C09C012D5031092B3131050E
:1031D000D8F530920502209204023092D303209257
:1031E000D2036CE870E089E00E945A0580910202E7
:1031F000909103028230910511F18336910551F0CF
:10320000019709F066C082E090E0909303028093FA
:1032100002025FC08091BA039091BB031816190691
:103220002CF0909203028092020206C082E090E0AD
:1032300090930302809302020E94A8094AC09092D0
:1032400003028092020245C00C970CF042C06FE767
:1032500070E089E00E945A056FE770E088E00E9404
:103260005A0543E650E050930302409302026FEF89
:1032700070E089E00E945A058091BE039091BF03DF
:10328000889714F50E94460A1092260560912B0536
:1032900070912C0580912D0590912E052DD220E066
:1032A00030E048EC52E44FD4B6D47093CB03609333
:1032B000CA030E94F4090E942E0A64E670E080E0CE
:1032C00090E00E947C09D8CF6FE770E089E00E940F
:1032D0005A058091D80381110DC00E942106609388
:1032E000D4037093D5038093D6039093D70381E0E2
:1032F0008093D8030E942106C090D403D090D503B8
:10330000E090D603F090D7036C157D058E059F05E0
:1033100040F46093D4037093D5038093D6039093C5
:10332000D7038BE593E0B2D86091C6037091C703D1
:103330008091C8039091C90342E026D983E593E0C8
:10334000A5D86091C2037091C3038091C40390918A
:10335000C50342E019D96DE972E088EE93E0B7D871
:103360008CE493E093D80E94B50A1EDA8DE393E0D3
:103370008DD88091C0039091C103DAD98CE293E09B
:1033800085D88091CA039091CB03D2D98FE193E085
:103390007DD886E193E07AD88091BE039091BF03F7
:1033A00003DA8EE093E072D88091040290910502D6
:1033B000BFD982E093E06AD880E090E0F5D985EF4C
:1033C00092E064D88091CA039091CB03EDD98AEE44
:1033D00092E05CD88091BA039091BB03A9D96CE3C9
:1033E00070E080E090E00E947C090E94B202DDCB98
:1033F000C616D706E806F90608F0DECCE5CCE8EEFE
:10340000F3E01382128288EE93E0A0E0B0E08483C0
:103410009583A683B7832AE432E03183208325ECA9
:1034200030E03587248724EC30E03787268720EC8E
:1034300030E0318B208B21EC30E0338B228B22EC7F
:1034400030E0358B248B26EC30E0378B268B118EC9
:10345000128E138E148EE5E8F4E016821782108621
:103460001186128613861486158616861786108A8C
:10347000118A128A138A148A158AE6E8F5E041E077
:1034800051E164EF71E440835183628373834EE4BE
:103490005AEA63EC72EC44835583668377834FE882
:1034A00050E164EF71E440875187628773874DE391
:1034B0005AEA63EC72EC44875587668777874DEC50
:1034C0005FE064EF71E4408B518B628B738B4BE256
:1034D0005AEA63EC72EC448B558B668B778B40E435
:1034E00051E164EF71E4408F518F628F738F40E63A
:1034F0005AEA63EC72EC448F558F668F778F42E700
:1035000051E164EF71E440A351A362A373A343E5C7
:103510005AEA63EC72EC44A355A366A377A3E9EDE2
:10352000F4E01082118213821282148215821682B4
:1035300017821086128611861386148615861686C3
:103540001786118A108A128A138A148A158A168A93
:10355000108E178A118E128E138E148E158E12A253
:1035600013A214A215A216A217A210AA11AA12AA97
:1035700013AA14AA15AA10921705109218051092F2
:103580001D0510921E0510921F0510922005109225
:1035900025051092260510922B0510922C051092ED
:1035A0002D0510922E0510923305109234051092BD
:1035B000390510923A0510923B0510923C05109285
:1035C000410510924205109247051092480510924D
:1035D000490510924A0510924F051092500510921D
:1035E00055051092560510925705109258051092E5
:1035F0005D0510925E0522E020936E0510926F0526
:103600001092700510927105109273051092720558
:103610001092750510927405109276051092770538
:10362000109278051092790510927A0510927B0518
:1036300010927C0510927D0510927E0510927F05F8
:1036400010928005109281051092820510928305D8
:10365000109284051092850510925F05EDECF4E060
:103660001382128284839583A683B7838CE592E0CC
:103670009183808308951F93FC0199278827BC01BB
:10368000E89411911032E9F3193010F01E30C8F3AC
:103690001B3249F01D3241F4689405C012D0610F0D
:1036A000711D811D911D119110531A30B8F33EF414
:1036B00090958095709561957F4F8F4F9F4F1F918B
:1036C0000895592F482F372F262F660F771F881FF1
:1036D000991F660F771F881F991F620F731F841F22
:1036E000951F660F771F881F991F089540D008F413
:1036F00081E00895E89409C097FB3EF49095809589
:10370000709561957F4F8F4F9F4F9923A9F0F92FA7
:1037100096E9BB279395F695879577956795B79525
:10372000F111F8CFFAF4BB0F11F460FF1BC06F5F0B
:103730007F4F8F4F9F4F16C0882311F096E911C01D
:10374000772321F09EE8872F762F05C0662371F03E
:1037500096E8862F70E060E02AF09A95660F771F52
:10376000881FDAF7880F9695879597F90895990F2E
:103770000008550FAA0BE0E8FEEF16161706E8073B
:10378000F907C0F012161306E407F50798F0621B5C
:10379000730B840B950B39F40A2661F0232B242B31
:1037A000252B21F408950A2609F4A140A6958FEF50
:1037B000811D811D08950BD078C069D028F06ED08E
:1037C00018F0952309F05AC05FC01124A2C07ED022
:1037D000A0F3959FD1F3950F50E0551F629FF00124
:1037E000729FBB27F00DB11D639FAA27F00DB11D7D
:1037F000AA1F649F6627B00DA11D661F829F222706
:10380000B00DA11D621F739FB00DA11D621F839F8C
:10381000A00D611D221F749F3327A00D611D231F62
:10382000849F600D211D822F762F6A2F11249F57B0
:1038300050408AF0E1F088234AF0EE0FFF1FBB1FD3
:10384000661F771F881F91505040A9F79E3F510572
:1038500070F014C05EC05F3FECF3983EDCF38695D9
:1038600077956795B795F795E7959F5FC1F7FE2B1D
:10387000880F911D9695879597F9089597F99F67F9
:1038800080E870E060E008959FEF80EC08950024E8
:103890000A941616170618060906089500240A94B5
:1038A00012161306140605060895092E0394000C3B
:1038B00011F4882352F0BB0F40F4BF2B11F460FFCA
:1038C00004C06F5F7F4F8F4F9F4F089557FD9058F3
:1038D000440F551F59F05F3F71F04795880F97FBD4
:1038E000991F61F09F3F79F087950895121613068E
:1038F0001406551FF2CF4695F1DF08C016161706BD
:103900001806991FF1CF86957105610508940895F1
:10391000E894BB2766277727CB0197F90895DB0149
:103920008F939F932DD0BF91AF91A29F800D911D3A
:10393000A39F900DB29F900D11240895A1E21A2E1D
:10394000AA1BBB1BFD010DC0AA1FBB1FEE1FFF1F43
:10395000A217B307E407F50720F0A21BB30BE40B93
:10396000F50B661F771F881F991F1A9469F76095DA
:103970007095809590959B01AC01BD01CF01089594
:1039800009D0A59F900DB49F900DA49F800D911D0F
:1039900011240895A29FB001B39FC001A39F700D91
:1039A000811D1124911DB29F700D811D1124911D47
:1039B00008955058BB27AA270ED077CF68DF30F084
:1039C0006DDF20F031F49F3F11F41EF45DCF0EF453
:1039D000E095E7FB53CFE92F79DF80F3BA17620751
:1039E00073078407950718F071F49EF591CF0EF4D4
:1039F000E0950B2EBA2FA02D0B01B90190010C01FF
:103A0000CA01A0011124FF27591B99F0593F50F416
:103A1000503E68F11A16F040A22F232F342F44276E
:103A2000585FF3CF469537952795A795F040539566
:103A3000C9F77EF41F16BA0B620B730B840BBAF036
:103A40009150A1F0FF0FBB1F661F771F881FC2F7A1
:103A50000EC0BA0F621F731F841F48F487957795B5
:103A60006795B795F7959E3F08F0B3CF9395880F6C
:103A700008F09927EE0F97958795089508DF58F07D
:103A800080E891E009F49EEF09DF28F040E851E07A
:103A900059F45EEF09C0F8CE3BCFE92FE07816DF8E
:103AA00068F3092E052AC1F3261737074807590777
:103AB00038F00E2E07F8E02569F0E025E0640AC032
:103AC000EF6307F8009407FADB01B9019D01DC01FF
:103AD000CA01AD01EF9346D0E8DE0AD05F915523CD
:103AE00031F02BED3FE049E450FD49EC63CF089500
:103AF000DF93DD27B92FBF7740E85FE3161617067F
:103B000048075B0710F4D92F19D19F938F937F93A8
:103B10006F9363D1EEE7F1E0AFD0C7DE2F913F9115
:103B20004F915F9154DEDD2349F09058A2EA2AEDCF
:103B30003FE049EC5FE3D0785D274DDFDF91B5CE04
:103B4000C1D0E395E6C00CD0B0CEA8DE40F09FDE39
:103B500030F021F45F3F19F091CE5111DACE94CEBE
:103B6000B5DE98F39923C9F35523B1F3951B550B93
:103B7000BB27AA2762177307840738F09F5F5F4F40
:103B8000220F331F441FAA1FA9F333D00E2E3AF081
:103B9000E0E830D091505040E695001CCAF729D09B
:103BA000FE2F27D0660F771F881FBB1F26173707EA
:103BB0004807AB07B0E809F0BB0B802DBF01FF271A
:103BC00093585F4F2AF09E3F510568F057CEA1CE23
:103BD0005F3FECF3983EDCF3869577956795B79554
:103BE000F7959F5FC9F7880F911D9695879597F96F
:103BF0000895E1E0660F771F881FBB1F62177307E8
:103C00008407BA0720F0621B730B840BBA0BEE1FFC
:103C100088F7E095089504D06894B1117ACE08959C
:103C20005DDE88F09F5790F0B92F9927B751A0F02B
:103C3000D1F0660F771F881F991F1AF0BA95C9F740
:103C400012C0B13081F064DEB1E0089561CE672F1B
:103C5000782F8827B85F39F0B93FCCF386957795F0
:103C60006795B395D9F73EF49095809570956195D9
:103C70007F4F8F4F9F4F0895DF93CF931F930F93E5
:103C8000FF92EF92DF927B018C01689405C0DA2EDF
:103C9000EF019DDDFE01E894A591259135914591B7
:103CA0005591AEF3EF0197DEFE019701A801DA947A
:103CB00079F7DF90EF90FF900F911F91CF91DF91F7
:103CC0000895E2CD0BDEE8F3E894E0E0BB279F57D0
:103CD000F0F02AED3FE049EC06C0EE0FBB0F661F87
:103CE000771F881F28F0B23A62077307840728F00D
:103CF000B25A620B730B840BE3959A9572F7803876
:103D000030F49A95BB0F661F771F881FD2F7904833
:103D10006DC0EF93E0FF06C0A2EA2AED3FE049EC58
:103D20005FEB59DEC2DD0F90039401FC9058EBEA83
:103D3000F1E06FC01CDD08F48FEF08959B01AC012A
:103D400060E070E080E89FE3FECE9F93BBDF0F90C2
:103D500007FCEE5FDECF11F40EF496CD45C0BEDD5C
:103D6000D0F39923D9F3CEF39F57550B87FF4AD051
:103D70000024A0E640EA900180585695979528F4D3
:103D8000805C660F771F881F20F0261737074807CB
:103D900030F4621B730B840B202931294A2BA69522
:103DA00017940794202531254A2758F7660F771F67
:103DB000881F20F026173707480730F4620B730B73
:103DC000840B200D311D411DA09581F7B901842F71
:103DD0009158880F9695879508959B01AC01EBCC7F
:103DE000C6DC880B990B08959F3F31F0915020F469
:103DF000879577956795B795880F911D96958795C7
:103E000097F9089591505040660F771F881FD2F799
:103E100008959F938F937F936F93FF93EF939B01ED
:103E2000AC01C9DCEF91FF9127DF2F913F914F91BA
:103E30005F91C1CC97FB072E16F4009406D077FD56
:103E400008D019D007FC05D03EF4909581959F4F7E
:103E50000895709561957F4F0895EE0FFF1F881F9D
:103E60008BBF0790F691E02D1994B7FF89CD88DDBF
:103E7000821B930B0895AA1BBB1B51E107C0AA1F0D
:103E8000BB1FA617B70710F0A61BB70B881F991FFB
:103E90005A95A9F780959095BC01CD01089581E0D0
:103EA00090E0F894E8C2FB01DC018D91019080194B
:103EB0000110D9F3990B0895FB01DC0101900D92DB
:103EC0000020E1F70895FB01DC014150504048F02B
:103ED00001900D920020C9F701C01D924150504041
:103EE000E0F708950F931F93CF93DF93CDB7DEB71D
:103EF0002E970FB6F894DEBF0FBECDBF0E891F8977
:103F000086E08C831A8309838FEF9FE79E838D83DE
:103F1000AE01465E5F4F688D798DCE01019611D05E
:103F20002F813885F801E20FF31F10822E960FB60D
:103F3000F894DEBF0FBECDBFDF91CF911F910F91DF
:103F400008952F923F924F925F926F927F928F923D
:103F50009F92AF92BF92CF92DF92EF92FF920F9318
:103F60001F93CF93DF93CDB7DEB72C970FB6F8949E
:103F7000DEBF0FBECDBF7C016B018A01FC01178241
:103F80001682838181FFB0C1CE0101964C01F701F9
:103F90009381F60193FD859193FF81916F018823B1
:103FA00009F49EC1853239F493FD859193FF819187
:103FB0006F01853221F4B70190E0C7D1E8CF512CD1
:103FC000312C20E02032A0F48B3269F030F48032C2
:103FD00059F0833269F420612CC08D3239F080337E
:103FE00039F4216026C02260246023C0286021C0EB
:103FF00027FD27C030ED380F3A3078F426FF06C091
:10400000FAE05F9E300D1124532E13C08AE0389ED3
:10401000300D1124332E20620CC08E3221F426FD87
:104020005FC1206406C08C3611F4206802C0883657
:1040300041F4F60193FD859193FF81916F01811108
:10404000C1CF982F9F7D9554933028F40C5F1F4F5C
:10405000FFE3F9830DC0833631F0833771F0833588
:1040600009F057C021C0F801808189830E5F1F4F7E
:1040700044244394512C540114C03801F2E06F0ED3
:10408000711CF801A080B18026FF03C0652D70E08F
:1040900002C06FEF7FEFC5012C874CD12C0183014B
:1040A0002C852F77222E16C03801F2E06F0E711C7E
:1040B000F801A080B18026FF03C0652D70E002C02A
:1040C0006FEF7FEFC5012C872AD12C012C8520684A
:1040D000222E830123FC19C0832D90E04816590637
:1040E000A0F4B70180E290E030D13A94F5CFF50129
:1040F00027FC859127FE81915F01B70190E025D1D2
:1041000031103A94F1E04F1A51084114510479F7F3
:10411000DEC0843611F0893631F5F80127FF07C07B
:1041200060817181828193810C5F1F4F08C0608123
:104130007181072E000C880B990B0E5F1F4F2F7695
:10414000722E97FF09C090958095709561957F4F6D
:104150008F4F9F4F2068722E2AE030E0A4012DD1AE
:10416000A82EA81843C0853729F42F7EB22E2AE046
:1041700030E025C0F22FF97FBF2E8F36C1F018F442
:10418000883579F0ADC0803719F0883721F0A8C0A4
:104190002F2F2061B22EB4FE0DC08B2D8460B82E5F
:1041A00009C024FF0AC09F2F9660B92E06C028E0E0
:1041B00030E005C020E130E002C020E132E0F8014B
:1041C000B7FE07C060817181828193810C5F1F4FB0
:1041D00006C06081718180E090E00E5F1F4FA401F6
:1041E000ECD0A82EA818FB2DFF777F2E76FE0BC0F3
:1041F000372D3E7FA51450F474FE0AC072FC08C02F
:10420000372D3E7E05C0BA2C372D03C0BA2C01C015
:10421000B52C34FF0DC0FE01EA0DF11D8081803305
:1042200011F4397E09C032FF06C0B394B39404C0C0
:10423000832F867809F0B39433FD12C030FF06C097
:104240005A2CB31418F4530C5B18B32CB31460F449
:10425000B70180E290E03C8778D0B3943C85F6CFFC
:10426000B31410F43B1801C0312C34FF11C0B70156
:1042700080E390E03C8769D03C8532FF16C031FD79
:1042800003C088E790E002C088E590E0B7010CC069
:10429000832F867851F031FF02C08BE201C080E2AB
:1042A00037FD8DE2B70190E050D0A51430F4B7018E
:1042B00080E390E04AD05A94F8CFAA94F401EA0D32
:1042C000F11D8081B70190E040D0A110F6CF3320DE
:1042D00009F45DCEB70180E290E037D03A94F7CF91
:1042E000F7018681978102C08FEF9FEF2C960FB662
:1042F000F894DEBF0FBECDBFDF91CF911F910F911C
:10430000FF90EF90DF90CF90BF90AF909F908F90F5
:104310007F906F905F904F903F902F900895FC0199
:104320000590615070400110D8F7809590958E0FE0
:104330009F1F0895FC016150704001900110D8F753
:10434000809590958E0F9F1F08950F931F93CF9385
:10435000DF93FB01238121FD03C08FEF9FEF28C076
:1043600022FF16C0468157812481358142175307A9
:1043700044F4A081B1819D012F5F3F4F31832083A1
:104380008C93268137812F5F3F4F3783268310C060
:10439000EB01092F182F0084F185E02D1995892B49
:1043A000E1F68E819F8101969F838E83812F902FCE
:1043B000DF91CF911F910F910895FA01AA2728301C
:1043C00051F1203181F1E8946F936E7F6E5F7F4FE2
:1043D0008F4F9F4FAF4FB1E03ED0B4E03CD0670F5E
:1043E000781F891F9A1FA11D680F791F8A1F911DB1
:1043F000A11D6A0F711D811D911DA11D20D009F401
:1044000068943F912AE0269F11243019305D319342
:10441000DEF6CF010895462F4770405D4193B3E02B
:104420000FD0C9F7F6CF462F4F70405D4A3318F0D2
:10443000495D31FD4052419302D0A9F7EACFB4E083
:10444000A6959795879577956795BA95C9F700973B
:104450006105710508959B01AC010A2E06945795DC
:10446000479537952795BA95C9F7620F731F841F33
:10447000951FA01D089511E0CAEBD1E000E005C032
:10448000802FFE01EADC2196011DCB3BD10780E0A5
:084490000807B1F7F894FFCF13
:10449800FFFF6300D2006C026E02730272027402A4
:1044A800760277027A026A027E027F0282028C0218
:1044B80086028B028A022A2A2A2A2A2A2A2A2A2AAF
:1044C8002A2A2A2A2A2A2A000000000000000000BE
:1044D800000000000000000000004B028D0EED01FE
:1044E80091021E02FC0110020000000028038D0E3C
:1044F80062032303EB020D03FA0253004E004E4EF3
:104508004500454E45004553450053534500535318
:10451800570057535700574E57004E4E5700564DA9
:104528004450565F317C315F564D4450560D0A0059
:104538005374617274696E6700564D4450455F004C
:104548003A323A007C005F564D44504500256C6471
:1045580000436F6D706173733A20004750524D43AA
:1045680000474E524D4300475047474100474E478A
:104578004741006E616E00696E66006F76660000E6
:020000023000CC
:10E000000D9489F10D94B2F10D94B2F10D94B2F129
:10E010000D94B2F10D94B2F10D94B2F10D94B2F1F0
:10E020000D94B2F10D94B2F10D94B2F10D94B2F1E0
:10E030000D94B2F10D94B2F10D94B2F10D94B2F1D0
:10E040000D94B2F10D94B2F10D94B2F10D94B2F1C0
:10E050000D94B2F10D94B2F10D94B2F10D94B2F1B0
:10E060000D94B2F10D94B2F10D94B2F10D94B2F1A0
:10E070000D94B2F10D94B2F10D94B2F10D94B2F190
:10E080000D94B2F10D94B2F10D94B2F10D94B2F180
:10E090000D94B2F10D94B2F10D94B2F10D94B2F170
:10E0A0000D94B2F10D94B2F10D94B2F10D94B2F160
:10E0B0000D94B2F10D94B2F10D94B2F10D94B2F150
:10E0C0000D94B2F10D94B2F10D94B2F10D94B2F140
:10E0D0000D94B2F10D94B2F10D94B2F10D94B2F130
:10E0E0000D94B2F141546D656761323536300041AF
:10E0F000726475696E6F206578706C6F72657220DE
:10E1000073746B3530305632206279204D4C530099
:10E11000426F6F746C6F616465723E004875683F52
:10E1200000436F6D70696C6564206F6E203D200048
:10E130004350552054797065202020203D20005FF9
:10E140005F4156525F415243485F5F3D2000415658
:10E1500052204C696243205665723D20004743437C
:10E160002056657273696F6E203D20004350552024
:10E1700049442020202020203D20004C6F7720663D
:10E18000757365202020203D20004869676820665F
:10E190007573652020203D200045787420667573D6
:10E1A00065202020203D20004C6F636B2066757336
:10E1B000652020203D20004D617220203720323024
:10E1C000313300312E362E3800342E332E350056A2
:10E1D00023202020414444522020206F7020636F70
:10E1E00064652020202020696E73747275637469E1
:10E1F0006F6E2061646472202020496E74657272B3
:10E20000757074006E6F20766563746F7200726A49
:10E210006D702020006A6D70200057686174207056
:10E220006F72743A00506F7274206E6F7420737541
:10E2300070706F72746564004D7573742062652030
:10E2400061206C6574746572002000577269747483
:10E25000696E672045450052656164696E672045B7
:10E26000450045452065727220636E743D00504F35
:10E27000525400303D5A65726F2061646472003FF1
:10E280003D43505520737461747300403D454550C3
:10E29000524F4D207465737400423D426C696E6B41
:10E2A000204C454400453D44756D70204545505215
:10E2B0004F4D00463D44756D7020464C415348001B
:10E2C000483D48656C70004C3D4C69737420492F83
:10E2D0004F20506F72747300513D51756974005234
:10E2E0003D44756D702052414D00563D73686F7707
:10E2F00020696E7465727275707420566563746FF0
:10E30000727300593D506F727420626C696E6B00BD
:10E310002A0011241FBECFEFD1E2DEBFCDBF01E046
:10E320000CBF12E0A0E0B2E0EEE1FDEF03E00BBFB6
:10E3300002C007900D92A030B107D9F712E0A0E01B
:10E34000B2E001C01D92AE30B107E1F70F9460F367
:10E350000D948DFE01E20EBF0FEF0DBF11241FBE05
:10E360000D9460F30D9400F020E030E040ED57E0B4
:10E3700005C0FA013197F1F72F5F3F4F2817390792
:10E38000C0F308959C01260F311DC901A0E0B0E043
:10E390002F5F3F4FABBFFC018791882361F08093D3
:10E3A000C6008091C00086FFFCCF8091C0008064D1
:10E3B0008093C000EACF08958DE08093C6008091DD
:10E3C000C00086FFFCCF8091C00080648093C000B5
:10E3D0008AE08093C6008091C00086FFFCCF8091C8
:10E3E000C00080648093C00008950F94C2F10F9420
:10E3F000DCF10895FC019081992359F09093C600B7
:10E400008091C00086FFFCCF8091C0008064809323
:10E41000C0003196992379F70895282F982F929567
:10E420009F70892F805D8A3308F0895F8093C600D2
:10E430008091C00086FFFCCF8091C00080648093F3
:10E44000C000822F8F70982F905D9A3308F0995FEB
:10E450009093C6008091C00086FFFCCF8091C000E1
:10E4600080648093C00008959C01FB01853691056E
:10E470001CF46330710594F0C90164E670E00F94F8
:10E480002EFE605D7F4F6093C6008091C00086FFC6
:10E49000FCCF8091C00080648093C0002B30310598
:10E4A00014F43297B4F0C90164E670E00F942EFEC4
:10E4B0006AE070E00F942EFE605D7F4F6093C600AF
:10E4C0008091C00086FFFCCF8091C0008064809363
:10E4D000C000C9016AE070E00F942EFEC0968093E0
:10E4E000C6008091C00086FFFCCF8091C000806490
:10E4F0008093C00008951F93182F8EE692EE60E07F
:10E500000F94C2F11093C6008091C00086FFFCCF2B
:10E510008091C00080648093C0000F94DCF11F9153
:10E5200008952F923F924F925F926F927F928F92B7
:10E530009F92AF92BF92CF92DF92EF92FF920F9392
:10E540001F93DF93CF93CDB7DEB762970FB6F894E2
:10E55000DEBF0FBECDBF382E622ECA01DB015C01CB
:10E560006D01772420E2222E2E010894411C511CBB
:10E570008BC081E0A81680E0B80681E0C80680E084
:10E58000D80628F0C601AA27BB270F940DF2BB2797
:10E59000AD2D9C2D8B2D0F940DF28A2D0F940DF225
:10E5A0002092C6008091C00086FFFCCF8091C00001
:10E5B00080648093C0009DE29093C6008091C0006B
:10E5C00086FFFCCF8091C00080648093C0002092C1
:10E5D000C6008091C00086FFFCCF8091C00080649F
:10E5E0008093C00019828601750188249924A1E0D6
:10E5F0003A1651F03A1620F0B2E03B1661F409C029
:10E600000BBFF701779007C0C7010F9477FE782EF4
:10E6100002C0F7017080872D0F940DF22092C60082
:10E620008091C00086FFFCCF8091C0008064809301
:10E63000C000872D8052F401EF70F0708F3520F408
:10E64000E40DF51D708204C0E40DF51D8EE280839B
:10E650000894E11CF11C011D111D0894811C911CE2
:10E6600090E18916910409F0C2CF80E190E0A0E02A
:10E67000B0E0A80EB91ECA1EDB1E198AC2010F9493
:10E68000FAF10F94DCF16A94662009F072CF629679
:10E690000FB6F894DEBF0FBECDBFCF91DF911F91B3
:10E6A0000F91FF90EF90DF90CF90BF90AF909F9031
:10E6B0008F907F906F905F904F903F902F90089534
:10E6C0002F923F924F925F926F927F928F929F9282
:10E6D000AF92BF92CF92DF92EF92FF920F931F9370
:10E6E000DF93CF93CDB7DEB7CD53D1400FB6F894BB
:10E6F000DEBF0FBECDBF01E20EBF0FEF0DBF94B75F
:10E70000F894A89514BE80916000886180936000A1
:10E7100010926000789493FF05C0E0910002F091A0
:10E7200001021995279A2F9A8091C00082608093E8
:10E73000C00080E18093C40088E18093C1000000A4
:10E74000EE24FF24870144E0A42EB12CCC24DD2448
:10E7500024C0C5010197F1F70894E11CF11C011DCB
:10E76000111D21E2E2162EE4F20620E0020720E06D
:10E77000120718F031E0C32ED12CC801B70127ECE5
:10E780003BE140E050E00F9441FE611571058105C9
:10E79000910519F485B1805885B98091C00087FD35
:10E7A00003C0C114D104A9F2A6014F5F5F4FC25E3E
:10E7B000DE4F59834883CE51D140C25EDE4F8881FF
:10E7C0009981CE51D140019711F00D9410FEC05D9A
:10E7D000DE4F19821882C053D14060E0C15DDE4F28
:10E7E0001882CF52D14088249924C35DDE4F19820C
:10E7F0001882CD52D140C05EDE4F188219821A8233
:10E800001B82C052D140CE5CDE4F188219821A8220
:10E810001B82C253D140EE24FF2487010BBFF701B6
:10E8200007911691C45CDE4F19830883CC53D14005
:10E830000D940BFEC25EDE4F28813981CE51D1404E
:10E840002130310509F52091C600C25EDE4F1982E4
:10E850001882CE51D14022C02F5F3F4F4F4F5F4FA4
:10E86000213082E138078AE7480780E0580780F0C6
:10E87000C45CDE4FE881F981CC53D140EF5FFF4F9C
:10E8800019F0EE27FF27099420E030E040E050E047
:10E890008091C00087FFE0CF2091C600C35DDE4FAE
:10E8A00048815981CD52D1404F5F5F4FC35DDE4FEC
:10E8B00059834883CD52D140213209F063C64A3092
:10E8C000510508F05FC60894811C911C53E0851621
:10E8D000910409F059C600E010E018C081E280936D
:10E8E000C6008091C00086FFFCCF8091C00080648C
:10E8F0008093C0002F5F3F4F2931310579F70F9486
:10E90000DCF10F5F1F4F0530110519F020E030E0FA
:10E91000E5CF10920A0210920B0210920C02109294
:10E920000D02109206021092070210920802109235
:10E930000902109202021092030210920402109235
:10E9400005028FEE90EE60E00F94F5F180E191EE1C
:10E9500060E00F94C2F18091C00087FFFCCF9091DE
:10E96000C600903608F09F759032B8F09093C600BC
:10E970008091C00086FFFCCF8091C00080648093AE
:10E98000C000A0E2A093C6008091C00086FFFCCF2B
:10E990008091C00080648093C000983409F4D7C18E
:10E9A0009934B8F4923409F459C1933458F490333B
:10E9B00019F1903308F4E3C59F33A1F1903409F0C5
:10E9C000DEC5BDC0953409F470C1963409F0D7C5D1
:10E9D00098C1923509F42BC2933538F49C3409F46C
:10E9E000F5C1913509F0CBC518C2963509F445C279
:10E9F000993509F0C4C567C483E792EE62E00F94CD
:10EA0000F5F110920602109207021092080210927D
:10EA1000090210920A0210920B0210920C0210923C
:10EA20000D0213C18FE792EE62E00F94F5F18FEEC5
:10EA300090EE60E00F94F5F181E291EE60E00F94CA
:10EA4000C2F187EB91EE60E00F94F5F180E391EE77
:10EA500060E00F94C2F184EE90EE60E00F94F5F167
:10EA60008FE391EE60E00F94C2F186E090E061E008
:10EA700070E00F9434F20F94DCF18DE591EE60E0DC
:10EA80000F94C2F189EC91EE60E00F94F5F18EE401
:10EA900091EE60E00F94C2F183EC91EE60E00F9490
:10EAA000F5F18CE691EE60E00F94C2F18EE10F94E7
:10EAB0000DF288E90F940DF281E00F940DF20F949E
:10EAC000DCF18BE791EE60E00F94C2F119E0E0E039
:10EAD000F0E010935700E4918E2F0F940DF20F94F5
:10EAE000DCF18AE891EE60E00F94C2F1E3E0F0E03F
:10EAF00010935700E4918E2F0F940DF20F94DCF1D8
:10EB000089E991EE60E00F94C2F1E2E0F0E0109349
:10EB10005700E4918E2F0F940DF20F94DCF188EAE8
:10EB200091EE60E00F94C2F1E1E0F0E01093570045
:10EB30001491812F0F940DF20F94DCF107CF8BE825
:10EB400092EE62E00F94F5F18BE492EE60E00F94A8
:10EB5000F5F10F94DCF100E010E019C0C8016F2D51
:10EB60000F947FFEFF2031F489E492EE60E00F9471
:10EB7000C2F10BC0F092C6008091C00086FFFCCFAE
:10EB80008091C00080648093C0000F5F1F4FC80158
:10EB900081519F41A0E0B0E0ABBFFC01F790BAE229
:10EBA000FB1621F0E2E000301E07C1F60F94DCF105
:10EBB0000F94DCF187E592EE60E00F94F5F10F948D
:10EBC000DCF1CC24DD2400E010E01EC0C8010F946D
:10EBD00077FEF82E882331F489E492EE60E00F94FA
:10EBE000C2F10BC08093C6008091C00086FFFCCFAD
:10EBF0008091C00080648093C000FE1419F00894D6
:10EC0000C11CD11C0F5F1F4FC80181519F41A0E063
:10EC1000B0E0ABBFFC01E790FAE2EF1621F022E092
:10EC20000030120799F60F94DCF10F94DCF182E6C4
:10EC300092EE60E00F94C2F1C60161E070E00F94C3
:10EC400034F20F94DCF10F94DCF110920202109276
:10EC50000302109204021092050278CE89E992EE26
:10EC600062E00F94F5F1279A2F9A16C02F9880E052
:10EC700090E0E0EDF7E03197F1F7019684369105E9
:10EC8000C1F72F9A80E090E0E0EDF7E03197F1F7DF
:10EC9000019684369105C1F78091C00087FFE6CFC9
:10ECA0008091C00087FFFCCF64C485EA92EE62E0E9
:10ECB0000F94F5F140910202509103026091040219
:10ECC0007091050281E020E10F9491F2809102029F
:10ECD00090910302A0910402B091050280509F4FD1
:10ECE000AF4FBF4F8093020290930302A0930402A0
:10ECF000B093050280509041A040B04008F426CE69
:10ED0000A4CF83EB92EE62E00F94F5F140910602FE
:10ED100050910702609108027091090280E020E1A1
:10ED20000F9491F28091060290910702A09108023F
:10ED3000B091090280509F4FAF4FBF4F80930602A2
:10ED400090930702A0930802B0930902FFCD80ECD4
:10ED500092EE62E00F94F5F183E792EE60E00F949B
:10ED6000F5F18FE792EE60E00F94F5F18BE892EE0B
:10ED700060E00F94F5F189E992EE60E00F94F5F10F
:10ED800085EA92EE60E00F94F5F183EB92EE60E09D
:10ED90000F94F5F180EC92EE60E00F94F5F187ECC2
:10EDA00092EE60E00F94F5F188ED92EE60E00F9442
:10EDB000F5F18FED92EE60E00F94F5F18AEE92EEB0
:10EDC00060E00F94F5F183E093EEBDCD87EC92EE19
:10EDD00062E00F94F5F181E40F947BF282E40F94EA
:10EDE0007BF283E40F947BF284E40F947BF285E45E
:10EDF0000F947BF286E40F947BF287E40F947BF20E
:10EE000088E40F947BF28AE40F947BF28BE40F94F6
:10EE10007BF28CE40F947BF299CD88ED92EE62E068
:10EE20000F94F5F1772473948824992409C48FED05
:10EE300092EE62E00F94F5F140910A0250910B02BC
:10EE400060910C0270910D0282E020E10F9491F22A
:10EE500080910A0290910B02A0910C02B0910D02D8
:10EE600080509F4FAF4FBF4F80930A0290930B0289
:10EE7000A0930C02B0930D0269CD8AEE92EE62E08F
:10EE80000F94F5F184EE90EE60E00F94F5F18FECC5
:10EE900091EE60E00F94F5F1662477244301CC5D98
:10EEA000DE4F19821882C452D140D401C301B695F5
:10EEB000A79597958795CA5DDE4F88839983AA8326
:10EEC000BB83C652D140CC5DDE4FA881B981C4520C
:10EED000D1401196CC5DDE4FB983A883C452D14096
:10EEE000CD0162E070E00F9434F2B0E2B093C6005E
:10EEF0008091C00086FFFCCF8091C0008064809329
:10EF0000C000EDE2E093C6008091C00086FFFCCF18
:10EF10008091C00080648093C000F0E2F093C6004E
:10EF20008091C00086FFFCCF8091C00080648093F8
:10EF3000C000CA5DDE4FE880F9800A811B81C6529D
:10EF4000D140BB27A12F902F8F2D0F940DF2CA5DBA
:10EF5000DE4F8881C652D1400F940DF2B0E2FB2EF5
:10EF6000F092C6008091C00086FFFCCF8091C00067
:10EF700080648093C0000DE30093C6008091C000C0
:10EF800086FFFCCF8091C00080648093C00010E2B7
:10EF90001093C6008091C00086FFFCCF8091C00016
:10EFA00080648093C0008BBEF3012791C65DDE4F65
:10EFB0002883CA52D140A22EBB24CC24DD2408943D
:10EFC000611C711C811C911C8BBEF3018791282E42
:10EFD0003324442455240894611C711C811C911C09
:10EFE0008BBEF3013791C55DDE4F3883CB52D140E4
:10EFF0000894611C711C811C911C8BBEF30147910C
:10F00000C45DDE4F4883CC52D140ADEFEA2EAFEF66
:10F01000FA2EAFEF0A2FAFEF1A2F6E0C7F1C801E57
:10F02000911E142D032DF22CEE24EA0CFB1C0C1D5A
:10F030001D1D0F940DF220E22093C6008091C000A8
:10F0400086FFFCCF8091C00080648093C000C65DC5
:10F05000DE4F8881CA52D1400F940DF230E23093D6
:10F06000C6008091C00086FFFCCF8091C000806404
:10F070008093C000C45DDE4F8881CC52D1400F9494
:10F080000DF240E24093C6008091C00086FFFCCFA5
:10F090008091C00080648093C000C55DDE4F888190
:10F0A000CB52D1400F940DF250E25093C6008091A4
:10F0B000C00086FFFCCF8091C00080648093C000B8
:10F0C0008FEFE8168FEFF80680E0080780E018075A
:10F0D00031F484E092EE60E00F94C2F1DFC0D80119
:10F0E000C7018070907CA070B0708050904CA040A0
:10F0F000B040D1F52FEF3FE340E050E0E222F322B1
:10F1000004231523CA5DDE4FA880B980CA80DB8046
:10F11000C652D140AE0CBF1CC01ED11EAA0CBB1CD7
:10F12000CC1CDD1C8EE092EE60E00F94C2F1BB2798
:10F13000A12F902F8F2D0F940DF28E2D0F940DF285
:10F1400030E23093C6008091C00086FFFCCF8091F2
:10F15000C00080648093C0004EE34093C60080915D
:10F16000C00086FFFCCF87C08EE09EEFA0E0B0E03D
:10F17000E822F9220A231B239CE0E91694E9F90608
:10F1800090E0090790E0190709F088C0C45DDE4FE0
:10F19000A881CC52D140EA2EFF2400E010E0102FCD
:10F1A0000F2DFE2CEE24C55DDE4FB881CB52D14031
:10F1B000EB0EF11C011D111DD601C501817090706F
:10F1C000A070B070DC0199278827E80EF91E0A1F8D
:10F1D0001B1F20EF30E040E050E0A222B322C42207
:10F1E000D52241E1AA0CBB1CCC1CDD1C4A95D1F7F1
:10F1F000EA0CFB1C0C1D1D1D81E090E0A0E0B0E0BE
:10F20000282239224A225B2235E1220C331C441C7D
:10F21000551C3A95D1F7E20CF31C041D151D57013E
:10F220006801AA0CBB1CCC1CDD1C85E192EE60E0E1
:10F230000F94C2F1C801AA27BB270F940DF2BB2778
:10F24000A12F902F8F2D0F940DF28E2D0F940DF274
:10F2500090E29093C6008091C00086FFFCCF809121
:10F26000C00080648093C000AEE3A093C60080918C
:10F27000C00086FFFCCF8091C00080648093C000F6
:10F28000C601AA27BB270F940DF2BB27AD2D9C2DDD
:10F290008B2D0F940DF28A2D0F940DF20F94DCF14B
:10F2A000CC5DDE4FE881F981C452D140F99709F471
:10F2B0004DCBF4E0EF2EF12C012D112D6E0C7F1CA7
:10F2C000801E911EF2CD83E093EE62E00F94F5F183
:10F2D0008AE192EE60E00F94C2F18091C00087FF56
:10F2E000FCCF1091C6001F751093C6008091C0001E
:10F2F00086FFFCCF8091C00080648093C0000F9493
:10F30000DCF1812F81548A3108F036C1163409F4BA
:10F3100095C0173490F4133409F44EC0143430F40B
:10F320001134F1F0123409F01DC130C0143409F465
:10F3300059C0153409F016C16BC01A3409F4C4C0A1
:10F340001B3438F4173409F48FC0183409F00AC19B
:10F35000A1C01B3409F4D2C01C3409F003C1E8C0B9
:10F360008FEF81B90DC082B1809582B980E090E0C5
:10F37000E0EDF7E03197F1F70196883C9105C1F790
:10F380008091C00087FFEFCF12B8EFC08FEF84B934
:10F390000DC085B1809585B980E090E0E0EDF7E0A3
:10F3A0003197F1F70196883C9105C1F78091C00033
:10F3B00087FFEFCF15B8D9C08FEF87B90DC088B1DF
:10F3C000809588B980E090E0E0EDF7E03197F1F7C3
:10F3D0000196883C9105C1F78091C00087FFEFCF6F
:10F3E00018B8C3C08FEF8AB90DC08BB180958BB9A7
:10F3F00080E090E0E0EDF7E03197F1F70196883C8E
:10F400009105C1F78091C00087FFEFCF1BB8ADC059
:10F410008FEF8DB90DC08EB180958EB980E090E0F0
:10F42000E0EDF7E03197F1F70196883C9105C1F7DF
:10F430008091C00087FFEFCF1EB897C08FEF80BBD1
:10F440000DC081B3809581BB80E090E0E0EDF7E0F6
:10F450003197F1F70196883C9105C1F78091C00082
:10F4600087FFEFCF11BA81C08FEF83BB0DC084B38C
:10F47000809584BB80E090E0E0EDF7E03197F1F714
:10F480000196883C9105C1F78091C00087FFEFCFBE
:10F4900014BA6BC08FEF809301010FC080910201FD
:10F4A00080958093020180E090E0E0EDF7E03197F5
:10F4B000F1F70196883C9105C1F78091C00087FF64
:10F4C000EDCF1092020151C08FEF809304010FC065
:10F4D0008091050180958093050180E090E0E0ED4A
:10F4E000F7E03197F1F70196883C9105C1F78091DB
:10F4F000C00087FFEDCF1092050137C08FEF8093DA
:10F5000007010FC08091080180958093080180E079
:10F5100090E0E0EDF7E03197F1F70196883C910536
:10F52000C1F78091C00087FFEDCF109208011DC088
:10F530008FEF80930A010FC080910B01809580931B
:10F540000B0180E090E0E0EDF7E03197F1F70196F4
